:0400000081EF00F09C
:1000080040004000400040004000400040004000E8
:1000180040004000400040004000400040004000D8
:1000280040004000400040004000400040004000C8
:1000380040004000400040004000400040004000B8
:10004800204D40004000400040004000400040007B
:100058004000400040004000400040004000400098
:100068004000400040004000400040004000400088
:100078004000400040004000400040004000400078
:100088004000400040004000400040004000400068
:100098004000400040004000400040004000400058
:1000A8004000400040004000400040004000400048
:1000B8004000400040004000400040004000400038
:1000C8004000400040004000400040004000400028
:1000D8004000400040004000400040004000400018
:1000E8004000400040004000400040004000400008
:0E00F8004000400040004000FF0083EFA7F0F2
:10F9F200003132334134353642373839432A3023E5
:10FA0200441F1F1F1F1F1F1F1F050607080506078C
:10FA1200080506070810204080010204080C0603AE
:10FA220009332E56657220686F726172696F732096
:10FA3200202020202000342E5265672E2070617312
:10FA420074696C6C617320202020002A2E53616C33
:10FA520069722064656C206D656E7520202020001F
:10FA62004E7565766120686F7261203A2020787841
:10FA72003A787820002120484F5241204445204CBA
:10FA82004120444F5349532021002D2045444954DD
:10FA9200415220484F524152494F205F202D002DA4
:10FAA2002D204E5545564F20484F524152494F2026
:10FAB2002D2D2D002D2D2D204D495320484F5241E3
:10FAC20052494F53202D2D2D002D2D2D205B235DCE
:10FAD20020564552204D454E55202D2D2D002D2DC1
:10FAE2002D2D2D2D2D2D2D2D2D2D2D2D2D2D2D2D44
:10FAF2002D2D002D2D20524543415247412045587E
:10FB020049544F53412D2D002D2D20484F52415223
:10FB1200494F20504153542E205F2D2D002D204D52
:10FB22004F4449464943415220484F524152494F5E
:10FB32002D00507265706172616E646F207369731B
:10FB420074656D612E2E005245472E2043414E545E
:10FB52002E2050415354494C4C41530053656C651F
:10FB62006363696F6E652028312D34293A5B205D0D
:10FB7200004550524F4D206E6F20436F6E6669678D
:10FB82007572616461004D616C20466F726D6174C3
:10FB92006F20646520466563686100416C6572741C
:10FBA2006120656E20656C2053697374656D610018
:10FBB20053697374656D6120656E206F7065726143
:10FBC20063696F6E004C6C616D6172204D616E7481
:10FBD200656E696D69656E746F004E6F2073652086
:10FBE2007075646F2064697370656E736172005B17
:10FBF200235D477561726461723A205B2A5D5361CD
:10FC02006C697200312E4167722E486F7220203269
:10FC12002E4D6F642E486F720053696E20486F72CA
:10FC22002E205265676973747261646F73002020BD
:10FC320020202020202020202020202020202020C2
:10FC42002020002053544F434B2050415354494CE1
:10FC52004C45524F532000506173743A5B312D343E
:10FC62005D20566F6C7665723A2A00477561726440
:10FC720061723A5B235D2053616C69723A2A0041DA
:10FC82002073756D617220202020202020203A20D0
:10FC9200303000496E677265736520686F7261204B
:10FCA20028323448293A00417369676E61722070C4
:10FCB200617374696C6C65726F3A00484F524152BD
:10FCC200494F2041435455414C495A41444F004504
:10FCD2006C6567697220486F726172696F3A205B66
:10FCE200205D00486F72612061637475616C3A2017
:10FCF200205F5F3A5F5F004D656D2E204465736340
:10FD02006F6E6669677572616461005B235D52653F
:10FD12007365746561722053697374656D61005017
:10FD2200617374696C6C65726F202575205661630E
:10FD3200696F005B235D47756172646172205B2AA3
:10FD42005D53616C697200456E74726567616E64C1
:10FD52006F3A20506173742E2000486F726172698D
:10FD62006F732061637469766F733A20005265671E
:10FD72006973747261722050617374696C6C610092
:10FD82005B235D53656C65632E205B2A5D53616C5A
:10FD92006972002D2D205245434152474120504166
:10FDA20053542E200053746F636B2061637475612A
:10FDB2006C2020203A200042544E2E20436F6E6663
:10FDC2006967202D204F4646004E756D65726F2083
:10FDD20028312D34293A205B205D00506173742E46
:10FDE2002041637475616C3A2020505F005265694E
:10FDF2006E69636961722053697374656D61004D48
:10FE02006F6469666963617220486F726172696FBB
:10FE1200004E7565766F20506173742E203A202053
:10FE220050780050617374696C6C617320646973FB
:10FE3200703A200042544E2E20436F6E666967204E
:10FE42002D204F4E00484F524152494F20475541B5
:10FE5200524441444F004932432073696E20636F1C
:10FE62006E6578696F6E005254432073696E206329
:10FE72006F6E6578696F6E0053697374656D61208A
:10FE8200636F72726563746F004E6F2068617920D0
:10FE920050617374696C6C61730050726570617249
:10FEA200616E646F204461746F730045787472618F
:10FEB20079656E646F204461746F7300546F74616E
:10FEC2006C2061637475616C3A205B004F706369EA
:10FED2006F6E20496E76616C696461004C6579656C
:10FEE2006E646F204D656D6F726961004167726566
:10FEF20067617220486F726172696F00436F6C6F45
:10FF020063617220656C205661736F004E6F2068CA
:10FF1200617920486F726172696F7300486F726114
:10FF220072696F73206C6C656E6F73004461746FDD
:10FF32007320436F72727570746F730020202020DB
:10FF4200205B2078783A7878205D00505F2061202D
:10FF52006C6173205F5F3A5F5F004F7063696F6E21
:10FF62002044657365616461005254432064657482
:10FF7200656E69646F0056657220486F72617269BE
:10FF82006F730050415354494C4C45524F20005D11
:10FF920020202020202050323A5B005D20202020AB
:10FFA200202050343A5B0053656C656363696F6E61
:10FFB2006172005B2A5D2053616C6972005B425D75
:10FFC20042616A6172005B415D5375626972002031
:10FFD20061206C617320004F7063696F6E004C4941
:10FFE20053544F00615155490050313A5B00503330
:0DFFF2003A5B0020500030620030780000C3
:020000040001F9
:10000000000E3D6E000E3E6E000E3F6E000E406E06
:100010000D6A010E0C6EF5ECA9F00009D8A413EFDF
:1000200080F015EF80F024EF80F054ECACF0030E7C
:10003000166E020EDBECA7F00E0E156EFF0E166E9E
:1000400085ECA2F0C6EF84F00D6A010E0C6EF5ECA3
:10005000A9F0526E54ECACF0000E166E010EDBEC03
:10006000A7F01F0E156EFB0E166E85ECA2F0000EAB
:10007000166E020EDBECA7F05C0E156EFD0E166E12
:1000800085ECA2F0020E2F6E525032ECAAF0000E58
:10009000166E030EDBECA7F0D10E156EFC0E166E7D
:1000A00085ECA2F0000E166E040EDBECA7F08C0EB1
:1000B000156EFD0E166E85ECA2F0536A6EEF80F0A1
:1000C000890E176E050E186E9DECA3F0536ED00EC0
:1000D0003A6ECA0EE82EFED73A2EFCD75350D8B44B
:1000E00074EF80F076EF80F060EF80F0B9EF80F091
:1000F000570E366E050E376E14EC9FF0536AD4EF30
:1001000080F0570E366E050E376E35ECABF0C6EF4D
:1001100084F0570E366E050E376E35ECABF053504B
:10012000D00F426E110E166E030EDBECA7F053508B
:1001300076ECABF0150E3B6E4B0E3A6EBE0EE82E13
:10014000FED73A2EFCD73B2EFAD700D04250525C55
:10015000D8A0ADEF80F0AFEF80F078EF80F04250A4
:10016000D8A4B5EF80F0B7EF80F0D4EF80F078EF4F
:1001700080F05350230AD8B478EF80F0090AD8B43D
:1001800081EF80F06B0AD8B478EF80F0030AD8B41E
:1001900078EF80F0010AD8B478EF80F0070AD8B47D
:1001A00078EF80F089EF80F05350D8B4DAEF80F028
:1001B000DCEF80F05DEF80F0000E166E040EDBECDD
:1001C000A7F0820E156EFD0E166E85ECA2F0536A36
:1001D000F8EF80F0890E176E050E186E9DECA3F0F7
:1001E000536ED00E3A6ECA0EE82EFED73A2EFCD7CA
:1001F0005350D8B4FEEF80F000EF81F0EAEF80F0CA
:100200001FEF81F0570E366E050E376E35ECABF0F2
:10021000150E3B6E4B0E3A6EBE0EE82EFED73A2EF2
:10022000FCD73B2EFAD700D02AEF81F0570E366E5E
:10023000050E376E14EC9FF0536A2AEF81F053508D
:10024000230AD8B402EF81F0090AD8B481EF80F014
:1002500016EF81F05350D8B430EF81F032EF81F0D7
:10026000E7EF80F054ECACF0000E166E010EDBEC04
:10027000A7F08C0E156EFA0E166E85ECA2F0110E1C
:10028000166E010EDBECA7F0010E2F6E425032EC21
:10029000AAF0000E166E020EDBECA7F0E50E156E4E
:1002A000FC0E166E85ECA2F00E0E166E020EDBEC46
:1002B000A7F04250050DF3C43AF5F4C43BF5040E23
:1002C0003A240C6E000E3B200D6EF5ECA9F0526E38
:1002D000020E2F6E525032ECAAF0110E166E020E64
:1002E000DBECA7F04250050DF3C43AF5F4C43BF53E
:1002F000050E3A240C6E000E3B200D6EF5ECA9F0B5
:10030000526E020E2F6E525032ECAAF0000E166E94
:10031000030EDBECA7F0620E156EFA0E166E85EC7E
:10032000A2F00C0E166E040EDBECA7F08C0E156E10
:10033000FD0E166E85ECA2F0416A030E4164A3EF38
:1003400081F0A5EF81F0A7EF81F0A2EF82F0536A70
:10035000B8EF81F0890E176E050E186E9DECA3F0B4
:10036000536ED00E3A6ECA0EE82EFED73A2EFCD748
:100370005350D8B4BEEF81F0C0EF81F0AAEF81F006
:100380007CEF82F0570E366E050E376E14EC9FF040
:10039000536A97EF82F0570E366E050E376E35ECC6
:1003A000ABF0020E4160D7EF81F0D9EF81F0E1EFC1
:1003B00081F041500E0F166E030EDBECA7F0E7EF55
:1003C00081F041500F0F166E030EDBECA7F0535077
:1003D00076ECABF0150E3B6E4B0E3A6EBE0EE82E71
:1003E000FED73A2EFCD73B2EFAD700D03D0E412443
:1003F000D96EDA6A050EDA225350D00FDF6E6DEF38
:1004000082F03D0E4124D96EDA6A050EDA22020E20
:10041000DF640DEF82F00FEF82F097EF82F0570E5E
:10042000366E050E376E14EC9FF00E0E166E030E30
:10043000DBECA7F0FC0E156EFF0E166E85ECA2F03D
:10044000C8EF81F0020E3D18D8A429EF82F02BEFFF
:1004500082F097EF82F03D0E4124D96EDA6A050EE4
:10046000DA22030EDF6437EF82F039EF82F097EF84
:1004700082F0570E366E050E376E14EC9FF00F0E9D
:10048000166E030EDBECA7F0FC0E156EFF0E166E5B
:1004900085ECA2F0C8EF81F03D0E4124D96EDA6AF6
:1004A000050EDA22050EDF6458EF82F05AEF82F073
:1004B00097EF82F0570E366E050E376E14EC9FF0F4
:1004C000110E166E030EDBECA7F0FC0E156EFF0E80
:1004D000166E85ECA2F0C8EF81F04150000AD8B446
:1004E00001EF82F0010AD8B422EF82F0030AD8B4F7
:1004F0004CEF82F097EF82F05350230AD8B4C2EF4A
:1005000081F0090AD8B481EF80F06B0AD8B4C2EF49
:1005100081F0030AD8B4C2EF81F0010AD8B4C2EF67
:1005200081F0070AD8B4C2EF81F0CBEF81F05350CD
:10053000D8B49DEF82F09FEF82F0A7EF81F0412ABF
:100540009DEF81F0000E166E040EDBECA7F0350E69
:10055000156EFD0E166E85ECA2F0536ABEEF82F0AA
:10056000890E176E050E186E9DECA3F0536ED00E1B
:100570003A6ECA0EE82EFED73A2EFCD75350D8B4A6
:10058000C4EF82F0C6EF82F0B0EF82F0E5EF82F0C8
:10059000570E366E050E376E35ECABF0150E3B6E12
:1005A0004B0E3A6EBE0EE82EFED73A2EFCD73B2EEF
:1005B000FAD700D0F0EF82F0570E366E050E376E88
:1005C00014EC9FF0536AF0EF82F05350230AD8B432
:1005D000C8EF82F0090AD8B481EF80F0DCEF82F036
:1005E0005350D8B4F6EF82F0F8EF82F0ADEF82F01E
:1005F00054ECACF0000E166E010EDBECA7F08C0E86
:10060000156EFA0E166E85ECA2F0110E166E010E26
:10061000DBECA7F0010E2F6E425032ECAAF0000E78
:10062000166E020EDBECA7F0DD0E156EFD0E166EDB
:1006300085ECA2F0100E166E020EDBECA7F0425015
:10064000050DF3C43AF5F4C43BF5080E3A240C6EDC
:10065000000E3B200D6EF5ECA9F0526E010E2F6ED0
:10066000525032ECAAF0000E166E030EDBECA7F02F
:10067000130E156EFE0E166E85ECA2F0000E166EB1
:10068000040EDBECA7F0590E156EFC0E166E85EC11
:10069000A2F0536A5AEF83F0890E176E050E186E9A
:1006A0009DECA3F0536ED00E3A6ECA0EE82EFED724
:1006B0003A2EFCD75350D8B460EF83F062EF83F04A
:1006C0004CEF83F086EF83F05350D00F3C6E100E4A
:1006D000166E030EDBECA7F0535076ECABF0150E64
:1006E0003B6E4B0E3A6EBE0EE82EFED73A2EFCD76E
:1006F0003B2EFAD700D09DEF83F0570E366E050ED5
:10070000376E14EC9FF0536A9DEF83F053502A0A22
:10071000D8B481EF80F01B0AD8B464EF83F0030AE9
:10072000D8B464EF83F0010AD8B464EF83F0070A09
:10073000D8B464EF83F07DEF83F05350D8B4A3EFC7
:1007400083F0A5EF83F049EF83F0000E166E040EE0
:10075000DBECA7F0350E156EFD0E166E85ECA2F0E3
:10076000536AC1EF83F0890E176E050E186E9DEC6B
:10077000A3F0536ED00E3A6ECA0EE82EFED73A2E74
:10078000FCD75350D8B4C7EF83F0C9EF83F0B3EF71
:1007900083F0E8EF83F0570E366E050E376E35ECBA
:1007A000ABF0150E3B6E4B0E3A6EBE0EE82EFED72A
:1007B0003A2EFCD73B2EFAD700D0F3EF83F0570E3A
:1007C000366E050E376E14EC9FF0536AF3EF83F02C
:1007D0005350230AD8B4CBEF83F0090AD8B481EF81
:1007E00080F0DFEF83F05350D8B4F9EF83F0FBEFE4
:1007F00083F0B0EF83F04250050DF3C43AF5F4C432
:100800003BF5040E3A240F6E000E3B20106E3D5057
:100810000A0DF3503E24116EBEECAAF04250050DB5
:10082000F3C43AF5F4C43BF5050E3A240F6E000EFE
:100830003B20106E3F500A0DF3504024116EBEEC69
:10084000AAF04250050DF3C43AF5F4C43BF5080E86
:100850003A240F6E000E3B20106E3CC511F5BEEC25
:10086000AAF04250050DF3C43AF5F4C43BF5060E68
:100870003A240F6E000E3B20106E000E116EBEEC7F
:10088000AAF054ECACF0000E166E010EDBECA7F0F3
:10089000E00E156EFA0E166E85ECA2F0010E166EC5
:1008A000020EDBECA7F0BD0E156EFC0E166E85EC8D
:1008B000A2F0020E166E030EDBECA7F04D0E156EC5
:1008C000FF0E166E85ECA2F0030E166E030EDBEC27
:1008D000A7F04250050DF3C43AF5F4C43BF5080EF9
:1008E0003A240C6E000E3B200D6EF5ECA9F0526E12
:1008F000010E2F6E525032ECAAF00B0E166E030E44
:10090000DBECA7F04250050DF3C43AF5F4C43BF517
:10091000040E3A240C6E000E3B200D6EF5ECA9F08F
:10092000526E020E2F6E525032ECAAF00E0E166E60
:10093000030EDBECA7F04250050DF3C43AF5F4C406
:100940003BF5050E3A240C6E000E3B200D6EF5ECC7
:10095000A9F0526E020E2F6E525032ECAAF0000E29
:10096000166E040EDBECA7F0E00E156EFA0E166E96
:1009700085ECA2F0520E3B6E2B0E3A6E000EE82E66
:10098000FED73A2EFCD73B2EFAD700D01200000E2D
:100990003C6E000E3D6E000E3E6E000E3F6E0D6A08
:1009A000010E0C6EF5ECA9F03A6E050E3A64DBEF21
:1009B00084F0DDEF84F0ECEF84F054ECACF0030E47
:1009C000166E020EDBECA7F01E0E156EFF0E166EF5
:1009D00085ECA2F090EF87F00D6A010E0C6EF5EC3D
:1009E000A9F0416E54ECACF0000E166E010EDBEC7B
:1009F000A7F0A10E156EFA0E166E85ECA2F0000E91
:100A0000166E020EDBECA7F0A90E156EFC0E166E2C
:100A100085ECA2F0000E166E030EDBECA7F0CB0EF9
:100A2000156EFD0E166E85ECA2F00B0E166E040E02
:100A3000DBECA7F0B50E156EFF0E166E85ECA2F07E
:100A4000536A31EF85F0890E176E050E186E9DEC16
:100A5000A3F0536ED00E3A6ECA0EE82EFED73A2E91
:100A6000FCD75350D8B437EF85F039EF85F023EF3A
:100A700085F06BEF85F0570E366E050E376E35EC50
:100A8000ABF05350D00F406E0F0E166E030EDBEC22
:100A9000A7F0535076ECABF0150E3B6E4B0E3A6E52
:100AA000BE0EE82EFED73A2EFCD73B2EFAD700D04A
:100AB00082EF85F0570E366E050E376E35ECABF0D3
:100AC00090EF87F0570E366E050E376E14EC9FF0E0
:100AD000536A82EF85F053502A0AD8B45AEF85F052
:100AE0001B0AD8B43BEF85F0030AD8B43BEF85F07E
:100AF000010AD8B43BEF85F0070AD8B43BEF85F084
:100B000062EF85F05350D8B488EF85F08AEF85F016
:100B100020EF85F054ECACF0000E166E010EDBEC0D
:100B2000A7F00A0E156EFB0E166E85ECA2F0110EE4
:100B3000166E010EDBECA7F0010E2F6E405032EC6A
:100B4000AAF0000E166E020EDBECA7F0950E156EE5
:100B5000FC0E166E85ECA2F0000E166E030EDBEC9A
:100B6000A7F03E0E156EFF0E166E85ECA2F00B0E72
:100B7000166E040EDBECA7F0B50E156EFF0E166EAA
:100B800085ECA2F0426A536AD4EF85F0890E176EA5
:100B9000050E186E9DECA3F0536ED00E3A6ECA0E81
:100BA000E82EFED73A2EFCD75350D8B4DAEF85F0B2
:100BB000DCEF85F0C6EF85F098EF86F0570E366EC5
:100BC000050E376E14EC9FF0536AB3EF86F0570EA4
:100BD000366E050E376E35ECABF0020E4260F3EF69
:100BE00085F0F5EF85F0FDEF85F04250070F166EAA
:100BF000030EDBECA7F003EF86F04250080F166EF1
:100C0000030EDBECA7F0535076ECABF0150E3B6E09
:100C10004B0E3A6EBE0EE82EFED73A2EFCD73B2E78
:100C2000FAD700D03C0E4224D96EDA6A050EDA22D9
:100C30005350D00FDF6E89EF86F03C0E4224D96E00
:100C4000DA6A050EDA22020EDF6429EF86F02BEF56
:100C500086F0B3EF86F0570E366E050E376E14EC45
:100C60009FF0070E166E030EDBECA7F0FC0E156E60
:100C7000FF0E166E85ECA2F0E4EF85F0020E3C1834
:100C8000D8A445EF86F047EF86F0B3EF86F03C0E30
:100C90004224D96EDA6A050EDA22030EDF6453EFBE
:100CA00086F055EF86F0B3EF86F0570E366E050EE0
:100CB000376E14EC9FF0080E166E030EDBECA7F0F7
:100CC000FC0E156EFF0E166E85ECA2F0E4EF85F0BB
:100CD0003C0E4224D96EDA6A050EDA22050EDF6474
:100CE00074EF86F076EF86F0B3EF86F0570E366E2F
:100CF000050E376E14EC9FF00A0E166E030EDBEC39
:100D0000A7F0FC0E156EFF0E166E85ECA2F0E4EF58
:100D100085F04250000AD8B41DEF86F0010AD8B41D
:100D20003EEF86F0030AD8B468EF86F0B3EF86F0A2
:100D30005350230AD8B4DEEF85F0090AD8B45AEF2D
:100D400085F06B0AD8B4DEEF85F0030AD8B4DEEF85
:100D500085F0010AD8B4DEEF85F0070AD8B4DEEFDB
:100D600085F0E7EF85F05350D8B4B9EF86F0BBEFCC
:100D700086F0C3EF85F0422A030E4264C2EF86F08C
:100D8000C4EF86F0C3EF85F0000E166E040EDBECA8
:100D9000A7F0F10E156EFB0E166E85ECA2F0536AED
:100DA000E0EF86F0890E176E050E186E9DECA3F02D
:100DB000536ED00E3A6ECA0EE82EFED73A2EFCD7EE
:100DC0005350D8B4E6EF86F0E8EF86F0D2EF86F025
:100DD000FBEF86F0570E366E050E376E35ECABF036
:100DE00006EF87F0570E366E050E376E14EC9FF047
:100DF000536A06EF87F05350230AD8B4EAEF86F01F
:100E0000090AD8B45AEF85F0F2EF86F05350D8B4FF
:100E10000CEF87F00EEF87F0CFEF86F03E500A0D13
:100E2000F3503F24136E40C514F541C515F53C50F1
:100E30000A0DF3503D24D0ECA4F054ECACF0000EBD
:100E4000166E010EDBECA7F0E00E156EFA0E166EB4
:100E500085ECA2F0020E166E020EDBECA7F0470E38
:100E6000156EFE0E166E85ECA2F0030E166E030EC6
:100E7000DBECA7F0F60E156EFF0E166E85ECA2F0F9
:100E8000010E2F6E405032ECAAF0D10E156EFF0EFF
:100E9000166E85ECA2F04150050DF3C43AF5F4C48A
:100EA0003BF5090E3A240C6E000E3B200D6EF5EC5E
:100EB000A9F0526E020E2F6E525032ECAAF0A70E1D
:100EC000156EFC0E166E85ECA2F04150050DF3C4B4
:100ED0003AF5F4C43BF50A0E3A240C6E000E3B20A2
:100EE0000D6EF5ECA9F0526E020E2F6E525032ECE0
:100EF000AAF0000E166E040EDBECA7F0E00E156EE5
:100F0000FA0E166E85ECA2F0520E3B6E2B0E3A6E68
:100F1000000EE82EFED73A2EFCD73B2EFAD700D093
:100F2000120054ECACF0060E166E010EDBECA7F0CE
:100F30007C0E156EFF0E166E85ECA2F0000E166E7E
:100F4000030EDBECA7F0DE0E156EFE0E166E85ECC2
:100F5000A2F00D6A010E0C6EF5ECA9F0526E000EB7
:100F6000246E040E10ECA9F0000E166E030EDBECDE
:100F7000A7F026ECACF0020E166E030EDBECA7F029
:100F8000AD0E156EFE0E166E85ECA2F0040E246EEC
:100F9000040E10ECA9F05228D8B4D1EF87F0D3EFAB
:100FA00087F0DBEF87F0060E5264D9EF87F0DBEFB6
:100FB00087F0FFEF87F0080E246E040E10ECA9F006
:100FC000000E166E030EDBECA7F026ECACF0020E62
:100FD000166E030EDBECA7F02E0E156EFF0E166ECE
:100FE00085ECA2F03D0E3B6EE10E3A6E400EE82E0F
:100FF000FED73A2EFCD73B2EFAD797EF89F0525006
:10100000D8A405EF88F007EF88F020EF88F0080EED
:10101000246E040E10ECA9F0000E166E030EDBEC2D
:10102000A7F026ECACF0000E166E030EDBECA7F07A
:101030001B0E156EFC0E166E85ECA2F0F2EF87F01B
:10104000000E166E030EDBECA7F026ECACF0020EE1
:10105000166E030EDBECA7F09C0E156EFE0E166EE0
:1010600085ECA2F0080E246E040E10ECA9F00C0E14
:10107000246E040E10ECA9F052C542F5436AFF0E2F
:101080004224026E036AFF0E0322056A030E046EF9
:10109000B4EC9EF00250406E54ECACF0000E166EB4
:1010A000010EDBECA7F0B60E156EFA0E166E85EC8F
:1010B000A2F0FDEF88F0030E426461EF88F063EF69
:1010C00088F067EF88F0030E416E69EF88F042C543
:1010D00041F5446A9AEF88F0000E166E4450020FF4
:1010E000DBECA7F04450050DF3C43AF5F4C43BF52E
:1010F000090E3A24316E000E3B20326E4450050D2D
:10110000F3C43CF5F4C43DF50A0E3C24336E000EE6
:101110003D20346E4450050DF3C43EF5F4C43FF554
:101120000D0E3E24356E000E3F20366E4428DFEC57
:10113000A3F0442A4150445CD8A0A1EF88F0A3EF6B
:1011400088F06CEF88F008EF89F0FD0E42243A6ECB
:101150003B6AFF0E3B223BBEB7EF88F03B5009E1F4
:10116000040E3A5CD8A0B7EF88F0B9EF88F0BDEF75
:1011700088F0030E416EC0EF88F04250FD0F416EC3
:10118000456AF2EF88F0000E166E4550020FDBEC58
:10119000A7F04550050DF3C43AF5F4C43BF5180E1D
:1011A0003A24316E000E3B20326E4550050DF3C4DB
:1011B0003CF5F4C43DF5190E3C24336E000E3D2081
:1011C000346E4550050DF3C43EF5F4C43FF51C0ED6
:1011D0003E24356E000E3F20366E4550040FDFEC86
:1011E000A3F0452A4150455CD8A0F9EF88F0FBEF09
:1011F00088F0C3EF88F008EF89F04350000AD8B4B4
:101200005BEF88F0010AD8B4A5EF88F008EF89F009
:101210004350D8B40EEF89F010EF89F01BEF89F03E
:101220000C0E166E020EDBECA7F0C80E156EFF0E4C
:10123000166E85ECA2F04050435CD8B022EF89F0E6
:1012400024EF89F02FEF89F00C0E166E040EDBEC04
:10125000A7F0BF0E156EFF0E166E85ECA2F00C0EF9
:10126000166E030EDBECA7F08C0E156EFD0E166EDF
:1012700085ECA2F0536A4BEF89F0890E176E050ECC
:10128000186E9DECA3F0536ED00E3A6ECA0EE82E87
:10129000FED73A2EFCD75350D8B451EF89F053EF14
:1012A00089F03DEF89F088EF89F0570E366E050E14
:1012B000376E35ECABF04350D8B461EF89F063EF93
:1012C00089F04CEF88F043064CEF88F0570E366EED
:1012D000050E376E35ECABF04050435CD8B073EF81
:1012E00089F075EF89F04CEF88F0432A4CEF88F0D5
:1012F000570E366E050E376E35ECABF097EF89F072
:10130000570E366E050E376E14EC9FF04CEF88F0DA
:1013100053502A0AD8B478EF89F06B0AD8B455EF45
:1013200089F0030AD8B466EF89F080EF89F01200E3
:101330003D6A54ECACF0010E166E010EDBECA7F02A
:10134000490E156EFB0E166E85ECA2F0000E166EA1
:10135000030EDBECA7F0DE0E156EFE0E166E85ECAE
:10136000A2F00D6A020E0C6EF5ECA9F0526E000EA2
:10137000246E040E10ECA9F0000E166E030EDBECCA
:10138000A7F026ECACF0000E166E030EDBECA7F017
:10139000AD0E156EFE0E166E85ECA2F0040E246ED8
:1013A000040E10ECA9F05228D8A4D9EF89F0DBEF95
:1013B00089F0FFEF89F0080E246E040E10ECA9F0FE
:1013C000000E166E030EDBECA7F026ECACF0020E5E
:1013D000166E030EDBECA7F02E0E156EFF0E166ECA
:1013E00085ECA2F03D0E3C6EE10E3B6E400EE82E09
:1013F000FED73B2EFCD73C2EFAD782EF8BF0000EA7
:10140000166E030EDBECA7F026ECACF0000E166EA9
:10141000030EDBECA7F0250E156EFE0E166E85ECA6
:10142000A2F0020E2F6E525032ECAAF0080E246E7B
:10143000040E10ECA9F0000E166E030EDBECA7F004
:1014400026ECACF0000E166E030EDBECA7F0340EAB
:10145000156EFB0E166E85ECA2F00C0E246E040EBB
:1014600010ECA9F054ECACF0000E166E010EDBECA3
:10147000A7F0450E156EFC0E166E85ECA2F0000E60
:10148000166E020EDBECA7F0EB0E156EFF0E166E5D
:1014900085ECA2F00D6A050E0C6EF5ECA9F0526E0B
:1014A000020E2F6E525032ECAAF0910E156EFF0E06
:1014B000166E85ECA2F00D6A060E0C6EF5ECA9F026
:1014C000526E020E2F6E525032ECAAF0DB0E156EE9
:1014D000FD0E166E85ECA2F0000E166E030EDBEC10
:1014E000A7F0F00E156EFF0E166E85ECA2F00D6AD9
:1014F000070E0C6EF5ECA9F0526E020E2F6E5250D4
:1015000032ECAAF09D0E156EFF0E166E85ECA2F061
:101510000D6A080E0C6EF5ECA9F0526E020E2F6EDD
:10152000525032ECAAF0DB0E156EFD0E166E85ECF5
:10153000A2F0000E166E040EDBECA7F05E0E156E28
:10154000FB0E166E85ECA2F0536AB5EF8AF0890E99
:10155000176E050E186E9DECA3F0536ED00E3B6E09
:10156000CA0EE82EFED73B2EFCD75350D8B4BBEFA3
:101570008AF0BDEF8AF0A7EF8AF0F5EF8AF0570EF8
:10158000366E050E376E35ECABF05350D00F3E6E15
:10159000120E166E040EDBECA7F0535076ECABF097
:1015A000030E3C6E080E3B6E770EE82EFED73B2EE8
:1015B000FCD73C2EFAD700003E50B5EC9CF008EF6B
:1015C0008BF0570E366E050E376E14EC9FF0120E30
:1015D000166E040EDBECA7F09F0E156EFA0E166E5B
:1015E00085ECA2F0536A08EF8BF05350310AD8B45F
:1015F000BFEF8AF0030AD8B4BFEF8AF0010AD8B46B
:10160000BFEF8AF0070AD8B4BFEF8AF0E1EF8AF0A3
:101610005350D8B40EEF8BF010EF8BF0A4EF8AF09C
:10162000536A21EF8BF0890E176E050E186E9DEC34
:10163000A3F0536ED00E3B6ECA0EE82EFED73B2EA3
:10164000FCD75350D8B427EF8BF029EF8BF013EF72
:101650008BF067EF8BF0570E366E050E376E14EC7D
:101660009FF010EF8BF0570E366E050E376E35EC8F
:10167000ABF082EF8BF0570E366E050E376E50ECE6
:101680009EF03DC531F53E501FEC9DF0090E3C6EBD
:101690001E0E3B6EE40EE82EFED73B2EFCD73C2EF2
:1016A000FAD700D082EF8BF0570E366E050E376EEC
:1016B00035ECABF05350D00F3D6E120E166E030E8C
:1016C000DBECA7F0535076ECABF010EF8BF05350FF
:1016D000230AD8B43BEF8BF0090AD8B433EF8BF070
:1016E0006B0AD8B42BEF8BF0030AD8B42BEF8BF036
:1016F000010AD8B42BEF8BF0070AD8B42BEF8BF08C
:1017000054EF8BF012000501E96BB30E026E050E6B
:10171000036EEDECA8F00009D8B491EF8BF093EFD5
:101720008BF09EEF8BF0FE0E3A6EFE0E3B6E020EBD
:101730003C6EEEEC91F0010E0501E96F0501EE6BD8
:10174000DDEF8BF0EE513F24D96E000E4020DA6EB3
:10175000DF50426E040E42240C6E0D6A000E0D2204
:10176000F5ECA9F00009D8A4B8EF8BF0BAEF8BF034
:10177000DBEF8BF0D20E226E050E236E210E246E4F
:10178000FD0E256E0501EE513F24D96E000E40205E
:10179000DA6EDF50426E4250266E276AA5ECA8F042
:1017A000D20E3A6E050E3B6E020E3C6EEEEC91F0E0
:1017B000010E0501E96F0501EE2B4150EE5DD8A049
:1017C000E4EF8BF0E6EF8BF0A2EF8BF0E951D8A4B9
:1017D000ECEF8BF0EEEF8BF06BEF8DF054ECACF0A8
:1017E000000E166E020EDBECA7F0770E156EFA0EE9
:1017F000166E85ECA2F0570E096E050E0A6E40ECCF
:10180000ACF00501EF6B62EF8DF0E76B000E166E2A
:10181000030EDBECA7F0490E156EFD0E166E85EC7F
:10182000A2F0010E2F6E0501EF513F24D96E000E7C
:101830004020DA6EDF5032ECAAF0040E0501E86FAA
:10184000EB6B000EEA6F6DEF8CF0CC0E026E050EA6
:10185000036ECDECA2F002C5ECF503C5EDF5AB0EC1
:101860000A6E050E0B6EB2ECA5F086EF8CF0C60E7C
:10187000026E050E036ECDECA2F002C5ECF503C5B9
:10188000EDF5A30E0A6E050E0B6EB2ECA5F086EF19
:101890008CF0C00E026E050E036ECDECA2F002C5F8
:1018A000ECF503C5EDF59B0E0A6E050E0B6EB2EC62
:1018B000A5F086EF8CF0BA0E026E050E036ECDEC2D
:1018C000A2F002C5ECF503C5EDF5930E0A6E050E08
:1018D0000B6EB2ECA5F086EF8CF0EF513F24D96E81
:1018E000000E4020DA6EDF50010AD8B425EF8CF0EC
:1018F000030AD8B437EF8CF0010AD8B449EF8CF062
:10190000070AD8B45BEF8CF086EF8CF0000E166EF1
:10191000040EDBECA7F0ECC518F5EDC519F5BFEC2E
:1019200097F0E90E0501EC5D030EED59D8A09BEF91
:101930008CF09DEF8CF0BAEF8CF0AB0E0A6E050EBA
:101940000B6E2FECACF0A30E0A6E050E0B6E2FEC97
:10195000ACF09B0E0A6E050E0B6E2FECACF0930EE6
:101960000A6E050E0B6E2FECACF0010E0501E76F51
:10197000C5EF8CF0EA4BEB2B080EEB5DD8A0C3EF64
:101980008CF0C5EF8CF06DEF8CF0E751D8B4CBEF55
:101990008CF0CDEF8CF02AEF8DF0EF513F24D96E13
:1019A000000E4020DA6EDF50426E040E42240C6EB0
:1019B0000D6A000E0D22F5ECA9F0436E43040501FB
:1019C000E66FEF513F24D96E000E4020DA6EDF50F3
:1019D000426E040E42240F6E106A000E1022E6C5FD
:1019E00011F5BEECAAF00501EF51050DF3C442F567
:1019F000F4C443F50B0E42240F6E000E4320106E0C
:101A0000010E116EBEECAAF0570E366E050E376E43
:101A100051ECA6F0520E116E060E126E000E136EF1
:101A2000C80E146E000E156E8BECABF0150E436EE7
:101A30004B0E426EBE0EE82EFED7422EFCD7432E32
:101A4000FAD700D0520E116E060E126E9EECABF05D
:101A500060EF8DF0E807570E366E050E376E14EC0A
:101A60009FF0520E116E060E126EF00E136EC80E1F
:101A7000146E000E156E8BECABF0150E436E4B0E14
:101A8000426EBE0EE82EFED7422EFCD7432EFAD76A
:101A900000D0520E116E060E126E9EECABF00501D8
:101AA000E851D8A456EF8DF058EF8DF020EF8CF070
:101AB000DC0E3A6EFB0E3B6E030E3C6EEEEC91F0CC
:101AC0000501EF2B4150EF5DD8A069EF8DF06BEF72
:101AD0008DF005EF8CF01200536ADBEF8EF054ECC2
:101AE000ACF0050E166E020EDBECA7F0A90E156E1B
:101AF000FF0E166E85ECA2F0030E166E030EDBECE5
:101B0000A7F05C0E156EFF0E166E85ECA2F0520E5D
:101B1000476E2B0E466E000EE82EFED7462EFCD7E3
:101B2000472EFAD700D054ECACF0000E166E010E22
:101B3000DBECA7F0060E156EFC0E166E85ECA2F01F
:101B4000000E166E020EDBECA7F0230E156EFA0ED9
:101B5000166E85ECA2F0000E166E030EDBECA7F0FD
:101B6000380E156EFA0E166E85ECA2F0000E166E8B
:101B7000040EDBECA7F04D0E156EFA0E166E85EC1A
:101B8000A2F0496A000E486E890E176E050E186E97
:101B90009DECA3F0536E5350D8B4D1EF8DF0D3EF3A
:101BA0008DF0C6EF8EF054ECACF0AFEF8EF0570E28
:101BB000366E050E376E50EC9EF0070E166E010E57
:101BC000DBECA7F0D90E156EFF0E166E85ECA2F0B9
:101BD000020E166E020EDBECA7F0EE0E156EFE0E78
:101BE000166E85ECA2F0520E476E2B0E466E000E5E
:101BF000E82EFED7462EFCD7472EFAD700D0C7ECEA
:101C000084F0C6EF8EF0570E366E050E376E50EC30
:101C10009EF0070E166E010EDBECA7F0D90E156EC6
:101C2000FF0E166E85ECA2F0010E166E020EDBECB6
:101C3000A7F0010E156EFE0E166E85ECA2F0520E88
:101C4000476E2B0E466E000EE82EFED7462EFCD7B2
:101C5000472EFAD700D000EC80F0C6EF8EF0570E7A
:101C6000366E050E376E50EC9EF0070E166E010EA6
:101C7000DBECA7F0D90E156EFF0E166E85ECA2F008
:101C8000040E166E020EDBECA7F0780E156EFF0E3A
:101C9000166E85ECA2F0520E476E2B0E466E000EAD
:101CA000E82EFED7462EFCD7472EFAD700D091EC6F
:101CB00087F0C6EF8EF0570E366E050E376E50EC7D
:101CC0009EF0070E166E010EDBECA7F0D90E156E16
:101CD000FF0E166E85ECA2F0010E166E020EDBEC06
:101CE000A7F06F0E156EFD0E166E85ECA2F0520E6B
:101CF000476E2B0E466E000EE82EFED7462EFCD702
:101D0000472EFAD700D098EC89F0C6EF8EF0570E28
:101D1000366E050E376E50EC9EF0E3EF8EF0570EE8
:101D2000366E050E376E6CEC9FF0020E166E020ECC
:101D3000DBECA7F0CE0E156EFE0E166E85ECA2F053
:101D4000150E476E4B0E466EBE0EE82EFED7462E83
:101D5000FCD7472EFAD700D0536AC6EF8EF0535007
:101D60002A0AD8B487EF8EF01B0AD8B4D7EF8DF0CB
:101D7000030AD8B403EF8EF0010AD8B42FEF8EF027
:101D8000070AD8B45BEF8EF08FEF8EF0680E466EC8
:101D9000E40EE82EFED7462EFCD700D0484A492A4A
:101DA000F40E485C010E4958D8A0D9EF8EF0DBEF55
:101DB0008EF0C4EF8DF05350D8B4E1EF8EF0E3EF26
:101DC0008EF06FEF8DF0120005500610D8A4EBEFE7
:101DD0008EF0EDEF8EF0F0EF8EF0000E10EF90F041
:101DE00005C5D9F406C5DAF4DF507F0B0A6E20EE84
:101DF00001F00550D9260650DA22DF507F0B0B6E1A
:101E000020EE04F00550D9260650DA22DF503F0BB1
:101E10000C6E20EE05F00550D9260650DA22DF5070
:101E20001F0B0D6E20EE06F00550D9260650DA2263
:101E3000DF50076E20EE03F00550D9260650DA2257
:101E4000DF50070B106E20EE02F00550D926065029
:101E5000DA22DFAC2EEF8FF030EF8FF03BEF8FF018
:101E600020EE02F00550D9260650DA22DF501F0B73
:101E7000116E44EF8FF020EE02F00550D926065087
:101E8000DA22DF503F0B116E0A504FECAAF0000926
:101E9000D8B44DEF8FF04FEF8FF0EDEF8EF00B5089
:101EA0004FECAAF00009D8B458EF8FF05AEF8FF03A
:101EB000EDEF8EF011504FECAAF00009D8B463EFAB
:101EC0008FF065EF8FF0EDEF8EF00C504FECAAF035
:101ED0000009D8B46EEF8FF070EF8FF0EDEF8EF059
:101EE0000D504FECAAF00009D8B479EF8FF07BEFDA
:101EF0008FF0EDEF8EF007504FECAAF00009D8A458
:101F000084EF8FF086EF8FF088EF8FF0EDEF8EF09B
:101F10000A50E8ECABF0086E0B50E8ECABF0096E41
:101F20001150E8ECABF0126E0C50E8ECABF00E6E1A
:101F30000D50E8ECABF00F6E3B0E0864A2EF8FF093
:101F4000A4EF8FF0A6EF8FF0EDEF8EF03B0E09645B
:101F5000ACEF8FF0AEEF8FF0B0EF8FF0EDEF8EF0D3
:101F600020EE02F00550D9260650DA22DFACBBEF96
:101F70008FF0BDEF8FF0CFEF8FF01250D8B4C3EFDA
:101F80008FF0C5EF8FF0EDEF8EF00C0E1264CBEFFB
:101F90008FF0CDEF8FF0D9EF8FF0EDEF8EF0170EC1
:101FA0001264D5EF8FF0D7EF8FF0D9EF8FF0EDEF10
:101FB0008EF01050D8B4DFEF8FF0E1EF8FF0EDEF3F
:101FC0008EF0070E1064E7EF8FF0E9EF8FF0EBEF84
:101FD0008FF0EDEF8EF00E50D8B4F1EF8FF0F3EFFD
:101FE0008FF0EDEF8EF01F0E0E64F9EF8FF0FBEF28
:101FF0008FF0FDEF8FF0EDEF8EF00F50D8B403EFC0
:1020000090F005EF90F0EDEF8EF00C0E0F640BEFFB
:1020100090F00DEF90F00FEF90F0EDEF8EF0010EDD
:10202000120013501410D8A418EF90F01AEF90F08B
:102030001DEF90F0050EFFEF90F020EE08F013502A
:10204000D9261450DA22DF6A20EE09F01350D9267F
:102050001450DA22DF6A20EE0AF01350D926145009
:10206000DA22DF6A20EE0BF01350D9261450DA2260
:10207000DF6A180E116E050E126E4BECABF01F6E80
:102080001F50D8B446EF90F048EF90F04BEF90F02F
:102090001F50FFEF90F020EE08F01350D926145097
:1020A000DA2218AE56EF90F059EF90F0010E5AEF89
:1020B00090F0000EDF6E20EE09F01350D926145078
:1020C000DA221ABC66EF90F069EF90F0010E6AEF29
:1020D00090F0000EDF6E20EE09F01350D926145058
:1020E000DA22DF50D8B477EF90F079EF90F096EFE6
:1020F00090F020EE0AF01350D9261450DA221ABAC2
:1021000084EF90F087EF90F0010E88EF90F0000ED2
:10211000DF6E20EE02F01350D9261450DA221A5046
:102120001F0BE8ECABF0DF6EA8EF90F020EE0AF0AA
:102130001350D9261450DA22DF6A20EE02F0135031
:10214000D9261450DA221A503F0BE8ECABF0DF6EC0
:1021500018507F0BE8ECABF013C5D9F414C5DAF4D2
:10216000DF6E20EE01F01350D9261450DA221950F8
:102170007F0BE8ECABF0DF6E20EE03F01350D926B6
:102180001450DA221B50070BDF6E20EE04F01350C0
:10219000D9261450DA221C503F0BE8ECABF0DF6E6E
:1021A00020EE05F01350D9261450DA221D501F0BD3
:1021B000E8ECABF0DF6E1E50E8ECABF0156ED00E25
:1021C0001524166E176A070E172220EE06F013501C
:1021D000D9261450DA2216C5DEF417C5DDF4180E20
:1021E000056E050E066EE4EC8EF0156E20EE0BF01B
:1021F0001350D9261450DA2215C5DFF4000E120050
:1022000021EE48F1050EDE6AE806FDE24F6A0D6A2E
:10221000010E0C6EF5ECA9F04E6E506A7D0E136E39
:10222000050E146E11EC90F005017B6F7B51D8A464
:102230001CEF91F01EEF91F02EEF91F08551D8B484
:1022400024EF91F026EF91F02EEF91F08851D8A471
:102250002CEF91F02EEF91F036EF91F0690E3A6E7F
:10226000FE0E3B6E010E3C6EEEEC91F0010E516ED7
:10227000C9EF91F05150050DF3C444F5F4C445F590
:10228000040E44240C6E000E45200D6EF5ECA9F0F2
:1022900005017F19D8A44FEF91F051EF91F09EEF17
:1022A00091F05150050DF3C444F5F4C445F5050E05
:1022B00044240C6E000E45200D6EF5ECA9F00501CE
:1022C0007E19D8A466EF91F068EF91F09EEF91F03F
:1022D0005150050DF3C444F5F4C445F5060E4424ED
:1022E0000C6E000E45200D6EF5ECA9F00009D8A487
:1022F0007CEF91F07EEF91F0C8EF91F0FF0E51244A
:10230000446E456AFF0E4522480E4424D96E050EE0
:102310004520DA6E5150050DF3C446F5F4C447F577
:10232000080E46240C6E000E47200D6EF5ECA9F049
:10233000DF6E4F2A010E506EC8EF91F0106A0B0E3F
:102340000F6E000E116EBEECAAF0106A100E0F6E2A
:10235000000E116EBEECAAF0106A150E0F6E000E84
:10236000116EBEECAAF0106A1A0E0F6E000E116EFE
:10237000BEECAAF0106A1F0E0F6E000E116EBEECBE
:10238000AAF0106A240E0F6E000E116EBEECAAF0B9
:10239000512A51504E5CD8B0D0EF91F0D2EF91F06D
:1023A0003AEF91F0000E166E020EDBECA7F0E60E8F
:1023B000156EFF0E166E85ECA2F05050D8B4E3EF08
:1023C00091F0E5EF91F0EDEF91F0480E3F6E050EC4
:1023D000406E4FC541F583EC8BF0120054ECACF02D
:1023E000000E166E020EDBECA7F09D0E156EFB0EB6
:1023F000166E85ECA2F0000E166E030EDBECA7F055
:102400003AC515F53BC516F585ECA2F06DEF92F0D7
:10241000520E116E060E126EC80E136E000E146E62
:10242000000E156E8BECABF0570E366E050E376E48
:102430006CEC9FF07CEF92F0520E116E060E126E55
:10244000FA0E136EC80E146E000E156E8BECABF008
:10245000570E366E050E376E14EC9FF0520E3E6E20
:102460002B0E3D6E000EE82EFED73D2EFCD73E2EE5
:10247000FAD700D0520E116E060E126E9EECABF023
:10248000DBEF92F0520E116E060E126EFA0E136E04
:10249000C80E146E000E156E8BECABF0570E366E38
:1024A000050E376E14EC9FF0000E166E040EDBEC7A
:1024B000A7F0C70E156EFB0E166E85ECA2F0290E66
:1024C0003E6E960E3D6E7F0EE82EFED73D2EFCD75B
:1024D0003E2EFAD700005FEF92F03C50010AD8B4CC
:1024E00008EF92F0030AD8B41CEF92F0010AD8B4B6
:1024F00042EF92F07CEF92F07A0E3E6EC10E3D6E8E
:10250000820EE82EFED73D2EFCD73E2EFAD754EC95
:10251000ACF0000E166E020EDBECA7F0EF0E156E9F
:10252000FD0E166E85ECA2F0000E166E030EDBECAF
:10253000A7F00D0E156EFD0E166E85ECA2F0536A17
:10254000B0EF92F0890E176E050E186E9DECA3F099
:10255000536ED00E3D6ECA0EE82EFED73D2EFCD730
:102560005350D8B4B6EF92F0B8EF92F0A2EF92F0D9
:10257000CCEF92F0570E366E050E376E35ECABF0A1
:10258000FF00D3EF92F0570E366E050E376E14EC47
:102590009FF0536AD3EF92F05350230AD8B4BAEFA6
:1025A00092F0C3EF92F05350D8B4D9EF92F0DBEF32
:1025B00092F09FEF92F012001D501E10D8A4E3EF8E
:1025C00092F0E5EF92F0E7EF92F0C3EF93F0640E34
:1025D0002164EDEF92F0EFEF92F0F1EF92F0640EE4
:1025E000216E400E0E6E420E0F6E0F0E106E000E1C
:1025F000116E1DC512F51EC513F5146A156A6AEC35
:10260000A0F00EC52EF50FC52FF510C530F511C57C
:1026100031F52150026E036A046A056A2EC506F57B
:102620002FC507F530C508F531C509F5E8ECA5F06B
:1026300002C50EF503C50FF504C510F505C511F566
:10264000640E126E000E136E000E146E000E156EE8
:102650006AECA0F00EC532F50FC533F510C534F5A0
:1026600011C535F532502E5C2A6E33502F582B6E23
:10267000345030582C6E355031582D6E1FC502F530
:1026800020C503F5046A056AE80E066E030E076EA0
:10269000000E086E000E096EE8ECA5F002C50EF5FE
:1026A00003C50FF504C510F505C511F52EC512F5C6
:1026B0002FC513F530C514F531C515F56AECA0F03A
:1026C0000EC522F50FC523F510C524F511C525F556
:1026D000000E266E000E276E000E286E000E296E6C
:1026E000AEEF93F03250331034103510D8B47BEF86
:1026F00093F07DEF93F08DEF93F01BC502F51CC5B1
:1027000003F5C9ECA8F032C502F533C503F534C5AD
:1027100004F535C505F51EECABF02A502B102C1036
:102720002D10D8B496EF93F098EF93F0A8EF93F0B4
:102730001BC502F51CC503F580ECA8F02AC502F5FF
:102740002BC503F52CC504F52DC505F51EECABF026
:10275000010E2626000E2722282229222250265C3E
:10276000235027582450285825502958D8A0BBEF6B
:1027700093F0BDEF93F072EF93F01BC502F51CC50B
:1027800003F580ECA8F012005504D8A4CAEF93F02A
:10279000CCEF93F0A2EF94F002C623F52350030F81
:1027A000246E24281F6E000E1F24D96EDA6A060ECE
:1027B000DA220A0EDE18D8A4E0EF93F0E2EF93F0ED
:1027C000A1EF94F0206A226A000E216EF2EF93F0DE
:1027D000030E2124D96E060E2220DA6EDF50202649
:1027E000214A222A23501C6E1D6A1C50215C225053
:1027F000800A1E6E1D50800A1E58D8A002EF94F069
:1028000004EF94F0E8EF93F0000E2424D96EDA6A16
:10281000060EDA222050DE18D8A411EF94F013EF40
:1028200094F0A1EF94F091EF94F00205D8A41BEF7F
:1028300094F01DEF94F0A1EF94F0520E0319D8A478
:1028400024EF94F026EF94F0A1EF94F0AD0E0E6E0D
:10285000060E0F6EF0ECAAF0AD0E036E060E046EBF
:1028600042ECA5F0A1EF94F0040E0219D8A43BEFBE
:1028700094F03DEF94F0A1EF94F005C613F506C671
:1028800014F50305156E0451D0ECA4F006010451B3
:10289000D0ECABF006010551D0ECABF006010651CF
:1028A000D0ECABF006010305D0ECABF0070ED0EC9A
:1028B000ABF00A0ED0ECABF0A1EF94F0020E0219CF
:1028C000D8A465EF94F067EF94F0A1EF94F003C6FD
:1028D00013F504515EECA1F0AA0ED0ECABF0150E8E
:1028E000D0ECABF0010ED0ECABF0070ED0ECABF0BF
:1028F000070ED0ECABF00A0ED0ECABF0A1EF94F0E9
:10290000AA0ED0ECABF0550ED0ECABF0010ED0EC33
:10291000ABF0060ED0ECABF0060ED0ECABF0A1EFB6
:1029200094F006010151070AD8B45EEF94F0120A40
:10293000D8B434EF94F0430AD8B415EF94F080EF94
:1029400094F0556A12000DC5D9F40EC5DAF4DEC450
:10295000F6F4DDC4F7F4000EF86E0800F550250A11
:10296000D8A4B5EF94F0B7EF94F06BEF95F00DC5E8
:10297000D9F40EC5DAF4DE2A000EDD2205016F6BF4
:10298000000E6E6F6EC57AF5706971690DC5D9F468
:102990000EC5DAF4DEC413F5DDC414F513C5F6F480
:1029A00014C5F7F4000EF86E0800F550750AD8A4A7
:1029B000DCEF94F0DEEF94F062EF95F00FC5D9F400
:1029C00010C5DAF4DFC411F5020EDE26DFC412F5FD
:1029D000000EDD2211C5D9F412C5DAF4DEC415F5F6
:1029E000DDC416F5010E1324116E000E1420126EB4
:1029F0000DC5D9F40EC5DAF411C5DEF412C5DDF447
:102A000054EF95F0200E196E1906320E1924D96E66
:102A1000DA6A060EDA2215C502F516C503F5056A4F
:102A20000A0E046E51ECA7F00250300FDF6E15C590
:102A300002F516C503F5056A0A0E046E09ECA5F049
:102A400002C515F503C516F515501610D8B42BEFB1
:102A500095F02DEF95F049EF95F01950D8A433EF8C
:102A600095F035EF95F004EF95F049EF95F0320EC3
:102A70001924D96EDA6A060EDA22DF50116E11506F
:102A8000026E036A0BC504F50CC505F5EBEC9DF071
:102A9000192A200E1918D8A450EF95F052EF95F08E
:102AA00037EF95F081EF95F013C5F6F414C5F7F400
:102AB000000EF86E0800F550750AD8B402EF95F0D4
:102AC00062EF95F00DC5D9F40EC5DAF4DE2A000EDA
:102AD000DD2281EF95F00DC5D9F40EC5DAF4DEC420
:102AE000F6F4DDC4F7F4000EF86E0800F550026E3F
:102AF000036A0BC504F50CC505F5EBEC9DF062EF20
:102B000095F012002650D8B488EF95F08AEF95F032
:102B10009BEF95F0060E266090EF95F092EF95F002
:102B20009BEF95F02650275CD8A099EF95F09BEF8E
:102B300095F09EEF95F0050E57EF96F0010E2A6E78
:102B4000000E2B6E000E2C6E000E2D6E010E296EE7
:102B5000C5EF95F02AC502F52BC503F52CC504F584
:102B60002DC505F50A0E066E000E076E000E086EE6
:102B7000000E096EE8ECA5F002C52AF503C52BF599
:102B800004C52CF505C52DF5292A2650295CD8A0A9
:102B9000CCEF95F0CEEF95F0AAEF95F0296A4DEFC6
:102BA00096F02750D8B4D7EF95F0D9EF95F0F2EF23
:102BB00095F02750265C2918D8A4E1EF95F0E3EFB3
:102BC00095F0F2EF95F02E0E76ECABF02E6E2E50C7
:102BD000D8B4EDEF95F0EFEF95F0F2EF95F02E50C1
:102BE00057EF96F02AC512F52BC513F52CC514F531
:102BF0002DC515F524C50EF525C50FF5106A116A0A
:102C00006AECA0F00EC51BF50FC51CF510C51DF52F
:102C100011C51EF50A0E1F6E000E206E000E216EED
:102C2000000E226E15ECA3F01B50286E2850300FBA
:102C300076ECABF02E6E2E50D8B421EF96F023EF49
:102C400096F025EF96F0EFEF95F02D502C102B100D
:102C500009E1020E2A5CD8A030EF96F032EF96F030
:102C60004CEF96F02AC50EF52BC50FF52CC510F5C7
:102C70002DC511F50A0E126E000E136E000E146EA5
:102C8000000E156E6AECA0F00EC52AF50FC52BF5E7
:102C900010C52CF511C52DF5292A2650295CD8A080
:102CA00054EF96F056EF96F0D1EF95F0000E12002B
:102CB000030E176E080E166E770EE82EFED7162E30
:102CC000FCD7172EFAD70000080E0501F36F040E8B
:102CD000F26FF35138ECACF0186E1850D8B473EFB3
:102CE00096F075EF96F077EF96F00EEF97F0340EC2
:102CF000166EF20EE82EFED7162EFCD7000E0A6EC8
:102D0000300E75ECA9F0186E1850D8B48AEF96F012
:102D10008CEF96F08EEF96F00EEF97F0340E166E65
:102D2000F20EE82EFED7162EFCD7000E0A6E300EDD
:102D300075ECA9F0186E1850D8B4A1EF96F0A3EF77
:102D400096F0A5EF96F00EEF97F0F00E00D0E82E7B
:102D5000FDD7000E0A6E300E75ECA9F0186E1850F3
:102D6000D8B4B5EF96F0B7EF96F0B9EF96F00EEF56
:102D700097F0F00E00D0E82EFDD7000E0A6E200E60
:102D800075ECA9F0186E1850D8B4C9EF96F0CBEFD7
:102D900096F0CDEF96F00EEF97F0F00E00D0E82E03
:102DA000FDD7280E85ECA6F0186E1850D8B4DBEFCE
:102DB00096F0DDEF96F0DFEF96F00EEF97F005015D
:102DC000F26B4EECACF0186E1850D8B4EAEF96F0F7
:102DD000ECEF96F0EEEF96F00EEF97F054ECACF0CF
:102DE000186E1850D8B4F7EF96F0F9EF96F0FBEFA5
:102DF00096F00EEF97F0060E85ECA6F0186E1850C0
:102E0000D8B405EF97F007EF97F009EF97F00EEFC2
:102E100097F0040E0501F26F4EECACF0120000ECDE
:102E200091F0000E166E020EDBECA7F0B20E156EDE
:102E3000FB0E166E85ECA2F07D0E136E050E146E61
:102E400011EC90F005017B6F7B51D8A42AEF97F02D
:102E50002CEF97F03CEF97F08551D8B432EF97F014
:102E600034EF97F03CEF97F08851D8A43AEF97F001
:102E70003CEF97F044EF97F0690E3A6EFE0E3B6E12
:102E8000010E3C6EEEEC91F0000E166E020EDBECC5
:102E9000A7F0B20E156EFB0E166E85ECA2F0000EBA
:102EA000166E040EDBECA7F0CB0E156EFA0E166E46
:102EB00085ECA2F0000E166E030EDBECA7F026ECFC
:102EC000ACF0060E166E010EDBECA7F0020E2F6EB4
:102ED00005017F5132ECAAF0A70E156EFC0E166E9E
:102EE00085ECA2F0090E166E010EDBECA7F0020EC7
:102EF0002F6E05017E5132ECAAF0A70E156EFC0E66
:102F0000166E85ECA2F00C0E166E010EDBECA7F02F
:102F1000020E2F6E05017D5132ECAAF00B0E050159
:102F2000F16F260EF06F5D0EE82EFED7F02FFCD766
:102F3000F12FFAD700D0890E176E050E186E9DEC92
:102F4000A3F0536ED00E0501F06FC90EE82EFED728
:102F5000F02FFCD700D0B7EF97F0570E366E050E66
:102F6000376E50EC9EF06CEC8DF0BEEF97F0535046
:102F7000230AD8B4ADEF97F0BEEF97F012002F6A96
:102F8000000E2E6E19BEC9EF97F0C7EF97F0DBEF7A
:102F900097F02D0E226E2E4A2F2A18C51AF519C544
:102FA0001BF51A1E1B1E1A4A1B2A1AC52CF51BC517
:102FB0002DF5DFEF97F018C52CF519C52DF52C5020
:102FC0002D10D8A4E6EF97F0E8EF97F0F4EF97F024
:102FD000220E2E24D96E050E2F20DA6E300EDF6EF3
:102FE0002E4A2F2A58EF98F02B6A000E2A6E1AEFFD
:102FF00098F01C0E2A24D96E050E2B20DA6E2CC5F3
:1030000002F52DC503F5056A0A0E046E51ECA7F012
:103010000250300FDF6E2A4A2B2A2CC502F52DC52F
:1030200003F5056A0A0E046E09ECA5F002C52CF53D
:1030300003C52DF52C502D10D8B421EF98F023EFB7
:1030400098F043EF98F02BBE2FEF98F02B5009E14A
:10305000060E2A5CD8A02FEF98F031EF98F0F9EF28
:1030600097F043EF98F01C0E2A24D96E050E2B2002
:10307000DA6E220E2E24E16E050E2F20E26EDFC4E2
:10308000E7F42E4A2F2A2A501A6E2B501B6E010E7F
:103090002A5E000E2B5A1BBE58EF98F01B5006E11B
:1030A0001A04D8B056EF98F058EF98F033EF98F034
:1030B000220E2E24D96E050E2F20DA6EDF6A220E24
:1030C000156E050E166E85ECA2F0120008C5D9F437
:1030D00009C5DAF40AC5DEF40BC5DDF420EE02F012
:1030E0000850D9260950DA220CC5DEF40DC5DDF4EE
:1030F00020EE04F00850D9260950DA220EC5DEF47D
:103100000FC5DDF420EE06F00850D9260950DA226A
:1031100010C5DEF411C5DDF420EE08F00850D92604
:103120000950DA2212C5DEF413C5DDF420EE06F0F4
:103130000850D9260950DA22DEC414F5DDC415F58D
:1031400014C5D9F415C5DAF4DF6A20EE04F008508E
:10315000D9260950DA22DEC414F5DDC415F514C5EC
:10316000D9F415C5DAF410EE04F00850E126095040
:10317000E222E6C416F5E5C417F516C5E1F417C555
:10318000E2F4E750F00BDF6E20EE04F00850D92691
:103190000950DA22DEC414F5DDC415F514C5D9F4DE
:1031A00015C5DAF410EE04F00850E1260950E222C9
:1031B000E6C416F5E5C417F516C5E1F417C5E2F443
:1031C000E750F009DF6E20EE08F00850D9260950CC
:1031D000DA22DEC414F5DDC415F514C5D9F415C51D
:1031E000DAF410EE08F00850E1260950E222E6C4B5
:1031F00016F5E5C417F516C5E1F417C5E2F4E75076
:10320000F009DF6E08C502F509C503F5D5ECA9F094
:103210001200CA80040121812091BCECA0F014ECC2
:10322000ACF0A3ECAAF088ECAAF0AAECA1F061EC57
:10323000ABF0DCECABF0D2B020EF99F022EF99F0DC
:103240007DEF99F0000E166E020EDBECA7F0360E45
:10325000156EFE0E166E85ECA2F0150E406E4B0E2E
:103260003F6EBE0EE82EFED73F2EFCD7402EFAD77B
:1032700000D0416A41C50CF50D6A000E0E6E2FECB0
:10328000A8F0412A260E416448EF99F04AEF99F0E0
:103290003AEF99F00D6A010E0C6E010E0E6E2FECD6
:1032A000A8F00D6A030E0C6E040E0E6E2FECA8F043
:1032B0000D6A020E0C6E040E0E6E2FECA8F00D6A55
:1032C000050E0C6E040E0E6E2FECA8F00D6A090EA2
:1032D0000C6E0D0E0E6E2FECA8F00D6A0A0E0C6E21
:1032E0002F0E0E6E2FECA8F00D6A0D0E0C6E010E57
:1032F0000E6E2FECA8F0A6EF99F0000E166E020EDF
:10330000DBECA7F0B90E156EFD0E166E85ECA2F083
:103310006CECAAF00009D8A490EF99F092EF99F024
:103320009AEF99F0F90E3A6EFC0E3B6E030E3C6E6E
:10333000EEEC91F0150E406E4B0E3F6EBE0EE82E79
:10334000FED73F2EFCD7402EFAD700D0120002C580
:10335000D9F403C5DAF404C5DEF405C5DDF420EEC6
:1033600002F00250D9260350DA2206C5DEF407C562
:10337000DDF420EE04F00250D9260350DA2208C50D
:10338000DEF409C5DDF420EE06F00250D926035024
:10339000DA220AC5DFF420EE07F00250D9260350E6
:1033A000DA22DF6A20EE06F00250D9260350DA2234
:1033B000DF50D8A4DEEF99F0E0EF99F010EF9AF02B
:1033C00020EE02F00250D9260350DA22DEC40BF5BB
:1033D000DDC40CF50BC5D9F40CC5DAF4F00EDF161C
:1033E00020EE04F00250D9260350DA22DEC40BF599
:1033F000DDC40CF50BC5D9F40CC5DAF4F00EDF16FC
:1034000002C5D9F403C5DAF4DEC40BF5DDC40CF54E
:103410000BC5D9F40CC5DAF4F00EDF163EEF9AF0C6
:1034200020EE02F00250D9260350DA22DEC40BF55A
:10343000DDC40CF50BC5D9F40CC5DAF40F0EDF169C
:1034400020EE04F00250D9260350DA22DEC40BF538
:10345000DDC40CF50BC5D9F40CC5DAF40F0EDF167C
:1034600002C5D9F403C5DAF4DEC40BF5DDC40CF5EE
:0E3470000BC5D9F40CC5DAF40F0EDF161200EE
:10348000B290A1C201F55550D8B449EF9AF04BEF74
:103490009AF04DEF9AF0D4EF9AF05650D8A453EF2B
:1034A0009AF055EF9AF064EF9AF0AA0E0118D8A49A
:1034B0005CEF9AF05EEF9AF0D4EF9AF001C500F657
:1034C000010E566ED4EF9AF05604D8A46AEF9AF023
:1034D0006CEF9AF0A2EF9AF0550E0118D8B473EF82
:1034E0009AF075EF9AF099EF9AF0560E0118D8B449
:1034F0007CEF9AF07EEF9AF099EF9AF0150E011892
:10350000D8B485EF9AF087EF9AF099EF9AF0070E0A
:103510000118D8B48EEF9AF090EF9AF099EF9AF0E4
:10352000260E0118D8A497EF9AF099EF9AF09FEF22
:103530009AF001C501F6020E566ED4EF9AF0566A63
:10354000D4EF9AF0020E5618D8A4A9EF9AF0ABEF78
:103550009AF0BEEF9AF001C502F60150050F546EC5
:103560000F0E5464B6EF9AF0B8EF9AF0BAEF9AF0F3
:103570009FEF9AF0030E566ED4EF9AF0000E562489
:10358000D96EDA6A060EDA2201C5DFF4562A5450E3
:10359000565CD8A0CEEF9AF0D0EF9AF0D4EF9AF024
:1035A000010E556E9FEF9AF01100076E800E0760B6
:1035B000DCEF9AF0DEEF9AF0EFEF9AF0045005108E
:1035C000D8B4E5EF9AF0E7EF9AF0EFEF9AF00650F3
:1035D000D8A4EDEF9AF0EFEF9AF0F5EF9AF0050E20
:1035E00005017C6F7C5150EF9BF01EECA7F0096E3B
:1035F0000950D8B4FEEF9AF000EF9BF007EF9BF074
:1036000009C57CF547ECACF0095050EF9BF058EC45
:10361000ACF00201949D075007248F6F06C58DF210
:1036200004C5D9F405C5DAF4DF508C6F948B010E14
:10363000086E32EF9BF01CECA4F0096E0950D8B470
:1036400024EF9BF026EF9BF028EF9BF000EF9BF020
:1036500008500424D96E000E0520DA6EDF500201F6
:103660008C6F082A0650085CD8A039EF9BF03BEF1E
:103670009BF01BEF9BF059ECA3F0096E0950D8B4F6
:1036800044EF9BF046EF9BF04AEF9BF047ECACF029
:103690004CEF9BF058ECACF009C57CF504EF9BF0C7
:1036A000120009C5D9F40AC5DAF40BC5DEF40CC55D
:1036B000DDF420EE02F00950D9260A50DA220DC5B9
:1036C000DEF40EC5DDF420EE04F00950D9260A50D0
:1036D000DA220FC5DEF410C5DDF420EE06F0095045
:1036E000D9260A50DA2211C5DFF420EE04F0095081
:1036F000D9260A50DA22DEC412F5DDC413F512C54C
:10370000D9F413C5DAF410EE04F00950E1260A509A
:10371000E222E6C414F5E5C415F514C5E1F415C5B7
:10372000E2F4E750166E10EE06F00950E1260A505A
:10373000E222E750FF0A1614DF6E20EE02F0095075
:10374000D9260A50DA22DEC412F5DDC413F512C5FB
:10375000D9F413C5DAF410EE02F00950E1260A504C
:10376000E222E6C414F5E5C415F514C5E1F415C567
:10377000E2F4E750166E10EE06F00950E1260A500A
:10378000E222E750FF0A1614DF6E09C502F50AC5EA
:1037900003F580ECA8F01200076E800E0760D3EFEF
:1037A0009BF0D5EF9BF0E6EF9BF004500510D8B4EA
:1037B000DCEF9BF0DEEF9BF0E6EF9BF00650D8A429
:1037C000E4EF9BF0E6EF9BF0ECEF9BF0050E0501BC
:1037D0007C6F7C5140EF9CF01EECA7F0096E095005
:1037E000D8B4F5EF9BF0F7EF9BF0FEEF9BF009C527
:1037F0007CF547ECACF0095040EF9CF058ECACF095
:103800000201949D958F06C58DF2D88007348F6F85
:10381000948B086A22EF9CF059ECA4F0096E0950D1
:10382000D8B415EF9CF017EF9CF019EF9CF0F7EF70
:103830009BF008500424D96E000E0520DA6E8BC26E
:10384000DFF4082A0650085CD8A029EF9CF02BEF83
:103850009CF00CEF9CF0EBECA6F0096E0950D8B48C
:1038600034EF9CF036EF9CF03AEF9CF047ECACF074
:103870003CEF9CF058ECACF009C57CF5FBEF9BF0FD
:10388000120002C5D9F403C5DAF404C5DEF405C597
:10389000DDF420EE02F00250D9260350DA2206C5EC
:1038A000DEF407C5DDF420EE04F00250D926035003
:1038B000DA2208C5DEF409C5DDF420EE06F0025078
:1038C000D9260350DA220AC5DFF420EE04F00250B4
:1038D000D9260350DA22DEC40BF5DDC40CF50BC586
:1038E000D9F40CC5DAF410EE04F00250E1260350CE
:1038F000E222E6C40DF5E5C40EF50DC5E1F40EC5F2
:10390000E2F4E7500F6E10EE06F00250E12603508D
:10391000E222E750FF0A0F14DF6E20EE02F00250A1
:10392000D9260350DA22DEC40BF5DDC40CF50BC535
:10393000D9F40CC5DAF410EE06F00250E12603507B
:10394000E222E7500D6E10EE02F00250E126035025
:10395000E222E6C40EF5E5C40FF50EC5E1F40FC58D
:10396000E2F4E7500D10DF6E12003A6E0B0EF66EA9
:10397000FA0EF76E000EF86E0900F5C436F5090070
:10398000F5C437F50900F5C438F50A00F5C439F572
:1039900054ECACF0000E166E010EDBECA7F0950EA9
:1039A000156EFD0E166E85ECA2F03AC52FF5306A45
:1039B000020E316E000E326EF4ECABF0B30E156EEB
:1039C000FA0E166E85ECA2F0000E166E020EDBECFF
:1039D000A7F0A70E156EFD0E166E85ECA2F0FF0E79
:1039E0003A24336E346AFF0E3422360E3324D96EF5
:1039F000050E3420DA6EDF50356E35500C6E0D6AD0
:103A0000F5ECA9F0526E020E2F6E525032ECAAF075
:103A1000000E166E030EDBECA7F0810E156EFC0E89
:103A2000166E85ECA2F0000E166E040EDBECA7F00D
:103A30006D0E156EFC0E166E85ECA2F01200396E3E
:103A40000F0EF66EFA0EF76E000EF86E0900F5C452
:103A500035F50900F5C436F50900F5C437F50A0057
:103A6000F5C438F531C513F539505EECA1F054ECCE
:103A7000ACF0000E166E010EDBECA7F0F50E156E25
:103A8000FA0E166E85ECA2F0000E166E020EDBEC3E
:103A9000A7F0850E156EFF0E166E85ECA2F0010ED6
:103AA0002F6E395032ECAAF0E00E156EFF0E166E36
:103AB00085ECA2F0000E166E020EDBECA7F0BE0E37
:103AC000156EFE0E166E85ECA2F0FF0E3924326ED6
:103AD000336AFF0E3322350E3224D96E050E3320A1
:103AE000DA6EDF50346E34500C6E0D6AF5ECA9F0CE
:103AF000526E020E2F6E525032ECAAF0DB0E156E93
:103B0000FD0E166E85ECA2F01200156A10C508F5C0
:103B100011C509F515C50AF5B8ECA6F00D0EE82E8D
:103B2000FED70000166A170E1624F66EF76AFA0E14
:103B3000F722F86A000EF8220800F5C412F510C545
:103B4000D9F411C5DAF4DEC413F5DDC414F513C5D8
:103B5000D9F414C5DAF4DF5012140009D8A4B3EF75
:103B60009DF0B5EF9DF0D1EF9DF010C502F511C5A8
:103B700003F5D5ECA9F01550040DF30EF324126EE5
:103B8000F90EF420136E16501226000E132212C5E1
:103B9000F6F413C5F7F4000EF86E0800F550EAEFDE
:103BA0009DF0162A030E1664D8EF9DF0DAEF9DF013
:103BB00093EF9DF0152A030E1564E1EF9DF0E3EFFE
:103BC0009DF086EF9DF010C502F511C503F5D5EC0B
:103BD000A9F0000E120004500510D8B4F2EF9DF0C9
:103BE000F4EF9DF0FDEF9DF004500510D8A4FBEF1D
:103BF0009DF0FDEF9DF002EF9EF002505EECACF008
:103C00004FEF9EF020EE09F00450D9260550DA223D
:103C1000DE50DE10D8B40FEF9EF011EF9EF02CEFC7
:103C20009EF020EE09F00450D9260550DA2210EE5D
:103C300002F00450E1260550E222DE50E65CE65038
:103C4000800A0A6EDE50800A0A58D8B02AEF9EF029
:103C50002CEF9EF04FEF9EF020EE02F00450D9269C
:103C60000550DA22DEC406F5DDC407F504C5D9F433
:103C700005C5DAF4DEC408F5DDC409F506500824EC
:103C8000D96E07500920DA6E02C5DFF420EE02F08B
:103C90000450D9260550DA22DE2A000EDD22120059
:103CA00036C51BF537C51CF5020E1E6E0B0E1D6EBC
:103CB000206A500E1F6E320E216EDCEC92F0D00E98
:103CC000386ECA0EE82EFED7382EFCD736C51BF547
:103CD00037C51CF5020E1E6E930E1D6E206A5A0E1D
:103CE0001F6E320E216EDCEC92F0D00E386ECA0ED2
:103CF000E82EFED7382EFCD736C51BF537C51CF588
:103D0000030E1E6E100E1D6E206A780E1F6E320E90
:103D1000216EDCEC92F0D00E386ECA0EE82EFED783
:103D2000382EFCD736C51BF537C51CF5040E1E6EA4
:103D3000170E1D6E206AB40E1F6E320E216EDCEC63
:103D400092F0020E396EA00E386E920EE82EFED75B
:103D5000382EFCD7392EFAD700D036C509F537C52D
:103D60000AF540ECACF01200076A05BEBCEF9EF00D
:103D7000BAEF9EF0C2EF9EF0046C051ED8B0052A83
:103D8000010E076E03BEC9EF9EF0C7EF9EF0CFEFA6
:103D90009EF0026C031ED8B0032A010E071A096AAE
:103DA000000E086E04500510D8B4D9EF9EF0DBEF7A
:103DB0009EF003EF9FF0010E066EE3EF9EF0D890A9
:103DC00004360536062A05AEE8EF9EF0EAEF9EF0CF
:103DD000DFEF9EF0D890083609360450025C05509B
:103DE0000358D8A0F6EF9EF0F8EF9EF0FDEF9EF09E
:103DF0000450025E0550035A0880D8900532043200
:103E0000062EEAEF9EF00750D8B409EF9FF00BEFB3
:103E10009FF00FEF9FF0086C091ED8B0092A08C563
:103E200002F509C503F5120036C51BF537C51CF5AB
:103E3000030E1E6E700E1D6E206A5A0E1F6E320E1D
:103E4000216EDCEC92F0040E396E400E386E260EB8
:103E5000E82EFED7382EFCD7392EFAD700D036C53B
:103E60001BF537C51CF5030E1E6E700E1D6E206A05
:103E70005A0E1F6E320E216EDCEC92F0040E396E7B
:103E8000400E386E260EE82EFED7382EFCD7392E7F
:103E9000FAD700D036C51BF537C51CF5030E1E6ECC
:103EA000700E1D6E206A5A0E1F6E320E216EDCECF3
:103EB00092F0050E396E0F0E386EF10EE82EFED719
:103EC000382EFCD7392EFAD7000036C509F537C58C
:103ED0000AF540ECACF0120036C51BF537C51CF5F1
:103EE000010E1E6E880E1D6E206AA00E1F6E3C0E07
:103EF000216EDCEC92F0020E396EA00E386E920E3E
:103F0000E82EFED7382EFCD7392EFAD700D036C58A
:103F10001BF537C51CF5010E1E6E4A0E1D6E206A7C
:103F2000B40E1F6E3C0E216EDCEC92F0020E396E68
:103F3000A00E386E920EE82EFED7382EFCD7392E02
:103F4000FAD700D036C51BF537C51CF5010E1E6E1D
:103F5000060E1D6E206AFA0E1F6E460E216EDCECF8
:103F600092F0030E396E700E386E5C0EE82EFED79E
:103F7000382EFCD7392EFAD700D036C509F537C50B
:103F80000AF540ECACF012001E0E0464CAEF9FF07C
:103F9000CCEF9FF0D4EF9FF002C5D9F403C5DAF45B
:103FA0001E0EDF6EDAEF9FF002C5D9F403C5DAF416
:103FB00004C5DFF404011091C890C090076A09EFAE
:103FC000A0F007500224056E000E0320066E010EBD
:103FD0000524D96E000E0620DA6EDF6A075002242F
:103FE000056E000E0320066E1F0E0524D96E000E0E
:103FF0000620DA6EDF6A07500224056E000E0320E9
:10400000066E3D0E0524D96E000E0620DA6EDF6ABC
:10401000072A02C5D9F403C5DAF4DE50075CD8A03C
:1040200014EFA0F016EFA0F0E1EF9FF0120020EEE9
:1040300006F00250D9260350DA22DF50D8A423EF2D
:10404000A0F025EFA0F046EFA0F004500F0B096E92
:1040500002C5D9F403C5DAF4DEC405F5DDC406F5FE
:1040600005C5D9F406C5DAF4DF50F00B091002C516
:10407000D9F403C5DAF4DEC407F5DDC408F507C5D5
:10408000D9F408C5DAF4DF6E69EFA0F004C505F5D0
:104090000F0E05160538F00B096E02C5D9F403C5DD
:1040A000DAF4DEC405F5DDC406F505C5D9F406C5A8
:1040B000DAF4DF500F0B091002C5D9F403C5DAF4A6
:1040C000DEC407F5DDC408F507C5D9F408C5DAF480
:1040D000DF6E1200000E166E000E176E000E186EC8
:1040E000000E196E1250131014101510D8B47BEF77
:1040F000A0F07DEFA0F0B3EFA0F0010E1A6E87EFF5
:10410000A0F0D89012361336143615361A2A15AE8A
:104110008CEFA0F08EEFA0F081EFA0F0D8901636D3
:1041200017361836193612500E5C13500F581450AB
:10413000105815501158D8A0A0EFA0F0A2EFA0F091
:10414000ABEFA0F012500E5E13500F5A1450105ADD
:104150001550115A1680D89015321432133212327B
:104160001A2E8EEFA0F016C50EF517C50FF518C55F
:1041700010F519C511F51200AB0E026E050E036E97
:10418000BE0E046E040E056EC60E066E040E076E9D
:10419000000E086E040E096E000E0A6EA7EC99F070
:1041A000A30E026E050E036EBE0E046E040E056EA7
:1041B000C60E066E040E076E000E086E040E096E23
:1041C000010E0A6EA7EC99F09B0E026E050E036EAF
:1041D000BF0E046E040E056EC70E066E040E076E4B
:1041E000080E086E040E096E000E0A6EA7EC99F018
:1041F000930E026E050E036EBF0E046E040E056E66
:10420000C70E066E040E076E080E086E040E096EC9
:10421000010E0A6EA7EC99F0120002C5D9F403C58D
:10422000DAF404C5DEF405C5DDF420EE02F0025038
:10423000D9260350DA2206C5DEF407C5DDF420EEE8
:1042400004F00250D9260350DA2208C5DFF420EE2C
:1042500005F00250D9260350DA2209C5DFF420EE1A
:1042600004F00250D9260350DA22DF500A6E02C54C
:10427000D9F403C5DAF4DEC40BF5DDC40CF50BC5C7
:10428000D9F40CC5DAF40A50DF1220EE04F0025023
:10429000D9260350DA22DF500A6E20EE02F00250D7
:1042A000D9260350DA22DEC40BF5DDC40CF50BC5AC
:1042B000D9F40CC5DAF40A50DF1212001B6E130E8B
:1042C000F66EFA0EF76E000EF86E0900F5C417F5DB
:1042D0000900F5C418F50900F5C419F50A00F5C47C
:1042E0001AF5FF0E1B24146E156AFF0E1522170E09
:1042F0001424D96E050E1520DA6EDF50166E165096
:104300000C6E0D6AF5ECA9F0526EFF0E1B24146EB4
:10431000156AFF0E1522170E1424D96E050E1520EE
:10432000DA6EDF50166E16500F6E106A525013245C
:10433000116EBEECAAF00D6A020E0C6EF5ECA9F03F
:10434000526E106A020E0F6E52501324116EBEECA4
:10435000AAF012001DECACF0CC0E026E050E036E3E
:10436000CB0E046E040E056E280E066E040E076E4C
:10437000010E086E280E096E0DECA1F0C60E026E3D
:10438000050E036ECB0E046E040E056E280E066E2F
:10439000040E076E020E086E290E096E0DECA1F0D8
:1043A000C00E026E050E036ECB0E046E040E056E7B
:1043B000280E066E040E076E040E086E2A0E096E95
:1043C0000DECA1F0BA0E026E050E036ECB0E046E5C
:1043D000040E056E280E066E040E076E080E086E9B
:1043E0002B0E096E0DECA1F0120016501710D8B468
:1043F000FCEFA1F0FEEFA1F006EFA2F0070E1864AB
:1044000004EFA2F006EFA2F009EFA2F0050E3CEFD8
:10441000A2F01838E842F80B400985ECA6F01A6EB5
:104420001A50D8B416EFA2F018EFA2F01BEFA2F0CA
:104430001A503CEFA2F0196A19501624D96E000EDA
:104440001720DA6EDF5076ECABF01A6E1A50D8B443
:104450002CEFA2F02EEFA2F030EFA2F018EFA2F0B6
:10446000192A070E196437EFA2F039EFA2F01CEFFA
:10447000A2F0800E85ECA6F01200096A6EEFA2F0A1
:1044800009500524076E000E0620086E1F0E072433
:10449000D96E000E0820DA6EDF5095ECA9F00950B5
:1044A0000524076E000E0620086E010E0724D96E43
:1044B000000E0820DA6EDF5095ECA9F009500524B3
:1044C000076E000E0620086E3D0E0724D96E000E02
:1044D0000820DA6EDF5095ECA9F0092A05C5D9F459
:1044E00006C5DAF4DE50095CD8A079EFA2F07BEFC4
:1044F000A2F040EFA2F0C090040E076E1C0EE82E52
:10450000FED7072EFCD700D0120015501610D8A4E5
:104510008CEFA2F08EEFA2F0B2EFA2F0050ECCEF7E
:10452000A2F015C5F6F416C5F7F4000EF86E250EC8
:10453000F76403D00800F55005D0F6C4E9F4F7C4D9
:10454000EAF4EF5076ECABF0176E1750D8B4ABEF3F
:10455000A2F0ADEFA2F0B0EFA2F01750CCEFA2F0B6
:10456000154A162A15C5F6F416C5F7F4000EF86EAE
:10457000250EF76403D00800F55005D0F6C4E9F421
:10458000F7C4EAF4EF500009D8A4C9EFA2F0CBEFCA
:10459000A2F091EFA2F0000E120020EE05F0025002
:1045A000D9260350DA220501F551DE18D8B4DBEF25
:1045B000A2F0DDEFA2F001EFA3F03B0E0301EC6FE0
:1045C000F381F3B1E6EFA2F0E8EFA2F0E1EFA2F0A1
:1045D00020EE05F00250D9260350DA22DF50EC6FAE
:1045E000F381F3B1F6EFA2F0F8EFA2F0F1EFA2F051
:1045F00020EE05F00250D9260350DA22DF500501E3
:10460000F56F0301F381F3B108EFA3F00AEFA3F014
:1046100003EFA3F0EB51046EEA51066E04C507F5F3
:1046200006C502F507C503F512001F502010211022
:104630002210D8B41EEFA3F020EFA3F050EFA3F0A8
:10464000010E236E2AEFA3F0D8901F3620362136B4
:104650002236232A22AE2FEFA3F031EFA3F024EF6E
:10466000A3F01F501B5C20501C5821501D58225095
:104670001E58D8A03EEFA3F040EFA3F048EFA3F000
:104680001F501B5E20501C5A21501D5A22501E5A8A
:10469000D8902232213220321F32232E31EFA3F064
:1046A0001BC51BF51CC51CF51DC51DF51EC51EF53E
:1046B0001200EA0E036E600E026E82EFA3F097AD59
:1046C00064EFA3F066EFA3F069EFA3F0030E9CEF95
:1046D000A3F097AB6EEFA3F070EFA3F073EFA3F02E
:1046E000020E9CEFA3F002500310D8A47AEFA3F0BF
:1046F0007CEFA3F07FEFA3F0040E9CEFA3F0020683
:10470000D8A0030602019AA588EFA3F08AEFA3F0D0
:104710005FEFA3F095BB8FEFA3F091EFA3F098EFBD
:10472000A3F097A996EFA3F098EFA3F09BEFA3F067
:10473000010E9CEFA3F0000E120017C510F518C56E
:1047400011F585EC9DF01B6E1B50D8A4AAEFA3F0C9
:10475000ACEFA3F0AFEFA3F0000EDEEFA3F0D00EAE
:10476000196ECA0EE82EFED7192EFCD717C510F504
:1047700018C511F585EC9DF01A6E1B501A18D8B4A7
:10478000C4EFA3F0C6EFA3F0C8EFA3F0ACEFA3F023
:1047900017C510F518C511F585EC9DF00009D8A4D2
:1047A000D4EFA3F0D6EFA3F0C8EFA3F0D00E196EAC
:1047B000CA0EE82EFED7192EFCD71B501200376EFA
:1047C000010E2F6E375032ECAAF0A40E156EFD0EBE
:1047D000166E85ECA2F031C50CF532C50DF5F5EC81
:1047E000A9F0526E020E2F6E525032ECAAF0A70EB4
:1047F000156EFC0E166E85ECA2F033C50CF534C5B3
:104800000DF5F5ECA9F0526E020E2F6E525032ECFF
:10481000AAF0F50E156EFF0E166E85ECA2F035C5EA
:104820000CF536C50DF5F5ECA9F0526E010E2F6EA4
:10483000525032ECAAF01200EA0E036E600E026EC5
:104840004FEFA4F097A927EFA4F029EFA4F02CEFE5
:10485000A4F0010E58EFA4F097AD31EFA4F033EFC0
:10486000A4F036EFA4F0030E58EFA4F097AB3BEFA3
:10487000A4F03DEFA4F040EFA4F0020E58EFA4F036
:1048800002500310D8A447EFA4F049EFA4F04CEF76
:10489000A4F0040E58EFA4F00206D8A0030602010B
:1048A00099AB55EFA4F057EFA4F022EFA4F0000E5F
:1048B0001200EA0E036E600E026E8CEFA4F097A950
:1048C00064EFA4F066EFA4F069EFA4F0010E95EF99
:1048D000A4F097AD6EEFA4F070EFA4F073EFA4F026
:1048E000030E95EFA4F097AB78EFA4F07AEFA4F065
:1048F0007DEFA4F0020E95EFA4F002500310D8A4AF
:1049000084EFA4F086EFA4F089EFA4F0040E95EFF5
:10491000A4F00206D8A00306020199A192EFA4F028
:1049200094EFA4F05FEFA4F0000E120002C5D9F4DA
:1049300003C5DAF4DE50045CD8A0A1EFA4F0A3EF25
:10494000A4F0A5EFA4F0CFEFA4F004500224086E69
:10495000000E0320096E010E0824D96E000E0920F6
:10496000DA6E05C5DFF404500224086E000E032041
:10497000096E1F0E0824D96E000E0920DA6E06C5D6
:10498000DFF404500224086E000E0320096E3D0E71
:104990000824D96E000E0920DA6E07C5DFF4120074
:1049A000186E1550050DF3C416F5F4C417F5090E6D
:1049B00016240F6E000E1720106E18C511F5BEECF0
:1049C000AAF01550050DF3C416F5F4C417F50A0E38
:1049D00016240F6E000E1720106E13C511F5BEECD5
:1049E000AAF01550050DF3C416F5F4C417F50D0E15
:1049F00016240F6E000E1720106E14C511F5BEECB4
:104A0000AAF0106A010E0F6E1528116EBEECAAF006
:104A10001200076A000E066E04500510D8B413EF9A
:104A2000A5F015EFA5F03DEFA5F0010E086E1DEF06
:104A3000A5F0D89004360536082A05AE22EFA5F079
:104A400024EFA5F019EFA5F0D890063607360450EC
:104A5000025C05500358D8A030EFA5F032EFA5F066
:104A600037EFA5F00450025E0550035A0680D89037
:104A700005320432082E24EFA5F006C502F507C55D
:104A800003F51200056AFF0ED0ECABF0AA0ED0ECD5
:104A9000ABF0550ED0ECABF0280ED0ECABF0076AC3
:104AA000000E066E06500324D96E07500420DA6EFD
:104AB000DF50D0ECABF006500324D96E0750042031
:104AC000DA6EDF500526064A072A07BE71EFA5F009
:104AD000075009E1280E065CD8A071EFA5F073EF2E
:104AE000A5F052EFA5F00550D0ECABF00A0ED0ECDB
:104AF000ABF012000F6E400E0F6081EFA5F083EF58
:104B0000A5F094EFA5F00C500D10D8B48AEFA5F0E5
:104B10008CEFA5F094EFA5F00E50D8A492EFA5F07D
:104B200094EFA5F097EFA5F0050EB1EFA5F00FC536
:104B30000AF5680EFFECABF0106E1050D8B4A3EF7E
:104B4000A5F0A5EFA5F0A8EFA5F01050B1EFA5F0E6
:104B50000CC504F50DC505F50EC506F5680ECCECC3
:104B60009BF012000AC502F50BC503F520EE07F015
:104B70000A50D9260B50DA22DF501F0FF66EFA0EBC
:104B8000D8B0010FF76EF86A000EF8220800F5C4DD
:104B900004F517ECA0F020EE07F00A50D9260B50D0
:104BA000DA22DF2A20EE07F00A50D9260B50DA224B
:104BB000030EDF64DEEFA5F0E0EFA5F0E7EFA5F070
:104BC00020EE07F00A50D9260B50DA22DF6A1200D5
:104BD000000E0A6E000E0B6E000E0C6E000E0D6EB7
:104BE00002A0F5EFA5F0F7EFA5F0FFEFA5F0065056
:104BF0000A2607500B2208500C2209500D22D8908B
:104C00000636073608360936D890053204320332A4
:104C100002320250031004100510D8A412EFA6F0BF
:104C200014EFA6F0F0EFA5F00AC502F50BC503F5E9
:104C30000CC504F50DC505F5120015501610D8A4C5
:104C400024EFA6F026EFA6F028EFA6F050EFA6F08E
:104C50001B6A47EFA6F01B501524186E000E162095
:104C6000196E18C5F6F419C5F7F4000EF86E0800B1
:104C7000F55076ECABF01A6E1A50D8B442EFA6F0AD
:104C800044EFA6F046EFA6F050EFA6F01B2A17500F
:104C90001B5CD8A04EEFA6F050EFA6F02BEFA6F0CD
:104CA000120036C51BF537C51CF5020E1E6E930E9D
:104CB0001D6E206A2D0E1F6E320E216EDCEC92F0FE
:104CC0009C0E386ED70EE82EFED7382EFCD700008B
:104CD00036C51BF537C51CF5030E1E6E100E1D6E76
:104CE000206A410E1F6E320E216EDCEC92F0D00E67
:104CF000386ECA0EE82EFED7382EFCD736C509F519
:104D000037C50AF540ECACF01200156E000E0A6EC5
:104D10001550AFECA7F0146E1450D8B492EFA6F073
:104D200094EFA6F097EFA6F01450B7EFA6F0150495
:104D3000D8B49DEFA6F09FEFA6F0A8EFA6F0020E64
:104D40001518D8A4A6EFA6F0A8EFA6F0B2EFA6F02B
:104D5000150E136EC60EE82EFED7132EFCD700D00C
:104D6000B6EFA6F0850EE82EFED70000000E12006A
:104D700008C502F509C503F5D5ECA9F020EE02F04F
:104D80000850D9260950DA22DEC40BF5DDC40CF533
:104D90000BC5D9F40CC5DAF410EE02F00850E12688
:104DA0000950E222E6C40DF5E5C40EF50DC5E1F4A7
:104DB0000EC5E2F4E7500F6E1B0E0A24F66EF76A7A
:104DC000FA0EF722F86A000EF8220800F550FF0AE2
:104DD0000F14DF6E1200EA0E036E600E026E14EF07
:104DE000A7F097ADF6EFA6F0F8EFA6F0FBEFA6F070
:104DF000030E1DEFA7F097AB00EFA7F002EFA7F0AF
:104E000005EFA7F0020E1DEFA7F002500310D8A483
:104E10000CEFA7F00EEFA7F011EFA7F0040E1DEFB7
:104E2000A7F00206D8A0030602019AA51AEFA7F080
:104E30001CEFA7F0F1EFA6F0000E1200EA0E036ED1
:104E4000600E026E47EFA7F097AD29EFA7F02BEFAA
:104E5000A7F02EEFA7F0030E50EFA7F097AB33EFBC
:104E6000A7F035EFA7F038EFA7F0020E50EFA7F04C
:104E700002500310D8A43FEFA7F041EFA7F044EF92
:104E8000A7F0040E50EFA7F00206D8A00306020117
:104E900098AF4DEFA7F04FEFA7F024EFA7F0000E6B
:104EA000120004500510D8B458EFA7F05AEFA7F03D
:104EB0007EEFA7F0010E066E62EFA7F0D8900436E1
:104EC0000536062A05AE67EFA7F069EFA7F05EEF9B
:104ED000A7F00450025C05500358D8A072EFA7F069
:104EE00074EFA7F078EFA7F00450025E0550035A64
:104EF000D89005320432062E69EFA7F002C502F5FC
:104F000003C503F51200B80EF66E580EF76E010ECB
:104F1000F86E01EEF2F110EE04F00900F5C4EEF4C3
:104F2000E550E150FAE101EE00F2D50EEE6AE80636
:104F3000FDE101EE60F1720EEE6AE806FDE101EEC0
:104F400052F10C0EEE6AE806FDE10401080E5D6FF9
:104F5000000E5E6F000E5F6F00010AEFACF00F6E87
:104F6000F3C512F50A50D8B4B8EFA7F0BAEFA7F01E
:104F7000BBEFA7F012800F50F00B106E0F38F00B44
:104F8000F00B116E1050121004090B6E105012101D
:104F90000C6E1150121004090D6E115012100E6E8D
:104FA0000B0E046E050E056E040E066E0501F4511F
:104FB000D5EC9AF01200176EEDEFA7F0186A00EF2B
:104FC000A8F0400E186E00EFA8F0140E186E00EF57
:104FD000A8F0540E186E00EFA8F01750010AD8B4CC
:104FE000DEEFA7F0030AD8B4E1EFA7F0010AD8B4C6
:104FF000E5EFA7F0070AD8B4E9EFA7F005EFA8F0AE
:1050000018501624800985ECA6F012000201949F26
:10501000C096C098040110971099C896C898128736
:10502000128914ECAAF0CF0E02018717CF0E861753
:105030008751FC0B0109876F8651FC0B0109866FB4
:10504000040E946F956B966B030E9C6F9D6B9B6B20
:1050500058ECACF00201948F05017C6B1200040E39
:105060000D5CD8A036EFA8F038EFA8F03AEFA8F022
:1050700057EFA8F00CC502F50DC503F5D7ECAAF063
:105080000EC546F000014151F80B0309416FD69E51
:10509000550E426FAA0E426F408140B152EFA8F008
:1050A00054EFA8F04DEFA8F0D68EF80E411712007D
:1050B0001CC520F51DC521F56CEFA8F01AC50BF530
:1050C0001BC50CF5200E0D6E050E0E6E1EC50FF5E0
:1050D0001FC510F5A3EC94F020C5F6F421C5F7F434
:1050E000000EF86E0800F5500009D8A47AEFA8F079
:1050F0007CEFA8F05EEFA8F01B6A000E1A6E12009B
:1051000002C5D9F403C5DAF4DEC404F5DDC405F53F
:1051100004C5D9F405C5DAF4DF50066E20EE06F0BA
:105120000250D9260350DA22DF50FF0A061402C5C6
:10513000D9F403C5DAF4DEC407F5DDC408F507C504
:10514000D9F408C5DAF4DF6E1200260E286E050EBB
:10515000296E22C52AF523C52BF52D6A000E2C6E6B
:10516000346A000E336E2A0E1A6E050E1B6E24C5AD
:105170001CF525C51DF5280E1E6E050E1F6E58EC7C
:10518000A8F02C502224D96E2D502320DA6EDF6A2D
:10519000120020EE06F00250D9260350DA22DF502A
:1051A000046E02C5D9F403C5DAF4DEC405F5DDC426
:1051B00006F505C5D9F406C5DAF4DF50041002C5BA
:1051C000D9F403C5DAF4DEC407F5DDC408F507C574
:1051D000D9F408C5DAF4DF6E120020EE06F00250B2
:1051E000D9260350DA22DF50046E02C5D9F403C574
:1051F000DAF4DEC405F5DDC406F505C5D9F406C547
:10520000DAF4DF5004140009D8B409EFA9F00BEF69
:10521000A9F00EEFA9F0010E0FEFA9F0000E120099
:10522000276E000E32ECA9F024C516F52750DBECF2
:10523000A7F0286A000E76ECABF00D0E266E2D0E50
:10524000256ED80EE82EFED7252EFCD7262EFAD7AF
:10525000282A030E28642FEFA9F031EFA9F01AEFE6
:10526000A9F01200236E030EF66EFA0EF76E000E12
:10527000F86E21EE1BF1070E0900F5C4DEF4E80616
:10528000FBE2070E236447EFA9F049EFA9F04BEFCB
:10529000A9F053EFA9F01B0E166E050E176E23C56D
:1052A00018F5F5ECA1F01200026E0250D8B45BEFD5
:1052B000A9F05DEFA9F06AEFA9F0C080000000003E
:1052C00000000000000000000000C090000000008E
:1052D00074EFA9F0C08000000000C0900000000042
:1052E000000000000000000012000B6E0B50F00BDD
:1052F0000E6E0501F3510E120A50D8B482EFA9F0D8
:1053000084EFA9F085EFA9F00E800E5004090C6E11
:105310000E50FB0B0D6E0C0E046E050E056E020E8C
:10532000066EF451D5EC9AF01200036E800E046EF6
:10533000035004140009D8B4A0EFA9F0A2EFA9F01B
:10534000A7EFA9F0010E54ECA9F0AAEFA9F0000E06
:1053500054ECA9F0D89004320450D8A4B2EFA9F0CC
:10536000B4EFA9F098EFA9F01200106AC7EFA9F006
:105370000AC502F50BC503F510C504F50CC505F506
:105380000DC506F50EC507F596ECA4F0102A0AC562
:10539000D9F40BC5DAF4DE50105CD8A0D2EFA9F036
:1053A000D4EFA9F0B8EFA9F0120020EE02F00250FD
:1053B000D9260350DA22DEC404F5DDC405F504C5A0
:1053C000D9F405C5DAF410EE02F00250E1260350DC
