:04000000FEEFFFF020
:10260000000C0603090001C5D9F402C5DAF403C5BC
:10261000DEF404C5DDF420EE02F00150D9260250AC
:10262000DA2205C5DEF406C5DDF420EE04F0015023
:10263000D9260250DA2207C5DEF408C5DDF420EE03
:1026400006F00150D9260250DA2209C5DFF420EE47
:1026500004F00150D9260250DA22DEC40AF5DDC4A6
:102660000BF50AC5D9F40BC5DAF410EE04F00150ED
:10267000E1260250E222E6C40CF5E5C40DF50CC5D6
:10268000E1F40DC5E2F4E7500E6E10EE06F00150D5
:10269000E1260250E222E750FF0A0E14DF6E20EE20
:1026A00002F00150D9260250DA22DEC40AF5DDC458
:1026B0000BF50AC5D9F40BC5DAF410EE06F001509B
:1026C000E1260250E222E7500C6E10EE02F00150BB
:1026D000E1260250E222E6C40DF5E5C40EF50DC573
:1026E000E1F40EC5E2F4E7500C10DF6E12004BEC83
:1026F00015F0600E016E050E026E030E036ECDEC3A
:1027000013F0170E016E050E026ED10E036E040E4D
:10271000046EC90E056E040E066E180E076E040ECA
:10272000086E020E096E03EC13F0170E016E050E13
:10273000026EA1EC14F00009D8B4A1EF13F0A3EFDE
:1027400013F0B1EF13F0600E106E050E116E640EF3
:10275000126E000E136E000E146E38EC15F0BDEF05
:1027600013F0600E106E050E116E000E126E640EE8
:10277000136E000E146E38EC15F0070E166E170E61
:10278000156E6A0EE82EFED7152EFCD7162EFAD738
:1027900000D095EF13F0FEEFFFF01E0E0364D3EFB1
:1027A00013F0D5EF13F0DDEF13F001C5D9F402C536
:1027B000DAF41E0EDF6EE3EF13F001C5D9F402C5A3
:1027C000DAF403C5DFF404011891C990C190066AD8
:1027D00012EF14F006500124046E000E0220056E64
:1027E000010E0424D96E000E0520DA6EDF6A065051
:1027F0000124046E000E0220056E1F0E0424D96E03
:10280000000E0520DA6EDF6A06500124046E000E09
:102810000220056E3D0E0424D96E000E0520DA6EEE
:10282000DF6A062A01C5D9F402C5DAF4DE50065C77
:10283000D8A01DEF14F01FEF14F0EAEF13F0120010
:10284000086A51EF14F008500424066E000E0520AB
:10285000076E1F0E0624D96E000E0720DA6EDF50B9
:10286000E5EC14F008500424066E000E0520076EF7
:10287000010E0624D96E000E0720DA6EDF50E5EC5B
:1028800014F008500424066E000E0520076E3D0E5D
:102890000624D96E000E0720DA6EDF50E5EC14F046
:1028A000082A04C5D9F405C5DAF4DE50085CD8A0BE
:1028B0005CEF14F05EEF14F023EF14F0C190050EFE
:1028C000066EAC0EE82EFED7062EFCD7120001C510
:1028D000D9F402C5DAF4DE50035CD8A072EF14F02C
:1028E00074EF14F076EF14F0A0EF14F0035001240D
:1028F000076E000E0220086E010E0724D96E000E2E
:102900000820DA6E04C5DFF403500124076E000EC0
:102910000220086E1F0E0724D96E000E0820DA6E02
:1029200005C5DFF403500124076E000E0220086E77
:102930003D0E0724D96E000E0820DA6E06C5DFF4BE
:10294000120020EE06F00150D9260250DA22DF50A4
:10295000036E01C5D9F402C5DAF4DEC404F5DDC4A2
:1029600005F504C5D9F405C5DAF4DF5003140009F0
:10297000D8A4BDEF14F0BFEF14F0C2EF14F0010EB5
:10298000C3EF14F0000E1200016E0150D8B4CBEF6B
:1029900014F0CDEF14F0DAEF14F0C1800000000065
:1029A00000000000000000000000C19000000000D6
:1029B000E4EF14F0C18000000000C19000000000AE
:1029C00000000000000000001200026E800E036E86
:1029D000025003140009D8B4F0EF14F0F2EF14F031
:1029E000F7EF14F0010EC4EC14F0FAEF14F0000E3F
:1029F000C4EC14F0D89003320350D8A402EF15F0C1
:102A000004EF15F0E8EF14F012000F6A17EF15F05D
:102A100009C501F50AC502F50FC503F50BC504F597
:102A20000CC505F50DC506F567EC14F00F2A09C5B0
:102A3000D9F40AC5DAF4DE500F5CD8A022EF15F005
:102A400024EF15F008EF15F0120001EE60F15B0EB7
:102A5000EE6AE806FDE101EE17F1070EEE6AE80600
:102A6000FDE1000EF86E260EF76E000177EF13F011
:102A700010C509F511C50AF512C50BF513C50CF5FE
:102A800014C50DF505EC15F010C504F511C505F5D7
:102A900020EC14F01200600E0001AD6F070EB16F54
:062AA000400EB36F1200AE
:020000040001F9
:04FFFC0025EF15F0E8
:020000040030CA
:08000000FCFF3DDF9FFFFFFF45
:01000900FFF7
:00000001FF
