:04000000FEEFFFF020
:10FDAA00003132334134353642373839432A302329
:10FDBA00441F1F1F1F1F1F1F1F1020408001020406
:10FDCA00080C0603092D2D2D204D495320484F526A
:10FDDA004152494F53202D2D2D00312E4167722E4D
:10FDEA00486F722020322E4D6F642E486F72005376
:10FDFA00696E20486F722E2052656769737472614A
:10FE0A00646F730020202020202020202020202022
:10FE1A002020202020202020004C696D7069616E0E
:10FE2A00646F205661726961626C6573005265671E
:10FE3A006973747261722050617374696C6C6100C9
:10FE4A004D6F6469666963617220486F7261726995
:10FE5A006F004572726F7220656E207369737465E4
:10FE6A006D61004932432073696E20636F6E657855
:10FE7A00696F6E005254432073696E20636F6E651A
:10FE8A0078696F6E0053697374656D6120636F7270
:10FE9A00726563746F00342E5265672E2070617329
:10FEAA0074696C6C617300507265706172616E6422
:10FEBA006F204461746F7300457874726179656E5E
:10FECA00646F204461746F73004F7063696F6E20B2
:10FEDA00496E76616C696461004C6579656E646F20
:10FEEA00204D656D6F726961002A2E5265736574C3
:10FEFA002073697374656D61004167726567617229
:10FF0A0020486F726172696F0041706167616E6447
:10FF1A006F2042757A7A6572004461746F73204368
:10FF2A006F72727570746F73004F7063696F6E20B1
:10FF3A004465736561646100466563686120696E42
:10FF4A0076616C69646100332E56657220686F723F
:10FF5A006172696F730041706167616E646F204CF2
:10FF6A004544730052544320646574656E69646F36
:10FF7A000056657220486F726172696F730052652C
:10FF8A00696E696369616E646F0053656C6563636A
:10FF9A00696F6E6172005265696E69636961646F47
:10FFAA0000526573657465616E646F005B425D4201
:10FFBA00616A6172005B415D5375626972005B2A16
:10FFCA005D53616C69720056616C6F723A2000531E
:10FFDA00656E736F72200053697374656D61004FAB
:10FFEA007063696F6E002E2000205000306200306E
:05FFFA0078003A000050
:020000040001F9
:100000004AEC97F0060E156E010EDDEC93F07F0EB4
:10001000146EFF0E156ED3EC8EF0000E156E030EEF
:10002000DDEC93F0E30E146EFE0E156ED3EC8EF045
:100030000C6A010E0B6E8DEC95F03E6E000E236E79
:10004000040EA9EC94F0000E156E030EDDEC93F097
:1000500010EC97F0020E156E030EDDEC93F0C20E5D
:10006000146EFE0E156ED3EC8EF0040E236E040E8D
:10007000A9EC94F03E28D8B440EF80F042EF80F035
:100080004AEF80F0060E3E6448EF80F04AEF80F0C1
:100090006EEF80F0080E236E040EA9EC94F0000EB3
:1000A000156E030EDDEC93F010EC97F0020E156E5A
:1000B000030EDDEC93F0230E146EFF0E156ED3ECE1
:1000C0008EF03D0E2C6EE10E2B6E400EE82EFED70C
:1000D0002B2EFCD72C2EFAD7F9EF81F03E50D8A466
:1000E00074EF80F076EF80F08FEF80F0080E236ED3
:1000F000040EA9EC94F0000E156E030EDDEC93F0E7
:1001000010EC97F0000E156E030EDDEC93F0F90E77
:10011000146EFD0E156ED3EC8EF061EF80F0000EC4
:10012000156E030EDDEC93F010EC97F0020E156ED9
:10013000030EDDEC93F0B10E146EFE0E156ED3ECD3
:100140008EF0080E236E040EA9EC94F00C0E236EB4
:10015000040EA9EC94F03EC52FF52E6AFF0E2F2455
:10016000016E026AFF0E0222046A030E036E51EC56
:100170008CF001502D6E4AEC97F0000E156E010EBA
:10018000DDEC93F0CF0E146EFD0E156ED3EC8EF0F9
:1001900064EF81F02F50D8B4D0EF80F0D2EF80F030
:1001A000E3EF80F0000E156E020EDDEC93F0256A91
:1001B000140E246E276A150E266E296A160E286EF6
:1001C000010EB0EC90F0010E2F64E9EF80F0EBEF40
:1001D00080F0FCEF80F0000E156E030EDDEC93F066
:1001E000256A190E246E276A1A0E266E296A1B0EBE
:1001F000286E020EB0EC90F0020E2F6402EF81F038
:1002000004EF81F06FEF81F0000E156E040EDDEC4F
:1002100093F0256A1D0E246E276A1E0E266E296A2B
:100220001F0E286E030EB0EC90F06FEF81F0030EFE
:100230002F641DEF81F01FEF81F030EF81F0000E91
:10024000156E020EDDEC93F0256A210E246E276AEE
:10025000220E266E296A230E286E040EB0EC90F052
:10026000040E2F6436EF81F038EF81F049EF81F012
:10027000000E156E030EDDEC93F0256A250E246E3C
:10028000276A260E266E296A270E286E050EB0EC08
:1002900090F0050E2F644FEF81F051EF81F06FEF7A
:1002A00081F0000E156E040EDDEC93F0256A290E28
:1002B000246E276A2A0E266E296A2B0E286E060ED9
:1002C000B0EC90F06FEF81F02E50000AD8B4CAEF76
:1002D00080F0010AD8B417EF81F06FEF81F02E5053
:1002E000D8B475EF81F077EF81F082EF81F00C0EDA
:1002F000156E020EDDEC93F0BF0E146EFF0E156E40
:10030000D3EC8EF02D502E5CD8B089EF81F08BEFBE
:1003100081F096EF81F00C0E156E040EDDEC93F07B
:10032000B60E146EFF0E156ED3EC8EF00C0E156E1D
:10033000030EDDEC93F0C80E146EFF0E156ED3ECB9
:100340008EF0406AB2EF81F0C70E166E050E176E82
:100350002EEC90F0406ED00E2B6ECA0EE82EFED71B
:100360002B2EFCD74050D8B4B8EF81F0BAEF81F013
:10037000A4EF81F0C3EF81F0D00E2B6ECA0EE82EF1
:10038000FED72B2EFCD7C70E166E050E176E2EEC61
:1003900090F00009D8A4CFEF81F0D1EF81F0BCEF4D
:1003A00081F0EAEF81F02E50D8B4D9EF81F0DBEF85
:1003B00081F0BBEF80F02E06BBEF80F02D502E5C5D
:1003C000D8B0E5EF81F0E7EF81F0BBEF80F02E2AA7
:1003D000BBEF80F040502A0AD8B4F9EF81F06B0AE5
:1003E000D8B4D3EF81F0030AD8B4DEEF81F0BBEFCD
:1003F00080F01200406A4BEF83F04AEC97F0050E54
:10040000156E010EDDEC93F0940E146EFF0E156E5A
:10041000D3EC8EF0030E156E020EDDEC93F0330E6E
:10042000146EFF0E156ED3EC8EF0520E316E2B0E45
:10043000306E000EE82EFED7302EFCD7312EFAD7C4
:1004400000D04AEC97F0000E156E010EDDEC93F033
:10045000E40E146EFD0E156ED3EC8EF0000E156ECC
:10046000020EDDEC93F0510E146EFF0E156ED3EC00
:100470008EF0000E156E030EDDEC93F0A00E146EE0
:10048000FE0E156ED3EC8EF0000E156E040EDDEC34
:1004900093F0F30E146EFE0E156ED3EC8EF0336AED
:1004A000000E326EC70E166E050E176E2EEC90F013
:1004B000406E4050D8B45FEF82F061EF82F036EFCB
:1004C00083F04AEC97F01FEF83F0070E156E010ED4
:1004D000DDEC93F0E90E146EFF0E156ED3EC8EF08A
:1004E000020E156E020EDDEC93F0030E146EFF0E7D
:1004F000156ED3EC8EF0520E316E2B0E306E000E58
:10050000E82EFED7302EFCD7312EFAD700D053EF8D
:1005100083F0070E156E010EDDEC93F0E90E146EFC
:10052000FF0E156ED3EC8EF0010E156E020EDDEC93
:1005300093F04A0E146EFE0E156ED3EC8EF07BEF28
:1005400082F0070E156E010EDDEC93F0E90E146ECD
:10055000FF0E156ED3EC8EF0040E156E020EDDEC60
:1005600093F07B0E146EFF0E156ED3EC8EF0520ED0
:10057000316E2B0E306E000EE82EFED7302EFCD7DB
:10058000312EFAD700D000EC80F036EF83F0070E62
:10059000156E010EDDEC93F0E90E146EFF0E156E74
:1005A000D3EC8EF0010E156E020EDDEC93F0370EDB
:1005B000146EFE0E156ED3EC8EF07BEF82F0070EFC
:1005C000156E010EDDEC93F0E90E146EFF0E156E44
:1005D000D3EC8EF0030E156E020EDDEC93F0F50EEB
:1005E000146EFE0E156ED3EC8EF0520E316E2B0E85
:1005F000306E000EE82EFED7302EFCD7312EFAD703
:1006000000D0FAEC86F053EF83F0020E156E020E66
:10061000DDEC93F0D30E146EFE0E156ED3EC8EF05F
:10062000150E316E4B0E306EBE0EE82EFED7302EFC
:10063000FCD7312EFAD700D0406A36EF83F0405015
:100640002A0AD8B4DFEF82F01B0AD8B465EF82F033
:10065000030AD8B489EF82F0010AD8B4A1EF82F07E
:10066000070AD8B4C7EF82F005EF83F0680E306E4A
:10067000E40EE82EFED7302EFCD700D0324A332AC3
:10068000F40E325C010E3358D8A049EF83F04BEFE3
:1006900083F052EF82F04050D8B451EF83F053EF23
:1006A00083F0FDEF81F0120004500510D8A45BEF39
:1006B00083F05DEF83F060EF83F0000E80EF84F055
:1006C00004C5D9F405C5DAF4DF507F0B096E20EEBE
:1006D00001F00450D9260550DA22DF507F0B0A6E54
:1006E00020EE04F00450D9260550DA22DF503F0BEB
:1006F0000B6E20EE05F00450D9260550DA22DF50AB
:100700001F0B0C6E20EE06F00450D9260550DA229D
:10071000DF50066E20EE03F00450D9260550DA2291
:10072000DF50070B0F6E20EE02F00450D926055063
:10073000DA22DFAC9EEF83F0A0EF83F0ABEF83F023
:1007400020EE02F00450D9260550DA22DF501F0BAC
:10075000106EB4EF83F020EE02F00450D92605505D
:10076000DA22DF503F0B106E095006EC96F00009BC
:10077000D8B4BDEF83F0BFEF83F05DEF83F00A5094
:1007800006EC96F00009D8B4C8EF83F0CAEF83F006
:100790005DEF83F0105006EC96F00009D8B4D3EF6B
:1007A00083F0D5EF83F05DEF83F00B5006EC96F00D
:1007B0000009D8B4DEEF83F0E0EF83F05DEF83F063
:1007C0000C5006EC96F00009D8B4E9EF83F0EBEF9B
:1007D00083F05DEF83F0065006EC96F00009D8A494
:1007E000F4EF83F0F6EF83F0F8EF83F05DEF83F042
:1007F0000950EEEC96F0076E0A50EEEC96F0086E9B
:100800001050EEEC96F0116E0B50EEEC96F00D6E73
:100810000C50EEEC96F00E6E3B0E076412EF84F077
:1008200014EF84F016EF84F05DEF83F03B0E086464
:100830001CEF84F01EEF84F020EF84F05DEF83F076
:1008400020EE02F00450D9260550DA22DFAC2BEF5F
:1008500084F02DEF84F03FEF84F01150D8B433EFE3
:1008600084F035EF84F05DEF83F00C0E11643BEF04
:1008700084F03DEF84F049EF84F05DEF83F0170ED4
:10088000116445EF84F047EF84F049EF84F05DEFA9
:1008900083F00F50D8B44FEF84F051EF84F05DEF48
:1008A00083F0070E0F6457EF84F059EF84F05BEF8D
:1008B00084F05DEF83F00D50D8B461EF84F063EF06
:1008C00084F05DEF83F01F0E0D6469EF84F06BEF31
:1008D00084F06DEF84F05DEF83F00E50D8B473EFC9
:1008E00084F075EF84F05DEF83F00C0E0E647BEF07
:1008F00084F07DEF84F07FEF84F05DEF83F0010EF4
:10090000120012501310D8A488EF84F08AEF84F0FC
:100910008DEF84F0050E6FEF85F020EE08F0125099
:10092000D9261350DA22DF6A20EE09F01250D926B8
:100930001350DA22DF6A20EE0AF01250D926135043
:10094000DA22DF6A20EE0BF01250D9261350DA2299
:10095000DF6A170E106E050E116E57EC96F01E6EC4
:100960001E50D8B4B6EF84F0B8EF84F0BBEF84F03B
:100970001E506FEF85F020EE08F01250D92613506C
:10098000DA2217AEC6EF84F0C9EF84F0010ECAEF89
:1009900084F0000EDF6E20EE09F01250D9261350BD
:1009A000DA2219BCD6EF84F0D9EF84F0010EDAEF29
:1009B00084F0000EDF6E20EE09F01250D92613509D
:1009C000DA22DF50D8B4E7EF84F0E9EF84F006EFE5
:1009D00085F020EE0AF01250D9261350DA2219BA07
:1009E000F4EF84F0F7EF84F0010EF8EF84F0000EDE
:1009F000DF6E20EE02F01250D9261350DA22195081
:100A00001F0BEEEC96F0DF6E18EF85F020EE0AF08B
:100A10001250D9261350DA22DF6A20EE02F012506B
:100A2000D9261350DA2219503F0BEEEC96F0DF6E08
:100A300017507F0BEEEC96F012C5D9F413C5DAF41B
:100A4000DF6E20EE01F01250D9261350DA22185032
:100A50007F0BEEEC96F0DF6E20EE03F01250D926FD
:100A60001350DA221A50070BDF6E20EE04F01250FA
:100A7000D9261350DA221B503F0BEEEC96F0DF6EB6
:100A800020EE05F01250D9261350DA221C501F0B0D
:100A9000EEEC96F0DF6E1D50EEEC96F0146ED00E7C
:100AA0001424156E166A070E162220EE06F0125058
:100AB000D9261350DA2215C5DEF416C5DDF4170E5B
:100AC000046E050E056E54EC83F0146E20EE0BF0F0
:100AD0001250D9261350DA2214C5DFF4000E12008A
:100AE0001950D8B476EF85F078EF85F089EF85F06E
:100AF000060E19607EEF85F080EF85F089EF85F0B6
:100B000019501A5CD8A087EF85F089EF85F08CEF3B
:100B100085F0050E45EF86F0010E1D6E000E1E6E6F
:100B2000000E1F6E000E206E010E1C6EB3EF85F0DE
:100B30001DC501F51EC502F51FC503F520C504F549
:100B40000A0E056E000E066E000E076E000E086E91
:100B500012EC92F001C51DF502C51EF503C51FF587
:100B600004C520F51C2A19501C5CD8A0BAEF85F0EA
:100B7000BCEF85F098EF85F01C6A3BEF86F01A50C9
:100B8000D8B4C5EF85F0C7EF85F0E0EF85F01A50D7
:100B9000195C1C18D8A4CFEF85F0D1EF85F0E0EFF9
:100BA00085F02E0E6DEC96F0216E2150D8B4DBEF5F
:100BB00085F0DDEF85F0E0EF85F0215045EF86F020
:100BC0001DC505F51EC506F51FC507F520C508F5A9
:100BD00017C501F518C502F5036A046A04EC8DF027
:100BE00001C50EF502C50FF503C510F504C511F5D5
:100BF0000A0E126E000E136E000E146E000E156EAD
:100C0000A6EC8FF00E501B6E1B50300F6DEC96F063
:100C1000216E2150D8B40FEF86F011EF86F013EF5C
:100C200086F0DDEF85F020501F101E1009E1020E46
:100C30001D5CD8A01EEF86F020EF86F03AEF86F01C
:100C40001DC501F51EC502F51FC503F520C504F538
:100C50000A0E056E000E066E000E076E000E086E80
:100C600004EC8DF001C51DF502C51EF503C51FF589
:100C700004C520F51C2A19501C5CD8A042EF86F050
:100C800044EF86F0BFEF85F0000E1200030E166EE3
:100C9000080E156E770EE82EFED7152EFCD7162EF1
:100CA000FAD70000080E5B6E040E5A6E5B5031ECF2
:100CB00097F0176E1750D8B460EF86F062EF86F0A9
:100CC00064EF86F0F9EF86F0340E156EF20EE82E22
:100CD000FED7152EFCD7000E096E300EACEC95F049
:100CE000176E1750D8B477EF86F079EF86F07BEF68
:100CF00086F0F9EF86F0340E156EF20EE82EFED770
:100D0000152EFCD7000E096E300EACEC95F0176E68
:100D10001750D8B48EEF86F090EF86F092EF86F001
:100D2000F9EF86F0F00E00D0E82EFDD7000E096E28
:100D3000300EACEC95F0176E1750D8B4A2EF86F0D9
:100D4000A4EF86F0A6EF86F0F9EF86F0F00E00D063
:100D5000E82EFDD7000E096E200EACEC95F0176E54
:100D60001750D8B4B6EF86F0B8EF86F0BAEF86F039
:100D7000F9EF86F0F00E00D0E82EFDD7280E14EC27
:100D800093F0176E1750D8B4C8EF86F0CAEF86F00C
:100D9000CCEF86F0F9EF86F05A6A45EC97F0176EC3
:100DA0001750D8B4D6EF86F0D8EF86F0DAEF86F099
:100DB000F9EF86F04AEC97F0176E1750D8B4E3EFCE
:100DC00086F0E5EF86F0E7EF86F0F9EF86F0060EA5
:100DD00014EC93F0176E1750D8B4F1EF86F0F3EFE0
:100DE00086F0F5EF86F0F9EF86F0040E5A6E45ECCA
:100DF00097F012004AEC97F0040E156E010EDDEC30
:100E000093F0880E146EFF0E156ED3EC8EF0060E66
:100E1000156E020EDDEC93F0E10E146EFF0E156EF2
:100E2000D3EC8EF0290E296E960E286E7F0EE82EDA
:100E3000FED7282EFCD7292EFAD70000040E156EF7
:100E4000030EDDEC93F0130E146EFF0E156ED3EC53
:100E50008EF0F80E086E050E096E2AEC97F0020E61
:100E6000236E040EA9EC94F0000E156E030EDDEC5B
:100E700093F010EC97F0040E156E030EDDEC93F07A
:100E8000600E146EFF0E156ED3EC8EF0600E106EB9
:100E9000050E116EBFEC96F0060E236E040EA9EC43
:100EA00094F0000E156E030EDDEC93F010EC97F04D
:100EB000010E156E030EDDEC93F0230E146EFE0E84
:100EC000156ED3EC8EF00A0E236E040EA9EC94F08E
:100ED000000E156E030EDDEC93F010EC97F0050E8E
:100EE000156E030EDDEC93F0AB0E146EFF0E156E57
:100EF000D3EC8EF00E0E236E040EA9EC94F04AECA7
:100F000097F0050E156E020EDDEC93F0E10E146EF7
:100F1000FF0E156ED3EC8EF0040E156E030EDDEC95
:100F200093F0A00E146EFF0E156ED3EC8EF0290E0A
:100F3000296E960E286E7F0EE82EFED7282EFCD73F
:100F4000292EFAD700004AEC97F012002E6A000E04
:100F50002D6E18BEB0EF87F0AEEF87F0C2EF87F0CE
:100F60002D0E216E2D4A2E2A17C519F518C51AF512
:100F7000191E1A1E194A1A2A19C52BF51AC52CF55D
:100F8000C6EF87F017C52BF518C52CF52B502C1084
:100F9000D8A4CDEF87F0CFEF87F0DBEF87F0210EFD
:100FA0002D24D96E050E2E20DA6E300EDF6E2D4AFE
:100FB0002E2A3FEF88F02A6A000E296E01EF88F092
:100FC0001B0E2924D96E050E2A20DA6E2BC501F5D9
:100FD0002CC502F5046A0A0E036E7AEC93F00150F8
:100FE000300FDF6E294A2A2A2BC501F52CC502F5E0
:100FF000046A0A0E036EA1EC91F001C52BF502C53F
:101000002CF52B502C10D8B408EF88F00AEF88F09C
:101010002AEF88F02ABE16EF88F02A5009E1060E62
:10102000295CD8A016EF88F018EF88F0E0EF87F081
:101030002AEF88F01B0E2924D96E050E2A20DA6EBD
:10104000210E2D24E16E050E2E20E26EDFC4E7F4A2
:101050002D4A2E2A2950196E2A501A6E010E295E29
:10106000000E2A5A1ABE3FEF88F01A5006E1190402
:10107000D8B03DEF88F03FEF88F01AEF88F0210EEE
:101080002D24D96E050E2E20DA6EDF6A210E146E25
:10109000050E156ED3EC8EF0120007C5D9F408C505
:1010A000DAF409C5DEF40AC5DDF420EE02F00750DB
:1010B000D9260850DA220BC5DEF40CC5DDF420EE8B
:1010C00004F00750D9260850DA220DC5DEF40EC50B
:1010D000DDF420EE06F00750D9260850DA220FC5BD
:1010E000DEF410C5DDF420EE08F00750D9260850D4
:1010F000DA2211C5DEF412C5DDF420EE06F0075049
:10110000D9260850DA22DEC413F5DDC414F513C560
:10111000D9F414C5DAF4DF6A20EE04F00750D926BA
:101120000850DA22DEC413F5DDC414F513C5D9F472
:1011300014C5DAF410EE04F00750E1260850E2225C
:10114000E6C415F5E5C416F515C5E1F416C5E2F4D7
:10115000E750F00BDF6E20EE04F00750D926085060
:10116000DA22DEC413F5DDC414F513C5D9F414C5B1
:10117000DAF410EE04F00750E1260850E222E6C44B
:1011800015F5E5C416F515C5E1F416C5E2F4E7500A
:10119000F009DF6E20EE08F00750D9260850DA2259
:1011A000DEC413F5DDC414F513C5D9F414C5DAF49F
:1011B00010EE08F00750E1260850E222E6C415F5CB
:1011C000E5C416F515C5E1F416C5E2F4E750F009DB
:1011D000DF6E07C501F508C502F54EEC95F012006B
:1011E00001C5D9F402C5DAF403C5DEF404C5DDF4A3
:1011F00020EE02F00150D9260250DA2205C5DEF4B5
:1012000006C5DDF420EE04F00150D9260250DA22A2
:1012100007C5DEF408C5DDF420EE06F00150D9263E
:101220000250DA2209C5DFF420EE07F00150D9267A
:101230000250DA22DF6A20EE06F00150D926025071
:10124000DA22DF50D8A427EF89F029EF89F059EF8F
:1012500089F020EE02F00150D9260250DA22DEC4D5
:101260000AF5DDC40BF50AC5D9F40BC5DAF4F00EA6
:10127000DF1620EE04F00150D9260250DA22DEC437
:101280000AF5DDC40BF50AC5D9F40BC5DAF4F00E86
:10129000DF1601C5D9F402C5DAF4DEC40AF5DDC4EF
:1012A0000BF50AC5D9F40BC5DAF4F00EDF1687EF9B
:1012B00089F020EE02F00150D9260250DA22DEC475
:1012C0000AF5DDC40BF50AC5D9F40BC5DAF40F0E27
:1012D000DF1620EE04F00150D9260250DA22DEC4D7
:1012E0000AF5DDC40BF50AC5D9F40BC5DAF40F0E07
:1012F000DF1601C5D9F402C5DAF4DEC40AF5DDC48F
:101300000BF50AC5D9F40BC5DAF40F0EDF1612007F
:101310003F50D8B48EEF89F090EF89F096EF89F0C6
:101320006D0E186EFE0E196E7BEC92F0BB0E126EF7
:10133000050E136E81EC84F03F6E3F50D8B4A3EFDE
:1013400089F0A5EF89F0ABEF89F07E0E186EFE0EE6
:10135000196E7BEC92F00501C351D8A4B2EF89F06D
:10136000B4EF89F0BAEF89F06E0E186EFF0E196EA9
:101370007BEC92F00501C651D8A4C1EF89F0C3EF10
:1013800089F0C9EF89F0420E186EFF0E196E7BECE2
:1013900092F04AEC97F0000E156E010EDDEC93F022
:1013A0008F0E146EFE0E156ED3EC8EF0600E106E66
:1013B000050E116E000E126EC80E136E000E146E26
:1013C000ACEC96F0290E356E960E346E7F0EE82E3C
:1013D000FED7342EFCD7352EFAD70000FAEC81F078
:1013E000520E356E2B0E346E000EE82EFED7342EC4
:1013F000FCD7352EFAD700D061EC8FF0290E356E70
:10140000960E346E7F0EE82EFED7342EFCD7352E86
:10141000FAD70000FCEF89F01200066E800E06601D
:1014200014EF8AF016EF8AF027EF8AF003500410C9
:10143000D8B41DEF8AF01FEF8AF027EF8AF005502D
:10144000D8A425EF8AF027EF8AF02CEF8AF0050E5A
:10145000416E415087EF8AF047EC93F0086E0850D8
:10146000D8B435EF8AF037EF8AF03EEF8AF008C53E
:1014700041F538EC97F0085087EF8AF04EEC97F082
:101480000201949D065006248F6F05C58DF203C599
:10149000D9F404C5DAF4DF508C6F948B010E076E1B
:1014A00069EF8AF02AEC91F0086E0850D8B45BEF2F
:1014B0008AF05DEF8AF05FEF8AF037EF8AF007502D
:1014C0000324D96E000E0420DA6EDF5002018C6F07
:1014D000072A0550075CD8A070EF8AF072EF8AF0F7
:1014E00052EF8AF0EAEC8FF0086E0850D8B47BEF28
:1014F0008AF07DEF8AF081EF8AF038EC97F083EF85
:101500008AF04EEC97F008C541F53BEF8AF01200E7
:1015100008C5D9F409C5DAF40AC5DEF40BC5DDF453
:1015200020EE02F00850D9260950DA220CC5DEF46C
:101530000DC5DDF420EE04F00850D9260950DA225A
:101540000EC5DEF40FC5DDF420EE06F00850D926F6
:101550000950DA2210C5DFF420EE04F00850D92635
:101560000950DA22DEC411F5DDC412F511C5D9F433
:1015700012C5DAF410EE04F00850E1260950E22218
:10158000E6C413F5E5C414F513C5E1F414C5E2F49B
:10159000E750156E10EE06F00850E1260950E222E1
:1015A000E750FF0A1514DF6E20EE02F00850D9262E
:1015B0000950DA22DEC411F5DDC412F511C5D9F4E3
:1015C00012C5DAF410EE02F00850E1260950E222CA
:1015D000E6C413F5E5C414F513C5E1F414C5E2F44B
:1015E000E750156E10EE06F00850E1260950E22291
:1015F000E750FF0A1514DF6E08C501F509C502F5AD
:1016000084EC94F01200066E800E06600AEF8BF0F8
:101610000CEF8BF01DEF8BF003500410D8B413EFD8
:101620008BF015EF8BF01DEF8BF00550D8A41BEF5E
:101630008BF01DEF8BF022EF8BF0050E416E4150C9
:1016400076EF8BF047EC93F0086E0850D8B42BEF90
:101650008BF02DEF8BF034EF8BF008C541F538ECB3
:1016600097F0085076EF8BF04EEC97F00201949DC6
:10167000958F05C58DF2D88006348F6F948B076ADD
:1016800058EF8BF0EDEC90F0086E0850D8B44BEFAB
:101690008BF04DEF8BF04FEF8BF02DEF8BF0075071
:1016A0000324D96E000E0420DA6E8BC2DFF4072A01
:1016B0000550075CD8A05FEF8BF061EF8BF042EF35
:1016C0008BF0E1EC92F0086E0850D8B46AEF8BF022
:1016D0006CEF8BF070EF8BF038EC97F072EF8BF0D3
:1016E0004EEC97F008C541F531EF8BF0120001C5C3
:1016F000D9F402C5DAF403C5DEF404C5DDF420EE46
:1017000002F00150D9260250DA2205C5DEF406C5E2
:10171000DDF420EE04F00150D9260250DA2207C58C
:10172000DEF408C5DDF420EE06F00150D9260250A3
:10173000DA2209C5DFF420EE04F00150D926025068
:10174000DA22DEC40AF5DDC40BF50AC5D9F40BC5EF
:10175000DAF410EE04F00150E1260250E222E6C471
:101760000CF5E5C40DF50CC5E1F40DC5E2F4E75048
:101770000E6E10EE06F00150E1260250E222E75014
:10178000FF0A0E14DF6E20EE02F00150D92602503F
:10179000DA22DEC40AF5DDC40BF50AC5D9F40BC59F
:1017A000DAF410EE06F00150E1260250E222E75092
:1017B0000C6E10EE02F00150E1260250E222E6C467
:1017C0000DF5E5C40EF50DC5E1F40EC5E2F4E750E4
:1017D0000C10DF6E1200146A0FC507F510C508F56E
:1017E00014C509F5AEEC92F00D0EE82EFED7000000
:1017F000156AC30E1524F66EF76AFD0EF722F86A15
:10180000000EF8220800F5C411F50FC5D9F410C573
:10181000DAF4DEC412F5DDC413F512C5D9F413C52C
:10182000DAF4DF5011140009D8A419EF8CF01BEF83
:101830008CF037EF8CF00FC501F510C502F54EECBA
:1018400095F01450040DAB0EF324116EFD0EF42030
:10185000126E15501126000E122211C5F6F412C593
:10186000F7F4000EF86E0800F55050EF8CF0152AD2
:10187000030E15643EEF8CF040EF8CF0F9EF8BF027
:10188000142A030E146447EF8CF049EF8CF0ECEF50
:101890008BF00FC501F510C502F54EEC95F0000E6A
:1018A0001200066A04BE59EF8CF057EF8CF05FEF20
:1018B0008CF0036C041ED8B0042A010E066E02BE22
:1018C00066EF8CF064EF8CF06CEF8CF0016C021E14
:1018D000D8B0022A010E061A086A000E076E0350DD
:1018E0000410D8B476EF8CF078EF8CF0A0EF8CF089
:1018F000010E056E80EF8CF0D89003360436052A71
:1019000004AE85EF8CF087EF8CF07CEF8CF0D890F4
:10191000073608360350015C04500258D8A093EFF4
:101920008CF095EF8CF09AEF8CF00350015E045030
:10193000025A0780D89004320332052E87EF8CF0CC
:101940000650D8B4A6EF8CF0A8EF8CF0ACEF8CF07A
:10195000076C081ED8B0082A07C501F508C502F5AE
:1019600012001E0E0364B7EF8CF0B9EF8CF0C1EFDC
:101970008CF001C5D9F402C5DAF41E0EDF6EC7EF94
:101980008CF001C5D9F402C5DAF403C5DFF4040113
:101990001091C890C090066AF6EF8CF006500124B2
:1019A000046E000E0220056E010E0424D96E000E96
:1019B0000520DA6EDF6A06500124046E000E022054
:1019C000056E1F0E0424D96E000E0520DA6EDF6A44
:1019D00006500124046E000E0220056E3D0E042404
:1019E000D96E000E0520DA6EDF6A062A01C5D9F429
:1019F00002C5DAF4DE50065CD8A001EF8DF003EFEB
:101A00008DF0CEEF8CF01200000E096E000E0A6E03
:101A1000000E0B6E000E0C6E05500610071008101D
:101A2000D8B415EF8DF017EF8DF04DEF8DF0010E5E
:101A30000D6E21EF8DF0D890053606360736083644
:101A40000D2A08AE26EF8DF028EF8DF01BEF8DF0FC
:101A5000D89009360A360B360C360550015C065014
:101A600002580750035808500458D8A03AEF8DF098
:101A70003CEF8DF045EF8DF00550015E0650025AA7
:101A80000750035A0850045A0980D8900832073288
:101A9000063205320D2E28EF8DF009C501F50AC575
:101AA00002F50BC503F50CC504F51200E90E016E35
:101AB000050E026EBE0E036E040E046EC60E056E9B
:101AC000040E066E000E076E040E086E000E096E00
:101AD000F0EC88F0E10E016E050E026EBE0E036E94
:101AE000040E046EC60E056E040E066E000E076E22
:101AF000040E086E010E096EF0EC88F0D90E016E2E
:101B0000050E026EBF0E036E040E046EC70E056E48
:101B1000040E066E080E076E040E086E000E096EA7
:101B2000F0EC88F0D10E016E050E026EBF0E036E52
:101B3000040E046EC70E056E040E066E080E076EC8
:101B4000040E086E010E096EF0EC88F0120001C55B
:101B5000D9F402C5DAF403C5DEF404C5DDF420EEE1
:101B600002F00150D9260250DA2205C5DEF406C57E
:101B7000DDF420EE04F00150D9260250DA2207C528
:101B8000DFF420EE05F00150D9260250DA2208C514
:101B9000DFF420EE04F00150D9260250DA22DF50A3
:101BA000096E01C5D9F402C5DAF4DEC40AF5DDC454
:101BB0000BF50AC5D9F40BC5DAF40950DF1220EE93
:101BC00004F00150D9260250DA22DF50096E20EECF
:101BD00002F00150D9260250DA22DEC40AF5DDC433
:101BE0000BF50AC5D9F40BC5DAF40950DF1212005F
:101BF00022EC97F0540E016E050E026ECB0E036EB2
:101C0000040E046E280E056E040E066E010E076E9D
:101C1000280E086EA7EC8DF04E0E016E050E026EBA
:101C2000CB0E036E040E046E280E056E040E066EB7
:101C3000020E076E290E086EA7EC8DF0480E016E9D
:101C4000050E026ECB0E036E040E046E280E056E9A
:101C5000040E066E040E076E2A0E086EA7EC8DF0B9
:101C6000420E016E050E026ECB0E036E040E046E64
:101C7000280E056E040E066E080E076E2B0E086EFB
:101C8000A7EC8DF01200086A74EF8EF0085004245F
:101C9000066E000E0520076E1F0E0624D96E000E7C
:101CA0000720DA6EDF500EEC95F008500424066E23
:101CB000000E0520076E010E0624D96E000E0720C7
:101CC000DA6EDF500EEC95F008500424066E000E1C
:101CD0000520076E3D0E0624D96E000E0720DA6E31
:101CE000DF500EEC95F0082A04C5D9F405C5DAF4E6
:101CF000DE50085CD8A07FEF8EF081EF8EF046EFCB
:101D00008EF0C090040E066E1C0EE82EFED7062E36
:101D1000FCD700D0120015501610D8B492EF8EF0F8
:101D200094EF8EF09CEF8EF0070E17649AEF8EF012
:101D30009CEF8EF09FEF8EF0050ED2EF8EF01738ED
:101D4000E842F80B400914EC93F0196E1950D8B41E
:101D5000ACEF8EF0AEEF8EF0B1EF8EF01950D2EF07
:101D60008EF0186A18501524D96E000E1620DA6EFF
:101D7000DF506DEC96F0196E1950D8B4C2EF8EF0AA
:101D8000C4EF8EF0C6EF8EF0AEEF8EF0182A070E7D
:101D90001864CDEF8EF0CFEF8EF0B2EF8EF0800EA4
:101DA00014EC93F0120014501510D8A4DAEF8EF052
:101DB000DCEF8EF000EF8FF0050E1AEF8FF014C5F8
:101DC000F6F415C5F7F4000EF86E250EF76403D08F
:101DD0000800F55005D0F6C4E9F4F7C4EAF4EF5072
:101DE0006DEC96F0166E1650D8B4F9EF8EF0FBEF4E
:101DF0008EF0FEEF8EF016501AEF8FF0144A152A6F
:101E000014C5F6F415C5F7F4000EF86E250EF76448
:101E100003D00800F55005D0F6C4E9F4F7C4EAF49D
:101E2000EF500009D8A417EF8FF019EF8FF0DFEF14
:101E30008EF0000E120020EE05F00150D92602505F
:101E4000DA225D50DE18D8B428EF8FF02AEF8FF039
:101E50004DEF8FF03B0E0301EC6FF381F3B133EFE5
:101E60008FF035EF8FF02EEF8FF020EE05F0015060
:101E7000D9260250DA22DF50EC6FF381F3B143EF41
:101E80008FF045EF8FF03EEF8FF020EE05F0015020
:101E9000D9260250DA22DF505D6E0301F381F3B1DF
:101EA00054EF8FF056EF8FF04FEF8FF0EB51036E42
:101EB000EA51056E03C506F505C501F506C502F52F
:101EC0001200540E016E050E026E1BEC8FF001C560
:101ED0003CF502C53DF53CC52FF53DC530F5010E7D
:101EE000ACEC93F04E0E016E050E026E1BEC8FF003
:101EF00001C53AF502C53BF53AC52FF53BC530F5AE
:101F0000020EACEC93F0480E016E050E026E1BEC57
:101F10008FF001C538F502C539F538C52FF539C53B
:101F200030F5030EACEC93F0420E016E050E026E1E
:101F30001BEC8FF001C536F502C537F536C52FF518
:101F400037C530F5040EACEC93F0120012501310AC
:101F500014101510D8B4AFEF8FF0B1EF8FF0E1EFA0
:101F60008FF0010E166EBBEF8FF0D890123613363D
:101F700014361536162A15AEC0EF8FF0C2EF8FF06B
:101F8000B5EF8FF012500E5C13500F5814501058CC
:101F900015501158D8A0CFEF8FF0D1EF8FF0D9EFB7
:101FA0008FF012500E5E13500F5A1450105A1550E5
:101FB000115AD8901532143213321232162EC2EF43
:101FC0008FF00EC50EF50FC50FF510C510F511C534
:101FD00011F51200EA0E026E600E016E13EF90F022
:101FE00097ADF5EF8FF0F7EF8FF0FAEF8FF0030E6C
:101FF0002DEF90F097ABFFEF8FF001EF90F004EF33
:1020000090F0020E2DEF90F001500210D8A40BEFCB
:1020100090F00DEF90F010EF90F0040E2DEF90F097
:102020000106D8A0020602019AA519EF90F01BEF55
:1020300090F0F0EF8FF095BB20EF90F022EF90F052
:1020400029EF90F097A927EF90F029EF90F02CEF6F
:1020500090F0010E2DEF90F0000E120016C50FF556
:1020600017C510F5EBEC8BF01A6E1A50D8A43BEFA5
:1020700090F03DEF90F040EF90F0000E6FEF90F099
:10208000D00E186ECA0EE82EFED7182EFCD716C535
:102090000FF517C510F5EBEC8BF0196E1A501918E7
:1020A000D8B455EF90F057EF90F059EF90F03DEF26
:1020B00090F016C50FF517C510F5EBEC8BF0000985
:1020C000D8A465EF90F067EF90F059EF90F0D00E44
:1020D000186ECA0EE82EFED7182EFCD71A50120022
:1020E00056EC8DF019EC97F097EC96F023EC96F007
:1020F000F8EC8DF082EC96F0FAEC96F00C6A010E9A
:102100000B6E020E0D6E33EC94F00C6A140E0B6E17
:10211000080E0D6E33EC94F00C6A150E0B6E090E62
:102120000D6E33EC94F00C6A160E0B6E010E0D6EF4
:1021300033EC94F00C6A190E0B6E090E0D6E33EC35
:1021400094F00C6A1A0E0B6E150E0D6E33EC94F0B3
:102150000C6A1B0E0B6E030E0D6E33EC94F0120026
:102160002A6E010E226E2A50E9EC95F0F00E146EE4
:10217000FF0E156ED3EC8EF024C50BF525C50CF5BE
:102180008DEC95F03E6E020E226E3E50E9EC95F01D
:10219000FC0E146EFF0E156ED3EC8EF026C50BF5FB
:1021A00027C50CF58DEC95F03E6E020E226E3E506A
:1021B000E9EC95F0F30E146EFF0E156ED3EC8EF075
:1021C00028C50BF529C50CF58DEC95F03E6E010E7A
:1021D000226E3E50E9EC95F01200EA0E026E600E9F
:1021E000016E20EF91F097A9F8EF90F0FAEF90F0E0
:1021F000FDEF90F0010E29EF91F097AD02EF91F015
:1022000004EF91F007EF91F0030E29EF91F097ABF7
:102210000CEF91F00EEF91F011EF91F0020E29EF1B
:1022200091F001500210D8A418EF91F01AEF91F03C
:102230001DEF91F0040E29EF91F00106D8A00206DF
:10224000020199A126EF91F028EF91F0F3EF90F0C1
:10225000000E1200EA0E026E600E016E5DEF91F04C
:1022600097A935EF91F037EF91F03AEF91F0010E29
:1022700066EF91F097AD3FEF91F041EF91F044EFB1
:1022800091F0030E66EF91F097AB49EF91F04BEFB1
:1022900091F04EEF91F0020E66EF91F001500210B6
:1022A000D8A455EF91F057EF91F05AEF91F0040E4A
:1022B00066EF91F00106D8A00206020199AB63EF28
:1022C00091F065EF91F030EF91F0000E120001C532
:1022D000D9F402C5DAF4DE50035CD8A072EF91F0B5
:1022E00074EF91F076EF91F0A0EF91F0035001249C
:1022F000076E000E0220086E010E0724D96E000E34
:102300000820DA6E04C5DFF403500124076E000EC6
:102310000220086E1F0E0724D96E000E0820DA6E08
:1023200005C5DFF403500124076E000E0220086E7D
:102330003D0E0724D96E000E0820DA6E06C5DFF4C4
:102340001200066A000E056E03500410D8B4ABEFFD
:1023500091F0ADEF91F0D5EF91F0010E076EB5EF72
:1023600091F0D89003360436072A04AEBAEF91F004
:10237000BCEF91F0B1EF91F0D890053606360350DE
:10238000015C04500258D8A0C8EF91F0CAEF91F058
:10239000CFEF91F00350015E0450025A0580D890AF
:1023A00004320332072EBCEF91F005C501F506C5D6
:1023B00002F512000E6E400E0E60E1EF91F0E3EFB9
:1023C00091F0F4EF91F00B500C10D8B4EAEF91F0CB
:1023D000ECEF91F0F4EF91F00D50D8A4F2EF91F002
:1023E000F4EF91F0F7EF91F0050E11EF92F00EC5BA
:1023F00009F5680E05EC97F00F6E0F50D8B403EF97
:1024000092F005EF92F008EF92F00F5011EF92F07A
:102410000BC503F50CC504F50DC505F5680E03ECF9
:102420008BF01200000E096E000E0A6E000E0B6E8D
:10243000000E0C6E01A01FEF92F021EF92F029EF39
:1024400092F00550092606500A2207500B22085028
:102450000C22D8900536063607360836D890043256
:102460000332023201320150021003100410D8A4CA
:102470003CEF92F03EEF92F01AEF92F009C501F5B1
:102480000AC502F50BC503F50CC504F5120014507E
:102490001510D8A44EEF92F050EF92F052EF92F058
:1024A0007AEF92F01A6A71EF92F01A501424176EB4
:1024B000000E1520186E17C5F6F418C5F7F4000EB7
:1024C000F86E0800F5506DEC96F0196E1950D8B4FE
:1024D0006CEF92F06EEF92F070EF92F07AEF92F074
:1024E0001A2A16501A5CD8A078EF92F07AEF92F080
:1024F00055EF92F012004AEC97F0000E156E010EA7
:10250000DDEC93F05C0E146EFE0E156ED3EC8EF0C7
:10251000000E156E020EDDEC93F018C514F519C50A
:1025200015F5D3EC8EF0600E106E050E116EC80E10
:10253000126E000E136E000E146EACEC96F0290EA7
:102540001B6E960E1A6E7F0EE82EFED71A2EFCD743
:102550001B2EFAD700009FEF92F0120007C501F57D
:1025600008C502F54EEC95F020EE02F00750D92692
:102570000850DA22DEC40AF5DDC40BF50AC5D9F429
:102580000BC5DAF410EE02F00750E1260850E22203
:10259000E6C40CF5E5C40DF50CC5E1F40DC5E2F497
:1025A000E7500E6EC70E0924F66EF76AFD0EF7228D
:1025B000F86A000EF8220800F550FF0A0E14DF6ECC
:1025C0001200EA0E026E600E016E0AEF93F097ADF4
:1025D000ECEF92F0EEEF92F0F1EF92F0030E13EFCA
:1025E00093F097ABF6EF92F0F8EF92F0FBEF92F0EA
:1025F000020E13EF93F001500210D8A402EF93F0F3
:1026000004EF93F007EF93F0040E13EF93F001063D
:10261000D8A0020602019AA510EF93F012EF93F0F2
:10262000E7EF92F0000E1200146E000E096E1450C7
:1026300008EC94F0136E1350D8B421EF93F023EF0D
:1026400093F026EF93F0135046EF93F01404D8B4B0
:102650002CEF93F02EEF93F037EF93F0020E141857
:10266000D8A435EF93F037EF93F041EF93F0150EC8
:10267000126EC60EE82EFED7122EFCD700D045EF04
:1026800093F0850EE82EFED70000000E1200EA0E31
:10269000026E600E016E70EF93F097AD52EF93F003
:1026A00054EF93F057EF93F0030E79EF93F097AB5D
:1026B0005CEF93F05EEF93F061EF93F0020E79EF31
:1026C00093F001500210D8A468EF93F06AEF93F0F2
:1026D0006DEF93F0040E79EF93F00106D8A0020697
:1026E000020198AF76EF93F078EF93F04DEF93F00F
:1026F000000E120003500410D8B481EF93F083EF62
:1027000093F0A7EF93F0010E056E8BEF93F0D89046
:1027100003360436052A04AE90EF93F092EF93F05F
:1027200087EF93F00350015C04500258D8A09BEF50
:1027300093F09DEF93F0A1EF93F00350015E0450EE
:10274000025AD89004320332052E92EF93F001C55D
:1027500001F502C502F51200336E4AEC97F0000E47
:10276000156E010EDDEC93F0D90E146EFF0E156E92
:10277000D3EC8EF033C517F5186AA6EC87F0000E7F
:10278000156E020EDDEC93F0D10E146EFF0E156E79
:10279000D3EC8EF02FC517F530C518F5A6EC87F0F1
:1027A000290E326E960E316E7F0EE82EFED7312E38
:1027B000FCD7322EFAD700001200166EEFEF93F01E
:1027C000176A02EF94F0400E176E02EF94F0140EA9
:1027D000176E02EF94F0540E176E02EF94F016503D
:1027E000010AD8B4E0EF93F0030AD8B4E3EF93F012
:1027F000010AD8B4E7EF93F0070AD8B4EBEF93F0EF
:1028000007EF94F017501524800914EC93F0120090
:102810000E6E5BC511F50950D8B411EF94F013EFAB
:1028200094F014EF94F011800E50F00B0F6E0E38F0
:10283000F00BF00B106E0F50111004090A6E0F50C0
:1028400011100B6E1050111004090C6E1050111065
:102850000D6E0A0E036E050E046E040E056E5C50BE
:102860000DEC8AF01200040E0C5CD8A03AEF94F044
:102870003CEF94F03EEF94F05BEF94F00BC501F564
:102880000CC502F53EEC96F00DC546F00001415135
:10289000F80B0309416FD69E550E426FAA0E426F88
:1028A000408140B156EF94F058EF94F051EF94F01E
:1028B000D68EF80E411712000201949FC096C09860
:1028C000040110971099C896C89812871289CBEC0A
:1028D00095F0CF0E02018717CF0E86178751FC0B9C
:1028E0000109876F8651FC0B0109866F040E946FF6
:1028F000956B966B030E9C6F9D6B9B6B4EEC97F0EC
:102900000201948F416A120001C5D9F402C5DAF4BC
:10291000DEC403F5DDC404F503C5D9F404C5DAF457
:10292000DF50056E20EE06F00150D9260250DA2263
:10293000DF50FF0A051401C5D9F402C5DAF4DEC47C
:1029400006F5DDC407F506C5D9F407C5DAF4DF6E70
:102950001200266E000ECBEC94F023C515F5265020
:10296000DDEC93F0276A000E6DEC96F00D0E256EEF
:102970002D0E246ED80EE82EFED7242EFCD7252E41
:10298000FAD7272A030E2764C8EF94F0CAEF94F011
:10299000B3EF94F01200226EBB0EF66EFD0EF76ED2
:1029A000000EF86E21EE1AF1070E0900F5C4DEF4F0
:1029B000E806FBE2070E2264E0EF94F0E2EF94F009
:1029C000E4EF94F0ECEF94F01A0E156E050E166E0F
:1029D00022C517F58BEC8EF01200016E0150D8B4B1
:1029E000F4EF94F0F6EF94F003EF95F0C080000060
:1029F000000000000000000000000000C090000087
:102A000000000DEF95F0C08000000000C0900000B5
:102A1000000000000000000000001200026E800EA6
:102A2000036E025003140009D8B419EF95F01BEFA0
:102A300095F020EF95F0010EEDEC94F023EF95F07A
:102A4000000EEDEC94F0D89003320350D8A42BEF95
:102A500095F02DEF95F011EF95F012000F6A40EF11
:102A600095F009C501F50AC502F50FC503F50BC5BB
:102A700004F50CC505F50DC506F567EC91F00F2AB8
:102A800009C5D9F40AC5DAF4DE500F5CD8A04BEFC3
:102A900095F04DEF95F031EF95F0120020EE02F039
:102AA0000150D9260250DA22DEC403F5DDC404F554
:102AB00003C5D9F404C5DAF410EE02F00150E126A2
:102AC0000250E222E6C405F5E5C406F505C5E1F4C9
:102AD00006C5E2F4E7500F09DF6E1200A40EF66E91
:102AE0002E0EF76E010EF86E01EE5AF110EE04F0A4
:102AF0000900F5C4EEF4E550E150FAE101EE60F1B1
:102B00009F0EEE6AE806FDE101EE36F1240EEE6A54
:102B1000E806FDE100013FEF97F0040E0C5CD8A041
:102B200094EF95F096EF95F099EF95F0FF0EABEFDF
:102B300095F00BC501F50CC502F53EEC96F0F80ECC
:102B400000014117408140B1A8EF95F0AAEF95F040
:102B5000A3EF95F0465112000A6E0A50F00B0D6E6D
:102B60005B500D120950D8B4B8EF95F0BAEF95F05C
:102B7000BBEF95F00D800D5004090B6E0D50FB0B53
:102B80000C6E0B0E036E050E046E020E056E5C508D
:102B90000DEC8AF01200000ED6BE010E016ED69E1C
:102BA000550E0201006FAA0E006F0091370E146FD0
:102BB000380E156F130E716F140E706F550E006F77
:102BC000AA0E006F008101B002D0D69E01D0D68E31
:102BD0001200236E2250D8B4F0EF95F0F2EF95F08A
:102BE00005EF96F0030E2264F8EF95F0FAEF95F0FA
:102BF000FCEF95F005EF96F023C517F5186A22C58E
:102C000019F5000E1A6E70EC85F01200036E033891
:102C10000F0B0F0B016E03500F0B026E0A0E0160BB
:102C200014EF96F016EF96F01EEF96F0090E026480
:102C30001CEF96F01EEF96F021EF96F0000E22EFBB
:102C400096F0010E1200C70E076E050E086ED10E2B
:102C5000096E040E0A6EC10E0B6E040E0C6EC90EC8
:102C60000D6E040E0E6E180E0F6E040E106E190E01
:102C7000116E040E126E4DEC88F012000150036EBE
:102C80000250046E056A066A000E0324076E000EE9
:102C90000420086E380E0520096E000E06200A6E0C
:102CA00009C545F008C544F007C543F012001050AF
:102CB0001110D8A45EEF96F060EF96F063EF96F0F7
:102CC000050E6CEF96F010C50BF511C50CF5070E4F
:102CD0000D6E000EDAEC91F01200126E010E096E0C
:102CE000125008EC94F0136E1350D8A47AEF96F0BB
:102CF0007CEF96F080EF96F0850EE82EFED7000070
:102D000013501200F10E016E050E026ED30E036E0B
:102D1000040E046ECB0E056E040E066E280E076EB2
:102D2000040E086E100E096E77EC8BF01200F80E90
:102D3000086E050E096EC00E0A6E040E0B6EC80EEC
:102D40000C6E040E0D6E100E0E6E040E0F6E020E43
:102D5000106E88EC8AF0120010C509F511C50AF54D
:102D600012C50BF513C50CF514C50DF52EEC95F039
:102D700010C504F511C505F543EC8EF0120010C521
:102D800009F511C50AF5000E0B6E000E0C6E000E53
:102D90000D6E2EEC95F010C504F511C505F543EC4C
:102DA0008EF01200016E7F0E0164D9EF96F0DBEF1A
:102DB00096F0DEEF96F0050EE1EF96F001C55CF5BA
:102DC000000E1200600E0001AD6F060EB16F400ED6
:102DD000B36F70EC90F088EC89F01200026E02C5BF
:102DE00001F50F0E011602380F0B0F0B0A0DF350F1
:102DF000012412005CEC94F0270ED2EC96F03F6EAA
:102E000046EC86F04AEC97F012000A6E090E036E4B
:102E1000050E046E010E056E0A500DEC8AF01200CC
:102E20000E0E146EFE0E156E140E166E47EC92F01A
:102E30001200600E016E050E026E020E036EB1EC02
:102E40008CF012000301F86B1F0EFA6F840EF36F03
:102E50005D68120008C501F509C502F584EC94F01F
:102E600012000B6E0BC509F55C5005EC97F01200D3
:102E70000201949F4EEC97F00201948F1200E2EC55
:102E800096F041EF97F0FEEFFFF05A50080914EC6E
:102E900093F01200010E14EC93F0120002019A6BF1
:082EA000976B1200040827FFE4
:04FFFC006EEF95F01F
:020000040030CA
:08000000FCFF3DDF9FFFFFFF45
:01000900FFF7
:00000001FF
