:04000000FEEFFFF020
:10260000003132334134353642373839432A3023AA
:102610004410204080010204080C06030945727230
:102620006F7220656E2073697374656D6100493245
:10263000432073696E20636F6E6578696F6E005218
:1026400054432073696E20636F6E6578696F6E0006
:1026500053697374656D6120636F72726563746F23
:1026600000466563686120696E76616C696461002B
:1026700052544320646574656E69646F0056616CE2
:102680006F723A200053656E736F722000306200E3
:102690003078000004500510D8A451EF13F053EF28
:1026A00013F056EF13F0000E76EF14F004C5D9F4D2
:1026B00005C5DAF4DF507F0B096E20EE01F00450FF
:1026C000D9260550DA22DF507F0B0A6E20EE04F087
:1026D0000450D9260550DA22DF503F0B0B6E20EE56
:1026E00005F00450D9260550DA22DF501F0B0C6E7E
:1026F00020EE06F00450D9260550DA22DF50066E8F
:1027000020EE03F00450D9260550DA22DF50070BE3
:102710000F6E20EE02F00450D9260550DA22DFAC0D
:1027200094EF13F096EF13F0A1EF13F020EE02F008
:102730000450D9260550DA22DF501F0B106EAAEF85
:1027400013F020EE02F00450D9260550DA22DF50B3
:102750003F0B106E0950C6EC20F00009D8B4B3EF5F
:1027600013F0B5EF13F053EF13F00A50C6EC20F05E
:102770000009D8B4BEEF13F0C0EF13F053EF13F01D
:102780001050C6EC20F00009D8B4C9EF13F0CBEF1D
:1027900013F053EF13F00B50C6EC20F00009D8B43F
:1027A000D4EF13F0D6EF13F053EF13F00C50C6EC48
:1027B00020F00009D8B4DFEF13F0E1EF13F053EF8E
:1027C00013F00650C6EC20F00009D8A4EAEF13F08D
:1027D000ECEF13F0EEEF13F053EF13F0095091EC20
:1027E00021F0076E0A5091EC21F0086E105091EC28
:1027F00021F0116E0B5091EC21F00D6E0C5091EC0C
:1028000021F00E6E3B0E076408EF14F00AEF14F08F
:102810000CEF14F053EF13F03B0E086412EF14F0BA
:1028200014EF14F016EF14F053EF13F020EE02F053
:102830000450D9260550DA22DFAC21EF14F023EF43
:1028400014F035EF14F01150D8B429EF14F02BEF39
:1028500014F053EF13F00C0E116431EF14F033EF5A
:1028600014F03FEF14F053EF13F0170E11643BEF29
:1028700014F03DEF14F03FEF14F053EF13F00F504E
:10288000D8B445EF14F047EF14F053EF13F0070EF0
:102890000F644DEF14F04FEF14F051EF14F053EFBD
:1028A00013F00D50D8B457EF14F059EF14F053EF64
:1028B00013F01F0E0D645FEF14F061EF14F063EF7F
:1028C00014F053EF13F00E50D8B469EF14F06BEF1F
:1028D00014F053EF13F00C0E0E6471EF14F073EF5D
:1028E00014F075EF14F053EF13F0010E12001250B4
:1028F0001310D8A47EEF14F080EF14F083EF14F0DF
:10290000050E65EF15F020EE08F01250D926135091
:10291000DA22DF6A20EE09F01250D9261350DA22AB
:10292000DF6A20EE0AF01250D9261350DA22DF6A4D
:1029300020EE0BF01250D9261350DA22DF6A170E60
:10294000106E050E116EFEEC20F01E6E1E50D8B4F7
:10295000ACEF14F0AEEF14F0B1EF14F01E5065EFD1
:1029600015F020EE08F01250D9261350DA2217AED7
:10297000BCEF14F0BFEF14F0010EC0EF14F0000E26
:10298000DF6E20EE09F01250D9261350DA2219BC5E
:10299000CCEF14F0CFEF14F0010ED0EF14F0000ED6
:1029A000DF6E20EE09F01250D9261350DA22DF50E4
:1029B000D8B4DDEF14F0DFEF14F0FCEF14F020EEEC
:1029C0000AF01250D9261350DA2219BAEAEF14F09D
:1029D000EDEF14F0010EEEEF14F0000EDF6E20EEBE
:1029E00002F01250D9261350DA2219501F0B91EC25
:1029F00021F0DF6E0EEF15F020EE0AF01250D9260E
:102A00001350DA22DF6A20EE02F01250D92613505A
:102A1000DA2219503F0B91EC21F0DF6E17507F0B3B
:102A200091EC21F012C5D9F413C5DAF4DF6E20EE73
:102A300001F01250D9261350DA2218507F0B91EC76
:102A400021F0DF6E20EE03F01250D9261350DA2267
:102A50001A50070BDF6E20EE04F01250D9261350E7
:102A6000DA221B503F0B91EC21F0DF6E20EE05F0D7
:102A70001250D9261350DA221C501F0B91EC21F072
:102A8000DF6E1D5091EC21F0146ED00E1424156EE3
:102A9000166A070E162220EE06F01250D9261350A1
:102AA000DA2215C5DEF416C5DDF4170E046E050E28
:102AB000056E4AEC13F0146E20EE0BF01250D9267E
:102AC0001350DA2214C5DFF4000E1200030E166E46
:102AD000080E156E770EE82EFED7152EFCD7162E93
:102AE000FAD70000080E596E040E586E5950C4EC07
:102AF00021F0176E1750D8B480EF15F082EF15F063
:102B000084EF15F019EF16F0340E156EF20EE82E64
:102B1000FED7152EFCD7000E096E300E89EC20F082
:102B2000176E1750D8B497EF15F099EF15F09BEF8B
:102B300015F019EF16F0340E156EF20EE82EFED7D2
:102B4000152EFCD7000E096E300E89EC20F0176EA2
:102B50001750D8B4AEEF15F0B0EF15F0B2EF15F096
:102B600019EF16F0F00E00D0E82EFDD7000E096E1A
:102B7000300E89EC20F0176E1750D8B4C2EF15F064
:102B8000C4EF15F0C6EF15F019EF16F0F00E00D0F7
:102B9000E82EFDD7000E096E200E89EC20F0176E8E
:102BA0001750D8B4D6EF15F0D8EF15F0DAEF15F0CE
:102BB00019EF16F0F00E00D0E82EFDD7280EAEEC7F
:102BC0001EF0176E1750D8B4E8EF15F0EAEF15F0C5
:102BD000ECEF15F019EF16F0586AD8EC21F0176EEB
:102BE0001750D8B4F6EF15F0F8EF15F0FAEF15F02E
:102BF00019EF16F0DDEC21F0176E1750D8B403EF83
:102C000016F005EF16F007EF16F019EF16F0060EA6
:102C1000AEEC1EF0176E1750D8B411EF16F013EF8C
:102C200016F015EF16F019EF16F0040E586ED8ECEA
:102C300021F012002E6A000E2D6E18BE24EF16F041
:102C400022EF16F036EF16F02D0E216E2D4A2E2AA9
:102C500017C519F518C51AF5191E1A1E194A1A2A88
:102C600019C52BF51AC52CF53AEF16F017C52BF53B
:102C700018C52CF52B502C10D8A441EF16F043EFBB
:102C800016F04FEF16F0210E2D24D96E050E2E20D2
:102C9000DA6E300EDF6E2D4A2E2AB3EF16F02A6A56
:102CA000000E296E75EF16F01B0E2924D96E050E45
:102CB0002A20DA6E2BC501F52CC502F5046A0A0E2E
:102CC000036E14EC1FF00150300FDF6E294A2A2AE0
:102CD0002BC501F52CC502F5046A0A0E036E9EECA5
:102CE0001DF001C52BF502C52CF52B502C10D8B4C6
:102CF0007CEF16F07EEF16F09EEF16F02ABE8AEFFC
:102D000016F02A5009E1060E295CD8A08AEF16F0C9
:102D10008CEF16F054EF16F09EEF16F01B0E2924E0
:102D2000D96E050E2A20DA6E210E2D24E16E050ED5
:102D30002E20E26EDFC4E7F42D4A2E2A2950196EA8
:102D40002A501A6E010E295E000E2A5A1ABEB3EFDF
:102D500016F01A5006E11904D8B0B1EF16F0B3EF2F
:102D600016F08EEF16F0210E2D24D96E050E2E20B2
:102D7000DA6EDF6A210E146E050E156ED3EC1BF0B1
:102D8000120007C5D9F408C5DAF409C5DEF40AC58E
:102D9000DDF420EE02F00750D9260850DA220BC5E8
:102DA000DEF40CC5DDF420EE04F00750D9260850FF
:102DB000DA220DC5DEF40EC5DDF420EE06F0075074
:102DC000D9260850DA220FC5DEF410C5DDF420EE56
:102DD00008F00750D9260850DA2211C5DEF412C5D2
:102DE000DDF420EE06F00750D9260850DA22DEC4C2
:102DF00013F5DDC414F513C5D9F414C5DAF4DF6A8C
:102E000020EE04F00750D9260850DA22DEC413F56C
:102E1000DDC414F513C5D9F414C5DAF410EE04F0CA
:102E20000750E1260850E222E6C415F5E5C416F580
:102E300015C5E1F416C5E2F4E750F00BDF6E20EEA5
:102E400004F00750D9260850DA22DEC413F5DDC499
:102E500014F513C5D9F414C5DAF410EE04F00750D4
:102E6000E1260850E222E6C415F5E5C416F515C5BD
:102E7000E1F416C5E2F4E750F009DF6E20EE08F049
:102E80000750D9260850DA22DEC413F5DDC414F544
:102E900013C5D9F414C5DAF410EE08F00750E12692
:102EA0000850E222E6C415F5E5C416F515C5E1F4AF
:102EB00016C5E2F4E750F009DF6E07C501F508C555
:102EC00002F54AEC20F0120001C5D9F402C5DAF48B
:102ED00003C5DEF404C5DDF420EE02F00150D9266E
:102EE0000250DA2205C5DEF406C5DDF420EE04F05A
:102EF0000150D9260250DA2207C5DEF408C5DDF4F8
:102F000020EE06F00150D9260250DA2209C5DFF47E
:102F100020EE07F00150D9260250DA22DF6A20EEB7
:102F200006F00150D9260250DA22DF50D8A49BEFD8
:102F300017F09DEF17F0CDEF17F020EE02F00150E3
:102F4000D9260250DA22DEC40AF5DDC40BF50AC523
:102F5000D9F40BC5DAF4F00EDF1620EE04F00150C0
:102F6000D9260250DA22DEC40AF5DDC40BF50AC503
:102F7000D9F40BC5DAF4F00EDF1601C5D9F402C599
:102F8000DAF4DEC40AF5DDC40BF50AC5D9F40BC5C5
:102F9000DAF4F00EDF16FBEF17F020EE02F001502E
:102FA000D9260250DA22DEC40AF5DDC40BF50AC5C3
:102FB000D9F40BC5DAF40F0EDF1620EE04F0015041
:102FC000D9260250DA22DEC40AF5DDC40BF50AC5A3
:102FD000D9F40BC5DAF40F0EDF1601C5D9F402C51A
:102FE000DAF4DEC40AF5DDC40BF50AC5D9F40BC565
:102FF000DAF40F0EDF161200066E800E066003EF85
:1030000018F005EF18F016EF18F003500410D8B4BC
:103010000CEF18F00EEF18F016EF18F00550D8A4CA
:1030200014EF18F016EF18F01BEF18F0050E3F6EB6
:103030003F5076EF18F0E1EC1EF0086E0850D8B45F
:1030400024EF18F026EF18F02DEF18F008C53FF523
:10305000CBEC21F0085076EF18F0E1EC21F0020102
:10306000949D065006248F6F05C58DF203C5D9F4D3
:1030700004C5DAF4DF508C6F948B010E076E58EFA5
:1030800018F027EC1DF0086E0850D8B44AEF18F07D
:103090004CEF18F04EEF18F026EF18F0075003240D
:1030A000D96E000E0420DA6EDF5002018C6F072A01
:1030B0000550075CD8A05FEF18F061EF18F041EF02
:1030C00018F0A6EC1CF0086E0850D8B46AEF18F09F
:1030D0006CEF18F070EF18F0CBEC21F072EF18F0F5
:1030E000E1EC21F008C53FF52AEF18F0120008C501
:1030F000D9F409C5DAF40AC5DEF40BC5DDF420EE17
:1031000002F00850D9260950DA220CC5DEF40DC5AC
:10311000DDF420EE04F00850D9260950DA220EC55D
:10312000DEF40FC5DDF420EE06F00850D926095074
:10313000DA2210C5DFF420EE04F00850D926095039
:10314000DA22DEC411F5DDC412F511C5D9F412C5B9
:10315000DAF410EE04F00850E1260950E222E6C449
:1031600013F5E5C414F513C5E1F414C5E2F4E75012
:10317000156E10EE06F00850E1260950E222E750E5
:10318000FF0A1514DF6E20EE02F00850D926095010
:10319000DA22DEC411F5DDC412F511C5D9F412C569
:1031A000DAF410EE02F00850E1260950E222E6C4FB
:1031B00013F5E5C414F513C5E1F414C5E2F4E750C2
:1031C000156E10EE06F00850E1260950E222E75095
:1031D000FF0A1514DF6E08C501F509C502F5C4EC38
:1031E0001FF01200066E800E0660F9EF18F0FBEF7C
:1031F00018F00CEF19F003500410D8B402EF19F0D6
:1032000004EF19F00CEF19F00550D8A40AEF19F0EB
:103210000CEF19F011EF19F0050E3F6E3F5065EFFE
:1032200019F0E1EC1EF0086E0850D8B41AEF19F04E
:103230001CEF19F023EF19F008C53FF5CBEC21F096
:10324000085065EF19F0E1EC21F00201949D958F93
:1032500005C58DF2D88006348F6F948B076A47EFCF
:1032600019F0EAEC1CF0086E0850D8B43AEF19F0E7
:103270003CEF19F03EEF19F01CEF19F00750032452
:10328000D96E000E0420DA6E8BC2DFF4072A0550D7
:10329000075CD8A04EEF19F050EF19F031EF19F09C
:1032A0007BEC1EF0086E0850D8B459EF19F05BEFB4
:1032B00019F05FEF19F0CBEC21F061EF19F0E1ECC0
:1032C00021F008C53FF520EF19F0120001C5D9F42F
:1032D00002C5DAF403C5DEF404C5DDF420EE02F025
:1032E0000150D9260250DA2205C5DEF406C5DDF408
:1032F00020EE04F00150D9260250DA2207C5DEF490
:1033000008C5DDF420EE06F00150D9260250DA227D
:1033100009C5DFF420EE04F00150D9260250DA226C
:10332000DEC40AF5DDC40BF50AC5D9F40BC5DAF421
:1033300010EE04F00150E1260250E222E6C40CF542
:10334000E5C40DF50CC5E1F40DC5E2F4E7500E6ED1
:1033500010EE06F00150E1260250E222E750FF0A8B
:103360000E14DF6E20EE02F00150D9260250DA2250
:10337000DEC40AF5DDC40BF50AC5D9F40BC5DAF4D1
:1033800010EE06F00150E1260250E222E7500C6EEA
:1033900010EE02F00150E1260250E222E6C40DF5E3
:1033A000E5C40EF50DC5E1F40EC5E2F4E7500C10CE
:1033B000DF6E12003E50D8B4E0EF19F0E2EF19F0E2
:1033C000E6EF19F02E0E186E0FEC1EF0BB0E126E0B
:1033D000050E136E77EC14F03E6E3E50D8B4F3EF4A
:1033E00019F0F5EF19F0F9EF19F03F0E186E0FEC28
:1033F0001EF00501C351D8A400EF1AF002EF1AF035
:1034000006EF1AF0700E186E0FEC1EF00501C65193
:10341000D8A40DEF1AF00FEF1AF013EF1AF0610EA7
:10342000186E0FEC1EF0DDEC21F0000E156E010E93
:1034300046EC1FF0500E146E1450D8A4260E156ED4
:10344000D3EC1BF0600E106E050E116E000E126EA6
:10345000C80E136E000E146E53EC21F0520E356E32
:103460002B0E346E000EE82EFED7342EFCD7352EF0
:10347000FAD700D061EC1CF0290E356E960E346E32
:103480007F0EE82EFED7342EFCD7352EFAD700005B
:103490003AEF1AF012001E0E036451EF1AF053EFC8
:1034A0001AF05BEF1AF001C5D9F402C5DAF41E0E6A
:1034B000DF6E61EF1AF001C5D9F402C5DAF403C575
:1034C000DFF404011091C890C090066A90EF1AF0E2
:1034D00006500124046E000E0220056E010E042425
:1034E000D96E000E0520DA6EDF6A06500124046EE4
:1034F000000E0220056E1F0E0424D96E000E05205A
:10350000DA6EDF6A06500124046E000E0220056E9A
:103510003D0E0424D96E000E0520DA6EDF6A062AFD
:1035200001C5D9F402C5DAF4DE50065CD8A09BEFE1
:103530001AF09DEF1AF068EF1AF01200E90E016E12
:10354000050E026EBE0E036E040E046EC60E056EF0
:10355000040E066E000E076E040E086E000E096E55
:1035600064EC17F0E10E016E050E026EBE0E036EE6
:10357000040E046EC60E056E040E066E000E076E77
:10358000040E086E010E096E64EC17F0D90E016E80
:10359000050E026EBF0E036E040E046EC70E056E9E
:1035A000040E066E080E076E040E086E000E096EFD
:1035B00064EC17F0D10E016E050E026EBF0E036EA5
:1035C000040E046EC70E056E040E066E080E076E1E
:1035D000040E086E010E096E64EC17F0120001C5AE
:1035E000D9F402C5DAF403C5DEF404C5DDF420EE37
:1035F00002F00150D9260250DA2205C5DEF406C5D4
:10360000DDF420EE04F00150D9260250DA2207C57D
:10361000DFF420EE05F00150D9260250DA2208C569
:10362000DFF420EE04F00150D9260250DA22DF50F8
:10363000096E01C5D9F402C5DAF4DEC40AF5DDC4A9
:103640000BF50AC5D9F40BC5DAF40950DF1220EEE8
:1036500004F00150D9260250DA22DF50096E20EE24
:1036600002F00150D9260250DA22DEC40AF5DDC488
:103670000BF50AC5D9F40BC5DAF40950DF121200B4
:10368000BCEC21F0520E016E050E026ECB0E036EE5
:10369000040E046E280E056E040E066E010E076EF3
:1036A000280E086EEFEC1AF04C0E016E050E026E3D
:1036B000CB0E036E040E046E280E056E040E066E0D
:1036C000020E076E290E086EEFEC1AF0460E016E20
:1036D000050E026ECB0E036E040E046E280E056EF0
:1036E000040E066E040E076E2A0E086EEFEC1AF03A
:1036F000400E016E050E026ECB0E036E040E046EBC
:10370000280E056E040E066E080E076E2B0E086E50
:10371000EFEC1AF01200086ABCEF1BF0085004240A
:10372000066E000E0520076E1F0E0624D96E000ED1
:103730000720DA6EDF500AEC20F008500424066EF1
:10374000000E0520076E010E0624D96E000E07201C
:10375000DA6EDF500AEC20F008500424066E000EEA
:103760000520076E3D0E0624D96E000E0720DA6E86
:10377000DF500AEC20F0082A04C5D9F405C5DAF4B4
:10378000DE50085CD8A0C7EF1BF0C9EF1BF08EEF2E
:103790001BF0C090040E066E1C0EE82EFED7062EFF
:1037A000FCD700D0120014501510D8A4DAEF1BF08B
:1037B000DCEF1BF000EF1CF0050E1AEF1CF014C537
:1037C000F6F415C5F7F4000EF86E250EF76403D075
:1037D0000800F55005D0F6C4E9F4F7C4EAF4EF5058
:1037E00014EC21F0166E1650D8B4F9EF1BF0FBEF75
:1037F0001BF0FEEF1BF016501AEF1CF0144A152AAE
:1038000014C5F6F415C5F7F4000EF86E250EF7642E
:1038100003D00800F55005D0F6C4E9F4F7C4EAF483
:10382000EF500009D8A417EF1CF019EF1CF0DFEFE0
:103830001BF0000E120020EE05F00150D9260250B8
:10384000DA225B50DE18D8B428EF1CF02AEF1CF007
:103850004DEF1CF03B0E0301EC6FF381F3B133EF3E
:103860001CF035EF1CF02EEF1CF020EE05F001509F
:10387000D9260250DA22DF50EC6FF381F3B143EF27
:103880001CF045EF1CF03EEF1CF020EE05F001505F
:10389000D9260250DA22DF505B6E0301F381F3B1C7
:1038A00054EF1CF056EF1CF04FEF1CF0EB51036E81
:1038B000EA51056E03C506F505C501F506C502F515
:1038C0001200520E016E050E026E1BEC1CF001C5BB
:1038D0003CF502C53DF53CC52FF53DC530F5010E63
:1038E00046EC1EF04C0E016E050E026E1BEC1CF039
:1038F00001C53AF502C53BF53AC52FF53BC530F594
:10390000020E46EC1EF0460E016E050E026E1BEC1A
:103910001CF001C538F502C539F538C52FF539C594
:1039200030F5030E46EC1EF0400E016E050E026EE1
:103930001BEC1CF001C536F502C537F536C52FF571
:1039400037C530F5040E46EC1EF01200EA0E026E8A
:10395000600E016ECFEF1CF097ADB1EF1CF0B3EF2E
:103960001CF0B6EF1CF0030EE9EF1CF097ABBBEFB9
:103970001CF0BDEF1CF0C0EF1CF0020EE9EF1CF0D4
:1039800001500210D8A4C7EF1CF0C9EF1CF0CCEF17
:103990001CF0040EE9EF1CF00106D8A0020602019B
:1039A0009AA5D5EF1CF0D7EF1CF0ACEF1CF095BB3F
:1039B000DCEF1CF0DEEF1CF0E5EF1CF097A9E3EF65
:1039C0001CF0E5EF1CF0E8EF1CF0010EE9EF1CF035
:1039D000000E1200EA0E026E600E016E1DEF1DF069
:1039E00097A9F5EF1CF0F7EF1CF0FAEF1CF0010EB1
:1039F00026EF1DF097ADFFEF1CF001EF1DF004EF77
:103A00001DF0030E26EF1DF097AB09EF1DF00BEF35
:103A10001DF00EEF1DF0020E26EF1DF001500210FA
:103A2000D8A415EF1DF017EF1DF01AEF1DF0040ECE
:103A300026EF1DF00106D8A00206020199A123EF8E
:103A40001DF025EF1DF0F0EF1CF0000E1200EA0E45
:103A5000026E600E016E5AEF1DF097A932EF1DF055
:103A600034EF1DF037EF1DF0010E63EF1DF097AD41
:103A70003CEF1DF03EEF1DF041EF1DF0030E63EF34
:103A80001DF097AB46EF1DF048EF1DF04BEF1DF01A
:103A9000020E63EF1DF001500210D8A452EF1DF08A
:103AA00054EF1DF057EF1DF0040E63EF1DF00106FB
:103AB000D8A00206020199AB60EF1DF062EF1DF085
:103AC0002DEF1DF0000E120001C5D9F402C5DAF485
:103AD000DE50035CD8A06FEF1DF071EF1DF073EFA7
:103AE0001DF09DEF1DF003500124076E000E022013
:103AF000086E010E0724D96E000E0820DA6E04C588
:103B0000DFF403500124076E000E0220086E1F0E22
:103B10000724D96E000E0820DA6E05C5DFF40350C5
:103B20000124076E000E0220086E3D0E0724D96E98
:103B3000000E0820DA6E06C5DFF41200066A000ED9
:103B4000056E03500410D8B4A8EF1DF0AAEF1DF0C5
:103B5000D2EF1DF0010E076EB2EF1DF0D8900336C4
:103B60000436072A04AEB7EF1DF0B9EF1DF0AEEF33
:103B70001DF0D890053606360350015C04500258FB
:103B8000D8A0C5EF1DF0C7EF1DF0CCEF1DF003501E
:103B9000015E0450025A0580D89004320332072E89
:103BA000B9EF1DF005C501F506C502F512000E6E50
:103BB000400E0E60DEEF1DF0E0EF1DF0F1EF1DF0A6
:103BC0000B500C10D8B4E7EF1DF0E9EF1DF0F1EF4A
:103BD0001DF00D50D8A4EFEF1DF0F1EF1DF0F4EF44
:103BE0001DF0050E0EEF1EF00EC509F5680EA8ECCF
:103BF00021F00F6E0F50D8B400EF1EF002EF1EF050
:103C000005EF1EF00F500EEF1EF00BC503F50CC5AF
:103C100004F50DC505F5680EF2EC18F01200DDECA8
:103C200021F0000E156E010E46EC1FF01D0E146EF5
:103C30001450D8A4260E156ED3EC1BF0000E156E92
:103C4000020E46EC1FF018C514F51450D8A4260E29
:103C5000156ED3EC1BF0600E106E050E116EC80EC3
:103C6000126E000E136E000E146E53EC21F0290E2E
:103C70001A6E960E196E7F0EE82EFED7192EFCD7FF
:103C80001A2EFAD7000037EF1EF01200336EDDEC6B
:103C900021F0000E156E010E46EC1FF0850E146E1D
:103CA0001450D8A4260E156ED3EC1BF033C517F5AF
:103CB000186A1AEC16F0000E156E020E46EC1FF094
:103CC0007D0E146E1450D8A4260E156ED3EC1BF086
:103CD0002FC517F530C518F51AEC16F0290E326EFF
:103CE000960E316E7F0EE82EFED7312EFCD7322E87
:103CF000FAD700001200EA0E026E600E016EA4EF09
:103D00001EF097AD86EF1EF088EF1EF08BEF1EF0D1
:103D1000030EADEF1EF097AB90EF1EF092EF1EF08A
:103D200095EF1EF0020EADEF1EF001500210D8A468
:103D30009CEF1EF09EEF1EF0A1EF1EF0040EADEF03
:103D40001EF00106D8A0020602019AA5AAEF1EF0F5
:103D5000ACEF1EF081EF1EF0000E1200146E000E8C
:103D6000096E145071EC1FF0136E1350D8B4BBEFF2
:103D70001EF0BDEF1EF0C0EF1EF01350E0EF1EF07E
:103D80001404D8B4C6EF1EF0C8EF1EF0D1EF1EF039
:103D9000020E1418D8A4CFEF1EF0D1EF1EF0DBEF07
:103DA0001EF0150E126EC60EE82EFED7122EFCD790
:103DB00000D0DFEF1EF0850EE82EFED70000000ECB
:103DC0001200EA0E026E600E016E0AEF1FF097AD50
:103DD000ECEF1EF0EEEF1EF0F1EF1EF0030E13EF0E
:103DE0001FF097ABF6EF1EF0F8EF1EF0FBEF1EF0A2
:103DF000020E13EF1FF001500210D8A402EF1FF0C3
:103E000004EF1FF007EF1FF0040E13EF1FF0010681
:103E1000D8A00206020198AF10EF1FF012EF1FF0BA
:103E2000E7EF1EF0000E120003500410D8B41BEF91
:103E30001FF01DEF1FF041EF1FF0010E056E25EF83
:103E40001FF0D89003360436052A04AE2AEF1FF07F
:103E50002CEF1FF021EF1FF00350015C04500258BB
:103E6000D8A035EF1FF037EF1FF03BEF1FF00350E6
:103E7000015E0450025AD89004320332052E2CEF12
:103E80001FF001C501F502C502F51200166E58EFCC
:103E90001FF0176A6BEF1FF0400E176E6BEF1FF0ED
:103EA000140E176E6BEF1FF0540E176E6BEF1FF0B2
:103EB0001650010AD8B449EF1FF0030AD8B44CEFEA
:103EC0001FF0010AD8B450EF1FF0070AD8B454EF1E
:103ED0001FF070EF1FF0175015248009AEEC1EF094
:103EE00012000E6E59C511F50950D8B47AEF1FF0C3
:103EF0007CEF1FF07DEF1FF011800E50F00B0F6E66
:103F00000E38F00BF00B106E0F50111004090A6EF2
:103F10000F5011100B6E1050111004090C6E105040
:103F200011100D6E0A0E036E050E046E040E056E62
:103F30005A50FCEC17F012000201949FC096C098F2
:103F4000040110971099C896C89812871289A8EC96
:103F500020F0CF0E02018717CF0E86178751FC0B7A
:103F60000109876F8651FC0B0109866F040E946F5F
:103F7000956B966B030E9C6F9D6B9B6BE1EC21F038
:103F80000201948F3F6A120001C5D9F402C5DAF428
:103F9000DEC403F5DDC404F503C5D9F404C5DAF4C1
:103FA000DF50056E20EE06F00150D9260250DA22CD
:103FB000DF50FF0A051401C5D9F402C5DAF4DEC4E6
:103FC00006F5DDC407F506C5D9F407C5DAF4DF6EDA
:103FD0001200016E0150D8B4F0EF1FF0F2EF1FF0A5
:103FE000FFEF1FF0C0800000000000000000000094
:103FF00000000000C0900000000009EF20F0C08029
:1040000000000000C0900000000000000000000060
:1040100000001200026E800E036E025003140009AD
:10402000D8B415EF20F017EF20F01CEF20F0010EB0
:10403000E9EC1FF01FEF20F0000EE9EC1FF0D89024
:1040400003320350D8A427EF20F029EF20F00DEF22
:1040500020F012000F6A3CEF20F009C501F50AC5F7
:1040600002F50FC503F50BC504F50CC505F50DC527
:1040700006F564EC1DF00F2A09C5D9F40AC5DAF477
:10408000DE500F5CD8A047EF20F049EF20F02DEF75
:1040900020F0120020EE02F00150D9260250DA2260
:1040A000DEC403F5DDC404F503C5D9F404C5DAF4B0
:1040B00010EE02F00150E1260250E222E6C405F5BE
:1040C000E5C406F505C5E1F406C5E2F4E7500F09BD
:1040D000DF6E1200CA0EF66E430EF76E000EF86E1B
:1040E00001EE58F110EE04F00900F5C4EEF4E550CD
:1040F000E150FAE101EE60F19F0EEE6AE806FDE1A3
:1041000001EE36F1220EEE6AE806FDE10001D2EF83
:1041100021F00A6E0A50F00B0D6E59500D12095025
:10412000D8B495EF20F097EF20F098EF20F00D80B5
:104130000D5004090B6E0D50FB0B0C6E0B0E036E35
:10414000050E046E020E056E5A50FCEC17F01200BC
:10415000000ED6BE010E016ED69E550E0201006FF6
:10416000AA0E006F0091370E146F380E156F130EE4
:10417000716F140E706F550E006FAA0E006F0081E4
:1041800001B002D0D69E01D0D68E1200036E033845
:104190000F0B0F0B016E03500F0B026E0A0E016026
:1041A000D4EF20F0D6EF20F0DEEF20F0090E02640D
:1041B000DCEF20F0DEEF20F0E1EF20F0000EE2EF88
:1041C00020F0010E1200C70E076E050E086ED10E0C
:1041D000096E040E0A6EC10E0B6E040E0C6EC90E33
:1041E0000D6E040E0E6E180E0F6E040E106E190E6C
:1041F000116E040E126EC1EC16F012001050111068
:10420000D8A405EF21F007EF21F00AEF21F0050E09
:1042100013EF21F010C50BF511C50CF5070E0D6E4F
:10422000000ED7EC1DF01200126E010E096E125036
:1042300071EC1FF0136E1350D8A421EF21F023EF7F
:1042400021F027EF21F0850EE82EFED70000135055
:104250001200F10E016E050E026ED30E036E040EF7
:10426000046ECB0E056E040E066E280E076E040E4D
:10427000086E100E096E66EC19F01200F80E086E4A
:10428000050E096EC00E0A6E040E0B6EC80E0C6E83
:10429000040E0D6E100E0E6E040E0F6E020E106EDA
:1042A00077EC18F0120010C509F511C50AF512C512
:1042B0000BF513C50CF514C50DF52AEC20F010C54F
:1042C00004F511C505F58BEC1BF01200016E7F0E95
:1042D00001646DEF21F06FEF21F072EF21F0050E18
:1042E00075EF21F001C55AF5000E12009EEC1AF090
:1042F000B3EC21F03EEC21F0E3EC20F040EC1BF0BD
:1043000029EC21F09DEC21F01200600E0001AD6F50
:10431000060EB16F400EB36F76EC21F0DAEC19F0B7
:104320001200026E02C501F50F0E011602380F0BC6
:104330000F0B0A0DF350012412009CEC1FF0270E06
:1043400066EC21F03E6E66EC15F0DDEC21F012001B
:104350000A6E090E036E050E046E010E056E0A50FC
:10436000FCEC17F01200600E016E050E026E020EDC
:10437000036E4BEC1AF012000301F86B1F0EFA6F7C
:10438000840EF36F5B6812000B6E0BC509F55A5073
:10439000A8EC21F012000201949FE1EC21F002014F
:1043A000948F120085EC21F0D4EF21F0FEEFFFF0A6
:1043B00058500809AEEC1EF01200010EAEEC1EF0D3
:0E43C000120002019A6B976B1200040827FF8F
:020000040001F9
:04FFFC006AEF20F098
:020000040030CA
:08000000FCFF3DDF9FFFFFFF45
:01000900FFF7
:00000001FF
