:0400000081EF00F09C
:1000080040004000400040004000400040004000E8
:1000180040004000400040004000400040004000D8
:1000280040004000400040004000400040004000C8
:1000380040004000400040004000400040004000B8
:10004800A34D4000400040004000400040004000F8
:100058004000400040004000400040004000400098
:100068004000400040004000400040004000400088
:100078004000400040004000400040004000400078
:100088004000400040004000400040004000400068
:100098004000400040004000400040004000400058
:1000A8004000400040004000400040004000400048
:1000B8004000400040004000400040004000400038
:1000C8004000400040004000400040004000400028
:1000D8004000400040004000400040004000400018
:1000E8004000400040004000400040004000400008
:0E00F8004000400040004000FF000DEFA9F066
:10F9F600003132334134353642373839432A3023E1
:10FA0600441F1F1F1F1F1F1F1F0506070805060788
:10FA1600080506070810204080010204080C0603AA
:10FA260009332E56657220686F726172696F732092
:10FA3600202020202000342E5265672E207061730E
:10FA460074696C6C617320202020002A2E53616C2F
:10FA560069722064656C206D656E7520202020001B
:10FA66004E7565766120686F7261203A202078783D
:10FA76003A787820002120484F5241204445204CB6
:10FA86004120444F5349532021002D2045444954D9
:10FA9600415220484F524152494F205F202D002DA0
:10FAA6002D204E5545564F20484F524152494F2022
:10FAB6002D2D2D002D2D2D204D495320484F5241DF
:10FAC60052494F53202D2D2D002D2D2D205B235DCA
:10FAD60020564552204D454E55202D2D2D002D2DBD
:10FAE6002D2D2D2D2D2D2D2D2D2D2D2D2D2D2D2D40
:10FAF6002D2D002D2D20524543415247412045587A
:10FB060049544F53412D2D002D2D20484F5241521F
:10FB1600494F20504153542E205F2D2D002D204D4E
:10FB26004F4449464943415220484F524152494F5A
:10FB36002D00507265706172616E646F2073697317
:10FB460074656D612E2E005245472E2043414E545A
:10FB56002E2050415354494C4C41530053656C651B
:10FB66006363696F6E652028312D34293A5B205D09
:10FB7600004550524F4D206E6F20436F6E66696789
:10FB86007572616461004D616C20466F726D6174BF
:10FB96006F20646520466563686100416C65727418
:10FBA6006120656E20656C2053697374656D610014
:10FBB60053697374656D6120656E206F706572613F
:10FBC60063696F6E004C6C616D6172204D616E747D
:10FBD600656E696D69656E746F004E6F2073652082
:10FBE6007075646F2064697370656E736172005B13
:10FBF600235D477561726461723A205B2A5D5361C9
:10FC06006C697200312E4167722E486F7220203265
:10FC16002E4D6F642E486F720053696E20486F72C6
:10FC26002E205265676973747261646F73002020B9
:10FC360020202020202020202020202020202020BE
:10FC46002020002053544F434B2050415354494CDD
:10FC56004C45524F532000506173743A5B312D343A
:10FC66005D20566F6C7665723A2A0047756172643C
:10FC760061723A5B235D2053616C69723A2A0041D6
:10FC86002073756D617220202020202020203A20CC
:10FC9600303000496E677265736520686F72612047
:10FCA60028323448293A00417369676E61722070C0
:10FCB600617374696C6C65726F3A00484F524152B9
:10FCC600494F2041435455414C495A41444F004500
:10FCD6006C6567697220486F726172696F3A205B62
:10FCE600205D00486F72612061637475616C3A2013
:10FCF600205F5F3A5F5F004D656D2E20446573633C
:10FD06006F6E6669677572616461005B235D52653B
:10FD16007365746561722053697374656D61005013
:10FD2600617374696C6C65726F202575205661630A
:10FD3600696F005B235D47756172646172205B2A9F
:10FD46005D53616C697200456E74726567616E64BD
:10FD56006F3A20506173742E2000486F7261726989
:10FD66006F732061637469766F733A20005265671A
:10FD76006973747261722050617374696C6C61008E
:10FD86005B235D53656C65632E205B2A5D53616C56
:10FD96006972002D2D205245434152474120504162
:10FDA60053542E200053746F636B20616374756126
:10FDB6006C2020203A200042544E2E20436F6E665F
:10FDC6006967202D204F4646004E756D65726F207F
:10FDD60028312D34293A205B205D00506173742E42
:10FDE6002041637475616C3A2020505F005265694A
:10FDF6006E69636961722053697374656D61004D44
:10FE06006F6469666963617220486F726172696FB7
:10FE1600004E7565766F20506173742E203A20204F
:10FE260050780050617374696C6C617320646973F7
:10FE3600703A200042544E2E20436F6E666967204A
:10FE46002D204F4E00484F524152494F20475541B1
:10FE5600524441444F004932432073696E20636F18
:10FE66006E6578696F6E005254432073696E206325
:10FE76006F6E6578696F6E0053697374656D612086
:10FE8600636F72726563746F004E6F2068617920CC
:10FE960050617374696C6C61730050726570617245
:10FEA600616E646F204461746F730045787472618B
:10FEB60079656E646F204461746F7300546F74616A
:10FEC6006C2061637475616C3A205B004F706369E6
:10FED6006F6E20496E76616C696461004C65796568
:10FEE6006E646F204D656D6F726961004167726562
:10FEF60067617220486F726172696F004E6F206889
:10FF0600617920486F726172696F7300486F726120
:10FF160072696F73206C6C656E6F73004461746FE9
:10FF26007320436F72727570746F730020202020E7
:10FF3600205B2078783A7878205D00505F20612039
:10FF46006C6173205F5F3A5F5F004F7063696F6E2D
:10FF5600204465736561646100525443206465748E
:10FF6600656E69646F0056657220486F72617269CA
:10FF76006F730050415354494C4C45524F20005D1D
:10FF860020202020202050323A5B005D20202020B7
:10FF9600202050343A5B0053656C656363696F6E6D
:10FFA6006172005B2A5D2053616C6972005B425D81
:10FFB60042616A6172005B415D537562697200203D
:10FFC60061206C617320004F7063696F6E004C494D
:10FFD60053544F0050313A5B0050333A5B00205384
:10FFE600323A002053343A0053313A0053333A0040
:0AFFF6002050003062003078000057
:020000040001F9
:10000000000E3D6E000E3E6E000E3F6E000E406E06
:100010000D6A010E0C6E5CECABF00009D8A413EF76
:1000200080F015EF80F024EF80F0BDECADF0030E12
:10003000166E020E65ECA9F0020E156EFF0E166E1E
:100040008BECA3F0C6EF84F00D6A010E0C6E5CEC35
:10005000ABF0526EBDECADF0000E166E010E65EC0D
:10006000A9F0230E156EFB0E166E8BECA3F0000E9E
:10007000166E020E65ECA9F0600E156EFD0E166E82
:100080008BECA3F0020E2F6E525099ECABF0000EE9
:10009000166E030E65ECA9F0D50E156EFC0E166EED
:1000A0008BECA3F0000E166E040E65ECA9F0900E1A
:1000B000156EFD0E166E8BECA3F0536A6EEF80F09A
:1000C000830E176E050E186EE8ECA4F0536ED00E7A
:1000D0003A6ECA0EE82EFED73A2EFCD75350D8B44B
:1000E00074EF80F076EF80F060EF80F0B9EF80F091
:1000F000570E366E050E376E1AECA0F0536AD4EF29
:1001000080F0570E366E050E376E9EECACF0C6EFE3
:1001100084F0570E366E050E376E9EECACF05350E1
:10012000D00F426E110E166E030E65ECA9F05350FF
:10013000DFECACF0150E3B6E4B0E3A6EBE0EE82EA9
:10014000FED73A2EFCD73B2EFAD700D04250525C55
:10015000D8A0ADEF80F0AFEF80F078EF80F04250A4
:10016000D8A4B5EF80F0B7EF80F0D4EF80F078EF4F
:1001700080F05350230AD8B478EF80F0090AD8B43D
:1001800081EF80F06B0AD8B478EF80F0030AD8B41E
:1001900078EF80F0010AD8B478EF80F0070AD8B47D
:1001A00078EF80F089EF80F05350D8B4DAEF80F028
:1001B000DCEF80F05DEF80F0000E166E040E65EC53
:1001C000A9F0860E156EFD0E166E8BECA3F0536A29
:1001D000F8EF80F0830E176E050E186EE8ECA4F0B1
:1001E000536ED00E3A6ECA0EE82EFED73A2EFCD7CA
:1001F0005350D8B4FEEF80F000EF81F0EAEF80F0CA
:100200001FEF81F0570E366E050E376E9EECACF088
:10021000150E3B6E4B0E3A6EBE0EE82EFED73A2EF2
:10022000FCD73B2EFAD700D02AEF81F0570E366E5E
:10023000050E376E1AECA0F0536A2AEF81F0535086
:10024000230AD8B402EF81F0090AD8B481EF80F014
:1002500016EF81F05350D8B430EF81F032EF81F0D7
:10026000E7EF80F0BDECADF0000E166E010E65EC10
:10027000A9F0900E156EFA0E166E8BECA3F0110E0F
:10028000166E010E65ECA9F0010E2F6E425099EC2E
:10029000ABF0000E166E020E65ECA9F0E90E156EBD
:1002A000FC0E166E8BECA3F00E0E166E020E65ECB5
:1002B000A9F04250050DF3C43AF5F4C43BF5040E21
:1002C0003A240C6E000E3B200D6E5CECABF0526ECF
:1002D000020E2F6E525099ECABF0110E166E020EFC
:1002E00065ECA9F04250050DF3C43AF5F4C43BF5B2
:1002F000050E3A240C6E000E3B200D6E5CECABF04C
:10030000526E020E2F6E525099ECABF0000E166E2C
:10031000030E65ECA9F0660E156EFA0E166E8BECE8
:10032000A3F00C0E166E040E65ECA9F0900E156E7F
:10033000FD0E166E8BECA3F0416A030E4164A3EF31
:1003400081F0A5EF81F0A7EF81F0A2EF82F0536A70
:10035000B8EF81F0830E176E050E186EE8ECA4F06E
:10036000536ED00E3A6ECA0EE82EFED73A2EFCD748
:100370005350D8B4BEEF81F0C0EF81F0AAEF81F006
:100380007CEF82F0570E366E050E376E1AECA0F039
:10039000536A97EF82F0570E366E050E376E9EEC5D
:1003A000ACF0020E4160D7EF81F0D9EF81F0E1EFC0
:1003B00081F041500E0F166E030E65ECA9F0E7EFC9
:1003C00081F041500F0F166E030E65ECA9F05350EB
:1003D000DFECACF0150E3B6E4B0E3A6EBE0EE82E07
:1003E000FED73A2EFCD73B2EFAD700D03D0E412443
:1003F000D96EDA6A050EDA225350D00FDF6E6DEF38
:1004000082F03D0E4124D96EDA6A050EDA22020E20
:10041000DF640DEF82F00FEF82F097EF82F0570E5E
:10042000366E050E376E1AECA0F00E0E166E030E29
:1004300065ECA9F0FD0E156EFF0E166E8BECA3F0A9
:10044000C8EF81F0020E3D18D8A429EF82F02BEFFF
:1004500082F097EF82F03D0E4124D96EDA6A050EE4
:10046000DA22030EDF6437EF82F039EF82F097EF84
:1004700082F0570E366E050E376E1AECA0F00F0E96
:10048000166E030E65ECA9F0FD0E156EFF0E166ECE
:100490008BECA3F0C8EF81F03D0E4124D96EDA6AEF
:1004A000050EDA22050EDF6458EF82F05AEF82F073
:1004B00097EF82F0570E366E050E376E1AECA0F0ED
:1004C000110E166E030E65ECA9F0FD0E156EFF0EF3
:1004D000166E8BECA3F0C8EF81F04150000AD8B43F
:1004E00001EF82F0010AD8B422EF82F0030AD8B4F7
:1004F0004CEF82F097EF82F05350230AD8B4C2EF4A
:1005000081F0090AD8B481EF80F06B0AD8B4C2EF49
:1005100081F0030AD8B4C2EF81F0010AD8B4C2EF67
:1005200081F0070AD8B4C2EF81F0CBEF81F05350CD
:10053000D8B49DEF82F09FEF82F0A7EF81F0412ABF
:100540009DEF81F0000E166E040E65ECA9F0390ED9
:10055000156EFD0E166E8BECA3F0536ABEEF82F0A3
:10056000830E176E050E186EE8ECA4F0536ED00ED5
:100570003A6ECA0EE82EFED73A2EFCD75350D8B4A6
:10058000C4EF82F0C6EF82F0B0EF82F0E5EF82F0C8
:10059000570E366E050E376E9EECACF0150E3B6EA8
:1005A0004B0E3A6EBE0EE82EFED73A2EFCD73B2EEF
:1005B000FAD700D0F0EF82F0570E366E050E376E88
:1005C0001AECA0F0536AF0EF82F05350230AD8B42B
:1005D000C8EF82F0090AD8B481EF80F0DCEF82F036
:1005E0005350D8B4F6EF82F0F8EF82F0ADEF82F01E
:1005F000BDECADF0000E166E010E65ECA9F0900E8C
:10060000156EFA0E166E8BECA3F0110E166E010E1F
:1006100065ECA9F0010E2F6E425099ECABF0000E84
:10062000166E020E65ECA9F0E10E156EFD0E166E4B
:100630008BECA3F0100E166E020E65ECA9F0425082
:10064000050DF3C43AF5F4C43BF5080E3A240C6EDC
:10065000000E3B200D6E5CECABF0526E010E2F6E67
:10066000525099ECABF0000E166E030E65ECA9F03B
:10067000170E156EFE0E166E8BECA3F0000E166EA6
:10068000040E65ECA9F05D0E156EFC0E166E8BEC7B
:10069000A3F0536A5AEF83F0830E176E050E186E9F
:1006A000E8ECA4F0536ED00E3A6ECA0EE82EFED7D8
:1006B0003A2EFCD75350D8B460EF83F062EF83F04A
:1006C0004CEF83F086EF83F05350D00F3C6E100E4A
:1006D000166E030E65ECA9F05350DFECACF0150E6E
:1006E0003B6E4B0E3A6EBE0EE82EFED73A2EFCD76E
:1006F0003B2EFAD700D09DEF83F0570E366E050ED5
:10070000376E1AECA0F0536A9DEF83F053502A0A1B
:10071000D8B481EF80F01B0AD8B464EF83F0030AE9
:10072000D8B464EF83F0010AD8B464EF83F0070A09
:10073000D8B464EF83F07DEF83F05350D8B4A3EFC7
:1007400083F0A5EF83F049EF83F0000E166E040EE0
:1007500065ECA9F0390E156EFD0E166E8BECA3F04C
:10076000536AC1EF83F0830E176E050E186EE8EC26
:10077000A4F0536ED00E3A6ECA0EE82EFED73A2E73
:10078000FCD75350D8B4C7EF83F0C9EF83F0B3EF71
:1007900083F0E8EF83F0570E366E050E376E9EEC51
:1007A000ACF0150E3B6E4B0E3A6EBE0EE82EFED729
:1007B0003A2EFCD73B2EFAD700D0F3EF83F0570E3A
:1007C000366E050E376E1AECA0F0536AF3EF83F025
:1007D0005350230AD8B4CBEF83F0090AD8B481EF81
:1007E00080F0DFEF83F05350D8B4F9EF83F0FBEFE4
:1007F00083F0B0EF83F04250050DF3C43AF5F4C432
:100800003BF5040E3A240F6E000E3B20106E3D5057
:100810000A0DF3503E24116E3EECACF04250050D33
:10082000F3C43AF5F4C43BF5050E3A240F6E000EFE
:100830003B20106E3F500A0DF3504024116E3EECE9
:10084000ACF04250050DF3C43AF5F4C43BF5080E84
:100850003A240F6E000E3B20106E3CC511F53EECA5
:10086000ACF04250050DF3C43AF5F4C43BF5060E66
:100870003A240F6E000E3B20106E000E116E3EECFF
:10088000ACF0BDECADF0000E166E010E65ECA9F0FB
:10089000E40E156EFA0E166E8BECA3F0010E166EBA
:1008A000020E65ECA9F0C10E156EFC0E166E8BECF7
:1008B000A3F0020E166E030E65ECA9F0410E156E44
:1008C000FF0E166E8BECA3F0030E166E030E65EC96
:1008D000A9F04250050DF3C43AF5F4C43BF5080EF7
:1008E0003A240C6E000E3B200D6E5CECABF0526EA9
:1008F000010E2F6E525099ECABF00B0E166E030EDC
:1009000065ECA9F04250050DF3C43AF5F4C43BF58B
:10091000040E3A240C6E000E3B200D6E5CECABF026
:10092000526E020E2F6E525099ECABF00E0E166EF8
:10093000030E65ECA9F04250050DF3C43AF5F4C47A
:100940003BF5050E3A240C6E000E3B200D6E5CEC60
:10095000ABF0526E020E2F6E525099ECABF0000EBF
:10096000166E040E65ECA9F0E40E156EFA0E166E06
:100970008BECA3F0520E3B6E2B0E3A6E000EE82E5F
:10098000FED73A2EFCD73B2EFAD700D01200000E2D
:100990003C6E000E3D6E000E3E6E000E3F6E0D6A08
:1009A000010E0C6E5CECABF03A6E050E3A64DBEFB8
:1009B00084F0DDEF84F0ECEF84F0BDECADF0030EDD
:1009C000166E020E65ECA9F0120E156EFF0E166E75
:1009D0008BECA3F090EF87F00D6A010E0C6E5CECCF
:1009E000ABF0416EBDECADF0000E166E010E65EC85
:1009F000A9F0A50E156EFA0E166E8BECA3F0000E84
:100A0000166E020E65ECA9F0AD0E156EFC0E166E9C
:100A10008BECA3F0000E166E030E65ECA9F0CF0E62
:100A2000156EFD0E166E8BECA3F00B0E166E040EFB
:100A300065ECA9F0A90E156EFF0E166E8BECA3F0F7
:100A4000536A31EF85F0830E176E050E186EE8ECD1
:100A5000A4F0536ED00E3A6ECA0EE82EFED73A2E90
:100A6000FCD75350D8B437EF85F039EF85F023EF3A
:100A700085F06BEF85F0570E366E050E376E9EECE7
:100A8000ACF05350D00F406E0F0E166E030E65EC97
:100A9000A9F05350DFECACF0150E3B6E4B0E3A6EE6
:100AA000BE0EE82EFED73A2EFCD73B2EFAD700D04A
:100AB00082EF85F0570E366E050E376E9EECACF069
:100AC00090EF87F0570E366E050E376E1AECA0F0D9
:100AD000536A82EF85F053502A0AD8B45AEF85F052
:100AE0001B0AD8B43BEF85F0030AD8B43BEF85F07E
:100AF000010AD8B43BEF85F0070AD8B43BEF85F084
:100B000062EF85F05350D8B488EF85F08AEF85F016
:100B100020EF85F0BDECADF0000E166E010E65EC19
:100B2000A9F00E0E156EFB0E166E8BECA3F0110ED7
:100B3000166E010E65ECA9F0010E2F6E405099EC77
:100B4000ABF0000E166E020E65ECA9F0990E156E54
:100B5000FC0E166E8BECA3F0000E166E030E65EC09
:100B6000A9F0320E156EFF0E166E8BECA3F00B0E75
:100B7000166E040E65ECA9F0A90E156EFF0E166E2A
:100B80008BECA3F0426A536AD4EF85F0830E176EA4
:100B9000050E186EE8ECA4F0536ED00E3A6ECA0E35
:100BA000E82EFED73A2EFCD75350D8B4DAEF85F0B2
:100BB000DCEF85F0C6EF85F098EF86F0570E366EC5
:100BC000050E376E1AECA0F0536AB3EF86F0570E9D
:100BD000366E050E376E9EECACF0020E4260F3EFFF
:100BE00085F0F5EF85F0FDEF85F04250070F166EAA
:100BF000030E65ECA9F003EF86F04250080F166E65
:100C0000030E65ECA9F05350DFECACF0150E3B6E13
:100C10004B0E3A6EBE0EE82EFED73A2EFCD73B2E78
:100C2000FAD700D03C0E4224D96EDA6A050EDA22D9
:100C30005350D00FDF6E89EF86F03C0E4224D96E00
:100C4000DA6A050EDA22020EDF6429EF86F02BEF56
:100C500086F0B3EF86F0570E366E050E376E1AEC3F
:100C6000A0F0070E166E030E65ECA9F0FD0E156ED2
:100C7000FF0E166E8BECA3F0E4EF85F0020E3C182D
:100C8000D8A445EF86F047EF86F0B3EF86F03C0E30
:100C90004224D96EDA6A050EDA22030EDF6453EFBE
:100CA00086F055EF86F0B3EF86F0570E366E050EE0
:100CB000376E1AECA0F0080E166E030E65ECA9F064
:100CC000FD0E156EFF0E166E8BECA3F0E4EF85F0B3
:100CD0003C0E4224D96EDA6A050EDA22050EDF6474
:100CE00074EF86F076EF86F0B3EF86F0570E366E2F
:100CF000050E376E1AECA0F00A0E166E030E65ECA8
:100D0000A9F0FD0E156EFF0E166E8BECA3F0E4EF4E
:100D100085F04250000AD8B41DEF86F0010AD8B41D
:100D20003EEF86F0030AD8B468EF86F0B3EF86F0A2
:100D30005350230AD8B4DEEF85F0090AD8B45AEF2D
:100D400085F06B0AD8B4DEEF85F0030AD8B4DEEF85
:100D500085F0010AD8B4DEEF85F0070AD8B4DEEFDB
:100D600085F0E7EF85F05350D8B4B9EF86F0BBEFCC
:100D700086F0C3EF85F0422A030E4264C2EF86F08C
:100D8000C4EF86F0C3EF85F0000E166E040E65EC1E
:100D9000A9F0F50E156EFB0E166E8BECA3F0536AE0
:100DA000E0EF86F0830E176E050E186EE8ECA4F0E7
:100DB000536ED00E3A6ECA0EE82EFED73A2EFCD7EE
:100DC0005350D8B4E6EF86F0E8EF86F0D2EF86F025
:100DD000FBEF86F0570E366E050E376E9EECACF0CC
:100DE00006EF87F0570E366E050E376E1AECA0F040
:100DF000536A06EF87F05350230AD8B4EAEF86F01F
:100E0000090AD8B45AEF85F0F2EF86F05350D8B4FF
:100E10000CEF87F00EEF87F0CFEF86F03E500A0D13
:100E2000F3503F24136E40C514F541C515F53C50F1
:100E30000A0DF3503D245AECA6F0BDECADF0000EC7
:100E4000166E010E65ECA9F0E40E156EFA0E166E24
:100E50008BECA3F0020E166E020E65ECA9F04B0EA1
:100E6000156EFE0E166E8BECA3F0030E166E030EBF
:100E700065ECA9F0F70E156EFF0E166E8BECA3F065
:100E8000010E2F6E405099ECABF0C50E156EFF0EA3
:100E9000166E8BECA3F04150050DF3C43AF5F4C483
:100EA0003BF5090E3A240C6E000E3B200D6E5CECF7
:100EB000ABF0526E020E2F6E525099ECABF0AB0EAF
:100EC000156EFC0E166E8BECA3F04150050DF3C4AD
:100ED0003AF5F4C43BF50A0E3A240C6E000E3B20A2
:100EE0000D6E5CECABF0526E020E2F6E525099EC10
:100EF000ABF0000E166E040E65ECA9F0E40E156E54
:100F0000FA0E166E8BECA3F0520E3B6E2B0E3A6E61
:100F1000000EE82EFED73A2EFCD73B2EFAD700D093
:100F20001200BDECADF0060E166E010E65ECA9F0D8
:100F3000700E156EFF0E166E8BECA3F0000E166E83
:100F4000030E65ECA9F0E20E156EFE0E166E8BEC2C
:100F5000A3F00D6A010E0C6E5CECABF0526E000E4D
:100F6000246E040E77ECAAF0000E166E030E65ECEC
:100F7000A9F08FECADF0020E166E030E65ECA9F031
:100F8000B10E156EFE0E166E8BECA3F0040E246EE1
:100F9000040E77ECAAF05228D8B4D1EF87F0D3EF43
:100FA00087F0DBEF87F0060E5264D9EF87F0DBEFB6
:100FB00087F0FFEF87F0080E246E040E77ECAAF09E
:100FC000000E166E030E65ECA9F08FECADF0020E6C
:100FD000166E030E65ECA9F0220E156EFF0E166E4E
:100FE0008BECA3F03D0E3B6EE10E3A6E400EE82E08
:100FF000FED73A2EFCD73B2EFAD797EF89F0525006
:10100000D8A405EF88F007EF88F020EF88F0080EED
:10101000246E040E77ECAAF0000E166E030E65EC3B
:10102000A9F08FECADF0000E166E030E65ECA9F082
:101030001F0E156EFC0E166E8BECA3F0F2EF87F010
:10104000000E166E030E65ECA9F08FECADF0020EEB
:10105000166E030E65ECA9F0A00E156EFE0E166E50
:101060008BECA3F0080E246E040E77ECAAF00C0EA5
:10107000246E040E77ECAAF052C542F5436AFF0EC7
:101080004224026E036AFF0E0322056A030E046EF9
:10109000BAEC9FF00250406EBDECADF0000E166E43
:1010A000010E65ECA9F0BA0E156EFA0E166E8BECF9
:1010B000A3F0FDEF88F0030E426461EF88F063EF68
:1010C00088F067EF88F0030E416E69EF88F042C543
:1010D00041F5446A9AEF88F0000E166E4450020FF4
:1010E00065ECA9F04450050DF3C43AF5F4C43BF5A2
:1010F000090E3A24316E000E3B20326E4450050D2D
:10110000F3C43CF5F4C43DF50A0E3C24336E000EE6
:101110003D20346E4450050DF3C43EF5F4C43FF554
:101120000D0E3E24356E000E3F20366E442869ECCD
:10113000A5F0442A4150445CD8A0A1EF88F0A3EF69
:1011400088F06CEF88F008EF89F0FD0E42243A6ECB
:101150003B6AFF0E3B223BBEB7EF88F03B5009E1F4
:10116000040E3A5CD8A0B7EF88F0B9EF88F0BDEF75
:1011700088F0030E416EC0EF88F04250FD0F416EC3
:10118000456AF2EF88F0000E166E4550020F65ECCE
:10119000A9F04550050DF3C43AF5F4C43BF5180E1B
:1011A0003A24316E000E3B20326E4550050DF3C4DB
:1011B0003CF5F4C43DF5190E3C24336E000E3D2081
:1011C000346E4550050DF3C43EF5F4C43FF51C0ED6
:1011D0003E24356E000E3F20366E4550040F69ECFC
:1011E000A5F0452A4150455CD8A0F9EF88F0FBEF07
:1011F00088F0C3EF88F008EF89F04350000AD8B4B4
:101200005BEF88F0010AD8B4A5EF88F008EF89F009
:101210004350D8B40EEF89F010EF89F01BEF89F03E
:101220000C0E166E020E65ECA9F0BC0E156EFF0ECC
:10123000166E8BECA3F04050435CD8B022EF89F0DF
:1012400024EF89F02FEF89F00C0E166E040E65EC7A
:10125000A9F0B30E156EFF0E166E8BECA3F00C0EFC
:10126000166E030E65ECA9F0900E156EFD0E166E4F
:101270008BECA3F0536A4BEF89F0830E176E050ECB
:10128000186EE8ECA4F0536ED00E3A6ECA0EE82E3B
:10129000FED73A2EFCD75350D8B451EF89F053EF14
:1012A00089F03DEF89F088EF89F0570E366E050E14
:1012B000376E9EECACF04350D8B461EF89F063EF29
:1012C00089F04CEF88F043064CEF88F0570E366EED
:1012D000050E376E9EECACF04050435CD8B073EF17
:1012E00089F075EF89F04CEF88F0432A4CEF88F0D5
:1012F000570E366E050E376E9EECACF097EF89F008
:10130000570E366E050E376E1AECA0F04CEF88F0D3
:1013100053502A0AD8B478EF89F06B0AD8B455EF45
:1013200089F0030AD8B466EF89F080EF89F01200E3
:101330003D6ABDECADF0010E166E010E65ECA9F034
:101340004D0E156EFB0E166E8BECA3F0000E166E96
:10135000030E65ECA9F0E20E156EFE0E166E8BEC18
:10136000A3F00D6A020E0C6E5CECABF0526E000E38
:10137000246E040E77ECAAF0000E166E030E65ECD8
:10138000A9F08FECADF0000E166E030E65ECA9F01F
:10139000B10E156EFE0E166E8BECA3F0040E246ECD
:1013A000040E77ECAAF05228D8A4D9EF89F0DBEF2D
:1013B00089F0FFEF89F0080E246E040E77ECAAF096
:1013C000000E166E030E65ECA9F08FECADF0020E68
:1013D000166E030E65ECA9F0220E156EFF0E166E4A
:1013E0008BECA3F03D0E3C6EE10E3B6E400EE82E02
:1013F000FED73B2EFCD73C2EFAD782EF8BF0000EA7
:10140000166E030E65ECA9F08FECADF0000E166EB3
:10141000030E65ECA9F0290E156EFE0E166E8BEC10
:10142000A3F0020E2F6E525099ECABF0080E246E12
:10143000040E77ECAAF0000E166E030E65ECA9F010
:101440008FECADF0000E166E030E65ECA9F0380EB1
:10145000156EFB0E166E8BECA3F00C0E246E040EB4
:1014600077ECAAF0BDECADF0000E166E010E65EC47
:10147000A9F0490E156EFC0E166E8BECA3F0000E53
:10148000166E020E65ECA9F0DA0E156EFF0E166EE2
:101490008BECA3F00D6A050E0C6E5CECABF0526E9B
:1014A000020E2F6E525099ECABF0850E156EFF0EAA
:1014B000166E8BECA3F00D6A060E0C6E5CECABF0B6
:1014C000526E020E2F6E525099ECABF0DF0E156E7D
:1014D000FD0E166E8BECA3F0000E166E030E65EC7F
:1014E000A9F0DF0E156EFF0E166E8BECA3F00D6AE1
:1014F000070E0C6E5CECABF0526E020E2F6E52506B
:1015000099ECABF0910E156EFF0E166E8BECA3F0FE
:101510000D6A080E0C6E5CECABF0526E020E2F6E74
:10152000525099ECABF0DF0E156EFD0E166E8BEC83
:10153000A3F0000E166E040E65ECA9F0620E156E97
:10154000FB0E166E8BECA3F0536AB5EF8AF0830E98
:10155000176E050E186EE8ECA4F0536ED00E3B6EBD
:10156000CA0EE82EFED73B2EFCD75350D8B4BBEFA3
:101570008AF0BDEF8AF0A7EF8AF0F5EF8AF0570EF8
:10158000366E050E376E9EECACF05350D00F3E6EAB
:10159000120E166E040E65ECA9F05350DFECACF0A1
:1015A000030E3C6E080E3B6E770EE82EFED73B2EE8
:1015B000FCD73C2EFAD700003E50BBEC9DF008EF64
:1015C0008BF0570E366E050E376E1AECA0F0120E29
:1015D000166E040E65ECA9F0A30E156EFA0E166ECB
:1015E0008BECA3F0536A08EF8BF05350310AD8B458
:1015F000BFEF8AF0030AD8B4BFEF8AF0010AD8B46B
:10160000BFEF8AF0070AD8B4BFEF8AF0E1EF8AF0A3
:101610005350D8B40EEF8BF010EF8BF0A4EF8AF09C
:10162000536A21EF8BF0830E176E050E186EE8ECEF
:10163000A4F0536ED00E3B6ECA0EE82EFED73B2EA2
:10164000FCD75350D8B427EF8BF029EF8BF013EF72
:101650008BF067EF8BF0570E366E050E376E1AEC77
:10166000A0F010EF8BF0570E366E050E376E9EEC25
:10167000ACF082EF8BF0570E366E050E376E56ECDF
:101680009FF03DC531F53E5025EC9EF0090E3C6EB5
:101690001E0E3B6EE40EE82EFED73B2EFCD73C2EF2
:1016A000FAD700D082EF8BF0570E366E050E376EEC
:1016B0009EECACF05350D00F3D6E120E166E030E22
:1016C00065ECA9F05350DFECACF010EF8BF0535009
:1016D000230AD8B43BEF8BF0090AD8B433EF8BF070
:1016E0006B0AD8B42BEF8BF0030AD8B42BEF8BF036
:1016F000010AD8B42BEF8BF0070AD8B42BEF8BF08C
:1017000054EF8BF012000501E16BE86BC3EF8BF037
:10171000E8513F24D96E000E4020DA6EDF50426E51
:10172000050E42240C6E0D6A000E0D225CECABF02F
:101730000009D8A49EEF8BF0A0EF8BF0C1EF8BF0E7
:10174000CC0E226E050E236E250E246EFD0E256E28
:101750000501E8513F24D96E000E4020DA6EDF50BB
:10176000426E4250266E276A2FECAAF0CC0E3A6EDB
:10177000050E3B6E020E3C6E43EC92F0010E05012D
:10178000E16F0501E82B4150E85DD8A0CAEF8BF06E
:10179000CCEF8BF088EF8BF0E151D8A4D2EF8BF037
:1017A000D4EF8BF061EF8DF0BDECADF0000E166E56
:1017B000020E65ECA9F07B0E156EFA0E166E8BEC20
:1017C000A3F0570E096E050E0A6EA9ECADF00501E7
:1017D000E96B58EF8DF0E26B000E166E030E65ECB0
:1017E000A9F04D0E156EFD0E166E8BECA3F0010EDA
:1017F0002F6E0501E9513F24426E000E4020436EDA
:10180000010E4224D96E000E4320DA6EDF5099ECAF
:10181000ABF0520E436E2B0E426E000EE82EFED73A
:10182000422EFCD7432EFAD700D0040E0501E36FF9
:10183000E56B000EE46FE76B000EE66F68EF8CF06F
:10184000C60E026E050E036ED3ECA3F002C5E4F5DE
:1018500003C5E5F5A50E0A6E050E0B6E3CECA7F070
:1018600087EF8CF0C00E026E050E036ED3ECA3F072
:1018700002C5E4F503C5E5F59D0E0A6E050E0B6E77
:101880003CECA7F087EF8CF0BA0E026E050E036EEB
:10189000D3ECA3F002C5E4F503C5E5F5950E0A6E99
:1018A000050E0B6E3CECA7F087EF8CF0B40E026EC9
:1018B000050E036ED3ECA3F002C5E4F503C5E5F510
:1018C0008D0E0A6E050E0B6E3CECA7F087EF8CF0C8
:1018D000E9513F24426E000E4020436E010E422427
:1018E000D96E000E4320DA6EDF50010AD8B420EF23
:1018F0008CF0030AD8B432EF8CF0010AD8B444EF6C
:101900008CF0070AD8B456EF8CF087EF8CF0E90E14
:101910000501E45D030EE559D8A091EF8CF093EF3B
:101920008CF0B0EF8CF0A50E0A6E050E0B6E98ECE5
:10193000ADF09D0E0A6E050E0B6E98ECADF0950E97
:101940000A6E050E0B6E98ECADF08D0E0A6E050E4C
:101950000B6E98ECADF0010E0501E26FBBEF8CF061
:10196000E64BE72B080EE75DD8A0B9EF8CF0BBEF94
:101970008CF068EF8CF0E251D8B4C1EF8CF0C3EF7B
:101980008CF020EF8DF0E9513F24D96E000E4020FD
:10199000DA6EDF50426E040E42240C6E0D6A000EA9
:1019A0000D225CECABF0436E43040501E06FE9519E
:1019B0003F24D96E000E4020DA6EDF50426E040ED6
:1019C00042240F6E106A000E1022E0C511F53EECA5
:1019D000ACF00501E951050DF3C442F5F4C443F53B
:1019E0000B0E42240F6E000E4320106E010E116E7E
:1019F0003EECACF0570E366E050E376EDBECA7F002
:101A0000520E116E060E126E000E136EC80E146E7C
:101A1000000E156EF4ECACF0150E436E4B0E426EDC
:101A2000BE0EE82EFED7422EFCD7432EFAD700D0AA
:101A3000520E116E060E126E07ECADF056EF8DF0E1
:101A4000E307570E366E050E376E1AECA0F0520EF5
:101A5000116E060E126EF00E136EC80E146E000E8E
:101A6000156EF4ECACF0150E436E4B0E426EBE0ECE
:101A7000E82EFED7422EFCD7432EFAD700D0520EC6
:101A8000116E060E126E07ECADF00501E351D8A4FD
:101A90004CEF8DF04EEF8DF01BEF8CF0E00E3A6EB8
:101AA000FB0E3B6E030E3C6E43EC92F00501E92BFE
:101AB0004150E95DD8A05FEF8DF061EF8DF0EBEF65
:101AC0008BF01200536AD1EF8EF0BDECADF0050E35
:101AD000166E020E65ECA9F09D0E156EFF0E166EC9
:101AE0008BECA3F0030E166E030E65ECA9F0500EFE
:101AF000156EFF0E166E8BECA3F0520E476E2B0E7A
:101B0000466E000EE82EFED7462EFCD7472EFAD79B
:101B100000D0BDECADF0000E166E010E65ECA9F024
:101B20000A0E156EFC0E166E8BECA3F0000E166EF0
:101B3000020E65ECA9F0270E156EFA0E166E8BECF0
:101B4000A3F0000E166E030E65ECA9F03C0E156EA8
:101B5000FA0E166E8BECA3F0000E166E040E65ECFA
:101B6000A9F0510E156EFA0E166E8BECA3F0496AB1
:101B7000000E486E830E176E050E186EE8ECA4F08A
:101B8000536E5350D8B4C7EF8DF0C9EF8DF0BCEF52
:101B90008EF0BDECADF0A5EF8EF0570E366E050E53
:101BA000376E56EC9FF0070E166E010E65ECA9F02D
:101BB000CD0E156EFF0E166E8BECA3F0020E166E98
:101BC000020E65ECA9F0F20E156EFE0E166E8BEC91
:101BD000A3F0520E476E2B0E466E000EE82EFED777
:101BE000462EFCD7472EFAD700D0C7EC84F0BCEFC6
:101BF0008EF0570E366E050E376E56EC9FF0070EC0
:101C0000166E010E65ECA9F0CD0E156EFF0E166E68
:101C10008BECA3F0010E166E020E65ECA9F0050E1A
:101C2000156EFE0E166E8BECA3F0520E476E2B0E49
:101C3000466E000EE82EFED7462EFCD7472EFAD76A
:101C400000D000EC80F0BCEF8EF0570E366E050E23
:101C5000376E56EC9FF0070E166E010E65ECA9F07C
:101C6000CD0E156EFF0E166E8BECA3F0040E166EE5
:101C7000020E65ECA9F06C0E156EFF0E166E8BEC65
:101C8000A3F0520E476E2B0E466E000EE82EFED7C6
:101C9000462EFCD7472EFAD700D091EC87F0BCEF48
:101CA0008EF0570E366E050E376E56EC9FF0070E0F
:101CB000166E010E65ECA9F0CD0E156EFF0E166EB8
:101CC0008BECA3F0010E166E020E65ECA9F0730EFC
:101CD000156EFD0E166E8BECA3F0520E476E2B0E9A
:101CE000466E000EE82EFED7462EFCD7472EFAD7BA
:101CF00000D098EC89F0BCEF8EF0570E366E050ED2
:101D0000376E56EC9FF0D9EF8EF0570E366E050EFB
:101D1000376E72ECA0F0020E166E020E65ECA9F0A2
:101D2000D20E156EFE0E166E8BECA3F0150E476EDE
:101D30004B0E466EBE0EE82EFED7462EFCD7472E23
:101D4000FAD700D0536ABCEF8EF053502A0AD8B4A9
:101D50007DEF8EF01B0AD8B4CDEF8DF0030AD8B416
:101D6000F9EF8DF0010AD8B425EF8EF0070AD8B448
:101D700051EF8EF085EF8EF0680E466EE40EE82E81
:101D8000FED7462EFCD700D0484A492AF40E485CBC
:101D9000010E4958D8A0CFEF8EF0D1EF8EF0BAEFF8
:101DA0008DF05350D8B4D7EF8EF0D9EF8EF065EFA9
:101DB0008DF012005504D8A4E0EF8EF0E2EF8EF023
:101DC00026EF90F002C64CF54C50030F486E4828A1
:101DD000436E000E4324D96EDA6A060EDA220A0E2A
:101DE000DE18D8A4F6EF8EF0F8EF8EF025EF90F025
:101DF000446A476A000E466E08EF8FF0030E4624D1
:101E0000D96E060E4720DA6EDF504426464A472A2E
:101E10004C50386E396A3850465C4750800A3A6EEA
:101E20003950800A3A58D8A018EF8FF01AEF8FF087
:101E3000FEEF8EF0000E4824D96EDA6A060EDA2222
:101E40004450DE18D8A427EF8FF029EF8FF025EF4C
:101E500090F011EF90F00205D8A431EF8FF033EF3E
:101E60008FF025EF90F0520E0319D8A43AEF8FF0BF
:101E70003CEF8FF025EF90F0AD0E0E6E060E0F6E5C
:101E800070ECACF0AD0E036E060E046ECCECA6F05A
:101E900025EF90F0040E0219D8A451EF8FF053EF04
:101EA0008FF025EF90F005C613F506C614F503056F
:101EB000156E04515AECA6F00601045139ECADF050
:101EC0000601055139ECADF00601065139ECADF0D3
:101ED0000601030539ECADF0070E39ECADF00A0E42
:101EE00039ECADF025EF90F0020E0219D8A47BEF8B
:101EF0008FF07DEF8FF025EF90F003C613F50451BE
:101F000064ECA2F0AA0E39ECADF0150E39ECADF090
:101F1000010E39ECADF0070E39ECADF0070E39ECDF
:101F2000ADF00A0E39ECADF025EF90F04C04D8A4DA
:101F30009CEF8FF09EEF8FF025EF90F00305D8A473
:101F4000A4EF8FF0A6EF8FF025EF90F0496A3B0EDB
:101F5000086E050E096E2AECA5F0AA0E39ECADF05C
:101F6000550E39ECADF0090E39ECADF0456A4E6A0C
:101F7000000E4D6ED8904D34D96E4E34DA6E3B0E55
:101F8000D926050EDA22DEC438F5DDC439F539C5A7
:101F900038F5396A38504A6ED8904D34D96E4E347F
:101FA000DA6E3B0ED926050EDA22DF504B6E4A5010
:101FB00039ECADF04B5039ECADF04A5045264B5062
:101FC00045264D4A4E2A4EBEEFEF8FF04E5009E1A6
:101FD000040E4D5CD8A0EFEF8FF0F1EF8FF0BAEF69
:101FE0008FF0495039ECADF049504526455039EC59
:101FF000ADF00A0E39ECADF01BECA4F025EF90F03B
:10200000AA0E39ECADF0550E39ECADF0010E39ECFD
:10201000ADF0060E39ECADF0060E39ECADF025EF63
:1020200090F006010151070AD8B474EF8FF0120A3C
:10203000D8B44AEF8FF0330AD8B496EF8FF0700A15
:10204000D8B42BEF8FF000EF90F0556A12000550D6
:102050000610D8A42EEF90F030EF90F033EF90F010
:10206000000E53EF91F005C5D9F406C5DAF4DF5040
:102070007F0B0A6E20EE01F00550D9260650DA22B9
:10208000DF507F0B0B6E20EE04F00550D926065072
:10209000DA22DF503F0B0C6E20EE05F00550D926FA
:1020A0000650DA22DF501F0B0D6E20EE06F00550B1
:1020B000D9260650DA22DF50076E20EE03F00550D5
:1020C000D9260650DA22DF50070B106E20EE02F000
:1020D0000550D9260650DA22DFAC71EF90F073EF8D
:1020E00090F07EEF90F020EE02F00550D9260650D9
:1020F000DA22DF501F0B116E87EF90F020EE02F016
:102100000550D9260650DA22DF503F0B116E0A50D7
:10211000B6ECABF00009D8B490EF90F092EF90F0ED
:1021200030EF90F00B50B6ECABF00009D8B49BEF59
:1021300090F09DEF90F030EF90F01150B6ECABF0D6
:102140000009D8B4A6EF90F0A8EF90F030EF90F02F
:102150000C50B6ECABF00009D8B4B1EF90F0B3EF8F
:1021600090F030EF90F00D50B6ECABF00009D8B421
:10217000BCEF90F0BEEF90F030EF90F00750B6EC6F
:10218000ABF00009D8A4C7EF90F0C9EF90F0CBEF07
:1021900090F030EF90F00A5051ECADF0086E0B501B
:1021A00051ECADF0096E115051ECADF0126E0C50C7
:1021B00051ECADF00E6E0D5051ECADF00F6E3B0ECC
:1021C0000864E5EF90F0E7EF90F0E9EF90F030EF82
:1021D00090F03B0E0964EFEF90F0F1EF90F0F3EF29
:1021E00090F030EF90F020EE02F00550D926065026
:1021F000DA22DFACFEEF90F000EF91F012EF91F0F9
:102200001250D8B406EF91F008EF91F030EF90F053
:102210000C0E12640EEF91F010EF91F01CEF91F0A4
:1022200030EF90F0170E126418EF91F01AEF91F062
:102230001CEF91F030EF90F01050D8B422EF91F0F5
:1022400024EF91F030EF90F0070E10642AEF91F038
:102250002CEF91F02EEF91F030EF90F00E50D8B4BB
:1022600034EF91F036EF91F030EF90F01F0E0E64E6
:102270003CEF91F03EEF91F040EF91F030EF90F0B5
:102280000F50D8B446EF91F048EF91F030EF90F056
:102290000C0E0F644EEF91F050EF91F052EF91F071
:1022A00030EF90F0010E120013501410D8A45BEF21
:1022B00091F05DEF91F060EF91F0050E42EF92F03A
:1022C00020EE08F01350D9261450DA22DF6A20EEEF
:1022D00009F01350D9261450DA22DF6A20EE0AF0F2
:1022E0001350D9261450DA22DF6A20EE0BF0135077
:1022F000D9261450DA22DF6A180E116E050E126EFE
:10230000B4ECACF01F6E1F50D8B489EF91F08BEF96
:1023100091F08EEF91F01F5042EF92F020EE08F016
:102320001350D9261450DA2218AE99EF91F09CEF91
:1023300091F0010E9DEF91F0000EDF6E20EE09F09E
:102340001350D9261450DA221ABCA9EF91F0ACEF41
:1023500091F0010EADEF91F0000EDF6E20EE09F06E
:102360001350D9261450DA22DF50D8B4BAEF91F0C6
:10237000BCEF91F0D9EF91F020EE0AF01350D9267E
:102380001450DA221ABAC7EF91F0CAEF91F0010E99
:10239000CBEF91F0000EDF6E20EE02F01350D92645
:1023A0001450DA221A501F0B51ECADF0DF6EEBEF38
:1023B00091F020EE0AF01350D9261450DA22DF6A89
:1023C00020EE02F01350D9261450DA221A503F0B97
:1023D00051ECADF0DF6E18507F0B51ECADF013C532
:1023E000D9F414C5DAF4DF6E20EE01F01350D926CB
:1023F0001450DA2219507F0B51ECADF0DF6E20EE55
:1024000003F01350D9261450DA221B50070BDF6E4D
:1024100020EE04F01350D9261450DA221C503F0B42
:1024200051ECADF0DF6E20EE05F01350D9261450BC
:10243000DA221D501F0B51ECADF0DF6E1E5051EC37
:10244000ADF0156ED00E1524166E176A070E172202
:1024500020EE06F01350D9261450DA2216C5DEF409
:1024600017C5DDF4180E056E050E066E27EC90F00C
:10247000156E20EE0BF01350D9261450DA2215C534
:10248000DFF4000E1200BDECADF0000E166E020E71
:1024900065ECA9F0A10E156EFB0E166E8BECA3F089
:1024A000000E166E030E65ECA9F03AC515F53BC596
:1024B00016F58BECA3F0C2EF92F0520E116E060EE1
:1024C000126EC80E136E000E146E000E156EF4EC34
:1024D000ACF0570E366E050E376E72ECA0F0D1EFF1
:1024E00092F0520E116E060E126EFA0E136EC80E98
:1024F000146E000E156EF4ECACF0570E366E050E31
:10250000376E1AECA0F0520E3E6E2B0E3D6E000E92
:10251000E82EFED73D2EFCD73E2EFAD700D0520E25
:10252000116E060E126E07ECADF030EF93F0520E06
:10253000116E060E126EFA0E136EC80E146E000E99
:10254000156EF4ECACF0570E366E050E376E1AECC5
:10255000A0F0000E166E040E65ECA9F0CB0E156E01
:10256000FB0E166E8BECA3F0290E3E6E960E3D6EA2
:102570007F0EE82EFED73D2EFCD73E2EFAD7000068
:10258000B4EF92F03C50010AD8B45DEF92F0030A28
:10259000D8B471EF92F0010AD8B497EF92F0D1EF6E
:1025A00092F07A0E3E6EC10E3D6E820EE82EFED780
:1025B0003D2EFCD73E2EFAD7BDECADF0000E166EC8
:1025C000020E65ECA9F0F30E156EFD0E166E8BEC87
:1025D000A3F0000E166E030E65ECA9F0110E156E39
:1025E000FD0E166E8BECA3F0536A05EF93F0830E8D
:1025F000176E050E186EE8ECA4F0536ED00E3D6E0B
:10260000CA0EE82EFED73D2EFCD75350D8B40BEFA0
:1026100093F00DEF93F0F7EF92F021EF93F0570E58
:10262000366E050E376E9EECACF0FF0028EF93F08F
:10263000570E366E050E376E1AECA0F0536A28EF6F
:1026400093F05350230AD8B40FEF93F018EF93F0A0
:102650005350D8B42EEF93F030EF93F0F4EF92F0A4
:1026600012001D501E10D8A438EF93F03AEF93F0EB
:102670003CEF93F018EF94F0640E216442EF93F076
:1026800044EF93F046EF93F0640E216E400E0E6E11
:10269000420E0F6E0F0E106E000E116E1DC512F55C
:1026A0001EC513F5146A156A70ECA1F00EC52EF55F
:1026B0000FC52FF510C530F511C531F52150026E4B
:1026C000036A046A056A2EC506F52FC507F530C5ED
:1026D00008F531C509F572ECA7F002C50EF503C582
:1026E0000FF504C510F505C511F5640E126E000E48
:1026F000136E000E146E000E156E70ECA1F00EC578
:1027000032F50FC533F510C534F511C535F5325026
:102710002E5C2A6E33502F582B6E345030582C6E4E
:10272000355031582D6E1FC502F520C503F5046ADA
:10273000056AE80E066E030E076E000E086E000EA8
:10274000096E72ECA7F002C50EF503C50FF504C5BE
:1027500010F505C511F52EC512F52FC513F530C5B9
:1027600014F531C515F570ECA1F00EC522F50FC5B5
:1027700023F510C524F511C525F5000E266E000EB3
:10278000276E000E286E000E296E03EF94F0325073
:10279000331034103510D8B4D0EF93F0D2EF93F05B
:1027A000E2EF93F01BC502F51CC503F553ECAAF04C
:1027B00032C502F533C503F534C504F535C505F555
:1027C00087ECACF02A502B102C102D10D8B4EBEF66
:1027D00093F0EDEF93F0FDEF93F01BC502F51CC5F0
:1027E00003F50AECAAF02AC502F52BC503F52CC5A2
:1027F00004F52DC505F587ECACF0010E2626000E7C
:102800002722282229222250265C23502758245090
:10281000285825502958D8A010EF94F012EF94F0C2
:10282000C7EF93F01BC502F51CC503F50AECAAF02F
:1028300012000DC5D9F40EC5DAF4DEC4F6F4DDC419
:10284000F7F4000EF86E0800F550250AD8A42BEF17
:1028500094F02DEF94F0E1EF94F00DC5D9F40EC58E
:10286000DAF4DE2A000EDD220501696B000E686FC6
:1028700068C574F56A696B690DC5D9F40EC5DAF4DB
:10288000DEC413F5DDC414F513C5F6F414C5F7F46E
:10289000000EF86E0800F550750AD8A452EF94F0B7
:1028A00054EF94F0D8EF94F00FC5D9F410C5DAF4D2
:1028B000DFC411F5020EDE26DFC412F5000EDD22A4
:1028C00011C5D9F412C5DAF4DEC415F5DDC416F568
:1028D000010E1324116E000E1420126E0DC5D9F4D2
:1028E0000EC5DAF411C5DEF412C5DDF4CAEF94F0BA
:1028F000200E196E1906320E1924D96EDA6A060EE8
:10290000DA2215C502F516C503F5056A0A0E046E2E
:10291000DBECA8F00250300FDF6E15C502F516C5CE
:1029200003F5056A0A0E046E93ECA6F002C515F5D0
:1029300003C516F515501610D8B4A1EF94F0A3EF07
:1029400094F0BFEF94F01950D8A4A9EF94F0ABEF36
:1029500094F07AEF94F0BFEF94F0320E1924D96E10
:10296000DA6A060EDA22DF50116E1150026E036A27
:102970000BC504F50CC505F5F1EC9EF0192A200EE7
:102980001918D8A4C6EF94F0C8EF94F0ADEF94F006
:10299000F7EF94F013C5F6F414C5F7F4000EF86ED3
:1029A0000800F550750AD8B478EF94F0D8EF94F099
:1029B0000DC5D9F40EC5DAF4DE2A000EDD22F7EFDC
:1029C00094F00DC5D9F40EC5DAF4DEC4F6F4DDC416
:1029D000F7F4000EF86E0800F550026E036A0BC59E
:1029E00004F50CC505F5F1EC9EF0D8EF94F012005B
:1029F0004F6A0D6A010E0C6E5CECABF04E6E506AC5
:102A0000770E136E050E146E54EC91F00501756F80
:102A10007551D8A40EEF95F010EF95F020EF95F0DA
:102A20007F51D8B416EF95F018EF95F020EF95F0A0
:102A30008251D8A41EEF95F020EF95F028EF95F085
:102A40006D0E3A6EFE0E3B6E010E3C6E43EC92F044
:102A5000010E516EBBEF95F05150050DF3C444F5D6
:102A6000F4C445F5040E44240C6E000E45200D6E92
:102A70005CECABF005017919D8A441EF95F043EF78
:102A800095F090EF95F05150050DF3C444F5F4C462
:102A900045F5050E44240C6E000E45200D6E5CECD1
:102AA000ABF005017819D8A458EF95F05AEF95F0DE
:102AB00090EF95F05150050DF3C444F5F4C445F57D
:102AC000060E44240C6E000E45200D6E5CECABF03F
:102AD0000009D8A46EEF95F070EF95F0BAEF95F07D
:102AE000FF0E5124446E456AFF0E4522480E4424D1
:102AF000D96E050E4520DA6E5150050DF3C446F52A
:102B0000F4C447F5080E46240C6E000E47200D6EE7
:102B10005CECABF0DF6E4F2A010E506EBAEF95F011
:102B2000106A0B0E0F6E000E116E3EECACF0106AC8
:102B3000100E0F6E000E116E3EECACF0106A150E0A
:102B40000F6E000E116E3EECACF0106A1A0E0F6E96
:102B5000000E116E3EECACF0106A1F0E0F6E000EF0
:102B6000116E3EECACF0106A240E0F6E000E116E6A
:102B70003EECACF0512A51504E5CD8B0C2EF95F00B
:102B8000C4EF95F02CEF95F05050D8B4CAEF95F003
:102B9000CCEF95F0D4EF95F0480E3F6E050E406EE9
:102BA0004FC541F583EC8BF012002650D8B4DBEF13
:102BB00095F0DDEF95F0EEEF95F0060E2660E3EF71
:102BC00095F0E5EF95F0EEEF95F02650275CD8A054
:102BD000ECEF95F0EEEF95F0F1EF95F0050EAAEF22
:102BE00096F0010E2A6E000E2B6E000E2C6E000E5B
:102BF0002D6E010E296E18EF96F02AC502F52BC531
:102C000003F52CC504F52DC505F50A0E066E000E5C
:102C1000076E000E086E000E096E72ECA7F002C57A
:102C20002AF503C52BF504C52CF505C52DF5292A74
:102C30002650295CD8A01FEF96F021EF96F0FDEF0B
:102C400095F0296AA0EF96F02750D8B42AEF96F0B5
:102C50002CEF96F045EF96F02750265C2918D8A463
:102C600034EF96F036EF96F045EF96F02E0EDFEC4F
:102C7000ACF02E6E2E50D8B440EF96F042EF96F0A6
:102C800045EF96F02E50AAEF96F02AC512F52BC507
:102C900013F52CC514F52DC515F524C50EF525C560
:102CA0000FF5106A116A70ECA1F00EC51BF50FC587
:102CB0001CF510C51DF511C51EF50A0E1F6E000E80
:102CC000206E000E216E000E226E60ECA4F01B50F0
:102CD000286E2850300FDFECACF02E6E2E50D8B49A
:102CE00074EF96F076EF96F078EF96F042EF96F06C
:102CF0002D502C102B1009E1020E2A5CD8A083EF76
:102D000096F085EF96F09FEF96F02AC50EF52BC54D
:102D10000FF52CC510F52DC511F50A0E126E000E1B
:102D2000136E000E146E000E156E70ECA1F00EC541
:102D30002AF50FC52BF510C52CF511C52DF5292A3F
:102D40002650295CD8A0A7EF96F0A9EF96F024EFC3
:102D500096F0000E1200030E176E080E166E770E18
:102D6000E82EFED7162EFCD7172EFAD70000080E35
:102D70000501ED6F040EEC6FED51A1ECADF0186E96
:102D80001850D8B4C6EF96F0C8EF96F0CAEF96F098
:102D900061EF97F0340E166EF20EE82EFED7162E67
:102DA000FCD7000E0A6E300EDCECAAF0186E18503C
:102DB000D8B4DDEF96F0DFEF96F0E1EF96F061EF3B
:102DC00097F0340E166EF20EE82EFED7162EFCD7B4
:102DD000000E0A6E300EDCECAAF0186E1850D8B453
:102DE000F4EF96F0F6EF96F0F8EF96F061EF97F0CB
:102DF000F00E00D0E82EFDD7000E0A6E300EDCEC8F
:102E0000AAF0186E1850D8B408EF97F00AEF97F0B0
:102E10000CEF97F061EF97F0F00E00D0E82EFDD7A1
:102E2000000E0A6E200EDCECAAF0186E1850D8B412
:102E30001CEF97F01EEF97F020EF97F061EF97F0FF
:102E4000F00E00D0E82EFDD7280E0FECA8F0186E7B
:102E50001850D8B42EEF97F030EF97F032EF97F08C
:102E600061EF97F00501EC6BB7ECADF0186E185000
:102E7000D8B43DEF97F03FEF97F041EF97F061EF57
:102E800097F0BDECADF0186E1850D8B44AEF97F03B
:102E90004CEF97F04EEF97F061EF97F0060E0FECC6
:102EA000A8F0186E1850D8B458EF97F05AEF97F072
:102EB0005CEF97F061EF97F0040E0501EC6FB7EC53
:102EC000ADF0120005017551D8B469EF97F06BEFC2
:102ED00097F073EF97F05C0E3A6EFE0E3B6E010EAC
:102EE0003C6E43EC92F0770E136E050E146E54ECAC
:102EF00091F00501756F7551D8B481EF97F083EFAC
:102F000097F08BEF97F06D0E3A6EFE0E3B6E010E52
:102F10003C6E43EC92F005017F51D8A492EF97F0FC
:102F200094EF97F09CEF97F05F0E3A6EFF0E3B6EBA
:102F3000010E3C6E43EC92F005018251D8A4A3EF40
:102F400097F0A5EF97F0ADEF97F08C0E3A6EFB0E71
:102F50003B6E010E3C6E43EC92F0D3ECABF00009FB
:102F6000D8A4B5EF97F0B7EF97F0BFEF97F0770ED3
:102F70003A6EFB0E3B6E010E3C6E43EC92F00D6A16
:102F8000010E0C6E5CECABF00009D8A4CAEF97F010
:102F9000CCEF97F0D4EF97F0020E3A6EFF0E3B6E37
:102FA000020E3C6E43EC92F00D6A020E0C6E5CEC6D
:102FB000ABF00009D8A4DFEF97F0E1EF97F0E9EF6D
:102FC00097F08F0E3A6EFE0E3B6E020E3C6E43EC97
:102FD00092F0BDECADF0000E166E020E65ECA9F09D
:102FE0007E0E156EFE0E166E8BECA3F0520E116E59
:102FF000060E126E000E136EC80E146E000E156EC5
:10300000F4ECACF0520E406E2B0E3F6E000EE82E2C
:10301000FED73F2EFCD7402EFAD700D0520E116EAD
:10302000060E126E07ECADF01200F8EC94F0000EF4
:10303000166E020E65ECA9F0B60E156EFB0E166E3E
:103040008BECA3F0770E136E050E146E54EC91F01A
:103050000501756F7551D8A430EF98F032EF98F0F4
:1030600042EF98F07F51D8B438EF98F03AEF98F0EB
:1030700042EF98F08251D8A440EF98F042EF98F0D8
:103080004AEF98F06D0E3A6EFE0E3B6E010E3C6EEE
:1030900043EC92F0000E166E020E65ECA9F0B60E2F
:1030A000156EFB0E166E8BECA3F0000E166E040E62
:1030B00065ECA9F0CF0E156EFA0E166E8BECA3F030
:1030C000000E166E030E65ECA9F08FECADF0060E47
:1030D000166E010E65ECA9F0020E2F6E05017951F6
:1030E00099ECABF0AB0E156EFC0E166E8BECA3F0EC
:1030F000090E166E010E65ECA9F0020E2F6E050189
:10310000785199ECABF0AB0E156EFC0E166E8BEC95
:10311000A3F00C0E166E010E65ECA9F0020E2F6ED8
:103120000501775199ECABF00B0E0501EB6F260E04
:10313000EA6F5D0EE82EFED7EA2FFCD7EB2FFAD709
:1031400000D0830E176E050E186EE8ECA4F0536ED7
:10315000D00E0501EA6FC90EE82EFED7EA2FFCD784
:1031600000D0BDEF98F0570E366E050E376E56EC58
:103170009FF062EC8DF0C4EF98F05350230AD8B45E
:10318000B3EF98F0C4EF98F012002F6A000E2E6E85
:1031900019BECFEF98F0CDEF98F0E1EF98F02D0E3B
:1031A000226E2E4A2F2A18C51AF519C51BF51A1EAC
:1031B0001B1E1A4A1B2A1AC52CF51BC52DF5E5EF57
:1031C00098F018C52CF519C52DF52C502D10D8A444
:1031D000ECEF98F0EEEF98F0FAEF98F0220E2E2434
:1031E000D96E050E2F20DA6E300EDF6E2E4A2F2A92
:1031F0005EEF99F02B6A000E2A6E20EF99F01C0EFC
:103200002A24D96E050E2B20DA6E2CC502F52DC5A9
:1032100003F5056A0A0E046EDBECA8F00250300FCD
:10322000DF6E2A4A2B2A2CC502F52DC503F5056A47
:103230000A0E046E93ECA6F002C52CF503C52DF51D
:103240002C502D10D8B427EF99F029EF99F049EFC1
:1032500099F02BBE35EF99F02B5009E1060E2A5C50
:10326000D8A035EF99F037EF99F0FFEF98F049EFDC
:1032700099F01C0E2A24D96E050E2B20DA6E220E30
:103280002E24E16E050E2F20E26EDFC4E7F42E4AF5
:103290002F2A2A501A6E2B501B6E010E2A5E000E2A
:1032A0002B5A1BBE5EEF99F01B5006E11A04D8B0F2
:1032B0005CEF99F05EEF99F039EF99F0220E2E2431
:1032C000D96E050E2F20DA6EDF6A220E156E050EFE
:1032D000166E8BECA3F0120008C5D9F409C5DAF418
:1032E0000AC5DEF40BC5DDF420EE02F00850D92645
:1032F0000950DA220CC5DEF40DC5DDF420EE04F031
:103300000850D9260950DA220EC5DEF40FC5DDF4C7
:1033100020EE06F00850D9260950DA2210C5DEF456
:1033200011C5DDF420EE08F00850D9260950DA2244
:1033300012C5DEF413C5DDF420EE06F00850D926E0
:103340000950DA22DEC414F5DDC415F514C5D9F42C
:1033500015C5DAF4DF6A20EE04F00850D9260950CA
:10336000DA22DEC414F5DDC415F514C5D9F415C58B
:10337000DAF410EE04F00850E1260950E222E6C427
:1033800016F5E5C417F516C5E1F417C5E2F4E750E4
:10339000F00BDF6E20EE04F00850D9260950DA2237
:1033A000DEC414F5DDC415F514C5D9F415C5DAF479
:1033B00010EE04F00850E1260950E222E6C416F5AA
:1033C000E5C417F516C5E1F417C5E2F4E750F009B6
:1033D000DF6E20EE08F00850D9260950DA22DEC44C
:1033E00014F5DDC415F514C5D9F415C5DAF410EEDD
:1033F00008F00850E1260950E222E6C416F5E5C4BB
:1034000017F516C5E1F417C5E2F4E750F009DF6ED1
:1034100008C502F509C503F53CECABF01200CA8003
:10342000040121812091C2ECA1F07DECADF00AEC09
:10343000ACF0EFECABF0B0ECA2F0CAECACF045ECC9
:10344000ADF0D2B026EF9AF028EF9AF083EF9AF021
:10345000000E166E020E65ECA9F03A0E156EFE0E09
:10346000166E8BECA3F0150E406E4B0E3F6EBE0E2B
:10347000E82EFED73F2EFCD7402EFAD700D0416A67
:1034800041C50CF50D6A000E0E6EB9ECA9F0412A8B
:10349000260E41644EEF9AF050EF9AF040EF9AF00A
:1034A0000D6A010E0C6E010E0E6EB9ECA9F00D6ADC
:1034B000030E0C6E040E0E6EB9ECA9F00D6A020E2E
:1034C0000C6E040E0E6EB9ECA9F00D6A050E0C6EB2
:1034D000040E0E6EB9ECA9F00D6A090E0C6E0D0EFD
:1034E0000E6EB9ECA9F00D6A0A0E0C6E2F0E0E6E60
:1034F000B9ECA9F00D6A0D0E0C6E010E0E6EB9EC52
:10350000A9F0ACEF9AF0000E166E020E65ECA9F071
:10351000BD0E156EFD0E166E8BECA3F0D3ECABF06A
:103520000009D8A496EF9AF098EF9AF0A0EF9AF0DD
:10353000FD0E3A6EFC0E3B6E030E3C6E43EC92F0B9
:10354000150E406E4B0E3F6EBE0EE82EFED73F2E80
:10355000FCD7402EFAD700D0120002C5D9F403C51B
:10356000DAF404C5DEF405C5DDF420EE02F0025005
:10357000D9260350DA2206C5DEF407C5DDF420EEB5
:1035800004F00250D9260350DA2208C5DEF409C53A
:10359000DDF420EE06F00250D9260350DA220AC5E7
:1035A000DFF420EE07F00250D9260350DA22DF6A5A
:1035B00020EE06F00250D9260350DA22DF50D8A4BC
:1035C000E4EF9AF0E6EF9AF016EF9BF020EE02F0AF
:1035D0000250D9260350DA22DEC40BF5DDC40CF507
:1035E0000BC5D9F40CC5DAF4F00EDF1620EE04F0AA
:1035F0000250D9260350DA22DEC40BF5DDC40CF5E7
:103600000BC5D9F40CC5DAF4F00EDF1602C5D9F4F7
:1036100003C5DAF4DEC40BF5DDC40CF50BC5D9F433
:103620000CC5DAF4F00EDF1644EF9BF020EE02F04A
:103630000250D9260350DA22DEC40BF5DDC40CF5A6
:103640000BC5D9F40CC5DAF40F0EDF1620EE04F02A
:103650000250D9260350DA22DEC40BF5DDC40CF586
:103660000BC5D9F40CC5DAF40F0EDF1602C5D9F478
:1036700003C5DAF4DEC40BF5DDC40CF50BC5D9F4D3
:0A3680000CC5DAF40F0EDF1612007D
:10368C00B290A1C201F55550D8B44FEF9BF051EF59
:10369C009BF053EF9BF0DAEF9BF05650D8A459EF08
:1036AC009BF05BEF9BF06AEF9BF0AA0E0118D8A47D
:1036BC0062EF9BF064EF9BF0DAEF9BF001C500F634
:1036CC00010E566EDAEF9BF05604D8A470EF9BF007
:1036DC0072EF9BF0A8EF9BF0550E0118D8B479EF60
:1036EC009BF07BEF9BF09FEF9BF0560E0118D8B42C
:1036FC0082EF9BF084EF9BF09FEF9BF0150E01186F
:10370C00D8B48BEF9BF08DEF9BF09FEF9BF0070EE7
:10371C000118D8B494EF9BF096EF9BF09FEF9BF0C1
:10372C00260E0118D8A49DEF9BF09FEF9BF0A5EF00
:10373C009BF001C501F6020E566EDAEF9BF0566A4D
:10374C00DAEF9BF0020E5618D8A4AFEF9BF0B1EF56
:10375C009BF0C4EF9BF001C502F60150050F546EAF
:10376C000F0E5464BCEF9BF0BEEF9BF0C0EF9BF0D0
:10377C00A5EF9BF0030E566EDAEF9BF0000E56246D
:10378C00D96EDA6A060EDA2201C5DFF4562A5450D5
:10379C00565CD8A0D4EF9BF0D6EF9BF0DAEF9BF001
:1037AC00010E556EA5EF9BF01100076E800E0760A1
:1037BC00E2EF9BF0E4EF9BF0F5EF9BF0045005106B
:1037CC00D8B4EBEF9BF0EDEF9BF0F5EF9BF00650D0
:1037DC00D8A4F3EF9BF0F5EF9BF0FBEF9BF0050EFD
:1037EC000501766F765156EF9CF0A8ECA8F0096EA7
:1037FC000950D8B404EF9CF006EF9CF00DEF9CF050
:10380C0009C576F5B0ECADF0095056EF9CF0C1EC63
:10381C00ADF00201949D075007248F6F06C58DF201
:10382C0004C5D9F405C5DAF4DF508C6F948B010E06
:10383C00086E38EF9CF0A6ECA5F0096E0950D8B4D0
:10384C002AEF9CF02CEF9CF02EEF9CF006EF9CF0F6
:10385C0008500424D96E000E0520DA6EDF500201E8
:10386C008C6F082A0650085CD8A03FEF9CF041EF03
:10387C009CF021EF9CF0A4ECA4F0096E0950D8B494
:10388C004AEF9CF04CEF9CF050EF9CF0B0ECADF09C
:10389C0052EF9CF0C1ECADF009C576F50AEF9CF047
:1038AC00120009C5D9F40AC5DAF40BC5DEF40CC54F
:1038BC00DDF420EE02F00950D9260A50DA220DC5AB
:1038CC00DEF40EC5DDF420EE04F00950D9260A50C2
:1038DC00DA220FC5DEF410C5DDF420EE06F0095037
:1038EC00D9260A50DA2211C5DFF420EE04F0095073
:1038FC00D9260A50DA22DEC412F5DDC413F512C53E
:10390C00D9F413C5DAF410EE04F00950E1260A508C
:10391C00E222E6C414F5E5C415F514C5E1F415C5A9
:10392C00E2F4E750166E10EE06F00950E1260A504C
:10393C00E222E750FF0A1614DF6E20EE02F0095067
:10394C00D9260A50DA22DEC412F5DDC413F512C5ED
:10395C00D9F413C5DAF410EE02F00950E1260A503E
:10396C00E222E6C414F5E5C415F514C5E1F415C559
:10397C00E2F4E750166E10EE06F00950E1260A50FC
:10398C00E222E750FF0A1614DF6E09C502F50AC5DC
:10399C0003F50AECAAF01200076E800E0760D9EF4F
:1039AC009CF0DBEF9CF0ECEF9CF004500510D8B4CD
:1039BC00E2EF9CF0E4EF9CF0ECEF9CF00650D8A406
:1039CC00EAEF9CF0ECEF9CF0F2EF9CF0050E050199
:1039DC00766F765146EF9DF0A8ECA8F0096E095071
:1039EC00D8B4FBEF9CF0FDEF9CF004EF9DF009C503
:1039FC0076F5B0ECADF0095046EF9DF0C1ECADF0B2
:103A0C000201949D958F06C58DF2D88007348F6F77
:103A1C00948B086A28EF9DF0E3ECA5F0096E095031
:103A2C00D8B41BEF9DF01DEF9DF01FEF9DF0FDEF47
:103A3C009CF008500424D96E000E0520DA6E8BC25F
:103A4C00DFF4082A0650085CD8A02FEF9DF031EF68
:103A5C009DF012EF9DF075ECA8F0096E0950D8B4EA
:103A6C003AEF9DF03CEF9DF040EF9DF0B0ECADF0E7
:103A7C0042EF9DF0C1ECADF009C576F501EF9DF07C
:103A8C00120002C5D9F403C5DAF404C5DEF405C589
:103A9C00DDF420EE02F00250D9260350DA2206C5DE
:103AAC00DEF407C5DDF420EE04F00250D9260350F5
:103ABC00DA2208C5DEF409C5DDF420EE06F002506A
:103ACC00D9260350DA220AC5DFF420EE04F00250A6
:103ADC00D9260350DA22DEC40BF5DDC40CF50BC578
:103AEC00D9F40CC5DAF410EE04F00250E1260350C0
:103AFC00E222E6C40DF5E5C40EF50DC5E1F40EC5E4
:103B0C00E2F4E7500F6E10EE06F00250E12603507F
:103B1C00E222E750FF0A0F14DF6E20EE02F0025093
:103B2C00D9260350DA22DEC40BF5DDC40CF50BC527
:103B3C00D9F40CC5DAF410EE06F00250E12603506D
:103B4C00E222E7500D6E10EE02F00250E126035017
:103B5C00E222E6C40EF5E5C40FF50EC5E1F40FC57F
:103B6C00E2F4E7500D10DF6E12003A6E0F0EF66E97
:103B7C00FA0EF76E000EF86E0900F5C436F5090062
:103B8C00F5C437F50900F5C438F50A00F5C439F564
:103B9C00BDECADF0000E166E010E65ECA9F0990EA1
:103BAC00156EFD0E166E8BECA3F03AC52FF5306A30
:103BBC00020E316E000E326E5DECADF0B70E156E6E
:103BCC00FA0E166E8BECA3F0000E166E020E65EC60
:103BDC00A9F0AB0E156EFD0E166E8BECA3F0FF0E5E
:103BEC003A24336E346AFF0E3422360E3324D96EE7
:103BFC00050E3420DA6EDF50356E35500C6E0D6AC2
:103C0C005CECABF0526E020E2F6E525099ECABF096
:103C1C00000E166E030E65ECA9F0850E156EFC0EEB
:103C2C00166E8BECA3F0000E166E040E65ECA9F06C
:103C3C00710E156EFC0E166E8BECA3F01200396E25
:103C4C00130EF66EFA0EF76E000EF86E0900F5C440
:103C5C0035F50900F5C436F50900F5C437F50A0049
:103C6C00F5C438F531C513F5395064ECA2F0BDEC50
:103C7C00ADF0000E166E010E65ECA9F0F90E156E86
:103C8C00FA0E166E8BECA3F0000E166E020E65EC9F
:103C9C00A9F0790E156EFF0E166E8BECA3F0010ECB
:103CAC002F6E395099ECABF0D40E156EFF0E166ECC
:103CBC008BECA3F0000E166E020E65ECA9F0C20E92
:103CCC00156EFE0E166E8BECA3F0FF0E3924326EC1
:103CDC00336AFF0E3322350E3224D96E050E332093
:103CEC00DA6EDF50346E34500C6E0D6A5CECABF057
:103CFC00526E020E2F6E525099ECABF0DF0E156E19
:103D0C00FD0E166E8BECA3F01200156A10C508F5AB
:103D1C0011C509F515C50AF542ECA8F00D0EE82EF3
:103D2C00FED70000166A1B0E1624F66EF76AFA0E02
:103D3C00F722F86A000EF8220800F5C412F510C537
:103D4C00D9F411C5DAF4DEC413F5DDC414F513C5CA
:103D5C00D9F414C5DAF4DF5012140009D8A4B9EF61
:103D6C009EF0BBEF9EF0D7EF9EF010C502F511C58B
:103D7C0003F53CECABF01550040DF70EF324126E6A
:103D8C00F90EF420136E16501226000E132212C5D3
:103D9C00F6F413C5F7F4000EF86E0800F550F0EFCA
:103DAC009EF0162A030E1664DEEF9EF0E0EF9EF0F6
:103DBC0099EF9EF0152A030E1564E7EF9EF0E9EFDC
:103DCC009EF08CEF9EF010C502F511C503F53CEC8E
:103DDC00ABF0000E120004500510D8B4F8EF9EF0B2
:103DEC00FAEF9EF003EF9FF004500510D8A401EFFA
:103DFC009FF003EF9FF008EF9FF00250C7ECADF07F
:103E0C0055EF9FF020EE09F00450D9260550DA2228
:103E1C00DE50DE10D8B415EF9FF017EF9FF032EFA5
:103E2C009FF020EE09F00450D9260550DA2210EE4E
:103E3C0002F00450E1260550E222DE50E65CE6502A
:103E4C00800A0A6EDE50800A0A58D8B030EF9FF014
:103E5C0032EF9FF055EF9FF020EE02F00450D92680
:103E6C000550DA22DEC406F5DDC407F504C5D9F425
:103E7C0005C5DAF4DEC408F5DDC409F506500824DE
:103E8C00D96E07500920DA6E02C5DFF420EE02F07D
:103E9C000450D9260550DA22DE2A000EDD2212004B
:103EAC0036C51BF537C51CF5020E1E6E0B0E1D6EAE
:103EBC00206A500E1F6E320E216E31EC93F0D00E34
:103ECC00386ECA0EE82EFED7382EFCD736C51BF539
:103EDC0037C51CF5020E1E6E930E1D6E206A5A0E0F
:103EEC001F6E320E216E31EC93F0D00E386ECA0E6E
:103EFC00E82EFED7382EFCD736C51BF537C51CF57A
:103F0C00030E1E6E100E1D6E206A780E1F6E320E82
:103F1C00216E31EC93F0D00E386ECA0EE82EFED71F
:103F2C00382EFCD736C51BF537C51CF5040E1E6E96
:103F3C00170E1D6E206AB40E1F6E320E216E31EC00
:103F4C0093F0020E396EA00E386E920EE82EFED74C
:103F5C00382EFCD7392EFAD700D036C509F537C51F
:103F6C000AF5A9ECADF01200076A05BEC2EF9FF08E
:103F7C00C0EF9FF0C8EF9FF0046C051ED8B0052A67
:103F8C00010E076E03BECFEF9FF0CDEF9FF0D5EF84
:103F9C009FF0026C031ED8B0032A010E071A096A9F
:103FAC00000E086E04500510D8B4DFEF9FF0E1EF5F
:103FBC009FF009EFA0F0010E066EE9EF9FF0D8908C
:103FCC0004360536062A05AEEEEF9FF0F0EF9FF0B3
:103FDC00E5EF9FF0D890083609360450025C055086
:103FEC000358D8A0FCEF9FF0FEEF9FF003EFA0F07A
:103FFC000450025E0550035A0880D89005320432F2
:10400C00062EF0EF9FF00750D8B40FEFA0F011EF91
:10401C00A0F015EFA0F0086C091ED8B0092A08C54D
:10402C0002F509C503F5120036C51BF537C51CF59D
:10403C00030E1E6E700E1D6E206A5A0E1F6E320E0F
:10404C00216E31EC93F0040E396E400E386E260E54
:10405C00E82EFED7382EFCD7392EFAD700D036C52D
:10406C001BF537C51CF5030E1E6E700E1D6E206AF7
:10407C005A0E1F6E320E216E31EC93F0040E396E17
:10408C00400E386E260EE82EFED7382EFCD7392E71
:10409C00FAD700D036C51BF537C51CF5030E1E6EBE
:1040AC00700E1D6E206A5A0E1F6E320E216E31EC90
:1040BC0093F0050E396E0F0E386EF10EE82EFED70A
:1040CC00382EFCD7392EFAD7000036C509F537C57E
:1040DC000AF5A9ECADF0120036C51BF537C51CF579
:1040EC00010E1E6E880E1D6E206AA00E1F6E3C0EF9
:1040FC00216E31EC93F0020E396EA00E386E920EDA
:10410C00E82EFED7382EFCD7392EFAD700D036C57C
:10411C001BF537C51CF5010E1E6E4A0E1D6E206A6E
:10412C00B40E1F6E3C0E216E31EC93F0020E396E04
:10413C00A00E386E920EE82EFED7382EFCD7392EF4
:10414C00FAD700D036C51BF537C51CF5010E1E6E0F
:10415C00060E1D6E206AFA0E1F6E460E216E31EC95
:10416C0093F0030E396E700E386E5C0EE82EFED78F
:10417C00382EFCD7392EFAD700D036C509F537C5FD
:10418C000AF5A9ECADF012001E0E0464D0EFA0F0FD
:10419C00D2EFA0F0DAEFA0F002C5D9F403C5DAF43F
:1041AC001E0EDF6EE0EFA0F002C5D9F403C5DAF401
:1041BC0004C5DFF404011091C890C090076A0FEF9A
:1041CC00A1F007500224056E000E0320066E010EAE
:1041DC000524D96E000E0620DA6EDF6A0750022421
:1041EC00056E000E0320066E1F0E0524D96E000E00
:1041FC000620DA6EDF6A07500224056E000E0320DB
:10420C00066E3D0E0524D96E000E0620DA6EDF6AAE
:10421C00072A02C5D9F403C5DAF4DE50075CD8A02E
:10422C001AEFA1F01CEFA1F0E7EFA0F0120020EEC6
:10423C0006F00250D9260350DA22DF50D8A429EF19
:10424C00A1F02BEFA1F04CEFA1F004500F0B096E75
:10425C0002C5D9F403C5DAF4DEC405F5DDC406F5F0
:10426C0005C5D9F406C5DAF4DF50F00B091002C508
:10427C00D9F403C5DAF4DEC407F5DDC408F507C5C7
:10428C00D9F408C5DAF4DF6E6FEFA1F004C505F5BB
:10429C000F0E05160538F00B096E02C5D9F403C5CF
:1042AC00DAF4DEC405F5DDC406F505C5D9F406C59A
:1042BC00DAF4DF500F0B091002C5D9F403C5DAF498
:1042CC00DEC407F5DDC408F507C5D9F408C5DAF472
:1042DC00DF6E1200000E166E000E176E000E186EBA
:1042EC00000E196E1250131014101510D8B481EF63
:1042FC00A1F083EFA1F0B9EFA1F0010E1A6E8DEFD2
:10430C00A1F0D89012361336143615361A2A15AE7B
:10431C0092EFA1F094EFA1F087EFA1F0D8901636B0
:10432C0017361836193612500E5C13500F5814509D
:10433C00105815501158D8A0A6EFA1F0A8EFA1F075
:10434C00B1EFA1F012500E5E13500F5A1450105AC8
:10435C001550115A1680D89015321432133212326D
:10436C001A2E94EFA1F016C50EF517C50FF518C54A
:10437C0010F519C511F51200A50E026E050E036E8F
:10438C00BE0E046E040E056EC60E066E040E076E8F
:10439C00000E086E040E096E000E0A6EADEC9AF05B
:1043AC009D0E026E050E036EBE0E046E040E056E9F
:1043BC00C60E066E040E076E000E086E040E096E15
:1043CC00010E0A6EADEC9AF0950E026E050E036EA0
:1043DC00BF0E046E040E056EC70E066E040E076E3D
:1043EC00080E086E040E096E000E0A6EADEC9AF003
:1043FC008D0E026E050E036EBF0E046E040E056E5E
:10440C00C70E066E040E076E080E086E040E096EBB
:10441C00010E0A6EADEC9AF0120002C5D9F403C578
:10442C00DAF404C5DEF405C5DDF420EE02F002502A
:10443C00D9260350DA2206C5DEF407C5DDF420EEDA
:10444C0004F00250D9260350DA2208C5DFF420EE1E
:10445C0005F00250D9260350DA2209C5DFF420EE0C
:10446C0004F00250D9260350DA22DF500A6E02C53E
:10447C00D9F403C5DAF4DEC40BF5DDC40CF50BC5B9
:10448C00D9F40CC5DAF40A50DF1220EE04F0025015
:10449C00D9260350DA22DF500A6E20EE02F00250C9
:1044AC00D9260350DA22DEC40BF5DDC40CF50BC59E
:1044BC00D9F40CC5DAF40A50DF1212001B6E170E79
:1044CC00F66EFA0EF76E000EF86E0900F5C417F5CD
:1044DC000900F5C418F50900F5C419F50A00F5C46E
:1044EC001AF5FF0E1B24146E156AFF0E1522170EFB
:1044FC001424D96E050E1520DA6EDF50166E165088
:10450C000C6E0D6A5CECABF0526EFF0E1B24146E3D
:10451C00156AFF0E1522170E1424D96E050E1520E0
:10452C00DA6EDF50166E16500F6E106A525013244E
:10453C00116E3EECACF00D6A020E0C6E5CECABF046
:10454C00526E106A020E0F6E52501324116E3EEC16
:10455C00ACF0120086ECADF0C60E026E050E036ECA
:10456C00CB0E046E040E056E280E066E040E076E3E
:10457C00010E086E2D0E096E13ECA2F0C00E026E29
:10458C00050E036ECB0E046E040E056E280E066E21
:10459C00040E076E020E086E2E0E096E13ECA2F0BE
:1045AC00BA0E026E050E036ECB0E046E040E056E73
:1045BC00280E066E040E076E040E086E2A0E096E87
:1045CC0013ECA2F0B40E026E050E036ECB0E046E4D
:1045DC00040E056E280E066E040E076E080E086E8D
:1045EC002B0E096E13ECA2F0120016501710D8B453
:1045FC0002EFA3F004EFA3F00CEFA3F0070E186486
:10460C000AEFA3F00CEFA3F00FEFA3F0050E42EFAF
:10461C00A3F01838E842F80B40090FECA8F01A6E1A
:10462C001A50D8B41CEFA3F01EEFA3F021EFA3F0A7
:10463C001A5042EFA3F0196A19501624D96E000EC5
:10464C001720DA6EDF50DFECACF01A6E1A50D8B4CB
:10465C0032EFA3F034EFA3F036EFA3F01EEFA3F08C
:10466C00192A070E19643DEFA3F03FEFA3F022EFD8
:10467C00A3F0800E0FECA8F01200096A74EFA3F0FF
:10468C0009500524076E000E0620086E1F0E072425
:10469C00D96E000E0820DA6EDF50FCECAAF009503F
:1046AC000524076E000E0620086E010E0724D96E35
:1046BC00000E0820DA6EDF50FCECAAF0095005243D
:1046CC00076E000E0620086E3D0E0724D96E000EF4
:1046DC000820DA6EDF50FCECAAF0092A05C5D9F4E3
:1046EC0006C5DAF4DE50095CD8A07FEFA3F081EFA9
:1046FC00A3F046EFA3F0C090040E076E1C0EE82E3C
:10470C00FED7072EFCD700D0120015501610D8A4D7
:10471C0092EFA3F094EFA3F0B8EFA3F0050ED2EF55
:10472C00A3F015C5F6F416C5F7F4000EF86E250EB9
:10473C00F76403D00800F55005D0F6C4E9F4F7C4CB
:10474C00EAF4EF50DFECACF0176E1750D8B4B1EFC1
:10475C00A3F0B3EFA3F0B6EFA3F01750D2EFA3F092
:10476C00154A162A15C5F6F416C5F7F4000EF86EA0
:10477C00250EF76403D00800F55005D0F6C4E9F413
:10478C00F7C4EAF4EF500009D8A4CFEFA3F0D1EFAF
:10479C00A3F097EFA3F0000E120020EE05F00250EC
:1047AC00D9260350DA220501EF51DE18D8B4E1EF17
:1047BC00A3F0E3EFA3F007EFA4F03B0E0301EC6FC3
:1047CC00F381F3B1ECEFA3F0EEEFA3F0E7EFA3F07E
:1047DC0020EE05F00250D9260350DA22DF50EC6FA0
:1047EC00F381F3B1FCEFA3F0FEEFA3F0F7EFA3F02E
:1047FC0020EE05F00250D9260350DA22DF500501D5
:10480C00EF6F0301F381F3B10EEFA4F010EFA4F0FE
:10481C0009EFA4F0EB51046EEA51066E04C507F5DE
:10482C0006C502F507C503F51200BDECADF0300E60
:10483C00086E050E096E2AECA5F0000E166E020E1F
:10484C0065ECA9F0EE0E156EFF0E166E8BECA3F058
:10485C0030C518F531C519F5C5EC98F0E40E156E98
:10486C00FF0E166E8BECA3F032C518F533C519F597
:10487C00C5EC98F0000E166E030E65ECA9F0F20E66
:10488C00156EFF0E166E8BECA3F034C518F535C5FE
:10489C0019F5C5EC98F0E90E156EFF0E166E8BEC43
:1048AC00A3F036C518F537C519F5C5EC98F01DEF12
:1048BC00A4F012001F50201021102210D8B469EF60
:1048CC00A4F06BEFA4F09BEFA4F0010E236E75EF38
:1048DC00A4F0D8901F36203621362236232A22AE59
:1048EC007AEFA4F07CEFA4F06FEFA4F01F501B5CE8
:1048FC0020501C5821501D5822501E58D8A089EF0A
:10490C00A4F08BEFA4F093EFA4F01F501B5E20508B
:10491C001C5A21501D5A22501E5AD8902232213234
:10492C0020321F32232E7CEFA4F01BC51BF51CC5B7
:10493C001CF51DC51DF51EC51EF51200EA0E036EF5
:10494C00600E026ECDEFA4F097ADAFEFA4F0B1EF17
:10495C00A4F0B4EFA4F0030EE7EFA4F097ABB9EF1B
:10496C00A4F0BBEFA4F0BEEFA4F0020EE7EFA4F0AE
:10497C0002500310D8A4C5EFA4F0C7EFA4F0CAEFFF
:10498C00A4F0040EE7EFA4F00206D8A0030602017F
:10499C009AA5D3EFA4F0D5EFA4F0AAEFA4F095BBA1
:1049AC00DAEFA4F0DCEFA4F0E3EFA4F097A9E1EFC9
:1049BC00A4F0E3EFA4F0E6EFA4F0010EE7EFA4F00F
:1049CC00000E120017C510F518C511F58BEC9EF0F2
:1049DC001B6E1B50D8A4F5EFA4F0F7EFA4F0FAEF80
:1049EC00A4F0000E29EFA5F0D00E196ECA0EE82E19
:1049FC00FED7192EFCD717C510F518C511F58BEC81
:104A0C009EF01A6E1B501A18D8B40FEFA5F011EFC8
:104A1C00A5F013EFA5F0F7EFA4F017C510F518C526
:104A2C0011F58BEC9EF00009D8A41FEFA5F021EF37
:104A3C00A5F013EFA5F0D00E196ECA0EE82EFED716
:104A4C00192EFCD71B501200C60E026E050E036EFB
:104A5C00D3ECA3F008C5D9F409C5DAF402C5DEF429
:104A6C0003C5DDF4C00E026E050E036ED3ECA3F08D
:104A7C0020EE02F00850D9260950DA2202C5DEF4E5
:104A8C0003C5DDF4BA0E026E050E036ED3ECA3F073
:104A9C0020EE04F00850D9260950DA2202C5DEF4C3
:104AAC0003C5DDF4B40E026E050E036ED3ECA3F059
:104ABC0020EE06F00850D9260950DA2202C5DEF4A1
:104ACC0003C5DDF41200376E010E2F6E375099ECD2
:104ADC00ABF0A80E156EFD0E166E8BECA3F031C567
:104AEC000CF532C50DF55CECABF0526E020E2F6E70
:104AFC00525099ECABF0AB0E156EFC0E166E8BECA7
:104B0C00A3F033C50CF534C50DF55CECABF0526E6F
:104B1C00020E2F6E525099ECABF0F60E156EFF0E86
:104B2C00166E8BECA3F035C50CF536C50DF55CECAB
:104B3C00ABF0526E010E2F6E525099ECABF012008E
:104B4C00EA0E036E600E026ED9EFA5F097A9B1EFD5
:104B5C00A5F0B3EFA5F0B6EFA5F0010EE2EFA5F0CE
:104B6C0097ADBBEFA5F0BDEFA5F0C0EFA5F0030E20
:104B7C00E2EFA5F097ABC5EFA5F0C7EFA5F0CAEF34
:104B8C00A5F0020EE2EFA5F002500310D8A4D1EF6D
:104B9C00A5F0D3EFA5F0D6EFA5F0040EE2EFA5F04B
:104BAC000206D8A00306020199ABDFEFA5F0E1EFF6
:104BBC00A5F0ACEFA5F0000E1200EA0E036E600E2D
:104BCC00026E16EFA6F097A9EEEFA5F0F0EFA5F0A8
:104BDC00F3EFA5F0010E1FEFA6F097ADF8EFA5F0DF
:104BEC00FAEFA5F0FDEFA5F0030E1FEFA6F097ABC3
:104BFC0002EFA6F004EFA6F007EFA6F0020E1FEFEF
:104C0C00A6F002500310D8A40EEFA6F010EFA6F0F9
:104C1C0013EFA6F0040E1FEFA6F00206D8A00306B1
:104C2C00020199A11CEFA6F01EEFA6F0E9EFA5F08A
:104C3C00000E120002C5D9F403C5DAF4DE50045C90
:104C4C00D8A02BEFA6F02DEFA6F02FEFA6F059EF82
:104C5C00A6F004500224086E000E0320096E010E0B
:104C6C000824D96E000E0920DA6E05C5DFF4045055
:104C7C000224086E000E0320096E1F0E0824D96E44
:104C8C00000E0920DA6E06C5DFF404500224086E0B
:104C9C00000E0320096E3D0E0824D96E000E09206B
:104CAC00DA6E07C5DFF41200186E1550050DF3C44B
:104CBC0016F5F4C417F5090E16240F6E000E172006
:104CCC00106E18C511F53EECACF01550050DF3C483
:104CDC0016F5F4C417F50A0E16240F6E000E1720E5
:104CEC00106E13C511F53EECACF01550050DF3C468
:104CFC0016F5F4C417F50D0E16240F6E000E1720C2
:104D0C00106E14C511F53EECACF0106A010E0F6E6E
:104D1C001528116E3EECACF01200076A000E066E00
:104D2C0004500510D8B49DEFA6F09FEFA6F0C7EF86
:104D3C00A6F0010E086EA7EFA6F0D8900436053643
:104D4C00082A05AEACEFA6F0AEEFA6F0A3EFA6F0E6
:104D5C00D890063607360450025C05500358D8A08C
:104D6C00BAEFA6F0BCEFA6F0C1EFA6F00450025EBD
:104D7C000550035A0680D89005320432082EAEEF47
:104D8C00A6F006C502F507C503F51200056AFF0E6D
:104D9C0039ECADF0AA0E39ECADF0550E39ECADF0A6
:104DAC00280E39ECADF0076A000E066E065003248F
:104DBC00D96E07500420DA6EDF5039ECADF0065096
:104DCC000324D96E07500420DA6EDF500526064AFC
:104DDC00072A07BEFBEFA6F0075009E1280E065C78
:104DEC00D8A0FBEFA6F0FDEFA6F0DCEFA6F0055087
:104DFC0039ECADF00A0E39ECADF012000F6E400E2E
:104E0C000F600BEFA7F00DEFA7F01EEFA7F00C5003
:104E1C000D10D8B414EFA7F016EFA7F01EEFA7F003
:104E2C000E50D8A41CEFA7F01EEFA7F021EFA7F0AF
:104E3C00050E3BEFA7F00FC50AF5680E68ECADF058
:104E4C00106E1050D8B42DEFA7F02FEFA7F032EF63
:104E5C00A7F010503BEFA7F00CC504F50DC505F5F8
:104E6C000EC506F5680ED2EC9CF012000AC502F5D0
:104E7C000BC503F520EE07F00A50D9260B50DA22A9
:104E8C00DF50230FF66EFA0ED8B0010FF76EF86AEA
:104E9C00000EF8220800F5C404F51DECA1F020EE7C
:104EAC0007F00A50D9260B50DA22DF2A20EE07F041
:104EBC000A50D9260B50DA22030EDF6468EFA7F0F4
:104ECC006AEFA7F071EFA7F020EE07F00A50D92691
:104EDC000B50DA22DF6A1200000E0A6E000E0B6E07
:104EEC00000E0C6E000E0D6E02A07FEFA7F081EF8E
:104EFC00A7F089EFA7F006500A2607500B2208509E
:104F0C000C2209500D22D890063607360836093681
:104F1C00D8900532043203320232025003100410CE
:104F2C000510D8A49CEFA7F09EEFA7F07AEFA7F09E
:104F3C000AC502F50BC503F50CC504F50DC505F541
:104F4C00120015501610D8A4AEEFA7F0B0EFA7F0D2
:104F5C00B2EFA7F0DAEFA7F01B6AD1EFA7F01B5066
:104F6C001524186E000E1620196E18C5F6F419C506
:104F7C00F7F4000EF86E0800F550DFECACF01A6E8A
:104F8C001A50D8B4CCEFA7F0CEEFA7F0D0EFA7F023
:104F9C00DAEFA7F01B2A17501B5CD8A0D8EFA7F0AC
:104FAC00DAEFA7F0B5EFA7F0120036C51BF537C541
:104FBC001CF5020E1E6E930E1D6E206A2D0E1F6EBA
:104FCC00320E216E31EC93F09C0E386ED70EE82E1B
:104FDC00FED7382EFCD7000036C51BF537C51CF59F
:104FEC00030E1E6E100E1D6E206A410E1F6E320EC9
:104FFC00216E31EC93F0D00E386ECA0EE82EFED72F
:10500C00382EFCD736C509F537C50AF5A9ECADF035
:10501C001200156E000E0A6E155039ECA9F0146EC4
:10502C001450D8B41CEFA8F01EEFA8F021EFA8F094
:10503C00145041EFA8F01504D8B427EFA8F029EFCD
:10504C00A8F032EFA8F0020E1518D8A430EFA8F093
:10505C0032EFA8F03CEFA8F0150E136EC60EE82E3A
:10506C00FED7132EFCD700D040EFA8F0850EE82E0B
:10507C00FED70000000E120008C502F509C503F5A5
:10508C003CECABF020EE02F00850D9260950DA22A5
:10509C00DEC40BF5DDC40CF50BC5D9F40CC5DAF484
:1050AC0010EE02F00850E1260950E222E6C40DF59C
:1050BC00E5C40EF50DC5E1F40EC5E2F4E7500F6E34
:1050CC001F0E0A24F66EF76AFA0EF722F86A000E23
:1050DC00F8220800F550FF0A0F14DF6E1200EA0EDA
:1050EC00036E600E026E9EEFA8F097AD80EFA8F0F5
:1050FC0082EFA8F085EFA8F0030EA7EFA8F097AB0E
:10510C008AEFA8F08CEFA8F08FEFA8F0020EA7EFB3
:10511C00A8F002500310D8A496EFA8F098EFA8F0CE
:10512C009BEFA8F0040EA7EFA8F00206D8A0030688
:10513C0002019AA5A4EFA8F0A6EFA8F07BEFA8F0C7
:10514C00000E1200EA0E036E600E026ED1EFA8F094
:10515C0097ADB3EFA8F0B5EFA8F0B8EFA8F0030E39
:10516C00DAEFA8F097ABBDEFA8F0BFEFA8F0C2EF55
:10517C00A8F0020EDAEFA8F002500310D8A4C9EF81
:10518C00A8F0CBEFA8F0CEEFA8F0040EDAEFA8F061
:10519C000206D8A00306020198AFD7EFA8F0D9EF0A
:1051AC00A8F0AEEFA8F0000E120004500510D8B411
:1051BC00E2EFA8F0E4EFA8F008EFA9F0010E066EFC
:1051CC00ECEFA8F0D89004360536062A05AEF1EFC0
:1051DC00A8F0F3EFA8F0E8EFA8F00450025C05503B
:1051EC000358D8A0FCEFA8F0FEEFA8F002EFA9F04E
:1051FC000450025E0550035AD89005320432062E34
:10520C00F3EFA8F002C502F503C503F512008A0EF0
:10521C00F66E5B0EF76E010EF86E01EEECF110EE11
:10522C0004F00900F5C4EEF4E550E150FAE101EEAA
:10523C0000F2D50EEE6AE806FDE101EE60F16C0EAF
:10524C00EE6AE806FDE101EE52F10C0EEE6AE8069C
:10525C00FDE10401080E5D6F000E5E6F000E5F6FC6
:10526C00000173EFADF00F6EEDC512F50A50D8B416
:10527C0042EFA9F044EFA9F045EFA9F012800F50CE
:10528C00F00B106E0F38F00BF00B116E105012105B
:10529C0004090B6E105012100C6E115012100409F0
:1052AC000D6E115012100E6E0B0E046E050E056E67
:1052BC00040E066E0501EE51DBEC9BF01200176E2E
:1052CC0077EFA9F0186A8AEFA9F0400E186E8AEFF2
:1052DC00A9F0140E186E8AEFA9F0540E186E8AEF0E
:1052EC00A9F01750010AD8B468EFA9F0030AD8B492
:1052FC006BEFA9F0010AD8B46FEFA9F0070AD8B484
:10530C0073EFA9F08FEFA9F01850162480090FEC59
:10531C00A8F012000201949FC096C0980401109747
:10532C001099C896C898128712897BECABF0CF0EF7
:10533C0002018717CF0E86178751FC0B0109876F67
:10534C008651FC0B0109866F040E946F956B966B5E
:10535C00030E9C6F9D6B9B6BC1ECADF00201948FA7
:10536C000501766B1200040E0D5CD8A0C0EFA9F0FD
:10537C00C2EFA9F0C4EFA9F0E1EFA9F00CC502F55A
:10538C000DC503F557ECACF00EC546F000014151CC
:10539C00F80B0309416FD69E550E426FAA0E426F51
:1053AC00408140B1DCEFA9F0DEEFA9F0D7EFA9F016
:1053BC00D68EF80E411712001CC520F51DC521F51F
