:04000000FEEFFFF020
:10260000000C06030920204D454D4F5249412045FD
:1026100050524F4D202000506172613A20204953A2
:102620004142454C2020004461746F2067756172FF
:102630006461646F00202047523A4331202020001B
:10264000506F736963696F6E3A20002050313A0011
:1026500053454C3A0050303A00000EEC17F0F8ECBD
:1026600016F0000E046E010E47EC16F0050E116E0A
:10267000100E126EE0EC16F0000E046E020E47EC27
:1026800016F0170E116E0F0E126EE0EC16F0A30E80
:10269000166E570E156E020EE82EFED7152EFCD7BD
:1026A000162EFAD700D00C6A000E0B6E28EC16F02E
:1026B000196E0C6A010E0B6E28EC16F0186E1928B4
:1026C000D8A465EF13F067EF13F068EF13F0196A01
:1026D0001828D8A46EEF13F070EF13F071EF13F019
:1026E000186A47EC17F0000E046E010E47EC16F066
:1026F000550E116E030E126EE0EC16F019C507F5BB
:10270000086A0A6A640E096EDFEC14F00750300F95
:102710007DEC16F0046A640E036E19C501F5026AB9
:102720003FEC15F001C507F502C508F50A6A0A0E67
:10273000096EDFEC14F00750300F7DEC16F019C570
:1027400001F5026A046A0A0E036E3FEC15F00150AF
:10275000300F7DEC16F04B0E116E040E126EE0EC95
:1027600016F018C507F5086A0A6A640E096EDFECF0
:1027700014F00750300F7DEC16F0046A640E036EFF
:1027800018C501F5026A3FEC15F001C507F502C551
:1027900008F50A6A0A0E096EDFEC14F00750300FD4
:1027A0007DEC16F018C501F5026A046A0A0E036E84
:1027B0003FEC15F00150300F7DEC16F03E0E116E1F
:1027C000010E126EE0EC16F0000E046E020E47ECE5
:1027D00016F0500E116E040E126EE0EC16F017504B
:1027E000300F7DEC16F0350E116E0A0E126EE0EC15
:1027F00016F0D0B0FEEF13F000EF14F032EF14F04B
:10280000040E166E400E156E260EE82EFED7152EFF
:10281000FCD7162EFAD700D0D0B011EF14F013EF7A
:1028200014F032EF14F01750D8A419EF14F01BEF86
:1028300014F01EEF14F0192A1FEF14F0182AD0A07C
:1028400024EF14F026EF14F01FEF14F0040E166EB0
:10285000400E156E260EE82EFED7152EFCD7162E2E
:10286000FAD700D0D0B237EF14F039EF14F0A1EF5F
:1028700014F0040E166E400E156E260EE82EFED7CE
:10288000152EFCD7162EFAD700D0D0B24AEF14F08E
:102890004CEF14F0A1EF14F01750D8A452EF14F03D
:1028A00054EF14F05DEF14F00F6A000E0E6E19C5B0
:1028B00010F596EC16F064EF14F00F6A010E0E6E30
:1028C00018C510F596EC16F047EC17F0000E046EE4
:1028D000010E47EC16F0270E116E0D0E126EE0EC95
:1028E00016F0000E046E020E47EC16F0400E116E4C
:1028F0000A0E126EE0EC16F01750300F7DEC16F059
:10290000410E166EF00E156E330EE82EFED7152E04
:10291000FCD7162EFAD7000047EC17F0D0A293EFA1
:1029200014F095EF14F08EEF14F0040E166E400EB6
:10293000156E260EE82EFED7152EFCD7162EFAD7CA
:1029400000D0D0B6A6EF14F0A8EF14F073EF13F098
:10295000040E166E400E156E260EE82EFED7152EAE
:10296000FCD7162EFAD700D0D0B6B9EF14F0BBEFD3
:1029700014F073EF13F01750D8A4C1EF14F0C3EFA5
:1029800014F0C7EF14F0010E176EC8EF14F0176AB9
:10299000D0A6CDEF14F0CFEF14F0C8EF14F0040E72
:1029A000166E400E156E260EE82EFED7152EFCD79D
:1029B000162EFAD700D073EF13F0FEEFFFF00C6A7B
:1029C0000ABEE7EF14F0E5EF14F0EDEF14F0096C38
:1029D0000A1ED8B00A2A010E0C6E08BEF4EF14F0DD
:1029E000F2EF14F0FAEF14F0076C081ED8B0082AC2
:1029F000010E0C1A0E6A000E0D6E09500A10D8B4A2
:102A000004EF15F006EF15F02EEF15F0010E0B6E2A
:102A10000EEF15F0D89009360A360B2A0AAE13EFDE
:102A200015F015EF15F00AEF15F0D8900D360E36AB
:102A30000950075C0A500858D8A021EF15F023EF81
:102A400015F028EF15F00950075E0A50085A0D805E
:102A5000D8900A3209320B2E15EF15F00C50D8B46D
:102A600034EF15F036EF15F03AEF15F00D6C0E1E41
:102A7000D8B00E2A0DC507F50EC508F51200066A76
:102A800002BE47EF15F045EF15F04DEF15F0016C64
:102A9000021ED8B0022A010E066E04BE54EF15F0D5
:102AA00052EF15F058EF15F0036C041ED8B0042A4D
:102AB00003500410D8B45FEF15F061EF15F085EF07
:102AC00015F0010E056E69EF15F0D8900336043647
:102AD000052A04AE6EEF15F070EF15F065EF15F0F6
:102AE0000350015C04500258D8A079EF15F07BEF39
:102AF00015F07FEF15F00350015E0450025AD89094
:102B000004320332052E70EF15F00650D8B48BEF67
:102B100015F08DEF15F091EF15F0016C021ED8B095
:102B2000022A01C501F502C502F51200F80EC96EB0
:102B3000C190C182C184F00E00D0E82EFDD7D1C46F
:102B400001F5C194F00E00D0E82EFDD7C184F00E3F
:102B500000D0E82EFDD7C1940150800B016EC5EF67
:102B600015F0C184F00E00D0E82EFDD7D1C401F5D8
:102B7000C194F00E00D0E82EFDD7C184F00E00D035
:102B8000E82EFDD7C194ACEF15F0800E0118D8B433
:102B9000CCEF15F0CEEF15F0B1EF15F01200C190AB
:102BA000C192300E35EC17F0200E046E2A0EE82E7E
:102BB000FED7042EFCD7200E046E2A0EE82EFED778
:102BC000042EFCD7300E35EC17F0F00E00D0E82EB6
:102BD000FDD7300E35EC17F0200E35EC17F0010E56
:102BE00064EC16F0280E64EC16F00F0E64EC16F090
:102BF000060E64EC16F0010E64EC16F01200040EE2
:102C00000C5CD8A006EF16F008EF16F00AEF16F0ED
:102C100027EF16F00BC501F50CC502F5AFEC16F069
:102C20000DC546F000014151F80B0309416FD69ED6
:102C3000550E426FAA0E426F408140B122EF16F04E
:102C400024EF16F01DEF16F0D68EF80E4117120085
:102C5000040E0C5CD8A02FEF16F031EF16F034EF15
:102C600016F0FF0E46EF16F00BC501F50CC502F588
:102C7000AFEC16F0F80E00014117408140B143EF70
:102C800016F045EF16F03EEF16F046511200056EB5
:102C90000504D8A44EEF16F050EF16F056EF16F0DC
:102CA0000450800F64EC16F063EF16F0020E051866
:102CB000D8A45DEF16F05FEF16F063EF16F0045046
:102CC000C00F64EC16F01200026EC19096EC15F085
:102CD000C96AF00E00D0E82EFDD7C192C194C19010
:102CE0000250F00B036E035035EC17F00238F00B76
:102CF000036E035035EC17F012000F6EC18096EC96
:102D000015F0C96AF00E00D0E82EFDD7C192C1942B
:102D1000C1800F50F00B106E105035EC17F00F38CB
:102D2000F00B106E105035EC17F012000EC50BF5BD
:102D30000FC50CF528EC16F0116E10501118D8B410
:102D4000A4EF16F0A6EF16F0AEEF16F00EC50BF5D9
:102D50000FC50CF510C50DF5FFEC15F01200015074
:102D6000036E0250046E056A066A000E0324076EA5
:102D7000000E0420086E380E0520096E000E062095
:102D80000A6E09C545F008C544F007C543F01200B6
:102D9000046E0450D8A4CFEF16F0D1EF16F0D4EFA4
:102DA00016F00E0E64EC16F00404D8A4DAEF16F058
:102DB000DCEF16F0DFEF16F00C0E64EC16F01200EC
:102DC000146A146AEEEF16F011501424136E13C532
:102DD000F6F40800F5507DEC16F0142A1250145C3D
:102DE000D8A0F5EF16F0F7EF16F0E4EF16F01200AA
:102DF000CFEC15F0020E066E4D0E056E740EE82E29
:102E0000FED7052EFCD7062EFAD700D047EC17F0D8
:102E100043EC17F0010EC8EC16F01200600E000132
:102E2000AD6F080EB16F400EB36FC96A0401186B25
:102E3000C880C882C88610911093109711811183A1
:102E400011871200960EF66E2E0EF76E000EF86EBB
:102E50000900F5C41AF5196A186A176A000EF86EA7
:102E6000260EF76E00012DEF13F0016E0F0EC11646
:102E7000F00E01160150C112C184F00E00D0E82EF0
:102E8000FDD7C1941200020E64EC16F01200010E80
:072E900064EC16F01200FFD4
:020000040001F9
:04FFFC0022EF17F0E9
:020000040030CA
:08000000FCFF3DDF9FFFFFFF45
:01000900FFF7
:00000001FF
