:04000000FEEFFFF020
:10FA2400003132334134353642373839432A3023B2
:10FA3400441F1F1F1F1F1F1F1F050607080506075A
:10FA44000810204080010204080C060309332E56D6
:10FA5400657220686F726172696F732020202020A4
:10FA64002000342E5265672E2070617374696C6CAB
:10FA7400617320202020002A2E53616C6972206457
:10FA8400656C206D656E7520202020004E756576AE
:10FA94006120686F7261203A202078783A78782063
:10FAA400002120484F5241204445204C4120444FDE
:10FAB4005349532021002D204544495441522048A4
:10FAC4004F524152494F205F202D002D2D204E557D
:10FAD40045564F20484F524152494F202D2D2D005D
:10FAE4002D2D2D204D495320484F524152494F53FB
:10FAF400202D2D2D002D2D2D205B235D20564552CC
:10FB0400204D454E55202D2D2D002D2D2D2D2D2DE7
:10FB14002D2D2D2D2D2D2D2D2D2D2D2D2D2D002D3E
:10FB24002D205245434152474120455849544F5393
:10FB3400412D2D002D2D20484F524152494F205028
:10FB44004153542E205F2D2D002D204D4F44494606
:10FB54004943415220484F524152494F2D0050725F
:10FB640065706172616E646F2073697374656D6131
:10FB74002E2E005245472E2043414E542E205041F4
:10FB84005354494C4C41530053656C656363696F2E
:10FB94006E652028312D34293A5B205D0045505292
:10FBA4004F4D206E6F20436F6E6669677572616496
:10FBB40061004D616C20466F726D61746F206465E5
:10FBC40020466563686100416C6572746120656EEE
:10FBD40020656C2053697374656D61005369737497
:10FBE400656D6120656E206F7065726163696F6E0B
:10FBF400004C6C616D6172204D616E74656E696D4F
:10FC040069656E746F004E6F207365207075646F44
:10FC14002064697370656E736172005B235D477560
:10FC240061726461723A205B2A5D53616C6972008F
:10FC3400312E4167722E486F722020322E4D6F6430
:10FC44002E486F720053696E20486F722E205265E1
:10FC5400676973747261646F730020202020202010
:10FC640020202020202020202020202020200020B0
:10FC740053544F434B2050415354494C4C45524FDD
:10FC8400532000506173743A5B312D345D20566FFC
:10FC94006C7665723A2A00477561726461723A5BE8
:10FCA400235D2053616C69723A2A00412073756D9B
:10FCB400617220202020202020203A20303000496A
:10FCC4006E677265736520686F72612028323448EC
:10FCD400293A00417369676E6172207061737469B7
:10FCE4006C6C65726F3A00484F524152494F204143
:10FCF400435455414C495A41444F00456C6567692A
:10FD04007220486F726172696F3A205B205D00480F
:10FD14006F72612061637475616C3A20205F5F3A91
:10FD24005F5F005B235D5265736574656172205388
:10FD3400697374656D610050617374696C6C65728C
:10FD44006F20257520566163696F005B235D4775DD
:10FD54006172646172205B2A5D53616C6972004553
:10FD64006E74726567616E646F3A20506173742EAD
:10FD74002000486F726172696F73206163746976E1
:10FD84006F733A2000526567697374726172205010
:10FD9400617374696C6C61005B235D53656C6563AE
:10FDA4002E205B2A5D53616C6972002D2D20524513
:10FDB400434152474120504153542E200053746F05
:10FDC400636B2061637475616C2020203A20004EBF
:10FDD400756D65726F2028312D34293A205B205DC2
:10FDE40000506173742E2041637475616C3A202055
:10FDF400505F005265696E6963696172205369736B
:10FE040074656D61004D6F64696669636172204851
:10FE14006F726172696F004E7565766F2050617301
:10FE2400742E203A202050780050617374696C6CF1
:10FE3400617320646973703A2000484F52415249FB
:10FE44004F20475541524441444F004932432073A7
:10FE5400696E20636F6E6578696F6E00525443203B
:10FE640073696E20636F6E6578696F6E0053697392
:10FE740074656D6120636F72726563746F004E6F99
:10FE8400206861792050617374696C6C61730050EF
:10FE94007265706172616E646F204461746F730087
:10FEA400457874726179656E646F204461746F7310
:10FEB40000546F74616C2061637475616C3A205BEB
:10FEC400004F7063696F6E20496E76616C6964617E
:10FED400004C6579656E646F204D656D6F72696164
:10FEE400004167726567617220486F726172696F61
:10FEF40000436F6C6F63617220656C205661736F91
:10FF0400004E6F2068617920486F726172696F7367
:10FF140000486F726172696F73206C6C656E6F73E9
:10FF2400004461746F7320436F72727570746F73E1
:10FF34000020202020205B2078783A7878205D000B
:10FF4400505F2061206C6173205F5F3A5F5F004FF8
:10FF54007063696F6E2044657365616461004E4F20
:10FF64002050726573696F6E61646F005254432050
:10FF7400646574656E69646F0056657220486F72BB
:10FF84006172696F730050415354494C4C45524F50
:10FF940020005D20202020202050323A5B005D208C
:10FFA400202020202050343A5B0053656C65636345
:10FFB400696F6E6172005B2A5D2053616C69720027
:10FFC4005B425D42616A6172005B415D53756269C7
:10FFD40072002061206C617320004F7063696F6E42
:10FFE400004C4953544F0050313A5B0050333A5B54
:0BFFF400002050003062003078000058
:020000040001F9
:10000000030E166E080E156E770EE82EFED7152E0F
:10001000FCD7162EFAD70000080E5D6E040E5C6E3B
:100020005D50EFEC88F0176E1750D8B41AEF80F0DF
:100030001CEF80F01EEF80F0B3EF80F0340E156EF1
:10004000F20EE82EFED7152EFCD7000E096E300EEC
:10005000D8EC87F0176E1750D8B431EF80F033EF3B
:1000600080F035EF80F0B3EF80F0340E156EF20EB5
:10007000E82EFED7152EFCD7000E096E300ED8ECF8
:1000800087F0176E1750D8B448EF80F04AEF80F031
:100090004CEF80F0B3EF80F0F00E00D0E82EFDD7EB
:1000A000000E096E300ED8EC87F0176E1750D8B4DA
:1000B0005CEF80F05EEF80F060EF80F0B3EF80F0F7
:1000C000F00E00D0E82EFDD7000E096E200ED8EC01
:1000D00087F0176E1750D8B470EF80F072EF80F091
:1000E00074EF80F0B3EF80F0F00E00D0E82EFDD773
:1000F000280E61EC86F0176E1750D8B482EF80F0AE
:1001000084EF80F086EF80F0B3EF80F05C6A04EC5F
:1001100089F0176E1750D8B490EF80F092EF80F00E
:1001200094EF80F0B3EF80F009EC89F0176E175070
:10013000D8B49DEF80F09FEF80F0A1EF80F0B3EF97
:1001400080F0060E61EC86F0176E1750D8B4ABEF56
:1001500080F0ADEF80F0AFEF80F0B3EF80F0040EF1
:100160005C6E04EC89F0120007C5D9F408C5DAF416
:1001700009C5DEF40AC5DDF420EE02F00750D926E9
:100180000850DA220BC5DEF40CC5DDF420EE04F0D5
:100190000750D9260850DA220DC5DEF40EC5DDF46D
:1001A00020EE06F00750D9260850DA220FC5DEF4FB
:1001B00010C5DDF420EE08F00750D9260850DA22E9
:1001C00011C5DEF412C5DDF420EE06F00750D92685
:1001D0000850DA22DEC413F5DDC414F513C5D9F4D2
:1001E00014C5DAF4DF6A20EE04F00750D92608506F
:1001F000DA22DEC413F5DDC414F513C5D9F414C531
:10020000DAF410EE04F00750E1260850E222E6C4CA
:1002100015F5E5C416F515C5E1F416C5E2F4E75089
:10022000F00BDF6E20EE04F00750D9260850DA22DA
:10023000DEC413F5DDC414F513C5D9F414C5DAF41E
:1002400010EE04F00750E1260850E222E6C415F54E
:10025000E5C416F515C5E1F416C5E2F4E750F0095A
:10026000DF6E20EE08F00750D9260850DA22DEC4EF
:1002700013F5DDC414F513C5D9F414C5DAF410EE82
:1002800008F00750E1260850E222E6C415F5E5C45F
:1002900016F515C5E1F416C5E2F4E750F009DF6E76
:1002A00007C501F508C502F5B8EC87F0120001C5D5
:1002B000D9F402C5DAF403C5DEF404C5DDF420EE9A
:1002C00002F00150D9260250DA2205C5DEF406C537
:1002D000DDF420EE04F00150D9260250DA2207C5E1
:1002E000DEF408C5DDF420EE06F00150D9260250F8
:1002F000DA2209C5DFF420EE07F00150D9260250BA
:10030000DA22DF6A20EE06F00150D9260250DA2206
:10031000DF50D8A48EEF81F090EF81F0C0EF81F034
:1003200020EE02F00150D9260250DA22DEC40AF58E
:10033000DDC40BF50AC5D9F40BC5DAF4F00EDF16EF
:1003400020EE04F00150D9260250DA22DEC40AF56C
:10035000DDC40BF50AC5D9F40BC5DAF4F00EDF16CF
:1003600001C5D9F402C5DAF4DEC40AF5DDC40BF523
:100370000AC5D9F40BC5DAF4F00EDF16EEEF81F002
:1003800020EE02F00150D9260250DA22DEC40AF52E
:10039000DDC40BF50AC5D9F40BC5DAF40F0EDF1670
:1003A00020EE04F00150D9260250DA22DEC40AF50C
:1003B000DDC40BF50AC5D9F40BC5DAF40F0EDF1650
:1003C00001C5D9F402C5DAF4DEC40AF5DDC40BF5C3
:1003D0000AC5D9F40BC5DAF40F0EDF161200CA8075
:1003E00004012181209138EC84F0DEEC88F030ECBF
:1003F00088F015EC88F0DAEC84F064EC88F0C8EC56
:1004000088F0D2B006EF82F008EF82F063EF82F05E
:10041000000E156E010EC7EC86F0650E146EFF0E11
:10042000156E25EC85F0150E196E4B0E186EBE0E6E
:10043000E82EFED7182EFCD7192EFAD700D01A6A4C
:100440001AC50BF50C6A000E0D6E1DEC87F01A2A0A
:10045000260E1A642EEF82F030EF82F020EF82F049
:100460000C6A010E0B6E010E0D6E1DEC87F00C6A0E
:10047000030E0B6E040E0D6E1DEC87F00C6A020E5F
:100480000B6E040E0D6E1DEC87F00C6A050E0B6EE4
:10049000040E0D6E1DEC87F00C6A090E0B6E0D0E2E
:1004A0000D6E1DEC87F00C6A0A0E0B6E2F0E0D6E92
:1004B0001DEC87F00C6A0D0E0B6E010E0D6E1DEC1F
:1004C00087F07AEF82F0000E156E010EC7EC86F011
:1004D000620E146EFF0E156E25EC85F0150E196E6A
:1004E0004B0E186EBE0EE82EFED7182EFCD7192E16
:1004F000FAD700D0120008C5D9F409C5DAF40AC544
:10050000DEF40BC5DDF420EE02F00850D9260950C8
:10051000DA220CC5DEF40DC5DDF420EE04F008503F
:10052000D9260950DA220EC5DEF40FC5DDF420EE1F
:1005300006F00850D9260950DA2210C5DFF420EE63
:1005400004F00850D9260950DA22DEC411F5DDC4C2
:1005500012F511C5D9F412C5DAF410EE04F0085002
:10056000E1260950E222E6C413F5E5C414F513C5EB
:10057000E1F414C5E2F4E750156E10EE06F00850F1
:10058000E1260950E222E750FF0A1514DF6E20EE43
:1005900002F00850D9260950DA22DEC411F5DDC474
:1005A00012F511C5D9F412C5DAF410EE02F00850B4
:1005B000E1260950E222E6C413F5E5C414F513C59B
:1005C000E1F414C5E2F4E750156E10EE06F00850A1
:1005D000E1260950E222E750FF0A1514DF6E08C534
:1005E00001F509C502F593EC87F01200066E800E46
:1005F0000660FDEF82F0FFEF82F010EF83F0035012
:100600000410D8B406EF83F008EF83F010EF83F006
:100610000550D8A40EEF83F010EF83F015EF83F0B0
:10062000050E4A6E4A5070EF83F094EC86F0086E27
:100630000850D8B41EEF83F020EF83F027EF83F04B
:1006400008C54AF5FDEC88F0085070EF83F00DEC1A
:1006500089F00201949D065006248F6F05C58DF226
:1006600003C5D9F404C5DAF4DF508C6F948B010E06
:10067000076E52EF83F0B1EC85F0086E0850D8B4E5
:1006800044EF83F046EF83F048EF83F020EF83F0F0
:1006900007500324D96E000E0420DA6EDF500201E9
:1006A0008C6F072A0550075CD8A059EF83F05BEFE9
:1006B00083F03BEF83F06DEC85F0086E0850D8B402
:1006C00064EF83F066EF83F06AEF83F0FDEC88F06F
:1006D0006CEF83F00DEC89F008C54AF524EF83F048
:1006E000120001C5D9F402C5DAF403C5DEF404C56D
:1006F000DDF420EE02F00150D9260250DA2205C5C1
:10070000DEF406C5DDF420EE04F00150D9260250D7
:10071000DA2207C5DEF408C5DDF420EE06F001504C
:10072000D9260250DA2209C5DFF420EE04F0015088
:10073000D9260250DA22DEC40AF5DDC40BF50AC55B
:10074000D9F40BC5DAF410EE04F00150E1260250A2
:10075000E222E6C40CF5E5C40DF50CC5E1F40DC5C7
:10076000E2F4E7500E6E10EE06F00150E126025062
:10077000E222E750FF0A0E14DF6E20EE02F0015075
:10078000D9260250DA22DEC40AF5DDC40BF50AC50B
:10079000D9F40BC5DAF410EE06F00150E126025050
:1007A000E222E7500C6E10EE02F00150E1260250FA
:1007B000E222E6C40DF5E5C40EF50DC5E1F40EC563
:1007C000E2F4E7500C10DF6E12001E0E0364EBEF34
:1007D00083F0EDEF83F0F5EF83F001C5D9F402C5A6
:1007E000DAF41E0EDF6EFBEF83F001C5D9F402C50B
:1007F000DAF403C5DFF404011091C890C090066AD2
:100800002AEF84F006500124046E000E0220056ECB
:10081000010E0424D96E000E0520DA6EDF6A065040
:100820000124046E000E0220056E1F0E0424D96EF2
:10083000000E0520DA6EDF6A06500124046E000EF9
:100840000220056E3D0E0424D96E000E0520DA6EDE
:10085000DF6A062A01C5D9F402C5DAF4DE50065C67
:10086000D8A035EF84F037EF84F002EF84F0120067
:100870009A0E016E050E026EBE0E036E040E046E1D
:10088000C60E056E040E066E000E076E040E086E90
:10089000000E096E57EC81F0920E016E050E026E8D
:1008A000BE0E036E040E046EC60E056E040E066EBA
:1008B000000E076E040E086E010E096E57EC81F0F3
:1008C0008A0E016E050E026EBF0E036E040E046EDC
:1008D000C70E056E040E066E080E076E040E086E37
:1008E000000E096E57EC81F0820E016E050E026E4D
:1008F000BF0E036E040E046EC70E056E040E066E68
:10090000080E076E040E086E010E096E57EC81F09A
:10091000120001C5D9F402C5DAF403C5DEF404C53A
:10092000DDF420EE02F00150D9260250DA2205C58E
:10093000DEF406C5DDF420EE04F00150D9260250A5
:10094000DA2207C5DFF420EE05F00150D926025067
:10095000DA2208C5DFF420EE04F00150D926025057
:10096000DA22DF50096E01C5D9F402C5DAF4DEC41B
:100970000AF5DDC40BF50AC5D9F40BC5DAF4095044
:10098000DF1220EE04F00150D9260250DA22DF50A7
:10099000096E20EE02F00150D9260250DA22DEC4A0
:1009A0000AF5DDC40BF50AC5D9F40BC5DAF4095014
:1009B000DF121200E7EC88F0BB0E016E050E026E2E
:1009C000CB0E036E040E046E280E056E040E066E2A
:1009D000010E076E280E086E89EC84F0B50E016ECC
:1009E000050E026ECB0E036E040E046E280E056E0D
:1009F000040E066E020E076E290E086E89EC84F056
:100A0000AF0E016E050E026ECB0E036E040E046E69
:100A1000280E056E040E066E040E076E2A0E086E72
:100A200089EC84F0A90E016E050E026ECB0E036EEA
:100A3000040E046E280E056E040E066E080E076E78
:100A40002B0E086E89EC84F0120014501510D8A4F7
:100A50002CEF85F02EEF85F052EF85F0050E6CEF50
:100A600085F014C5F6F415C5F7F4000EF86E250EE2
:100A7000F76403D00800F55005D0F6C4E9F4F7C4D4
:100A8000EAF4EF5079EC88F0166E1650D8B44BEFBC
:100A900085F04DEF85F050EF85F016506CEF85F046
:100AA000144A152A14C5F6F415C5F7F4000EF86EAD
:100AB000250EF76403D00800F55005D0F6C4E9F41C
:100AC000F7C4EAF4EF500009D8A469EF85F06BEFA2
:100AD00085F031EF85F0000E1200EA0E026E600E16
:100AE000016E96EF85F097AD78EF85F07AEF85F09F
:100AF0007DEF85F0030EB0EF85F097AB82EF85F0C8
:100B000084EF85F087EF85F0020EB0EF85F001509D
:100B10000210D8A48EEF85F090EF85F093EF85F06A
:100B2000040EB0EF85F00106D8A0020602019AA5D6
:100B30009CEF85F09EEF85F073EF85F095BBA3EFFA
:100B400085F0A5EF85F0ACEF85F097A9AAEF85F0C9
:100B5000ACEF85F0AFEF85F0010EB0EF85F0000E41
:100B60001200EA0E026E600E016EE4EF85F097A9A6
:100B7000BCEF85F0BEEF85F0C1EF85F0010EEDEF23
:100B800085F097ADC6EF85F0C8EF85F0CBEF85F027
:100B9000030EEDEF85F097ABD0EF85F0D2EF85F047
:100BA000D5EF85F0020EEDEF85F001500210D8A4CC
:100BB000DCEF85F0DEEF85F0E1EF85F0040EEDEF80
:100BC00085F00106D8A00206020199ABEAEF85F094
:100BD000ECEF85F0B7EF85F0000E12009EEC88F088
:100BE000040E1D6E020E1E6E500E1F6E030E206E42
:100BF000216A466A050E456E1D0E4524D96E050E06
:100C00004620DA6EDF6A454A462A46BE11EF86F074
:100C1000465009E1280E455CD8A011EF86F013EF8D
:100C200086F0FCEF85F01D0E026E050E036E29ECBA
:100C300086F0520E1C6E2B0E1B6E000EE82EFED799
:100C40001B2EFCD71C2EFAD700D013EF86F0FEEF38
:100C5000FFF0046AFF0EBCEC88F0AA0EBCEC88F032
:100C6000550EBCEC88F0280EBCEC88F0066A000E2D
:100C7000056E05500224D96E06500320DA6EDF504F
:100C8000BCEC88F005500224D96E06500320DA6EC1
:100C9000DF500426054A062A06BE58EF86F00650A5
:100CA00009E1280E055CD8A058EF86F05AEF86F0CF
:100CB00039EF86F00450BCEC88F00A0EBCEC88F0EA
:100CC0001200146E000E096E1450F2EC86F0136ED2
:100CD0001350D8B46EEF86F070EF86F073EF86F0A5
:100CE000135093EF86F01404D8B479EF86F07BEFBD
:100CF00086F084EF86F0020E1418D8A482EF86F0F6
:100D000084EF86F08EEF86F0150E126EC60EE82E7A
:100D1000FED7122EFCD700D092EF86F0850EE82E7B
:100D2000FED70000000E1200EA0E026E600E016E89
:100D3000BDEF86F097AD9FEF86F0A1EF86F0A4EFB0
:100D400086F0030EC6EF86F097ABA9EF86F0ABEF07
:100D500086F0AEEF86F0020EC6EF86F0015002106C
:100D6000D8A4B5EF86F0B7EF86F0BAEF86F0040EA0
:100D7000C6EF86F00106D8A00206020198AFC3EFC5
:100D800086F0C5EF86F09AEF86F0000E1200166E20
:100D9000D9EF86F0176AECEF86F0400E176EECEF95
:100DA00086F0140E176EECEF86F0540E176EECEF13
:100DB00086F01650010AD8B4CAEF86F0030AD8B4F8
:100DC000CDEF86F0010AD8B4D1EF86F0070AD8B487
:100DD000D5EF86F0F1EF86F017501524800961EC0D
:100DE00086F012000E6E5DC511F50950D8B4FBEF08
:100DF00086F0FDEF86F0FEEF86F011800E50F00BCE
:100E00000F6E0E38F00BF00B106E0F50111004091E
:100E10000A6E0F5011100B6E1050111004090C6E59
:100E2000105011100D6E0A0E036E050E046E040EA6
:100E3000056E5E50F6EC82F01200040E0C5CD8A039
:100E400024EF87F026EF87F028EF87F045EF87F053
:100E50000BC501F50CC502F54BEC88F00DC546F04D
:100E600000014151F80B0309416FD69E550E426FA8
:100E7000AA0E426F408140B140EF87F042EF87F009
:100E80003BEF87F0D68EF80E411712000201949FB7
:100E9000C096C098040110971099C896C8981287F8
:100EA0001289F7EC87F0CF0E02018717CF0E861755
:100EB0008751FC0B0109876F8651FC0B0109866F76
:100EC000040E946F956B966B030E9C6F9D6B9B6BE2
:100ED0000DEC89F00201948F4A6A1200220EF66E20
:100EE000120EF76E010EF86E01EE5CF110EE04F0DA
:100EF0000900F5C4EEF4E550E150FAE101EE00F22C
:100F00005B0EEE6AE806FDE101EE60F1610EEE6A4D
:100F1000E806FDE101EE47F1150EEE6AE806FDE197
:100F20000001EEEF85F001C5D9F402C5DAF4DEC4A4
:100F300003F5DDC404F503C5D9F404C5DAF4DF50C4
:100F4000056E20EE06F00150D9260250DA22DF505D
:100F5000FF0A051401C5D9F402C5DAF4DEC406F5AA
:100F6000DDC407F506C5D9F407C5DAF4DF6E120053
:100F700020EE02F00150D9260250DA22DEC403F539
:100F8000DDC404F503C5D9F404C5DAF410EE02F0AB
:100F90000150E1260250E222E6C405F5E5C406F55B
:100FA00005C5E1F406C5E2F4E7500F09DF6E120053
:100FB0000A6E0A50F00B0D6E5D500D120950D8B438
:100FC000E4EF87F0E6EF87F0E7EF87F00D800D5054
:100FD00004090B6E0D50FB0B0C6E0B0E036E050E11
:100FE000046E020E056E5E50F6EC82F01200000EEA
:100FF000D6BE010E016ED69E550E0201006FAA0EDE
:10100000006F0091370E146F380E156F130E716F4D
:10101000140E706F550E006FAA0E006F008101B0A4
:1010200002D0D69E01D0D68E12004B0E076E050E52
:10103000086ED10E096E040E0A6EC10E0B6E040E00
:101040000C6EC90E0D6E040E0E6E180E0F6E040E91
:10105000106E190E116E040E126EB4EC80F01200B8
:10106000550E086E050E096EC00E0A6E040E0B6E4C
:10107000C80E0C6E040E0D6E100E0E6E040E0F6E6A
:10108000020E106E7BEC82F0550E086E050E096E96
:10109000F6EC88F012000150036E0250046E056AEF
:1010A000066A000E0324076E000E0420086E380E38
:1010B0000520096E000E06200A6E09C545F008C518
:1010C00044F007C543F01200A20E016E050E026E39
:1010D000D30E036E040E046ECB0E056E040E066E68
:1010E000280E076E040E086E100E096E71EC83F068
:1010F0001200126E010E096E1250F2EC86F0136EA1
:101100001350D8A486EF88F088EF88F08CEF88F031
:10111000850EE82EFED7000013501200016E7F0EE0
:10112000016495EF88F097EF88F09AEF88F0050E4C
:101130009DEF88F001C55EF5000E1200600E000103
:10114000AD6F060EB16F400EB36F026ACF0E016E27
:10115000ADEC88F0EFEC81F0120002500201AF6FAD
:1011600001C5AEF2300EAB6F800EAC6FAD6B200ED2
:10117000296F290E726F1200016E01C5A3F20201E0
:10118000B2AFC5EF88F0C7EF88F0BFEF88F012006C
:1011900046EC87F0270E8EEC88F0486E00EC80F06D
:1011A00009EC89F012000A6E090E036E050E046E3A
:1011B000010E056E0A50F6EC82F01200000E016E70
:1011C000060E026E020E036EE5EC83F012000301C0
:1011D000F86B1F0EFA6F840EF36F5F6812000B6ED0
:1011E0000BC509F55E50D3EC88F0120008C501F577
:1011F00009C502F593EC87F012000201949F0DECF3
:1012000089F00201948F12005C50080961EC86F0AD
:101210001200010E61EC86F0120002019A6B976BCE
:061220001200040827FF84
:04FFFC006EEF87F02D
:020000040030CA
:08000000FCFF3DDF9FFFFFFF45
:01000900FFF7
:00000001FF
