:04000000FEEFFFF020
:10260000000C060309434E5937302078320041331D
:102610002079204134002020200041333A00413409
:032620003A00007D
:102624007AEC15F070EC16F0000E046E010EDBEC83
:1026340015F0050E0F6E080E106E42EC16F0000E2B
:10264400046E020EDBEC15F00E0E0F6E070E106E0C
:1026540042EC16F07A0E146EC10E136E820EE82E42
:10266400FED7132EFCD7142EFAD7A0EC16F01F0EAB
:10267400016E050E026E90EC14F001C517F502C54B
:1026840018F5190E016E050E026E90EC14F001C5DA
:1026940015F502C516F5000E046E010EDBEC15F0FF
:1026A4001A0E0F6E030E106E42EC16F017C506F5E7
:1026B40018C507F5270E096E100E086ED6EC14F037
:1026C4000650300F11EC16F0270E046E100E036E38
:1026D40017C501F518C502F548EC15F001C506F556
:1026E40002C507F5030E096EE80E086ED6EC14F069
:1026F4000650300F11EC16F0030E046EE80E036E54
:1027040017C501F518C502F548EC15F001C506F525
:1027140002C507F5096A640E086ED6EC14F006507B
:10272400300F11EC16F0046A640E036E17C501F540
:1027340018C502F548EC15F001C506F502C507F504
:10274400096A0A0E086ED6EC14F00650300F11EC2C
:1027540016F017C501F518C502F5046A0A0E036ED2
:1027640048EC15F00150300F11EC16F0160E0F6EF8
:10277400030E106E42EC16F0000E046E020EDBEC3B
:1027840015F01E0E0F6E030E106E42EC16F015C5FA
:1027940006F516C507F5270E096E100E086ED6EC61
:1027A40014F00650300F11EC16F0270E046E100EC4
:1027B400036E15C501F516C502F548EC15F001C503
:1027C40006F502C507F5030E096EE80E086ED6EC91
:1027D40014F00650300F11EC16F0030E046EE80EE0
:1027E400036E15C501F516C502F548EC15F001C5D3
:1027F40006F502C507F5096A640E086ED6EC14F0F6
:102804000650300F11EC16F0046A640E036E15C501
:1028140001F516C502F548EC15F001C506F502C52B
:1028240007F5096A0A0E086ED6EC14F00650300F4C
:1028340011EC16F015C501F516C502F5046A0A0E69
:10284400036E48EC15F00150300F11EC16F0160E23
:102854000F6E030E106E42EC16F0110E146E3C0E49
:10286400136ECB0EE82EFED7132EFCD7142EFAD7F8
:10287400000039EF13F0FEEFFFF001C5D9F402C5F3
:10288400DAF403C5DEF404C5DDF420EE02F00150F1
:10289400D9260250DA2205C5DEF406C5DDF420EEA1
:1028A40004F00150D9260250DA2207C5DFF420EEE5
:1028B40005F00150D9260250DA2208C5DFF420EED3
:1028C40004F00150D9260250DA22DF50096E01C506
:1028D400D9F402C5DAF4DEC40AF5DDC40BF50AC581
:1028E400D9F40BC5DAF40950DF1220EE04F00150DC
:1028F400D9260250DA22DF50096E20EE02F0015090
:10290400D9260250DA22DEC40AF5DDC40BF50AC565
:10291400D9F40BC5DAF40950DF12120020EE05F0E9
:102924000150D9260250DA222550DE18D8B49DEF82
:1029340014F09FEF14F0C2EF14F03B0E0301EC6FA0
:10294400F381F3B1A8EF14F0AAEF14F0A3EF14F09D
:1029540020EE05F00150D9260250DA22DF50EC6F48
:10296400F381F3B1B8EF14F0BAEF14F0B3EF14F04D
:1029740020EE05F00150D9260250DA22DF50256EF0
:102984000301F381F3B1C9EF14F0CBEF14F0C4EFFA
:1029940014F0EB51036EEA51056E03C506F505C547
:1029A40001F506C502F512000B6A000E0A6E085006
:1029B4000910D8B4E0EF14F0E2EF14F00AEF15F0C8
:1029C400010E0C6EEAEF14F0D890083609360C2A82
:1029D40009AEEFEF14F0F1EF14F0E6EF14F0D89035
:1029E4000A360B360850065C09500758D8A0FDEF8C
:1029F40014F0FFEF14F004EF15F00850065E0950D0
:102A0400075A0A80D890093208320C2EF1EF14F0DC
:102A14000AC506F50BC507F51200F80EC96EC1907C
:102A2400C182C184F00E00D0E82EFDD7D1C401F5D7
:102A3400C194F00E00D0E82EFDD7C184F00E00D072
:102A4400E82EFDD7C1940150800B016E3EEF15F0C6
:102A5400C184F00E00D0E82EFDD7D1C401F5C19495
:102A6400F00E00D0E82EFDD7C184F00E00D0E82E81
:102A7400FDD7C19425EF15F0800E0118D8B445EFA9
:102A840015F047EF15F02AEF15F01200035004106B
:102A9400D8B44FEF15F051EF15F075EF15F0010EA6
:102AA400056E59EF15F0D89003360436052A04AEA6
:102AB4005EEF15F060EF15F055EF15F00350015C73
:102AC40004500258D8A069EF15F06BEF15F06FEFC2
:102AD40015F00350015E0450025AD89004320332B8
:102AE400052E60EF15F001C501F502C502F51200CF
:102AF400600E0001AD6F080EB16F400EB36FC96A6E
:102B04000401186B94EC16F01F0E016E050E026E94
:102B1400C60E036E040E046E000E056E040E066EE1
:102B2400080E076E030E086E3FEC14F0190E016ECA
:102B3400050E026EC60E036E040E046E000E056EC4
:102B4400040E066E100E076E040E086E3FEC14F0B1
:102B54001200C190C192300E86EC16F0200E046E65
:102B64002A0EE82EFED7042EFCD7200E046E2A0E61
:102B7400E82EFED7042EFCD7300E86EC16F0F00EAD
:102B840000D0E82EFDD7300E86EC16F0200E86EC31
:102B940016F0010EF8EC15F0280EF8EC15F00F0EF7
:102BA400F8EC15F0060EF8EC15F0010EF8EC15F043
:102BB4001200056E0504D8A4E2EF15F0E4EF15F059
:102BC400EAEF15F00450800FF8EC15F0F7EF15F06C
:102BD400020E0518D8A4F1EF15F0F3EF15F0F7EF96
:102BE40015F00450C00FF8EC15F01200026EC190FD
:102BF4000FEC15F0C96AF00E00D0E82EFDD7C19293
:102C0400C194C1900250F00B036E035086EC16F091
:102C14000238F00B036E035086EC16F012000D6EB2
:102C2400C1800FEC15F0C96AF00E00D0E82EFDD774
:102C3400C192C194C1800D50F00B0E6E0E5086EC03
:102C440016F00D38F00B0E6E0E5086EC16F01200D6
:102C5400046E0450D8A431EF16F033EF16F036EFBB
:102C640016F00E0EF8EC15F00404D8A43CEF16F0A0
:102C74003EEF16F041EF16F00C0EF8EC15F01200D2
:102C8400126A126A50EF16F00F501224116E11C519
:102C9400F6F40800F55011EC16F0122A1050125CEC
:102CA400D8A057EF16F059EF16F046EF16F01200C1
:102CB400480EF66E2D0EF76E000EF86E0900F5C480
:102CC40025F501EE15F1100EEE6AE806FDE1000EA1
:102CD400F86E260EF76E000112EF13F0ABEC15F050
:102CE400020E066E4D0E056E740EE82EFED7052EEE
:102CF400FCD7062EFAD700D0A0EC16F09CEC16F008
:102D0400010E2AEC16F01200016E0F0EC116F00E21
:102D140001160150C112C184F00E00D0E82EFDD777
:102D2400C19412000301F86B1F0EFA6F840EF36F47
:102D340025681200020EF8EC15F01200010EF8ECF2
:052D440015F01200FF74
:020000040001F9
:04FFFC005AEF16F0B2
:020000040030CA
:08000000FCFF3DDF9FFFFFFF45
:01000900FFF7
:00000001FF
