:04000000FEEFFFF020
:10260000003132334134353642373839432A3023AA
:102610004410204080010204080C060309202020F9
:10262000202020202020202020202020005465630E
:052630006C613A00009E
:1026360007C5D9F408C5DAF409C5DEF40AC5DDF420
:1026460020EE02F00750D9260850DA220BC5DEF438
:102656000CC5DDF420EE04F00750D9260850DA2226
:102666000DC5DEF40EC5DDF420EE06F00750D926C2
:102676000850DA220FC5DEF410C5DDF420EE08F0AE
:102686000750D9260850DA2211C5DEF412C5DDF44A
:1026960020EE06F00750D9260850DA22DEC413F5DC
:1026A600DDC414F513C5D9F414C5DAF4DF6A20EED7
:1026B60004F00750D9260850DA22DEC413F5DDC42B
:1026C60014F513C5D9F414C5DAF410EE04F0075066
:1026D600E1260850E222E6C415F5E5C416F515C54F
:1026E600E1F416C5E2F4E750F00BDF6E20EE04F0DD
:1026F6000750D9260850DA22DEC413F5DDC414F5D6
:1027060013C5D9F414C5DAF410EE04F00750E12627
:102716000850E222E6C415F5E5C416F515C5E1F440
:1027260016C5E2F4E750F009DF6E20EE08F0075018
:10273600D9260850DA22DEC413F5DDC414F513C514
:10274600D9F414C5DAF410EE08F00750E126085063
:10275600E222E6C415F5E5C416F515C5E1F416C57D
:10276600E2F4E750F009DF6E07C501F508C502F58A
:1027760051EC15F01200166A10C507F511C508F5DB
:1027860016C509F522EC15F01A0EE82EFED700D074
:10279600176A1750110F126E12C5F6F40800F5C429
:1027A60013F510C5D9F411C5DAF4DEC414F5DDC489
:1027B60015F514C5D9F415C5DAF4DF50131400095C
:1027C600D8A4E8EF13F0EAEF13F0FCEF13F010C50E
:1027D60001F511C502F551EC15F01650040DF35034
:1027E600010F1724126E12C5F6F40800F55015EF06
:1027F60014F0172A030E176403EF14F005EF14F014
:10280600CCEF13F0162A030E16640CEF14F00EEF3D
:1028160014F0BFEF13F010C501F511C502F551EC28
:1028260015F0000E120014EC16F025EC16F021EC53
:1028360016F0010ED8EC15F01F0E076E050E086E89
:10284600D00E096E040E0A6EC00E0B6E040E0C6ED0
:10285600C80E0D6E040E0E6E100E0F6E040E106E68
:10286600110E116E040E126E1BEC13F0000E046EA8
:10287600010E71EC15F02D0E046E060E056EC0EC01
:1028860015F0000E046E020E71EC15F02D0E8EEC96
:1028960015F01F0E186E050E196E6DEC14F01E6EF7
:1028A6001E50D8B459EF14F05BEF14F04CEF14F04F
:1028B600000E046E020E71EC15F01E508EEC15F033
:1028C6001D0E046E0F0E056EC0EC15F04CEF14F0E5
:1028D600FEEFFFF018C510F519C511F5BEEC13F0A3
:1028E6001D6E1D50D8A47AEF14F07CEF14F07FEF24
:1028F60014F0000EB8EF14F0020E1B6EA00E1A6E46
:10290600920EE82EFED71A2EFCD71B2EFAD700D031
:1029160018C510F519C511F5BEEC13F01C6E1D5047
:102926001C18D8B499EF14F09BEF14F09DEF14F037
:102936007CEF14F018C510F519C511F5BEEC13F0AF
:102946000009D8A4A9EF14F0ABEF14F09DEF14F032
:10295600020E1B6EA00E1A6E920EE82EFED71A2ECF
:10296600FCD71B2EFAD700D01D501200F80EC96EE8
:10297600C190C182C184F00E00D0E82EFDD7D1C42B
:1029860001F5C194F00E00D0E82EFDD7C184F00EFB
:1029960000D0E82EFDD7C1940150800B016EE8EF00
:1029A60014F0C184F00E00D0E82EFDD7D1C401F595
:1029B600C194F00E00D0E82EFDD7C184F00E00D0F1
:1029C600E82EFDD7C194CFEF14F0800E0118D8B4CD
:1029D600EFEF14F0F1EF14F0D4EF14F01200C19001
:1029E600C192300E06EC16F0200E046E2A0EE82E6A
:1029F600FED7042EFCD7200E046E2A0EE82EFED734
:102A0600042EFCD7300E06EC16F0F00E00D0E82EA1
:102A1600FDD7300E06EC16F0200E06EC16F0010E71
:102A2600A7EC15F0280EA7EC15F00F0EA7EC15F085
:102A3600060EA7EC15F0010EA7EC15F0120007C55F
:102A460001F508C502F551EC15F020EE02F007502D
:102A5600D9260850DA22DEC40AF5DDC40BF50AC50C
:102A6600D9F40BC5DAF410EE02F00750E12608504F
:102A7600E222E6C40CF5E5C40DF50CC5E1F40DC57E
:102A8600E2F4E7500E6E0950150F0F6E0FC5F6F4FF
:102A96000800F550FF0A0E14DF6E120020EE02F059
:102AA6000150D9260250DA22DEC403F5DDC404F54E
:102AB60003C5D9F404C5DAF410EE02F00150E1269C
:102AC6000250E222E6C405F5E5C406F505C5E1F4C3
:102AD60006C5E2F4E7500F09DF6E1200056E050425
:102AE600D8A478EF15F07AEF15F080EF15F00450C2
:102AF600800FA7EC15F08DEF15F0020E0518D8A47F
:102B060087EF15F089EF15F08DEF15F00450C00F23
:102B1600A7EC15F01200026EC180B9EC14F0C96A78
:102B2600F00E00D0E82EFDD7C192C194C1800250AC
:102B3600F00B036E035006EC16F00238F00B036E32
:102B4600035006EC16F01200026EC190B9EC14F0B8
:102B5600C96AF00E00D0E82EFDD7C192C194C1908B
:102B66000250F00B036E035006EC16F00238F00B21
:102B7600036E035006EC16F01200076A076ACEEFE2
:102B860015F004500724066E06C5F6F40800F55045
:102B96008EEC15F0072A0550075CD8A0D5EF15F086
:102BA600D7EF15F0C4EF15F01200046E0450D8A448
:102BB600DFEF15F0E1EF15F0E4EF15F00E0EA7ECE0
:102BC60015F00404D8A4EAEF15F0ECEF15F0EFEFDA
:102BD60015F00C0EA7EC15F01200520EF66E2C0E28
:102BE600F76E000EF86E0900F5C429F501EE1EF128
:102BF6000B0EEE6AE806FDE1000EF86E260EF76E85
:102C0600000116EF14F0016E0F0EC116F00E01163C
:102C16000150C112C184F00E00D0E82EFDD7C19438
:102C26001200600E0001AD6F080EB16F400EB36F5B
:102C3600C96A0401186BF2EC14F01200020EA7EC3C
:0D2C460015F01200010EA7EC15F01200FFB2
:020000040001F9
:04FFFC00F0EF15F01D
:020000040030CA
:08000000FCFF3DDF9FFFFFFF45
:01000900FFF7
:00000001FF
