:04000000FEEFFFF020
:10260000000C0603090001C5D9F402C5DAF403C5BC
:10261000DEF404C5DDF420EE02F00150D9260250AC
:10262000DA2205C5DEF406C5DDF420EE04F0015023
:10263000D9260250DA2207C5DEF408C5DDF420EE03
:1026400006F00150D9260250DA2209C5DFF420EE47
:1026500007F00150D9260250DA22DF6A20EE06F098
:102660000150D9260250DA22DF50D8A43AEF13F0F5
:102670003CEF13F06CEF13F020EE02F00150D9267E
:102680000250DA22DEC40AF5DDC40BF50AC5D9F41E
:102690000BC5DAF4F00EDF1620EE04F00150D92657
:1026A0000250DA22DEC40AF5DDC40BF50AC5D9F4FE
:1026B0000BC5DAF4F00EDF1601C5D9F402C5DAF461
:1026C000DEC40AF5DDC40BF50AC5D9F40BC5DAF48E
:1026D000F00EDF169AEF13F020EE02F00150D9262B
:1026E0000250DA22DEC40AF5DDC40BF50AC5D9F4BE
:1026F0000BC5DAF40F0EDF1620EE04F00150D926D8
:102700000250DA22DEC40AF5DDC40BF50AC5D9F49D
:102710000BC5DAF40F0EDF1601C5D9F402C5DAF4E1
:10272000DEC40AF5DDC40BF50AC5D9F40BC5DAF42D
:102730000F0EDF16120084EC15F0240E016E050E4C
:10274000026EC10E036E040E046EC90E056E040EF9
:10275000066E180E076E040E086E000E096E03EC6E
:1027600013F01C0E016E050E026EC10E036E040EF8
:10277000046EC90E056E040E066E180E076E040E6A
:10278000086E010E096E03EC13F0240E186E050E90
:10279000196E46EC15F03D0E1B6EE10E1A6E400EE2
:1027A000E82EFED71A2EFCD71B2EFAD71C0E186E59
:1027B000050E196E46EC15F03D0E1B6EE10E1A6EFD
:1027C000400EE82EFED71A2EFCD71B2EFAD7240E69
:1027D000186E050E196E5AEC15F03D0E1B6EE10ECB
:1027E0001A6E400EE82EFED71A2EFCD71B2EFAD7F3
:1027F0001C0E186E050E196E5AEC15F03D0E1B6E70
:10280000E10E1A6E400EE82EFED71A2EFCD71B2EB4
:10281000FAD7240E096E050E0A6E7BEC15F01C0E1D
:10282000096E050E0A6E7BEC15F03D0E1B6EE10E77
:102830001A6E400EE82EFED71A2EFCD71B2EFAD7A2
:10284000C5EF13F0FEEFFFF020EE06F00150D926A1
:102850000250DA22DF50D8A430EF14F032EF14F037
:1028600053EF14F003500F0B086E01C5D9F402C5E5
:10287000DAF4DEC404F5DDC405F504C5D9F405C5F4
:10288000DAF4DF50F00B081001C5D9F402C5DAF410
:10289000DEC406F5DDC407F506C5D9F407C5DAF4CC
:1028A000DF6E76EF14F003C504F50F0E041604383E
:1028B000F00B086E01C5D9F402C5DAF4DEC404F5E4
:1028C000DDC405F504C5D9F405C5DAF4DF500F0BF6
:1028D000081001C5D9F402C5DAF4DEC406F5DDC47A
:1028E00007F506C5D9F407C5DAF4DF6E120009C58D
:1028F00001F50AC502F520EE07F00950D9260A5065
:10290000DA22DF500B6E0B50010F0C6E0CC5F6F483
:102910000800F5C403F524EC14F020EE07F009508C
:10292000D9260A50DA22DF50D8A499EF14F09BEF91
:1029300014F0A5EF14F020EE07F00950D9260A5044
:10294000DA22030EDF6EACEF14F020EE07F0095030
:10295000D9260A50DA22DF061200156A000E146E1C
:10296000D4EF14F00DC509F50EC50AF5E0EC14F02E
:10297000176A000E166EC7EF14F0100E136E940E49
:10298000E82EFED7132EFCD700D0164A172A115076
:10299000165C12501758D8A0D0EF14F0D2EF14F0F4
:1029A000BDEF14F0144A152A0F50145C105015583E
:1029B000D8A0DDEF14F0DFEF14F0B2EF14F0120046
:1029C00009C501F50AC502F520EE07F00950D92620
:1029D0000A50DA22DF500B6E0B50010F0C6E0CC543
:1029E000F6F40800F5C403F524EC14F020EE07F02B
:1029F0000950D9260A50DA22DF2A20EE07F00950C2
:102A0000D9260A50DA22030EDF6409EF15F00BEF26
:102A100015F012EF15F020EE07F00950D9260A50F4
:102A2000DA22DF6A1200156A000E146E3AEF15F012
:102A30000DC509F50EC50AF577EC14F0176A000EFE
:102A4000166E2DEF15F0100E136E940EE82EFED7B5
:102A5000132EFCD700D0164A172A1150165C1250BC
:102A60001758D8A036EF15F038EF15F023EF15F012
:102A7000144A152A0F50145C10501558D8A043EF73
:102A800015F045EF15F018EF15F0120018C50DF50B
:102A900019C50EF5080E106E000E0F6E126A050EA7
:102AA000116EADEC14F018C509F519C50AF57BECEB
:102AB00015F0120018C50DF519C50EF5080E106EAB
:102AC000000E0F6E126A050E116E13EC15F018C58C
:102AD00009F519C50AF57BEC15F0120001EE1CF1A1
:102AE000100EEE6AE806FDE1000EF86E260EF76E97
:102AF00000019BEF13F009C501F50AC502F5000EB0
:102B0000036E24EC14F01200600E0001AD6F070E8E
:082B1000B16F400EB36F12001B
:020000040001F9
:04FFFC006EEF15F09F
:020000040030CA
:08000000FCFF3DDF9FFFFFFF45
:01000900FFF7
:00000001FF
