:04000000FEEFFFF020
:10F9F600003132334134353642373839432A3023E1
:10FA0600441F1F1F1F1F1F1F1F0506070805060788
:10FA16000810204080010204080C060309332E5604
:10FA2600657220686F726172696F732020202020D2
:10FA36002000342E5265672E2070617374696C6CD9
:10FA4600617320202020002A2E53616C6972206485
:10FA5600656C206D656E7520202020004E756576DC
:10FA66006120686F7261203A202078783A78782091
:10FA7600002120484F5241204445204C4120444F0C
:10FA86005349532021002D204544495441522048D2
:10FA96004F524152494F205F202D002D2D204E55AB
:10FAA60045564F20484F524152494F202D2D2D008B
:10FAB6002D2D2D204D495320484F524152494F5329
:10FAC600202D2D2D002D2D2D205B235D20564552FA
:10FAD600204D454E55202D2D2D002D2D2D2D2D2D16
:10FAE6002D2D2D2D2D2D2D2D2D2D2D2D2D2D002D6D
:10FAF6002D205245434152474120455849544F53C2
:10FB0600412D2D002D2D20484F524152494F205056
:10FB16004153542E205F2D2D002D204D4F44494634
:10FB26004943415220484F524152494F2D0050728D
:10FB360065706172616E646F2073697374656D615F
:10FB46002E2E005245472E2043414E542E20504122
:10FB56005354494C4C41530053656C656363696F5C
:10FB66006E652028312D34293A5B205D00455052C0
:10FB76004F4D206E6F20436F6E66696775726164C4
:10FB860061004D616C20466F726D61746F20646513
:10FB960020466563686100416C6572746120656E1C
:10FBA60020656C2053697374656D610053697374C5
:10FBB600656D6120656E206F7065726163696F6E39
:10FBC600004C6C616D6172204D616E74656E696D7D
:10FBD60069656E746F004E6F207365207075646F73
:10FBE6002064697370656E736172005B235D47758F
:10FBF60061726461723A205B2A5D53616C697200BE
:10FC0600312E4167722E486F722020322E4D6F645E
:10FC16002E486F720053696E20486F722E2052650F
:10FC2600676973747261646F73002020202020203E
:10FC360020202020202020202020202020200020DE
:10FC460053544F434B2050415354494C4C45524F0B
:10FC5600532000506173743A5B312D345D20566F2A
:10FC66006C7665723A2A00477561726461723A5B16
:10FC7600235D2053616C69723A2A00412073756DC9
:10FC8600617220202020202020203A203030004998
:10FC96006E677265736520686F726120283234481A
:10FCA600293A00417369676E6172207061737469E5
:10FCB6006C6C65726F3A00484F524152494F204171
:10FCC600435455414C495A41444F00456C65676958
:10FCD6007220486F726172696F3A205B205D00483E
:10FCE6006F72612061637475616C3A20205F5F3AC0
:10FCF6005F5F004D656D2E20446573636F6E6669A8
:10FD0600677572616461005B235D52657365746536
:10FD160061722053697374656D6100506173746913
:10FD26006C6C65726F20257520566163696F005B88
:10FD3600235D47756172646172205B2A5D53616C55
:10FD4600697200456E74726567616E646F3A205021
:10FD56006173742E2000486F726172696F7320613F
:10FD6600637469766F733A200052656769737472BB
:10FD760061722050617374696C6C61005B235D5322
:10FD8600656C65632E205B2A5D53616C6972002D7C
:10FD96002D205245434152474120504153542E2075
:10FDA6000053746F636B2061637475616C2020204F
:10FDB6003A200042544E2E20436F6E666967202D0E
:10FDC600204F4646004E756D65726F2028312D34E2
:10FDD600293A205B205D00506173742E20416374C4
:10FDE60075616C3A2020505F005265696E696369DF
:10FDF60061722053697374656D61004D6F64696645
:10FE06006963617220486F726172696F004E756531
:10FE1600766F20506173742E203A2020507800505F
:10FE2600617374696C6C617320646973703A200045
:10FE360042544E2E20436F6E666967202D204F4E2A
:10FE460000484F524152494F204755415244414480
:10FE56004F004932432073696E20636F6E6578697F
:10FE66006F6E005254432073696E20636F6E65781F
:10FE7600696F6E0053697374656D6120636F72728A
:10FE86006563746F004E6F206861792050617374EA
:10FE9600696C6C617300507265706172616E646F3B
:10FEA600204461746F7300457874726179656E647D
:10FEB6006F204461746F7300546F74616C206163CA
:10FEC6007475616C3A205B004F7063696F6E2049F0
:10FED6006E76616C696461004C6579656E646F204D
:10FEE6004D656D6F72696100416772656761722069
:10FEF600486F726172696F00436F6C6F6361722045
:10FF0600656C205661736F004E6F206861792048DA
:10FF16006F726172696F7300486F726172696F7395
:10FF2600206C6C656E6F73004461746F7320436F51
:10FF360072727570746F730020202020205B207809
:10FF4600783A7878205D00505F2061206C617320DC
:10FF56005F5F3A5F5F004F7063696F6E2044657341
:10FF6600656164610052544320646574656E69641A
:10FF76006F0056657220486F726172696F73005028
:10FF8600415354494C4C45524F20005D20202020BF
:10FF9600202050323A5B005D202020202020503463
:10FFA6003A5B0053656C656363696F6E6172005BF3
:10FFB6002A5D2053616C6972005B425D42616A6131
:10FFC60072005B415D5375626972002061206C614D
:10FFD6007320004F7063696F6E004C4953544F0095
:10FFE600615155490050313A5B0050333A5B00206D
:09FFF60050003062003078000078
:020000040001F9
:10000000000E3C6E000E3D6E000E3E6E000E3F6E0A
:100010000C6A010E0B6E76ECA8F00009D8A413EF61
:1000200080F015EF80F024EF80F0C3ECAAF0030E0F
:10003000156E020E3DECA6F00E0E146EFF0E156E40
:100040001FECA1F0C6EF84F00C6A010E0B6E76EC8B
:10005000A8F0556EC3ECAAF0000E156E010E3DEC33
:10006000A6F01F0E146EFB0E156E1FECA1F0000E15
:10007000156E020E3DECA6F05C0E146EFD0E156EB4
:100080001FECA1F0020E2E6E5550B3ECA8F0000E3E
:10009000156E030E3DECA6F0D10E146EFC0E156E1F
:1000A0001FECA1F0000E156E040E3DECA6F08C0EB8
:1000B000146EFD0E156E1FECA1F0566A6EEF80F007
:1000C0007A0E166E050E176E37ECA2F0566ED00E35
:1000D000396ECA0EE82EFED7392EFCD75650D8B44A
:1000E00074EF80F076EF80F060EF80F0B9EF80F091
:1000F000580E356E050E366EFAEC9DF0566AD4EF4A
:1001000080F0580E356E050E366E9FECA9F0C6EFE6
:1001100084F0580E356E050E366E9FECA9F05650E1
:10012000D00F416E110E156E030E3DECA6F0565029
:10013000E0ECA9F0150E3A6E4B0E396EBE0EE82EAD
:10014000FED7392EFCD73A2EFAD700D04150555C55
:10015000D8A0ADEF80F0AFEF80F078EF80F04150A5
:10016000D8A4B5EF80F0B7EF80F0D4EF80F078EF4F
:1001700080F05650230AD8B478EF80F0090AD8B43A
:1001800081EF80F06B0AD8B478EF80F0030AD8B41E
:1001900078EF80F0010AD8B478EF80F0070AD8B47D
:1001A00078EF80F089EF80F05650D8B4DAEF80F025
:1001B000DCEF80F05DEF80F0000E156E040E3DEC7C
:1001C000A6F0820E146EFD0E156E1FECA1F0566A9D
:1001D000F8EF80F07A0E166E050E176E37ECA2F06F
:1001E000566ED00E396ECA0EE82EFED7392EFCD7C9
:1001F0005650D8B4FEEF80F000EF81F0EAEF80F0C7
:100200001FEF81F0580E356E050E366E9FECA9F08B
:10021000150E3A6E4B0E396EBE0EE82EFED7392EF5
:10022000FCD73A2EFAD700D02AEF81F0580E356E5F
:10023000050E366EFAEC9DF0566A2AEF81F05650A4
:10024000230AD8B402EF81F0090AD8B481EF80F014
:1002500016EF81F05650D8B430EF81F032EF81F0D4
:10026000E7EF80F0C3ECAAF0000E156E010E3DEC36
:10027000A6F08C0E146EFA0E156E1FECA1F0110E86
:10028000156E010E3DECA6F0010E2E6E4150B3EC42
:10029000A8F0000E156E020E3DECA6F0E50E146EF1
:1002A000FC0E156E1FECA1F00E0E156E020E3DEC4D
:1002B000A6F04150050DF3C439F5F4C43AF5040E27
:1002C00039240B6E000E3A200C6E76ECA8F0556EB9
:1002D000020E2E6E5550B3ECA8F0110E156E020EE4
:1002E0003DECA6F04150050DF3C439F5F4C43AF5E0
:1002F000050E39240B6E000E3A200C6E76ECA8F039
:10030000556E020E2E6E5550B3ECA8F0000E156E11
:10031000030E3DECA6F0620E146EFA0E156E1FEC85
:10032000A1F00C0E156E040E3DECA6F08C0E146EB2
:10033000FD0E156E1FECA1F0406A030E4064A3EFA2
:1003400081F0A5EF81F0A7EF81F0A2EF82F0566A6D
:10035000B8EF81F07A0E166E050E176E37ECA2F02C
:10036000566ED00E396ECA0EE82EFED7392EFCD747
:100370005650D8B4BEEF81F0C0EF81F0AAEF81F003
:100380007CEF82F0580E356E050E366EFAEC9DF05D
:10039000566A97EF82F0580E356E050E366E9FEC5A
:1003A000A9F0020E4060D7EF81F0D9EF81F0E1EFC4
:1003B00081F040500E0F156E030E3DECA6F0E7EFF6
:1003C00081F040500F0F156E030E3DECA6F0565015
:1003D000E0ECA9F0150E3A6E4B0E396EBE0EE82E0B
:1003E000FED7392EFCD73A2EFAD700D03C0E402447
:1003F000D96EDA6A050EDA225650D00FDF6E6DEF35
:1004000082F03C0E4024D96EDA6A050EDA22020E22
:10041000DF640DEF82F00FEF82F097EF82F0580E5D
:10042000356E050E366EFAEC9DF00E0E156E030E4F
:100430003DECA6F0FC0E146EFF0E156E1FECA1F045
:10044000C8EF81F0020E3C18D8A429EF82F02BEF00
:1004500082F097EF82F03C0E4024D96EDA6A050EE6
:10046000DA22030EDF6437EF82F039EF82F097EF84
:1004700082F0580E356E050E366EFAEC9DF00F0EBA
:10048000156E030E3DECA6F0FC0E146EFF0E156EFD
:100490001FECA1F0C8EF81F03C0E4024D96EDA6A5F
:1004A000050EDA22050EDF6458EF82F05AEF82F073
:1004B00097EF82F0580E356E050E366EFAEC9DF011
:1004C000110E156E030E3DECA6F0FC0E146EFF0E21
:1004D000156E1FECA1F0C8EF81F04050000AD8B4AF
:1004E00001EF82F0010AD8B422EF82F0030AD8B4F7
:1004F0004CEF82F097EF82F05650230AD8B4C2EF47
:1005000081F0090AD8B481EF80F06B0AD8B4C2EF49
:1005100081F0030AD8B4C2EF81F0010AD8B4C2EF67
:1005200081F0070AD8B4C2EF81F0CBEF81F05650CA
:10053000D8B49DEF82F09FEF82F0A7EF81F0402AC0
:100540009DEF81F0000E156E040E3DECA6F0350E09
:10055000146EFD0E156E1FECA1F0566ABEEF82F010
:100560007A0E166E050E176E37ECA2F0566ED00E90
:10057000396ECA0EE82EFED7392EFCD75650D8B4A5
:10058000C4EF82F0C6EF82F0B0EF82F0E5EF82F0C8
:10059000580E356E050E366E9FECA9F0150E3A6EAC
:1005A0004B0E396EBE0EE82EFED7392EFCD73A2EF2
:1005B000FAD700D0F0EF82F0580E356E050E366E89
:1005C000FAEC9DF0566AF0EF82F05650230AD8B448
:1005D000C8EF82F0090AD8B481EF80F0DCEF82F036
:1005E0005650D8B4F6EF82F0F8EF82F0ADEF82F01B
:1005F000C3ECAAF0000E156E010E3DECA6F08C0EB9
:10060000146EFA0E156E1FECA1F0110E156E010E90
:100610003DECA6F0010E2E6E4150B3ECA8F0000E9A
:10062000156E020E3DECA6F0DD0E146EFD0E156E7D
:100630001FECA1F0100E156E020E3DECA6F041501D
:10064000050DF3C439F5F4C43AF5080E39240B6EE0
:10065000000E3A200C6E76ECA8F0556E010E2E6E50
:100660005550B3ECA8F0000E156E030E3DECA6F04D
:10067000130E146EFE0E156E1FECA1F0000E156E1B
:10068000040E3DECA6F0590E146EFC0E156E1FEC18
:10069000A1F0566A5AEF83F07A0E166E050E176EA9
:1006A00037ECA2F0566ED00E396ECA0EE82EFED789
:1006B000392EFCD75650D8B460EF83F062EF83F048
:1006C0004CEF83F086EF83F05650D00F3B6E100E48
:1006D000156E030E3DECA6F05650E0ECA9F0150E99
:1006E0003A6E4B0E396EBE0EE82EFED7392EFCD771
:1006F0003A2EFAD700D09DEF83F0580E356E050ED6
:10070000366EFAEC9DF0566A9DEF83F056502A0A39
:10071000D8B481EF80F01B0AD8B464EF83F0030AE9
:10072000D8B464EF83F0010AD8B464EF83F0070A09
:10073000D8B464EF83F07DEF83F05650D8B4A3EFC4
:1007400083F0A5EF83F049EF83F0000E156E040EE1
:100750003DECA6F0350E146EFD0E156E1FECA1F0EB
:10076000566AC1EF83F07A0E166E050E176E37ECDF
:10077000A2F0566ED00E396ECA0EE82EFED7392E74
:10078000FCD75650D8B4C7EF83F0C9EF83F0B3EF6E
:1007900083F0E8EF83F0580E356E050E366E9FEC51
:1007A000A9F0150E3A6E4B0E396EBE0EE82EFED72E
:1007B000392EFCD73A2EFAD700D0F3EF83F0580E3B
:1007C000356E050E366EFAEC9DF0566AF3EF83F047
:1007D0005650230AD8B4CBEF83F0090AD8B481EF7E
:1007E00080F0DFEF83F05650D8B4F9EF83F0FBEFE1
:1007F00083F0B0EF83F04150050DF3C439F5F4C434
:100800003AF5040E39240E6E000E3A200F6E3C505D
:100810000A0DF3503D24106E3FECA9F04150050D38
:10082000F3C439F5F4C43AF5050E39240E6E000E02
:100830003A200F6E3E500A0DF3503F24106E3FECED
:10084000A9F04150050DF3C439F5F4C43AF5080E8A
:1008500039240E6E000E3A200F6E3BC510F53FECAA
:10086000A9F04150050DF3C439F5F4C43AF5060E6C
:1008700039240E6E000E3A200F6E000E106E3FEC03
:10088000A9F0C3ECAAF0000E156E010E3DECA6F027
:10089000E00E146EFA0E156E1FECA1F0010E156E2F
:1008A000020E3DECA6F0BD0E146EFC0E156E1FEC94
:1008B000A1F0020E156E030E3DECA6F04D0E146E67
:1008C000FF0E156E1FECA1F0030E156E030E3DEC2E
:1008D000A6F04150050DF3C439F5F4C43AF5080EFD
:1008E00039240B6E000E3A200C6E76ECA8F0556E93
:1008F000010E2E6E5550B3ECA8F00B0E156E030EC4
:100900003DECA6F04150050DF3C439F5F4C43AF5B9
:10091000040E39240B6E000E3A200C6E76ECA8F013
:10092000556E020E2E6E5550B3ECA8F00E0E156EDD
:10093000030E3DECA6F04150050DF3C439F5F4C4A7
:100940003AF5050E39240B6E000E3A200C6E76EC4B
:10095000A8F0556E020E2E6E5550B3ECA8F0000EA6
:10096000156E040E3DECA6F0E00E146EFA0E156E38
:100970001FECA1F0520E3A6E2B0E396E000EE82ECF
:10098000FED7392EFCD73A2EFAD700D01200000E2F
:100990003B6E000E3C6E000E3D6E000E3E6E0C6A0D
:1009A000010E0B6E76ECA8F0396E050E3964DBEFA4
:1009B00084F0DDEF84F0ECEF84F0C3ECAAF0030EDA
:1009C000156E020E3DECA6F01E0E146EFF0E156E97
:1009D0001FECA1F0BEEF87F00C6A010E0B6E76ECF7
:1009E000A8F0406EC3ECAAF0000E156E010E3DECAF
:1009F000A6F0A10E146EFA0E156E1FECA1F0000EFB
:100A0000156E020E3DECA6F0A90E146EFC0E156ECE
:100A10001FECA1F0000E156E030E3DECA6F0CB0E00
:100A2000146EFD0E156E1FECA1F00B0E156E040E6C
:100A30003DECA6F0B50E146EFF0E156E1FECA1F086
:100A4000566A31EF85F07A0E166E050E176E37EC8A
:100A5000A2F0566ED00E396ECA0EE82EFED7392E91
:100A6000FCD75650D8B437EF85F039EF85F023EF37
:100A700085F06BEF85F0580E356E050E366E9FECE7
:100A8000A9F05650D00F3F6E0F0E156E030E3DECC1
:100A9000A6F05650E0ECA9F0150E3A6E4B0E396EEA
:100AA000BE0EE82EFED7392EFCD73A2EFAD700D04C
:100AB00082EF85F0580E356E050E366E9FECA9F06C
:100AC000BEEF87F0580E356E050E366EFAEC9DF0CF
:100AD000566A82EF85F056502A0AD8B45AEF85F04C
:100AE0001B0AD8B43BEF85F0030AD8B43BEF85F07E
:100AF000010AD8B43BEF85F0070AD8B43BEF85F084
:100B000062EF85F05650D8B488EF85F08AEF85F013
:100B100020EF85F0C3ECAAF0000E156E010E3DEC3F
:100B2000A6F00A0E146EFB0E156E1FECA1F0110E4E
:100B3000156E010E3DECA6F0010E2E6E3F50B3EC8B
:100B4000A8F0000E156E020E3DECA6F0950E146E88
:100B5000FC0E156E1FECA1F0000E156E030E3DECA1
:100B6000A6F03E0E146EFF0E156E1FECA1F00B0EDC
:100B7000156E040E3DECA6F0B50E146EFF0E156E4C
:100B80001FECA1F0416A566AD4EF85F07A0E166E1A
:100B9000050E176E37ECA2F0566ED00E396ECA0EE7
:100BA000E82EFED7392EFCD75650D8B4DAEF85F0B0
:100BB000DCEF85F0C6EF85F098EF86F0580E356EC5
:100BC000050E366EFAEC9DF0566AB3EF86F0580EBD
:100BD000356E050E366E9FECA9F0020E4160F3EF04
:100BE00085F0F5EF85F0FDEF85F04150070F156EAC
:100BF000030E3DECA6F003EF86F04150080F156E92
:100C0000030E3DECA6F05650E0ECA9F0150E3A6E3E
:100C10004B0E396EBE0EE82EFED7392EFCD73A2E7B
:100C2000FAD700D03B0E4124D96EDA6A050EDA22DB
:100C30005650D00FDF6E89EF86F03B0E4124D96EFF
:100C4000DA6A050EDA22020EDF6429EF86F02BEF56
:100C500086F0B3EF86F0580E356E050E366EFAEC60
:100C60009DF0070E156E030E3DECA6F0FC0E146E03
:100C7000FF0E156E1FECA1F0E4EF85F0020E3B189D
:100C8000D8A445EF86F047EF86F0B3EF86F03B0E31
:100C90004124D96EDA6A050EDA22030EDF6453EFBF
:100CA00086F055EF86F0B3EF86F0580E356E050EE0
:100CB000366EFAEC9DF0080E156E030E3DECA6F0B4
:100CC000FC0E146EFF0E156E1FECA1F0E4EF85F024
:100CD0003B0E4124D96EDA6A050EDA22050EDF6476
:100CE00074EF86F076EF86F0B3EF86F0580E356E2F
:100CF000050E366EFAEC9DF00A0E156E030E3DECF5
:100D0000A6F0FC0E146EFF0E156E1FECA1F0E4EFC2
:100D100085F04150000AD8B41DEF86F0010AD8B41E
:100D20003EEF86F0030AD8B468EF86F0B3EF86F0A2
:100D30005650230AD8B4DEEF85F0090AD8B45AEF2A
:100D400085F06B0AD8B4DEEF85F0030AD8B4DEEF85
:100D500085F0010AD8B4DEEF85F0070AD8B4DEEFDB
:100D600085F0E7EF85F05650D8B4B9EF86F0BBEFC9
:100D700086F0C3EF85F0412A030E4164C2EF86F08E
:100D8000C4EF86F0C3EF85F0000E156E040E3DEC47
:100D9000A6F0F10E146EFB0E156E1FECA1F0566A54
:100DA000E0EF86F07A0E166E050E176E37ECA2F0A5
:100DB000566ED00E396ECA0EE82EFED7392EFCD7ED
:100DC0005650D8B4E6EF86F0E8EF86F0D2EF86F022
:100DD000FBEF86F0580E356E050E366E9FECA9F0CF
:100DE00006EF87F0580E356E050E366EFAEC9DF064
:100DF000566A06EF87F05650230AD8B4EAEF86F019
:100E0000090AD8B45AEF85F0F2EF86F05650D8B4FC
:100E10000CEF87F00EEF87F0CFEF86F04050050D16
:100E2000F3C439F5F4C43AF5090E39240E6E000EF8
:100E30003A200F6E3B500A0DF3503C24106E3FECED
:100E4000A9F04050050DF3C439F5F4C43AF50A0E83
:100E500039240E6E000E3A200F6E3D500A0DF350ED
:100E60003E24106E3FECA9F04050050DF3C439F557
:100E7000F4C43AF50D0E39240E6E000E3A200F6EB2
:100E80003FC510F53FECA9F00F6A010E0E6E402829
:100E9000106E3FECA9F0C3ECAAF0000E156E010E27
:100EA0003DECA6F0E00E146EFA0E156E1FECA1F0EC
:100EB000020E156E020E3DECA6F0470E146EFE0EED
:100EC000156E1FECA1F0030E156E030E3DECA6F09F
:100ED000F60E146EFF0E156E1FECA1F0010E2E6EB5
:100EE0003F50B3ECA8F0D10E146EFF0E156E1FEC40
:100EF000A1F04050050DF3C439F5F4C43AF5090EDC
:100F000039240B6E000E3A200C6E76ECA8F0556E6C
:100F1000020E2E6E5550B3ECA8F0A70E146EFC0E08
:100F2000156E1FECA1F04050050DF3C439F5F4C463
:100F30003AF50A0E39240B6E000E3A200C6E76EC50
:100F4000A8F0556E020E2E6E5550B3ECA8F0000EB0
:100F5000156E040E3DECA6F0E00E146EFA0E156E42
:100F60001FECA1F0520E3A6E2B0E396E000EE82ED9
:100F7000FED7392EFCD73A2EFAD700D01200C3EC98
:100F8000AAF0060E156E010E3DECA6F07C0E146E56
:100F9000FF0E156E1FECA1F0000E156E030E3DEC5A
:100FA000A6F0DE0E146EFE0E156E1FECA1F00C6A9C
:100FB000010E0B6E76ECA8F0556E000E236E040E3B
:100FC00071ECA7F0000E156E030E3DECA6F095EC4B
:100FD000AAF0020E156E030E3DECA6F0AD0E146ED7
:100FE000FE0E156E1FECA1F0040E236E040E71ECC4
:100FF000A7F05528D8B4FFEF87F001EF88F009EF8C
:1010000088F0060E556407EF88F009EF88F02DEFA1
:1010100088F0080E236E040E71ECA7F0000E156E1A
:10102000030E3DECA6F095ECAAF0020E156E030E31
:101030003DECA6F02E0E146EFF0E156E1FECA1F007
:101040003D0E3A6EE10E396E400EE82EFED7392E77
:10105000FCD73A2EFAD7C5EF89F05550D8A433EF14
:1010600088F035EF88F04EEF88F0080E236E040EFE
:1010700071ECA7F0000E156E030E3DECA6F095EC9A
:10108000AAF0000E156E030E3DECA6F01B0E146EBA
:10109000FC0E156E1FECA1F020EF88F0000E156E0F
:1010A000030E3DECA6F095ECAAF0020E156E030EB1
:1010B0003DECA6F09C0E146EFE0E156E1FECA1F01A
:1010C000080E236E040E71ECA7F00C0E236E040EB6
:1010D00071ECA7F055C541F5426AFF0E4124016E3F
:1010E000026AFF0E0222046A030E036E9AEC9DF060
:1010F00001503F6EC3ECAAF0000E156E010E3DECE0
:10110000A6F0B60E146EFA0E156E1FECA1F02BEFC2
:1011100089F0030E41648FEF88F091EF88F095EF2E
:1011200088F0030E406E97EF88F041C540F5436AA2
:10113000C8EF88F0000E156E4350020F3DECA6F08C
:101140004350050DF3C439F5F4C43AF5090E3924BA
:10115000306E000E3A20316E4350050DF3C43BF55E
:10116000F4C43CF50A0E3B24326E000E3C20336E74
:101170004350050DF3C43DF5F4C43EF50D0E3D247A
:10118000346E000E3E20356E432879ECA2F0432ADF
:101190004050435CD8A0CFEF88F0D1EF88F09AEFB1
:1011A00088F036EF89F0FD0E4124396E3A6AFF0E61
:1011B0003A223ABEE5EF88F03A5009E1040E395C74
:1011C000D8A0E5EF88F0E7EF88F0EBEF88F0030EAA
:1011D000406EEEEF88F04150FD0F406E446A20EF04
:1011E00089F0000E156E4450020F3DECA6F04450FD
:1011F000050DF3C439F5F4C43AF5180E3924306EF0
:10120000000E3A20316E4450050DF3C43BF5F4C492
:101210003CF5190E3B24326E000E3C20336E4450D8
:10122000050DF3C43DF5F4C43EF51C0E3D24346EAB
:10123000000E3E20356E4450040F79ECA2F0442A93
:101240004050445CD8A027EF89F029EF89F0F1EFF6
:1012500088F036EF89F04250000AD8B489EF88F060
:10126000010AD8B4D3EF88F036EF89F04250D8B4F1
:101270003CEF89F03EEF89F049EF89F00C0E156ED6
:10128000020E3DECA6F0C80E146EFF0E156E1FEC9C
:10129000A1F03F50425CD8B050EF89F052EF89F096
:1012A0005DEF89F00C0E156E040E3DECA6F0BF0E3E
:1012B000146EFF0E156E1FECA1F00C0E156E030ED2
:1012C0003DECA6F08C0E146EFD0E156E1FECA1F019
:1012D000566A79EF89F07A0E166E050E176E37ECA6
:1012E000A2F0566ED00E396ECA0EE82EFED7392EF9
:1012F000FCD75650D8B47FEF89F081EF89F06BEFBF
:1013000089F0B6EF89F0580E356E050E366E9FECFB
:10131000A9F04250D8B48FEF89F091EF89F07AEFBD
:1013200088F042067AEF88F0580E356E050E366E5C
:101330009FECA9F03F50425CD8B0A1EF89F0A3EF39
:1013400089F07AEF88F0422A7AEF88F0580E356EED
:10135000050E366E9FECA9F0C5EF89F0580E356E7C
:10136000050E366EFAEC9DF07AEF88F056502A0A98
:10137000D8B4A6EF89F06B0AD8B483EF89F0030ADA
:10138000D8B494EF89F0AEEF89F012003C6AC3EC58
:10139000AAF0010E156E010E3DECA6F0490E146E7A
:1013A000FB0E156E1FECA1F0000E156E030E3DEC4A
:1013B000A6F0DE0E146EFE0E156E1FECA1F00C6A88
:1013C000020E0B6E76ECA8F0556E000E236E040E26
:1013D00071ECA7F0000E156E030E3DECA6F095EC37
:1013E000AAF0000E156E030E3DECA6F0AD0E146EC5
:1013F000FE0E156E1FECA1F0040E236E040E71ECB0
:10140000A7F05528D8A407EF8AF009EF8AF02DEF4E
:101410008AF0080E236E040E71ECA7F0000E156E14
:10142000030E3DECA6F095ECAAF0020E156E030E2D
:101430003DECA6F02E0E146EFF0E156E1FECA1F003
:101440003D0E3B6EE10E3A6E400EE82EFED73A2E70
:10145000FCD73B2EFAD7B0EF8BF0000E156E030EC3
:101460003DECA6F095ECAAF0000E156E030E3DECD7
:10147000A6F0250E146EFE0E156E1FECA1F0020EE6
:101480002E6E5550B3ECA8F0080E236E040E71ECCE
:10149000A7F0000E156E030E3DECA6F095ECAAF039
:1014A000000E156E030E3DECA6F0340E146EFB0E0E
:1014B000156E1FECA1F00C0E236E040E71ECA7F05C
:1014C000C3ECAAF0000E156E010E3DECA6F0450E21
:1014D000146EFC0E156E1FECA1F0000E156E020EC0
:1014E0003DECA6F0EB0E146EFF0E156E1FECA1F096
:1014F0000C6A050E0B6E76ECA8F0556E020E2E6E81
:101500005550B3ECA8F0910E146EFF0E156E1FEC43
:10151000A1F00C6A060E0B6E76ECA8F0556E020E6A
:101520002E6E5550B3ECA8F0DB0E146EFD0E156E4A
:101530001FECA1F0000E156E030E3DECA6F0F00EB0
:10154000146EFF0E156E1FECA1F00C6A070E0B6EE9
:1015500076ECA8F0556E020E2E6E5550B3ECA8F046
:101560009D0E146EFF0E156E1FECA1F00C6A080E96
:101570000B6E76ECA8F0556E020E2E6E5550B3EC45
:10158000A8F0DB0E146EFD0E156E1FECA1F0000E20
:10159000156E040E3DECA6F05E0E146EFB0E156E7D
:1015A0001FECA1F0566AE3EF8AF07A0E166E050E74
:1015B000176E37ECA2F0566ED00E3A6ECA0EE82EB9
:1015C000FED73A2EFCD75650D8B4E9EF8AF0EBEFAD
:1015D0008AF0D5EF8AF023EF8BF0580E356E050EAA
:1015E000366E9FECA9F05650D00F3D6E120E156E60
:1015F000040E3DECA6F05650E0ECA9F0030E3B6E55
:10160000080E3A6E770EE82EFED73A2EFCD73B2E08
:10161000FAD700003D5001EC9CF036EF8BF0580EED
:10162000356E050E366EFAEC9DF0120E156E040E38
:101630003DECA6F09F0E146EFA0E156E1FECA1F095
:10164000566A36EF8BF05650310AD8B4EDEF8AF077
:10165000030AD8B4EDEF8AF0010AD8B4EDEF8AF0AE
:10166000070AD8B4EDEF8AF00FEF8BF05650D8B4DC
:101670003CEF8BF03EEF8BF0D2EF8AF0566A4FEFE3
:101680008BF07A0E166E050E176E37ECA2F0566EC2
:10169000D00E3A6ECA0EE82EFED73A2EFCD7565020
:1016A000D8B455EF8BF057EF8BF041EF8BF095EFFF
:1016B0008BF0580E356E050E366EFAEC9DF03EEF4F
:1016C0008BF0580E356E050E366E9FECA9F0B0EF1C
:1016D0008BF0580E356E050E366E36EC9DF03CC51F
:1016E00030F53D50F2EC98F0090E3B6E1E0E3A6E4E
:1016F000E40EE82EFED73A2EFCD73B2EFAD700D0C8
:10170000B0EF8BF0580E356E050E366E9FECA9F0DB
:101710005650D00F3C6E120E156E030E3DECA6F027
:101720005650E0ECA9F03EEF8BF05650230AD8B4A7
:1017300069EF8BF0090AD8B461EF8BF06B0AD8B46B
:1017400059EF8BF0030AD8B459EF8BF0010AD8B4E3
:1017500059EF8BF0070AD8B459EF8BF082EF8BF07A
:1017600012000501CB6B910E016E060E026E4EEC5F
:10177000A7F00009D8B4BFEF8BF0C1EF8BF0CCEF2E
:101780008BF0FE0E396EFE0E3A6E020E3B6E1CECB6
:1017900092F0010E0501CB6F0501D06B0BEF8CF0C1
:1017A000D0513E24D96E000E3F20DA6EDF50416EDC
:1017B000040E41240B6E0C6A000E0C2276ECA8F08D
:1017C0000009D8A4E6EF8BF0E8EF8BF009EF8CF07E
:1017D000B40E216E050E226E210E236EFD0E246EB8
:1017E0000501D0513E24D96E000E3F20DA6EDF5045
:1017F000416E4150256E266A06ECA7F0B40E396E94
:10180000050E3A6E020E3B6E1CEC92F0010E0501C5
:10181000CB6F0501D02B4050D05DD8A012EF8CF0DB
:1018200014EF8CF0D0EF8BF0CB51D8A41AEF8CF0E2
:101830001CEF8CF099EF8DF0C3ECAAF0000E156E42
:10184000020E3DECA6F0770E146EFA0E156E1FEC2C
:10185000A1F0580E086E050E096EAFECAAF0050156
:10186000D16B90EF8DF0C96B000E156E030E3DEC41
:10187000A6F0490E146EFD0E156E1FECA1F0010EC0
:101880002E6E0501D1513E24D96E000E3F20DA6E36
:10189000DF50B3ECA8F0040E0501CA6FCD6B000E4B
:1018A000CC6F9BEF8CF0AE0E016E050E026E67ECF6
:1018B000A1F001C5CEF502C5CFF5940E096E050E57
:1018C0000A6E13ECA4F0B4EF8CF0A80E016E050EB6
:1018D000026E67ECA1F001C5CEF502C5CFF58C0E06
:1018E000096E050E0A6E13ECA4F0B4EF8CF0A20E94
:1018F000016E050E026E67ECA1F001C5CEF502C5C2
:10190000CFF5840E096E050E0A6E13ECA4F0B4EF49
:101910008CF09C0E016E050E026E67ECA1F001C505
:10192000CEF502C5CFF5890E096E060E0A6E13ECD0
:10193000A4F0B4EF8CF0D1513E24D96E000E3F20BC
:10194000DA6EDF50010AD8B453EF8CF0030AD8B432
:1019500065EF8CF0010AD8B477EF8CF0070AD8B4A1
:1019600089EF8CF0B4EF8CF0000E156E040E3DEC98
:10197000A6F0CEC517F5CFC518F50AEC97F0E90E1D
:101980000501CE5D030ECF59D8A0C9EF8CF0CBEF87
:101990008CF0E8EF8CF0940E096E050E0A6E9EEC4A
:1019A000AAF08C0E096E050E0A6E9EECAAF0840E4B
:1019B000096E050E0A6E9EECAAF0890E096E060EDF
:1019C0000A6E9EECAAF0010E0501C96FF3EF8CF0D0
:1019D000CC4BCD2B080ECD5DD8A0F1EF8CF0F3EF02
:1019E0008CF09BEF8CF0C951D8B4F9EF8CF0FBEF81
:1019F0008CF058EF8DF0D1513E24D96E000E3F206F
:101A0000DA6EDF50416E040E41240B6E0C6A000E3C
:101A10000C2276ECA8F0426E42040501C86FD15149
:101A20003E24D96E000E3F20DA6EDF50416E040E68
:101A300041240E6E0F6A000E0F22C8C510F53FEC50
:101A4000A9F00501D151050DF3C441F5F4C442F5E7
:101A50000B0E41240E6E000E42200F6E010E106E12
:101A60003FECA9F0580E356E050E366EB2ECA4F0C0
:101A70002E0E106E060E116E000E126EC80E136E34
:101A8000000E146EF5ECA9F0150E426E4B0E416E71
:101A9000BE0EE82EFED7412EFCD7422EFAD700D03C
:101AA0002E0E106E060E116E08ECAAF08EEF8DF061
:101AB000CA07580E356E050E366EFAEC9DF02E0EE6
:101AC000106E060E116EF00E126EC80E136E000E22
:101AD000146EF5ECA9F0150E426E4B0E416EBE0E63
:101AE000E82EFED7412EFCD7422EFAD700D02E0E7C
:101AF000106E060E116E08ECAAF00501CA51D8A4AA
:101B000084EF8DF086EF8DF04EEF8CF0DC0E396EA9
:101B1000FB0E3A6E030E3B6E1CEC92F00501D12BCE
:101B20004050D15DD8A097EF8DF099EF8DF033EF55
:101B30008CF01200566A09EF8FF0C3ECAAF0050E84
:101B4000156E020E3DECA6F0A90E146EFF0E156E7A
:101B50001FECA1F0030E156E030E3DECA6F05C0E1B
:101B6000146EFF0E156E1FECA1F0520E466E2B0E7A
:101B7000456E000EE82EFED7452EFCD7462EFAD72E
:101B800000D0C3ECAAF0000E156E010E3DECA6F0DD
:101B9000060E146EFC0E156E1FECA1F0000E156EF5
:101BA000020E3DECA6F0230E146EFA0E156E1FEC1D
:101BB000A1F0000E156E030E3DECA6F0380E146E6B
:101BC000FA0E156E1FECA1F0000E156E040E3DEC22
:101BD000A6F04D0E146EFA0E156E1FECA1F0486AB9
:101BE000000E476E7A0E166E050E176E37ECA2F0D9
:101BF000566E5650D8B4FFEF8DF001EF8EF0F4EF33
:101C00008EF0C3ECAAF0DDEF8EF0580E356E050EA7
:101C1000366E36EC9DF0070E156E010E3DECA6F00B
:101C2000D90E146EFF0E156E1FECA1F0020E156E8C
:101C3000020E3DECA6F0EE0E146EFE0E156E1FECBD
:101C4000A1F0520E466E2B0E456E000EE82EFED70A
:101C5000452EFCD7462EFAD700D0C7EC84F0F4EF1F
:101C60008EF0580E356E050E366E36EC9DF0070E72
:101C7000156E010E3DECA6F0D90E146EFF0E156E1A
:101C80001FECA1F0010E156E020E3DECA6F0010E48
:101C9000146EFE0E156E1FECA1F0520E466E2B0E4A
:101CA000456E000EE82EFED7452EFCD7462EFAD7FD
:101CB00000D000EC80F0F4EF8EF0580E356E050E7B
:101CC000366E36EC9DF0070E156E010E3DECA6F05B
:101CD000D90E146EFF0E156E1FECA1F0040E156EDA
:101CE000020E3DECA6F0780E146EFF0E156E1FEC82
:101CF000A1F0520E466E2B0E456E000EE82EFED75A
:101D0000452EFCD7462EFAD700D0BFEC87F0F4EF73
:101D10008EF0580E356E050E366E36EC9DF0070EC1
:101D2000156E010E3DECA6F0D90E146EFF0E156E69
:101D30001FECA1F0010E156E020E3DECA6F06F0E29
:101D4000146EFD0E156E1FECA1F0520E466E2B0E9A
:101D5000456E000EE82EFED7452EFCD7462EFAD74C
:101D600000D0C6EC89F0F4EF8EF0580E356E050EFB
:101D7000366E36EC9DF011EF8FF0580E356E050E75
:101D8000366E52EC9EF0020E156E020E3DECA6F081
:101D9000CE0E146EFE0E156E1FECA1F0150E466EE3
:101DA0004B0E456EBE0EE82EFED7452EFCD7462EB6
:101DB000FAD700D0566AF4EF8EF056502A0AD8B4FB
:101DC000B5EF8EF01B0AD8B405EF8EF0030AD8B435
:101DD00031EF8EF0010AD8B45DEF8EF0070AD8B467
:101DE00089EF8EF0BDEF8EF0680E456EE40EE82EA2
:101DF000FED7452EFCD700D0474A482AF40E475C50
:101E0000010E4858D8A007EF8FF009EF8FF0F2EFDE
:101E10008DF05650D8B40FEF8FF011EF8FF09DEF8B
:101E20008DF0120004500510D8A419EF8FF01BEFAD
:101E30008FF01EEF8FF0000E3EEF90F004C5D9F446
:101E400005C5DAF4DF507F0B096E20EE01F0045077
:101E5000D9260550DA22DF507F0B0A6E20EE04F0FF
:101E60000450D9260550DA22DF503F0B0B6E20EECE
:101E700005F00450D9260550DA22DF501F0B0C6EF6
:101E800020EE06F00450D9260550DA22DF50066E07
:101E900020EE03F00450D9260550DA22DF50070B5C
:101EA0000F6E20EE02F00450D9260550DA22DFAC86
:101EB0005CEF8FF05EEF8FF069EF8FF020EE02F0B5
:101EC0000450D9260550DA22DF501F0B106E72EF36
:101ED0008FF020EE02F00450D9260550DA22DF50B0
:101EE0003F0B106E0950D0ECA8F00009D8B47BEF7E
:101EF0008FF07DEF8FF01BEF8FF00A50D0ECA8F041
:101F00000009D8B486EF8FF088EF8FF01BEF8FF0C9
:101F10001050D0ECA8F00009D8B491EF8FF093EFF7
:101F20008FF01BEF8FF00B50D0ECA8F00009D8B465
:101F30009CEF8FF09EEF8FF01BEF8FF00C50D0ECEA
:101F4000A8F00009D8B4A7EF8FF0A9EF8FF01BEF2E
:101F50008FF00650D0ECA8F00009D8A4B2EF8FF0B3
:101F6000B4EF8FF0B6EF8FF01BEF8FF0095055EC08
:101F7000AAF0076E0A5055ECAAF0086E105055EC06
:101F8000AAF0116E0B5055ECAAF00D6E0C5055ECEA
:101F9000AAF00E6E3B0E0764D0EF8FF0D2EF8FF0F9
:101FA000D4EF8FF01BEF8FF03B0E0864DAEF8FF069
:101FB000DCEF8FF0DEEF8FF01BEF8FF020EE02F002
:101FC0000450D9260550DA22DFACE9EF8FF0EBEFB1
:101FD0008FF0FDEF8FF01150D8B4F1EF8FF0F3EFE9
:101FE0008FF01BEF8FF00C0E1164F9EF8FF0FBEF09
:101FF0008FF007EF90F01BEF8FF0170E116403EFD7
:1020000090F005EF90F007EF90F01BEF8FF00F507E
:10201000D8B40DEF90F00FEF90F01BEF8FF0070E9C
:102020000F6415EF90F017EF90F019EF90F01BEFA1
:102030008FF00D50D8B41FEF90F021EF90F01BEF10
:102040008FF01F0E0D6427EF90F029EF90F02BEF2B
:1020500090F01BEF8FF00E50D8B431EF90F033EFCB
:1020600090F01BEF8FF00C0E0E6439EF90F03BEF09
:1020700090F03DEF90F01BEF8FF0010E1200125028
:102080001310D8A446EF90F048EF90F04BEF90F08B
:10209000050E2DEF91F020EE08F01250D9261350C6
:1020A000DA22DF6A20EE09F01250D9261350DA2224
:1020B000DF6A20EE0AF01250D9261350DA22DF6AC6
:1020C00020EE0BF01250D9261350DA22DF6A170ED9
:1020D000106E050E116EB5ECA9F01E6E1E50D8B430
:1020E00074EF90F076EF90F079EF90F01E502DEFB6
:1020F00091F020EE08F01250D9261350DA2217AED4
:1021000084EF90F087EF90F0010E88EF90F0000ED2
:10211000DF6E20EE09F01250D9261350DA2219BCD6
:1021200094EF90F097EF90F0010E98EF90F0000E82
:10213000DF6E20EE09F01250D9261350DA22DF505C
:10214000D8B4A5EF90F0A7EF90F0C4EF90F020EE98
:102150000AF01250D9261350DA2219BAB2EF90F0D1
:10216000B5EF90F0010EB6EF90F0000EDF6E20EEAE
:1021700002F01250D9261350DA2219501F0B55ECD9
:10218000AAF0DF6ED6EF90F020EE0AF01250D926BA
:102190001350DA22DF6A20EE02F01250D9261350D3
:1021A000DA2219503F0B55ECAAF0DF6E17507F0B67
:1021B00055ECAAF012C5D9F413C5DAF4DF6E20EE9F
:1021C00001F01250D9261350DA2218507F0B55EC2B
:1021D000AAF0DF6E20EE03F01250D9261350DA2257
:1021E0001A50070BDF6E20EE04F01250D926135060
:1021F000DA221B503F0B55ECAAF0DF6E20EE05F003
:102200001250D9261350DA221C501F0B55ECAAF09D
:10221000DF6E1D5055ECAAF0146ED00E1424156E0E
:10222000166A070E162220EE06F01250D926135019
:10223000DA2215C5DEF416C5DDF4170E046E050EA0
:10224000056E12EC8FF0146E20EE0BF01250D926B2
:102250001350DA2214C5DFF4000E120021EE47F10C
:10226000050EDE6AE806FDE24E6A0C6A010E0B6E90
:1022700076ECA8F04D6E4F6A6E0E126E050E136E60
:102280003FEC90F005016D6F6D51D8A44AEF91F0CD
:102290004CEF91F05CEF91F07651D8B452EF91F0A1
:1022A00054EF91F05CEF91F07951D8A45AEF91F08E
:1022B0005CEF91F064EF91F0690E396EFE0E3A6EAC
:1022C000010E3B6E1CEC92F0010E506EF7EF91F098
:1022D0005050050DF3C443F5F4C444F5040E4324F3
:1022E0000B6E000E44200C6E76ECA8F00501701900
:1022F000D8A47DEF91F07FEF91F0CCEF91F05050AA
:10230000050DF3C443F5F4C444F5050E43240B6EE8
:10231000000E44200C6E76ECA8F005016F19D8A4CD
:1023200094EF91F096EF91F0CCEF91F05050050DB5
:10233000F3C443F5F4C444F5060E43240B6E000EBB
:1023400044200C6E76ECA8F00009D8A4AAEF91F016
:10235000ACEF91F0F6EF91F0FF0E5024436E446A1B
:10236000FF0E4422470E4324D96E050E4420DA6E38
:102370005050050DF3C445F5F4C446F5080E452448
:102380000B6E000E46200C6E76ECA8F0DF6E4E2A27
:10239000010E4F6EF6EF91F00F6A0B0E0E6E000EEF
:1023A000106E3FECA9F00F6A100E0E6E000E106E4C
:1023B0003FECA9F00F6A150E0E6E000E106E3FEC8A
:1023C000A9F00F6A1A0E0E6E000E106E3FECA9F007
:1023D0000F6A1F0E0E6E000E106E3FECA9F00F6A12
:1023E000240E0E6E000E106E3FECA9F0502A5050D5
:1023F0004D5CD8B0FEEF91F000EF92F068EF91F0F5
:10240000000E156E020E3DECA6F0E60E146EFF0EE9
:10241000156E1FECA1F04F50D8B411EF92F013EFEE
:1024200092F01BEF92F0470E3E6E050E3F6E4EC5CA
:1024300040F5B1EC8BF01200C3ECAAF0000E156E63
:10244000020E3DECA6F09D0E146EFB0E156E1FECF9
:10245000A1F0000E156E030E3DECA6F039C514F583
:102460003AC515F51FECA1F09BEF92F02E0E106E01
:10247000060E116EC80E126E000E136E000E146E54
:10248000F5ECA9F0580E356E050E366E52EC9EF046
:10249000AAEF92F02E0E106E060E116EFA0E126E4C
:1024A000C80E136E000E146EF5ECA9F0580E356EC2
:1024B000050E366EFAEC9DF0520E3D6E2B0E3C6E04
:1024C000000EE82EFED73C2EFCD73D2EFAD700D0CA
:1024D0002E0E106E060E116E08ECAAF009EF93F0A6
:1024E0002E0E106E060E116EFA0E126EC80E136EC0
:1024F000000E146EF5ECA9F0580E356E050E366E12
:10250000FAEC9DF0000E156E040E3DECA6F0C70E21
:10251000146EFB0E156E1FECA1F0290E3D6E960E8B
:102520003C6E7F0EE82EFED73C2EFCD73D2EFAD710
:1025300000008DEF92F03B50010AD8B436EF92F0D4
:10254000030AD8B44AEF92F0010AD8B470EF92F0BF
:10255000AAEF92F07A0E3D6EC10E3C6E820EE82E0E
:10256000FED73C2EFCD73D2EFAD7C3ECAAF0000EC6
:10257000156E020E3DECA6F0EF0E146EFD0E156EFC
:102580001FECA1F0000E156E030E3DECA6F00D0E33
:10259000146EFD0E156E1FECA1F0566ADEEF92F080
:1025A0007A0E166E050E176E37ECA2F0566ED00E30
:1025B0003C6ECA0EE82EFED73C2EFCD75650D8B43F
:1025C000E4EF92F0E6EF92F0D0EF92F0FAEF92F0B3
:1025D000580E356E050E366E9FECA9F0FF0001EF28
:1025E00093F0580E356E050E366EFAEC9DF0566A75
:1025F00001EF93F05650230AD8B4E8EF92F0F1EFD0
:1026000092F05650D8B407EF93F009EF93F0CDEF66
:1026100092F012001C501D10D8A411EF93F013EF8C
:1026200093F015EF93F0F1EF93F0640E20641BEF3D
:1026300093F01DEF93F01FEF93F0640E206E400EA9
:102640000D6E420E0E6E0F0E0F6E000E106E1CC53C
:1026500011F51DC512F5136A146A50EC9FF00DC5F3
:102660002DF50EC52EF50FC52FF510C530F52050F0
:10267000016E026A036A046A2DC505F52EC506F5CA
:102680002FC507F530C508F549ECA4F001C50DF5D7
:1026900002C50EF503C50FF504C510F5640E116EE5
:1026A000000E126E000E136E000E146E50EC9FF0B2
:1026B0000DC531F50EC532F50FC533F510C534F52E
:1026C00031502D5C296E32502E582A6E33502F58BF
:1026D0002B6E345030582C6E1EC501F51FC502F507
:1026E000036A046AE80E056E030E066E000E076E9E
:1026F000000E086E49ECA4F001C50DF502C50EF5FB
:1027000003C50FF504C510F52DC511F52EC512F53D
:102710002FC513F530C514F550EC9FF00DC521F50C
:102720000EC522F50FC523F510C524F5000E256E44
:10273000000E266E000E276E000E286EDCEF93F062
:102740003150321033103410D8B4A9EF93F0ABEFFE
:1027500093F0BBEF93F01AC501F51BC502F52AEC07
:10276000A7F031C501F532C502F533C503F534C50F
:1027700004F571ECA9F029502A102B102C10D8B4B4
:10278000C4EF93F0C6EF93F0D6EF93F01AC501F5BE
:102790001BC502F5E1ECA6F029C501F52AC502F535
:1027A0002BC503F52CC504F571ECA9F0010E252607
:1027B000000E2622272228222150255C225026584E
:1027C0002350275824502858D8A0E9EF93F0EBEF76
:1027D00093F0A0EF93F01AC501F51BC502F5E1ECEB
:1027E000A6F012000CC5D9F40DC5DAF4DEC4F6F477
:1027F000DDC4F7F4000EF86E0800F550250AD8A4E1
:1028000004EF94F006EF94F0BAEF94F00CC5D9F40D
:102810000DC5DAF4DE2A000EDD220501616B000E23
:10282000606F60C56CF5626963690CC5D9F40DC54C
:10283000DAF4DEC412F5DDC413F512C5F6F413C5DF
:10284000F7F4000EF86E0800F550750AD8A42BEFC7
:1028500094F02DEF94F0B1EF94F00EC5D9F40FC5BC
:10286000DAF4DFC410F5020EDE26DFC411F5000E27
:10287000DD2210C5D9F411C5DAF4DEC414F5DDC4C7
:1028800015F5010E1224106E000E1320116E0CC5EA
:10289000D9F40DC5DAF410C5DEF411C5DDF4A3EFEB
:1028A00094F0200E186E1806000E1824D96EDA6AFD
:1028B000060EDA2214C501F515C502F5046A0A0EE2
:1028C000036EB2ECA5F00150300FDF6E14C501F5B8
:1028D00015C502F5046A0A0E036E6AECA3F001C581
:1028E00014F502C515F514501510D8B47AEF94F00C
:1028F0007CEF94F098EF94F01850D8A482EF94F005
:1029000084EF94F053EF94F098EF94F0000E1824B5
:10291000D96EDA6A060EDA22DF50106E1050016EA0
:10292000026A0AC503F50BC504F5D1EC9CF0182A20
:10293000200E1818D8A49FEF94F0A1EF94F086EF22
:1029400094F0D0EF94F012C5F6F413C5F7F4000E2E
:10295000F86E0800F550750AD8B451EF94F0B1EF55
:1029600094F00CC5D9F40DC5DAF4DE2A000EDD2290
:10297000D0EF94F00CC5D9F40DC5DAF4DEC4F6F44A
:10298000DDC4F7F4000EF86E0800F550016E026A1F
:102990000AC503F50BC504F5D1EC9CF0B1EF94F03A
:1029A00012002550D8B4D7EF94F0D9EF94F0EAEFA5
:1029B00094F0060E2560DFEF94F0E1EF94F0EAEF7B
:1029C00094F02550265CD8A0E8EF94F0EAEF94F05C
:1029D000EDEF94F0050EA6EF95F0010E296E000EB6
:1029E0002A6E000E2B6E000E2C6E010E286E14EF58
:1029F00095F029C501F52AC502F52BC503F52CC5AF
:102A000004F50A0E056E000E066E000E076E000E2F
:102A1000086E49ECA4F001C529F502C52AF503C5E5
:102A20002BF504C52CF5282A2550285CD8A01BEFCF
:102A300095F01DEF95F0F9EF94F0286A9CEF95F072
:102A40002650D8B426EF95F028EF95F041EF95F099
:102A50002650255C2818D8A430EF95F032EF95F079
:102A600041EF95F02E0EE0ECA9F02D6E2D50D8B46C
:102A70003CEF95F03EEF95F041EF95F02D50A6EF2D
:102A800095F029C511F52AC512F52BC513F52CC5EE
:102A900014F523C50DF524C50EF50F6A106A50EC28
:102AA0009FF00DC51AF50EC51BF50FC51CF510C519
:102AB0001DF50A0E1E6E000E1F6E000E206E000E1B
:102AC000216EAFECA1F01A50276E2750300FE0ECCA
:102AD000A9F02D6E2D50D8B470EF95F072EF95F0EF
:102AE00074EF95F03EEF95F02C502B102A1009E171
:102AF000020E295CD8A07FEF95F081EF95F09BEF57
:102B000095F029C50DF52AC50EF52BC50FF52CC579
:102B100010F50A0E116E000E126E000E136E000EEE
:102B2000146E50EC9FF00DC529F50EC52AF50FC5A2
:102B30002BF510C52CF5282A2550285CD8A0A3EF2A
:102B400095F0A5EF95F020EF95F0000E1200030E22
:102B5000166E080E156E770EE82EFED7152EFCD7D2
:102B6000162EFAD70000080E5F6E040E0501FA6FEC
:102B70005F50A7ECAAF0176E1750D8B4C2EF95F0CB
:102B8000C4EF95F0C6EF95F05DEF96F0340E156E3C
:102B9000F20EE82EFED7152EFCD7000E096E300E71
:102BA000F6ECA7F0176E1750D8B4D9EF95F0DBEF1D
:102BB00095F0DDEF95F05DEF96F0340E156EF20EA8
:102BC000E82EFED7152EFCD7000E096E300EF6EC5F
:102BD000A7F0176E1750D8B4F0EF95F0F2EF95F01C
:102BE000F4EF95F05DEF96F0F00E00D0E82EFDD7F3
:102BF000000E096E300EF6ECA7F0176E1750D8B421
:102C000004EF96F006EF96F008EF96F05DEF96F081
:102C1000F00E00D0E82EFDD7000E096E200EF6EC67
:102C2000A7F0176E1750D8B418EF96F01AEF96F079
:102C30001CEF96F05DEF96F0F00E00D0E82EFDD779
:102C4000280EE6ECA4F0176E1750D8B42AEF96F0D1
:102C50002CEF96F02EEF96F05DEF96F00501FA6BF3
:102C6000BDECAAF0176E1750D8B439EF96F03BEFD1
:102C700096F03DEF96F05DEF96F0C3ECAAF0176E7C
:102C80001750D8B446EF96F048EF96F04AEF96F01A
:102C90005DEF96F0060EE6ECA4F0176E1750D8B470
:102CA00054EF96F056EF96F058EF96F05DEF96F0F1
:102CB000040E0501FA6FBDECAAF012002EEC91F0A3
:102CC000000E156E020E3DECA6F0B20E146EFB0E59
:102CD000156E1FECA1F06E0E126E050E136E3FEC1A
:102CE00090F005016D6F6D51D8A479EF96F07BEFF0
:102CF00096F08BEF96F07651D8B481EF96F083EF93
:102D000096F08BEF96F07951D8A489EF96F08BEF7F
:102D100096F093EF96F0690E396EFE0E3A6E010E44
:102D20003B6E1CEC92F0000E156E020E3DECA6F010
:102D3000B20E146EFB0E156E1FECA1F0000E156E98
:102D4000040E3DECA6F0CB0E146EFA0E156E1FECC1
:102D5000A1F0000E156E030E3DECA6F095ECAAF066
:102D6000060E156E010E3DECA6F0020E2E6E05014C
:102D70007051B3ECA8F0A70E146EFC0E156E1FEC8C
:102D8000A1F0090E156E010E3DECA6F0020E2E6E9E
:102D900005016F51B3ECA8F0A70E146EFC0E156E72
:102DA0001FECA1F00C0E156E010E3DECA6F0020E0C
:102DB0002E6E05016E51B3ECA8F00B0E526E260E6E
:102DC000516E5E0EE82EFED7512EFCD7522EFAD74A
:102DD0007A0E166E050E176E37ECA2F0566ED00EF8
:102DE000516ECA0EE82EFED7512EFCD702EF97F097
:102DF000580E356E050E366E36EC9DF09AEC8DF061
:102E000009EF97F05650230AD8B4F8EF96F009EF7F
:102E100097F012002E6A000E2D6E18BE14EF97F078
:102E200012EF97F026EF97F02D0E216E2D4A2E2AE5
:102E300017C519F518C51AF5191E1A1E194A1A2AA6
:102E400019C52BF51AC52CF52AEF97F017C52BF5E8
:102E500018C52CF52B502C10D8A431EF97F033EF78
:102E600097F03FEF97F0210E2D24D96E050E2E20FE
:102E7000DA6E300EDF6E2D4A2E2AA3EF97F02A6A03
:102E8000000E296E65EF97F01B0E2924D96E050EF2
:102E90002A20DA6E2BC501F52CC502F5046A0A0E4C
:102EA000036EB2ECA5F00150300FDF6E294A2A2ADA
:102EB0002BC501F52CC502F5046A0A0E036E6AECF7
:102EC000A3F001C52BF502C52CF52B502C10D8B45E
:102ED0006CEF97F06EEF97F08EEF97F02ABE7AEFD7
:102EE00097F02A5009E1060E295CD8A07AEF97F0F6
:102EF0007CEF97F044EF97F08EEF97F01B0E2924AC
:102F0000D96E050E2A20DA6E210E2D24E16E050EF3
:102F10002E20E26EDFC4E7F42D4A2E2A2950196EC6
:102F20002A501A6E010E295E000E2A5A1ABEA3EF0D
:102F300097F01A5006E11904D8B0A1EF97F0A3EF6B
:102F400097F07EEF97F0210E2D24D96E050E2E20DE
:102F5000DA6EDF6A210E146E050E156E1FECA1F0FD
:102F6000120007C5D9F408C5DAF409C5DEF40AC5AC
:102F7000DDF420EE02F00750D9260850DA220BC506
:102F8000DEF40CC5DDF420EE04F00750D92608501D
:102F9000DA220DC5DEF40EC5DDF420EE06F0075092
:102FA000D9260850DA220FC5DEF410C5DDF420EE74
:102FB00008F00750D9260850DA2211C5DEF412C5F0
:102FC000DDF420EE06F00750D9260850DA22DEC4E0
:102FD00013F5DDC414F513C5D9F414C5DAF4DF6AAA
:102FE00020EE04F00750D9260850DA22DEC413F58B
:102FF000DDC414F513C5D9F414C5DAF410EE04F0E9
:103000000750E1260850E222E6C415F5E5C416F59E
:1030100015C5E1F416C5E2F4E750F00BDF6E20EEC3
:1030200004F00750D9260850DA22DEC413F5DDC4B7
:1030300014F513C5D9F414C5DAF410EE04F00750F2
:10304000E1260850E222E6C415F5E5C416F515C5DB
:10305000E1F416C5E2F4E750F009DF6E20EE08F067
:103060000750D9260850DA22DEC413F5DDC414F562
:1030700013C5D9F414C5DAF410EE08F00750E126B0
:103080000850E222E6C415F5E5C416F515C5E1F4CD
:1030900016C5E2F4E750F009DF6E07C501F508C573
:1030A00002F556ECA8F01200CA800401218120919B
:1030B000A2EC9FF083ECAAF024ECA9F009ECA9F0B3
:1030C00044ECA0F0CBECA9F049ECAAF0D2B06BEF45
:1030D00098F06DEF98F0C8EF98F0000E156E020EA4
:1030E0003DECA6F0360E146EFE0E156E1FECA1F030
:1030F000150E3F6E4B0E3E6EBE0EE82EFED73E2ED8
:10310000FCD73F2EFAD700D0406A40C50BF50C6AB9
:10311000000E0D6E68ECA6F0402A260E406493EF78
:1031200098F095EF98F085EF98F00C6A010E0B6E11
:10313000010E0D6E68ECA6F00C6A030E0B6E040E09
:103140000D6E68ECA6F00C6A020E0B6E040E0D6E8E
:1031500068ECA6F00C6A050E0B6E040E0D6E68ECA2
:10316000A6F00C6A090E0B6E0D0E0D6E68ECA6F043
:103170000C6A0A0E0B6E2F0E0D6E68ECA6F00C6A30
:103180000D0E0B6E010E0D6E68ECA6F0F1EF98F0CF
:10319000000E156E020E3DECA6F0B90E146EFD0E7B
:1031A000156E1FECA1F0EDECA8F00009D8A4DBEF40
:1031B00098F0DDEF98F0E5EF98F0F90E396EFC0E1F
:1031C0003A6E030E3B6E1CEC92F0150E3F6E4B0EEA
:1031D0003E6EBE0EE82EFED73E2EFCD73F2EFAD70F
:1031E00000D01200386E130EF66EFA0EF76E000E57
:1031F000F86E0900F5C434F50900F5C435F5090089
:10320000F5C436F50A00F5C437F5FF0E3824316EE3
:10321000326AFF0E3222340E3124D96E050E32206E
:10322000DA6EDF50336E33500B6E0C6A76ECA8F01A
:10323000556EFF0E3824316E326AFF0E3222340E84
:103240003124D96E050E3220DA6EDF50336E3350E2
:103250000E6E0F6A55503024106E3FECA9F00C6AC8
:10326000020E0B6E76ECA8F0556E0F6A020E0E6E13
:1032700055503024106E3FECA9F0C3ECAAF0000EBC
:10328000156E010E3DECA6F0F50E146EFA0E156EDD
:103290001FECA1F0000E156E020E3DECA6F0850E9F
:1032A000146EFF0E156E1FECA1F0010E2E6E38503D
:1032B000B3ECA8F0E00E146EFF0E156E1FECA1F03B
:1032C000000E156E020E3DECA6F0BE0E146EFE0E44
:1032D000156E1FECA1F0FF0E3824316E326AFF0E1E
:1032E0003222340E3124D96E050E3220DA6EDF50D0
:1032F000336E33500B6E0C6A76ECA8F0556E020EEE
:103300002E6E5550B3ECA8F0DB0E146EFD0E156E4C
:103310001FECA1F0120001C5D9F402C5DAF403C50F
:10332000DEF404C5DDF420EE02F00150D92602508F
:10333000DA2205C5DEF406C5DDF420EE04F0015006
:10334000D9260250DA2207C5DEF408C5DDF420EEE6
:1033500006F00150D9260250DA2209C5DFF420EE2A
:1033600007F00150D9260250DA22DF6A20EE06F07B
:103370000150D9260250DA22DF50D8A4C2EF99F0CA
:10338000C4EF99F0F4EF99F020EE02F00150D92645
:103390000250DA22DEC40AF5DDC40BF50AC5D9F401
:1033A0000BC5DAF4F00EDF1620EE04F00150D9263A
:1033B0000250DA22DEC40AF5DDC40BF50AC5D9F4E1
:1033C0000BC5DAF4F00EDF1601C5D9F402C5DAF444
:1033D000DEC40AF5DDC40BF50AC5D9F40BC5DAF471
:1033E000F00EDF1622EF9AF020EE02F00150D926FF
:1033F0000250DA22DEC40AF5DDC40BF50AC5D9F4A1
:103400000BC5DAF40F0EDF1620EE04F00150D926BA
:103410000250DA22DEC40AF5DDC40BF50AC5D9F480
:103420000BC5DAF40F0EDF1601C5D9F402C5DAF4C4
:10343000DEC40AF5DDC40BF50AC5D9F40BC5DAF410
:103440000F0EDF16120008C5D9F409C5DAF40AC553
:10345000DEF40BC5DDF420EE02F00850D926095049
:10346000DA220CC5DEF40DC5DDF420EE04F00850C0
:10347000D9260950DA220EC5DEF40FC5DDF420EEA0
:1034800006F00850D9260950DA2210C5DFF420EEE4
:1034900004F00850D9260950DA22DEC411F5DDC443
:1034A00012F511C5D9F412C5DAF410EE04F0085083
:1034B000E1260950E222E6C413F5E5C414F513C56C
:1034C000E1F414C5E2F4E750156E10EE06F0085072
:1034D000E1260950E222E750FF0A1514DF6E20EEC4
:1034E00002F00850D9260950DA22DEC411F5DDC4F5
:1034F00012F511C5D9F412C5DAF410EE02F0085035
:10350000E1260950E222E6C413F5E5C414F513C51B
:10351000E1F414C5E2F4E750156E10EE06F0085021
:10352000E1260950E222E750FF0A1514DF6E08C5B4
:1035300001F509C502F5E1ECA6F01200066E800E59
:103540000660A5EF9AF0A7EF9AF0B8EF9AF0035053
:103550000410D8B4AEEF9AF0B0EF9AF0B8EF9AF04A
:103560000550D8A4B6EF9AF0B8EF9AF0BDEF9AF0F4
:10357000050E576E575018EF9BF07FECA5F0086EC4
:103580000850D8B4C6EF9AF0C8EF9AF0CFEF9AF08F
:1035900008C557F5B6ECAAF0085018EF9BF0C7EC39
:1035A000AAF00201949D065006248F6F05C58DF286
:1035B00003C5D9F404C5DAF4DF508C6F948B010E87
:1035C000076EFAEF9AF0B6ECA2F0086E0850D8B485
:1035D000ECEF9AF0EEEF9AF0F0EF9AF0C8EF9AF075
:1035E00007500324D96E000E0420DA6EDF5002016A
:1035F0008C6F072A0550075CD8A001EF9BF003EF02
:103600009BF0E3EF9AF0F3ECA1F0086E0850D8B409
:103610000CEF9BF00EEF9BF012EF9BF0B6ECAAF0D4
:1036200014EF9BF0C7ECAAF008C557F5CCEF9AF061
:10363000120001C5D9F402C5DAF403C5DEF404C5ED
:10364000DDF420EE02F00150D9260250DA2205C541
:10365000DEF406C5DDF420EE04F00150D926025058
:10366000DA2207C5DEF408C5DDF420EE06F00150CD
:10367000D9260250DA2209C5DFF420EE04F0015009
:10368000D9260250DA22DEC40AF5DDC40BF50AC5DC
:10369000D9F40BC5DAF410EE04F00150E126025023
:1036A000E222E6C40CF5E5C40DF50CC5E1F40DC548
:1036B000E2F4E7500E6E10EE06F00150E1260250E3
:1036C000E222E750FF0A0E14DF6E20EE02F00150F6
:1036D000D9260250DA22DEC40AF5DDC40BF50AC58C
:1036E000D9F40BC5DAF410EE06F00150E1260250D1
:1036F000E222E7500C6E10EE02F00150E12602507B
:10370000E222E6C40DF5E5C40EF50DC5E1F40EC5E3
:10371000E2F4E7500C10DF6E1200066E800E0660B9
:1037200094EF9BF096EF9BF0A7EF9BF003500410F3
:10373000D8B49DEF9BF09FEF9BF0A7EF9BF0055057
:10374000D8A4A5EF9BF0A7EF9BF0ACEF9BF0050E84
:10375000576E575000EF9CF07FECA5F0086E0850B4
:10376000D8B4B5EF9BF0B7EF9BF0BEEF9BF008C568
:1037700057F5B6ECAAF0085000EF9CF0C7ECAAF0A1
:103780000201949D958F05C58DF2D88006348F6F08
:10379000948B076AE2EF9BF0F3ECA2F0086E0850FE
:1037A000D8B4D5EF9BF0D7EF9BF0D9EF9BF0B7EFF4
:1037B0009BF007500324D96E000E0420DA6E8BC2F2
:1037C000DFF4072A0550075CD8A0E9EF9BF0EBEF88
:1037D0009BF0CCEF9BF04CECA5F0086E0850D8B4F1
:1037E000F4EF9BF0F6EF9BF0FAEF9BF0B6ECAAF04B
:1037F000FCEF9BF0C7ECAAF008C557F5BBEF9BF0B8
:103800001200396E0F0EF66EFA0EF76E000EF86E9D
:103810000900F5C435F50900F5C436F50900F5C40D
:1038200037F50A00F5C438F5C3ECAAF0000E156EA2
:10383000010E3DECA6F0950E146EFD0E156E1FECFC
:10384000A1F039C52EF52F6A020E306E000E316ED2
:103850006DECAAF0B30E146EFA0E156E1FECA1F00B
:10386000000E156E020E3DECA6F0A70E146EFD0EB6
:10387000156E1FECA1F0FF0E3924326E336AFF0E75
:103880003322350E3224D96E050E3320DA6EDF5026
:10389000346E34500B6E0C6A76ECA8F0556E020E46
:1038A0002E6E5550B3ECA8F0000E156E030E3DECD5
:1038B000A6F0810E146EFC0E156E1FECA1F0000E2A
:1038C000156E040E3DECA6F06D0E146EFC0E156E1A
:1038D0001FECA1F01200146A0FC507F510C508F51A
:1038E00014C509F519ECA5F00D0EE82EFED7000061
:1038F000156A170E1524F66EF76AFA0EF722F86AA3
:10390000000EF8220800F5C411F50FC5D9F410C552
:10391000DAF4DEC412F5DDC413F512C5D9F413C50B
:10392000DAF4DF5011140009D8A499EF9CF09BEF52
:103930009CF0B7EF9CF00FC501F510C502F556ECF1
:10394000A8F01450040DF70EF324116EF90EF420B4
:10395000126E15501126000E122211C5F6F412C572
:10396000F7F4000EF86E0800F550D0EF9CF0152A21
:10397000030E1564BEEF9CF0C0EF9CF079EF9CF055
:10398000142A030E1464C7EF9CF0C9EF9CF06CEF8F
:103990009CF00FC501F510C502F556ECA8F0000E1D
:1039A000120003500410D8B4D8EF9CF0DAEF9CF06A
:1039B000E3EF9CF003500410D8A4E1EF9CF0E3EF98
:1039C0009CF0E8EF9CF00150CDECAAF035EF9DF0B3
:1039D00020EE09F00350D9260450DA22DE50DE1022
:1039E000D8B4F5EF9CF0F7EF9CF012EF9DF020EECD
:1039F00009F00350D9260450DA2210EE02F00350E9
:103A0000E1260450E222DE50E65CE650800A096EB0
:103A1000DE50800A0958D8B010EF9DF012EF9DF0EB
:103A200035EF9DF020EE02F00350D9260450DA2243
:103A3000DEC405F5DDC406F503C5D9F404C5DAF422
:103A4000DEC407F5DDC408F505500724D96E06501D
:103A50000820DA6E01C5DFF420EE02F00350D9260B
:103A60000450DA22DE2A000EDD22120035C51AF5D6
:103A700036C51BF5020E1D6E0B0E1C6E1F6A500E16
:103A80001E6E320E206E0AEC93F0D00E376ECA0E08
:103A9000E82EFED7372EFCD735C51AF536C51BF5EF
:103AA000020E1D6E930E1C6E1F6A5A0E1E6E320E93
:103AB000206E0AEC93F0D00E376ECA0EE82EFED7B9
:103AC000372EFCD735C51AF536C51BF5030E1D6E0E
:103AD000100E1C6E1F6A780E1E6E320E206E0AECDF
:103AE00093F0D00E376ECA0EE82EFED7372EFCD7D5
:103AF00035C51AF536C51BF5040E1D6E170E1C6E66
:103B00001F6AB40E1E6E320E206E0AEC93F0020E87
:103B1000386EA00E376E920EE82EFED7372EFCD7E9
:103B2000382EFAD700D035C508F536C509F5AFEC03
:103B3000AAF01200066A04BEA2EF9DF0A0EF9DF06D
:103B4000A8EF9DF0036C041ED8B0042A010E066E87
:103B500002BEAFEF9DF0ADEF9DF0B5EF9DF0016CB3
:103B6000021ED8B0022A010E061A086A000E076E5D
:103B700003500410D8B4BFEF9DF0C1EF9DF0E9EF02
:103B80009DF0010E056EC9EF9DF0D8900336043606
:103B9000052A04AECEEF9DF0D0EF9DF0C5EF9DF06D
:103BA000D890073608360350015C04500258D8A05C
:103BB000DCEF9DF0DEEF9DF0E3EF9DF00350015E42
:103BC0000450025A0780D89004320332052ED0EFF9
:103BD0009DF00650D8B4EFEF9DF0F1EF9DF0F5EFBA
:103BE0009DF0076C081ED8B0082A07C501F508C566
:103BF00002F5120035C51AF536C51BF5030E1D6E0C
:103C0000700E1C6E1F6A5A0E1E6E320E206E0AEC6B
:103C100093F0040E386E400E376E260EE82EFED757
:103C2000372EFCD7382EFAD700D035C51AF536C551
:103C30001BF5030E1D6E700E1C6E1F6A5A0E1E6E53
:103C4000320E206E0AEC93F0040E386E400E376E82
:103C5000260EE82EFED7372EFCD7382EFAD700D006
:103C600035C51AF536C51BF5030E1D6E700E1C6E9C
:103C70001F6A5A0E1E6E320E206E0AEC93F0050E6D
:103C8000386E0F0E376EF10EE82EFED7372EFCD7AA
:103C9000382EFAD7000035C508F536C509F5AFEC62
:103CA000AAF0120035C51AF536C51BF5010E1D6EBA
:103CB000880E1C6E1F6AA00E1E6E3C0E206E0AEC53
:103CC00093F0020E386EA00E376E920EE82EFED7DD
:103CD000372EFCD7382EFAD700D035C51AF536C5A1
:103CE0001BF5010E1D6E4A0E1C6E1F6AB40E1E6E71
:103CF0003C0E206E0AEC93F0020E386EA00E376E6A
:103D0000920EE82EFED7372EFCD7382EFAD700D0E9
:103D100035C51AF536C51BF5010E1D6E060E1C6E57
:103D20001F6AFA0E1E6E460E206E0AEC93F0030E0A
:103D3000386E700E376E5C0EE82EFED7372EFCD72D
:103D4000382EFAD700D035C508F536C509F5AFECE1
:103D5000AAF012001E0E0364B0EF9EF0B2EF9EF0C8
:103D6000BAEF9EF001C5D9F402C5DAF41E0EDF6E7B
:103D7000C0EF9EF001C5D9F402C5DAF403C5DFF443
:103D800004011091C890C090066AEFEF9EF00650B3
:103D90000124046E000E0220056E010E0424D96E6B
:103DA000000E0520DA6EDF6A06500124046E000E54
:103DB0000220056E1F0E0424D96E000E0520DA6E57
:103DC000DF6A06500124046E000E0220056E3D0ECF
:103DD0000424D96E000E0520DA6EDF6A062A01C5BA
:103DE000D9F402C5DAF4DE50065CD8A0FAEF9EF0F2
:103DF000FCEF9EF0C7EF9EF0120020EE06F001509F
:103E0000D9260250DA22DF50D8A409EF9FF00BEF39
:103E10009FF02CEF9FF003500F0B086E01C5D9F4F3
:103E200002C5DAF4DEC404F5DDC405F504C5D9F431
:103E300005C5DAF4DF50F00B081001C5D9F402C54E
:103E4000DAF4DEC406F5DDC407F506C5D9F407C506
:103E5000DAF4DF6E4FEF9FF003C504F50F0E041682
:103E60000438F00B086E01C5D9F402C5DAF4DEC4DB
:103E700004F5DDC405F504C5D9F405C5DAF4DF5051
:103E80000F0B081001C5D9F402C5DAF4DEC406F53B
:103E9000DDC407F506C5D9F407C5DAF4DF6E1200F4
:103EA000000E156E000E166E000E176E000E186EC8
:103EB0001150121013101410D8B461EF9FF063EF7B
:103EC0009FF099EF9FF0010E196E6DEF9FF0D89063
:103ED0001136123613361436192A14AE72EF9FF0CB
:103EE00074EF9FF067EF9FF0D890153616361736AF
:103EF000183611500D5C12500E5813500F581450B4
:103F00001058D8A086EF9FF088EF9FF091EF9FF0B8
:103F100011500D5E12500E5A13500F5A1450105A71
:103F20001580D8901432133212321132192E74EFD8
:103F30009FF015C50DF516C50EF517C50FF518C57B
:103F400010F51200940E016E050E026EBE0E036E89
:103F5000040E046EC60E056E040E066E000E076E8D
:103F6000040E086E000E096E8BEC99F08C0E016E3B
:103F7000050E026EBE0E036E040E046EC60E056EB6
:103F8000040E066E000E076E040E086E010E096E1A
:103F90008BEC99F0840E016E050E026EBF0E036E5F
:103FA000040E046EC70E056E040E066E080E076E34
:103FB000040E086E000E096E8BEC99F0890E016EEE
:103FC000060E026EBF0E036E040E046EC70E056E63
:103FD000040E066E080E076E040E086E010E096EC2
:103FE0008BEC99F0120001C5D9F402C5DAF403C5CF
:103FF000DEF404C5DDF420EE02F00150D9260250B3
:10400000DA2205C5DEF406C5DDF420EE04F0015029
:10401000D9260250DA2207C5DFF420EE05F0015060
:10402000D9260250DA2208C5DFF420EE04F0015050
:10403000D9260250DA22DF50096E01C5D9F402C533
:10404000DAF4DEC40AF5DDC40BF50AC5D9F40BC5F4
:10405000DAF40950DF1220EE04F00150D9260250A4
:10406000DA22DF50096E20EE02F00150D92602500C
:10407000DA22DEC40AF5DDC40BF50AC5D9F40BC596
:10408000DAF40950DF1212008CECAAF0AE0E016EC9
:10409000050E026ECB0E036E040E046E280E056E26
:1040A000040E066E010E076E280E086EF3EC9FF0EC
:1040B000A80E016E050E026ECB0E036E040E046E8A
:1040C000280E056E040E066E020E076E290E086E8F
:1040D000F3EC9FF0A20E016E050E026ECB0E036E86
:1040E000040E046E280E056E040E066E040E076E96
:1040F0002A0E086EF3EC9FF09C0E016E050E026E08
:10410000CB0E036E040E046E280E056E040E066EB2
:10411000080E076E2B0E086EF3EC9FF01200155080
:104120001610D8B496EFA0F098EFA0F0A0EFA0F092
:10413000070E17649EEFA0F0A0EFA0F0A3EFA0F091
:10414000050ED6EFA0F01738E842F80B4009E6EC70
:10415000A4F0196E1950D8B4B0EFA0F0B2EFA0F0EF
:10416000B5EFA0F01950D6EFA0F0186A185015243A
:10417000D96E000E1620DA6EDF50E0ECA9F0196E51
:104180001950D8B4C6EFA0F0C8EFA0F0CAEFA0F065
:10419000B2EFA0F0182A070E1864D1EFA0F0D3EF09
:1041A000A0F0B6EFA0F0800EE6ECA4F01200086AD2
:1041B00008EFA1F008500424066E000E0520076EDB
:1041C0001F0E0624D96E000E0720DA6EDF5016ECA3
:1041D000A8F008500424066E000E0520076E010E9C
:1041E0000624D96E000E0720DA6EDF5016ECA8F018
:1041F00008500424066E000E0520076E3D0E0624AE
:10420000D96E000E0720DA6EDF5016ECA8F0082AEF
:1042100004C5D9F405C5DAF4DE50085CD8A013EF64
:10422000A1F015EFA1F0DAEFA0F0C090040E066E39
:104230001C0EE82EFED7062EFCD700D0120014501C
:104240001510D8A426EFA1F028EFA1F04CEFA1F0B3
:10425000050E66EFA1F014C5F6F415C5F7F4000ECF
:10426000F86E250EF76403D00800F55005D0F6C4AB
:10427000E9F4F7C4EAF4EF50E0ECA9F0166E16503A
:10428000D8B445EFA1F047EFA1F04AEFA1F01650E6
:1042900066EFA1F0144A152A14C5F6F415C5F7F413
:1042A000000EF86E250EF76403D00800F55005D017
:1042B000F6C4E9F4F7C4EAF4EF500009D8A463EFB8
:1042C000A1F065EFA1F02BEFA1F0000E120020EE9F
:1042D00005F00150D9260250DA220501FC51DE1802
:1042E000D8B475EFA1F077EFA1F09BEFA1F03B0EF2
:1042F0000301EC6FF381F3B180EFA1F082EFA1F045
:104300007BEFA1F020EE05F00150D9260250DA2211
:10431000DF50EC6FF381F3B190EFA1F092EFA1F0D9
:104320008BEFA1F020EE05F00150D9260250DA22E1
:10433000DF500501FC6F0301F381F3B1A2EFA1F09F
:10434000A4EFA1F09DEFA1F0EB51036EEA51056ED1
:1043500003C506F505C501F506C502F512001E5098
:104360001F1020102110D8B4B8EFA1F0BAEFA1F0BF
:10437000EAEFA1F0010E226EC4EFA1F0D8901E3634
:104380001F3620362136222A21AEC9EFA1F0CBEF0D
:10439000A1F0BEEFA1F01E501A5C1F501B58205018
:1043A0001C5821501D58D8A0D8EFA1F0DAEFA1F089
:1043B000E2EFA1F01E501A5E1F501B5A20501C5AEB
:1043C00021501D5AD890213220321F321E32222E07
:1043D000CBEFA1F01AC51AF51BC51BF51CC51CF5C2
:1043E0001DC51DF51200EA0E026E600E016E1CEF77
:1043F000A2F097ADFEEFA1F000EFA2F003EFA2F064
:10440000030E36EFA2F097AB08EFA2F00AEFA2F08E
:104410000DEFA2F0020E36EFA2F001500210D8A468
:1044200014EFA2F016EFA2F019EFA2F0040E36EF8F
:10443000A2F00106D8A0020602019AA522EFA2F07E
:1044400024EFA2F0F9EFA1F095BB29EFA2F02BEF3A
:10445000A2F032EFA2F097A930EFA2F032EFA2F073
:1044600035EFA2F0010E36EFA2F0000E120016C5D5
:104470000FF517C510F56BEC9CF01A6E1A50D8A406
:1044800044EFA2F046EFA2F049EFA2F0000E78EF61
:10449000A2F0D00E186ECA0EE82EFED7182EFCD74A
:1044A00016C50FF517C510F56BEC9CF0196E1A5078
:1044B0001918D8B45EEFA2F060EFA2F062EFA2F09C
:1044C00046EFA2F016C50FF517C510F56BEC9CF082
:1044D0000009D8A46EEFA2F070EFA2F062EFA2F094
:1044E000D00E186ECA0EE82EFED7182EFCD71A5022
:1044F0001200366E010E2E6E3650B3ECA8F0A40EEC
:10450000146EFD0E156E1FECA1F030C50BF531C514
:104510000CF576ECA8F0556E020E2E6E5550B3ECED
:10452000A8F0A70E146EFC0E156E1FECA1F032C59C
:104530000BF533C50CF576ECA8F0556E020E2E6E19
:104540005550B3ECA8F0F50E146EFF0E156E1FEC6F
:10455000A1F034C50BF535C50CF576ECA8F0556E19
:10456000010E2E6E5550B3ECA8F01200EA0E026E4A
:10457000600E016EE9EFA2F097A9C1EFA2F0C3EFC0
:10458000A2F0C6EFA2F0010EF2EFA2F097ADCBEFD2
:10459000A2F0CDEFA2F0D0EFA2F0030EF2EFA2F066
:1045A00097ABD5EFA2F0D7EFA2F0DAEFA2F0020EB0
:1045B000F2EFA2F001500210D8A4E1EFA2F0E3EF75
:1045C000A2F0E6EFA2F0040EF2EFA2F00106D8A0EE
:1045D0000206020199ABEFEFA2F0F1EFA2F0BCEFFF
:1045E000A2F0000E1200EA0E026E600E016E26EFBF
:1045F000A3F097A9FEEFA2F000EFA3F003EFA3F062
:10460000010E2FEFA3F097AD08EFA3F00AEFA3F090
:104610000DEFA3F0030E2FEFA3F097AB12EFA3F073
:1046200014EFA3F017EFA3F0020E2FEFA3F0015049
:104630000210D8A41EEFA3F020EFA3F023EFA3F005
:10464000040E2FEFA3F00106D8A00206020199A1E3
:104650002CEFA3F02EEFA3F0F9EFA2F0000E120062
:1046600001C5D9F402C5DAF4DE50035CD8A03BEFF3
:10467000A3F03DEFA3F03FEFA3F069EFA3F00350E9
:104680000124076E000E0220086E010E0724D96E69
:10469000000E0820DA6E04C5DFF403500124076E13
:1046A000000E0220086E1F0E0724D96E000E08208F
:1046B000DA6E05C5DFF403500124076E000E0220F8
:1046C000086E3D0E0724D96E000E0820DA6E06C56E
:1046D000DFF41200066A000E056E03500410D8B411
:1046E00074EFA3F076EFA3F09EEFA3F0010E076E38
:1046F0007EEFA3F0D89003360436072A04AE83EF8A
:10470000A3F085EFA3F07AEFA3F0D8900536063634
:104710000350015C04500258D8A091EFA3F093EF2E
:10472000A3F098EFA3F00350015E0450025A0580F5
:10473000D89004320332072E85EFA3F005C501F5AA
:1047400006C502F512000E6E400E0E60AAEFA3F031
:10475000ACEFA3F0BDEFA3F00B500C10D8B4B3EF47
:10476000A3F0B5EFA3F0BDEFA3F00D50D8A4BBEFBD
:10477000A3F0BDEFA3F0C0EFA3F0050EDAEFA3F0B6
:104780000EC509F5680E78ECAAF00F6E0F50D8B47C
:10479000CCEFA3F0CEEFA3F0D1EFA3F00F50DAEF00
:1047A000A3F00BC503F50CC504F50DC505F5680EA2
:1047B0008DEC9BF01200046AFF0E61ECAAF0AA0EC9
:1047C00061ECAAF0550E61ECAAF0280E61ECAAF09B
:1047D000066A000E056E05500224D96E06500320AD
:1047E000DA6EDF5061ECAAF005500224D96E065053
:1047F0000320DA6EDF500426054A062A06BE0AEFB9
:10480000A4F0065009E1280E055CD8A00AEFA4F038
:104810000CEFA4F0EBEFA3F0045061ECAAF00A0E49
:1048200061ECAAF0120009C501F50AC502F520EEF7
:1048300007F00950D9260A50DA22DF501F0FF66E12
:10484000FA0ED8B0010FF76EF86A000EF8220800D1
:10485000F5C403F5FDEC9EF020EE07F00950D926D3
:104860000A50DA22DF2A20EE07F00950D9260A5032
:10487000DA22030EDF643FEFA4F041EFA4F048EF2B
:10488000A4F020EE07F00950D9260A50DA22DF6A98
:104890001200000E096E000E0A6E000E0B6E000E66
:1048A0000C6E01A056EFA4F058EFA4F060EFA4F056
:1048B0000550092606500A2207500B2208500C22E8
:1048C000D8900536063607360836D89004320332BB
:1048D000023201320150021003100410D8A473EF09
:1048E000A4F075EFA4F051EFA4F009C501F50AC5D5
:1048F00002F50BC503F50CC504F512001450151094
:10490000D8A485EFA4F087EFA4F089EFA4F0B1EF6D
:10491000A4F01A6AA8EFA4F01A501424176E000E1F
:104920001520186E17C5F6F418C5F7F4000EF86ECA
:104930000800F550E0ECA9F0196E1950D8B4A3EFB7
:10494000A4F0A5EFA4F0A7EFA4F0B1EFA4F01A2A09
:1049500016501A5CD8A0AFEFA4F0B1EFA4F08CEF22
:10496000A4F0120035C51AF536C51BF5020E1D6EF2
:10497000930E1C6E1F6A2D0E1E6E320E206E0AECF8
:1049800093F09C0E376ED70EE82EFED7372EFCD74D
:10499000000035C51AF536C51BF5030E1D6E100E49
:1049A0001C6E1F6A410E1E6E320E206E0AEC93F0D2
:1049B000D00E376ECA0EE82EFED7372EFCD735C57F
:1049C00008F536C509F5AFECAAF01200146E000E1A
:1049D000096E145011ECA6F0136E1350D8B4F3EF17
:1049E000A4F0F5EFA4F0F8EFA4F0135018EFA5F041
:1049F0001404D8B4FEEFA4F000EFA5F009EFA5F081
:104A0000020E1418D8A407EFA5F009EFA5F013EFD4
:104A1000A5F0150E126EC60EE82EFED7122EFCD78C
:104A200000D017EFA5F0850EE82EFED70000000E8F
:104A3000120007C501F508C502F556ECA8F020EEF6
:104A400002F00750D9260850DA22DEC40AF5DDC488
:104A50000BF50AC5D9F40BC5DAF410EE02F00750D5
:104A6000E1260850E222E6C40CF5E5C40DF50CC5BC
:104A7000E1F40DC5E2F4E7500E6E1B0E0924F66E4C
:104A8000F76AFA0EF722F86A000EF8220800F550CD
:104A9000FF0A0E14DF6E1200EA0E026E600E016E47
:104AA00075EFA5F097AD57EFA5F059EFA5F05CEFC6
:104AB000A5F0030E7EEFA5F097AB61EFA5F063EFD5
:104AC000A5F066EFA5F0020E7EEFA5F001500210F2
:104AD000D8A46DEFA5F06FEFA5F072EFA5F0040E6E
:104AE0007EEFA5F00106D8A0020602019AA57BEF91
:104AF000A5F07DEFA5F052EFA5F0000E1200EA0E32
:104B0000026E600E016EA8EFA5F097AD8AEFA5F0DA
:104B10008CEFA5F08FEFA5F0030EB1EFA5F097ABEA
:104B200094EFA5F096EFA5F099EFA5F0020EB1EF86
:104B3000A5F001500210D8A4A0EFA5F0A2EFA5F0B7
:104B4000A5EFA5F0040EB1EFA5F00106D8A002066E
:104B5000020198AFAEEFA5F0B0EFA5F085EFA5F09C
:104B6000000E120003500410D8B4B9EFA5F0BBEF4B
:104B7000A5F0DFEFA5F0010E056EC3EFA5F0D8900C
:104B800003360436052A04AEC8EFA5F0CAEFA5F037
:104B9000BFEFA5F00350015C04500258D8A0D3EF3A
:104BA000A5F0D5EFA5F0D9EFA5F00350015E0450B4
:104BB000025AD89004320332052ECAEFA5F001C57F
:104BC00001F502C502F51200960EF66E550EF76E4F
:104BD000010EF86E0900F5C4FAF50900F5C4FBF5FD
:104BE0000900F5C4FCF59C0EF66E550EF76E010E2D
:104BF000F86E0900F5C45FF501EE00F2980EEE6A5A
:104C0000E806FDE101EE60F1540EEE6AE806FDE112
:104C100001EE55F10A0EEE6AE806FDE10001D6EF5D
:104C2000A7F00E6E5FC511F50950D8B41AEFA6F0C3
:104C30001CEFA6F01DEFA6F011800E50F00B0F6ECA
:104C40000E38F00BF00B106E0F50111004090A6EA5
:104C50000F5011100B6E1050111004090C6E1050F3
:104C600011100D6E0A0E036E050E046E040E056E15
:104C70000501FB519EEC9AF01200166E4FEFA6F064
:104C8000176A62EFA6F0400E176E62EFA6F0140EE0
:104C9000176E62EFA6F0540E176E62EFA6F0165074
:104CA000010AD8B440EFA6F0030AD8B443EFA6F047
:104CB000010AD8B447EFA6F0070AD8B44BEFA6F024
:104CC00067EFA6F0175015248009E6ECA4F0120057
:104CD000040E0C5CD8A06FEFA6F071EFA6F073EF96
:104CE000A6F090EFA6F00BC501F50CC502F558EC47
:104CF000A9F00DC546F000014151F80B0309416FC1
:104D0000D69E550E426FAA0E426F408140B18BEF86
:104D1000A6F08DEFA6F086EFA6F0D68EF80E41171E
:104D200012000201949FC096C09804011097109938
:104D3000C896C8981287128995ECA8F0CF0E020188
:104D40008717CF0E86178751FC0B0109876F865195
:104D5000FC0B0109866F040E946F956B966B030E26
:104D60009C6F9D6B9B6BC7ECAAF00201948F576AF6
:104D700012001BC51FF51CC520F5CDEFA6F019C507
:104D80000AF51AC50BF51F0E0C6E050E0D6E1DC52E
:104D90000EF51EC50FF5F2EC93F01FC5F6F420C515
:104DA000F7F4000EF86E0800F5500009D8A4DBEF08
:104DB000A6F0DDEFA6F0BFEFA6F01A6A000E196E9E
:104DC000120001C5D9F402C5DAF4DEC403F5DDC46E
:104DD00004F503C5D9F404C5DAF4DF50056E20EEFE
:104DE00006F00150D9260250DA22DF50FF0A0514DE
:104DF00001C5D9F402C5DAF4DEC406F5DDC407F551
:104E000006C5D9F407C5DAF4DF6E1200250E276E49
:104E1000050E286E21C529F522C52AF52C6A000E3B
:104E20002B6E336A000E326E290E196E050E1A6E45
:104E300023C51BF524C51CF5270E1D6E050E1E6E21
:104E4000B9ECA6F02B502124D96E2C502220DA6E1A
:104E5000DF6A120020EE06F00150D9260250DA2255
:104E6000DF50036E01C5D9F402C5DAF4DEC404F5DF
:104E7000DDC405F504C5D9F405C5DAF4DF50031027
:104E800001C5D9F402C5DAF4DEC406F5DDC407F5C0
:104E900006C5D9F407C5DAF4DF6E120020EE06F07D
:104EA0000150D9260250DA22DF50036E01C5D9F431
:104EB00002C5DAF4DEC404F5DDC405F504C5D9F491
:104EC00005C5DAF4DF5003140009D8B46AEFA7F07F
:104ED0006CEFA7F06FEFA7F0010E70EFA7F0000ED8
:104EE0001200266E000E93ECA7F023C515F5265090
:104EF0003DECA6F0276A000EE0ECA9F00D0E256E41
:104F00002D0E246ED80EE82EFED7242EFCD7252E8B
:104F1000FAD7272A030E276490EFA7F092EFA7F0A5
:104F20007BEFA7F01200226E070EF66EFA0EF76EF8
:104F3000000EF86E21EE1AF1070E0900F5C4DEF43A
:104F4000E806FBE2070E2264A8EFA7F0AAEFA7F09D
:104F5000ACEFA7F0B4EFA7F01A0E156E050E166EA3
:104F600022C517F58FECA0F01200016E0150D8B4E5
:104F7000BCEFA7F0BEEFA7F0CBEFA7F0C08000001A
:104F8000000000000000000000000000C0900000D1
:104F90000000D5EFA7F0C08000000000C090000026
:104FA0000000000000000000000012002BECAAF03E
:104FB000D20E0D6E050E0E6E88ECA9F0D20E026EAA
:104FC000050E036EDBECA3F05EEC96F0150E546E4E
:104FD0004B0E536EBE0EE82EFED7532EFCD7542E2A
:104FE000FAD700D0D8EFA7F0FEEFFFF00A6E0A5014
:104FF000F00B0D6E5F500D120950D8B402EFA8F0FF
:1050000004EFA8F005EFA8F00D800D5004090B6E19
:105010000D50FB0B0C6E0B0E036E050E046E020E94
:10502000056E0501FB519EEC9AF01200026E800E97
:10503000036E025003140009D8B421EFA8F023EF47
:10504000A8F028EFA8F0010EB5ECA7F02BEFA8F020
:10505000000EB5ECA7F0D89003320350D8A433EF7C
:10506000A8F035EFA8F019EFA8F012000F6A48EF8A
:10507000A8F009C501F50AC502F50FC503F50BC572
:1050800004F50CC505F50DC506F530ECA3F00F2AA7
:1050900009C5D9F40AC5DAF4DE500F5CD8A053EF85
:1050A000A8F055EFA8F039EFA8F0120020EE02F0BA
:1050B0000150D9260250DA22DEC403F5DDC404F51E
:1050C00003C5D9F404C5DAF410EE02F00150E1266C
:1050D0000250E222E6C405F5E5C406F505C5E1F493
:1050E00006C5E2F4E7500F09DF6E1200040E0C5CF7
:1050F000D8A07DEFA8F07FEFA8F082EFA8F0FF0E18
:1051000094EFA8F00BC501F50CC502F558ECA9F019
:10511000F80E00014117408140B191EFA8F093EFE4
:10512000A8F08CEFA8F046511200000ED6BE010E7A
:10513000016ED69E550E0201006FAA0E006F0091FF
:10514000370E146F380E156F130E716F140E706FCB
:10515000550E006FAA0E006F008101B002D0D69EDE
:1051600001D0D68E12002F6E2E50D8B4BAEFA8F010
:10517000BCEFA8F0CFEFA8F0030E2E64C2EFA8F0AA
:10518000C4EFA8F0C6EFA8F0CFEFA8F02FC523F525
:10519000246A2EC525F5000E266ED1EC94F012007F
:1051A000036E03380F0B0F0B016E03500F0B026ED3
:1051B0000A0E0160DEEFA8F0E0EFA8F0E8EFA8F03B
:1051C000090E0264E6EFA8F0E8EFA8F0EBEFA8F014
:1051D000000EECEFA8F0010E12000D6A0DC50BF5E4
:1051E0000C6A76ECA8F0FF0AD8A4F9EFA8F0FBEF60
:1051F000A8F0FEEFA8F0000E08EFA9F00D2A260E89
:105200000D6405EFA9F007EFA9F0EEEFA8F0010E8D
:1052100012007A0E076E050E086ED10E096E040E8E
:105220000A6EC10E0B6E040E0C6EC90E0D6E040ECE
:105230000E6E180E0F6E040E106E190E116E040E07
:10524000126EB1EC97F01200580E086E050E096E42
:10525000C00E0A6E040E0B6EC80E0C6E040E0D6EA0
:10526000100E0E6E040E0F6E020E106E23EC9AF0EE
:10527000580E086E050E096EAFECAAF012000EC5AE
:105280000BF50FC50CF576ECA8F0116E1050111847
:10529000D8B44DEFA9F04FEFA9F057EFA9F00EC524
:1052A0000BF50FC50CF510C50DF568ECA6F0120056
:1052B0000150036E0250046E056A066A000E032454
:1052C000076E000E0420086E380E0520096E000ED1
:1052D00006200A6E09C545F008C544F007C543F02D
:1052E00012007CEFA9F000D000D000D000D0010661
:1052F000000E025A035A045A0150021003100410FF
:10530000D8A485EFA9F087EFA9F073EFA9F01200F8
:105310000F6A0F500D24D96E000E0E20DA6E0FC5E5
:105320000BF50C6A76ECA8F0DF6E0F2A270E0F64DF
:105330009CEFA9F09EEFA9F089EFA9F0120035C506
:105340001AF536C51BF5090E1D6EC40E1C6E1F6ABC
:10535000140E1E6E320E206E0AEC93F035C508F561
:1053600036C509F5AFECAAF0120010501110D8A400
:10537000BCEFA9F0BEEFA9F0C1EFA9F0050ECAEF8E
:10538000A9F010C50BF511C50CF5070E0D6E000E3A
:10539000A3ECA3F01200910E016E060E026ED30E66
:1053A000036E040E046ECB0E056E040E066E280E00
:1053B000076E040E086E100E096E19EC9BF01200B9
:1053C000126E010E096E125011ECA6F0136E1350FE
:1053D000D8A4EDEFA9F0EFEFA9F0F3EFA9F0850E57
:1053E000E82EFED700001350120010C509F511C5B4
:1053F0000AF512C50BF513C50CF514C50DF536EC01
:10540000A8F010C504F511C505F5D7ECA0F0120001
:1054100010C509F511C50AF5000E0B6E000E0C6ED5
:10542000000E0D6E36ECA8F010C504F511C505F59B
:10543000D7ECA0F01200016E7F0E016422EFAAF0FB
:1054400024EFAAF027EFAAF0050E2AEFAAF001C573
:10545000FBF5000E1200600E0001AD6F060EB16F7D
:10546000400EB36F026ACF0E016E3AECAAF054EC14
:1054700098F0120002500201AF6F01C5AEF2300E7B
:10548000AB6F800EAC6FAD6B200E296F290E726F63
:10549000120091ECA6F0270E1BECAAF005016D6F2F
:1054A000A7EC95F0C3ECAAF01200026E02C501F55C
:1054B0000F0E011602380F0B0F0B0A0DF3500124CB
:1054C0001200016E01C5A3F20201B2AF6AEFAAF0A9
