:04000000FEEFFFF020
:10260000000C060309001C501D10D8A40AEF13F09B
:102610000CEF13F00EEF13F0EAEF13F0640E2064EA
:1026200014EF13F016EF13F018EF13F0640E206E92
:10263000400E0D6E420E0E6E0F0E0F6E000E106EDF
:102640001CC511F51DC512F5136A146AF5EC15F0D9
:102650000DC52DF50EC52EF50FC52FF510C530F59E
:102660002050016E026A036A046A2DC505F52EC565
:1026700006F52FC507F530C508F580EC16F001C545
:102680000DF502C50EF503C50FF504C510F5640E72
:10269000116E000E126E000E136E000E146EF5EC2D
:1026A00015F00DC531F50EC532F50FC533F510C562
:1026B00034F531502D5C296E32502E582A6E33502D
:1026C0002F582B6E345030582C6E1EC501F51FC587
:1026D00002F5036A046AE80E056E030E066E000E2C
:1026E000076E000E086E80EC16F001C50DF502C5F0
:1026F0000EF503C50FF504C510F52DC511F52EC552
:1027000012F52FC513F530C514F5F5EC15F00DC510
:1027100021F50EC522F50FC523F510C524F5000ED1
:10272000256E000E266E000E276E000E286ED5EF69
:1027300013F03150321033103410D8B4A2EF13F02C
:10274000A4EF13F0B4EF13F01AC501F51BC502F5A1
:10275000DAEC16F031C501F532C502F533C503F5E3
:1027600034C504F514EC17F029502A102B102C1046
:10277000D8B4BDEF13F0BFEF13F0CFEF13F01AC5CD
:1027800001F51BC502F5B5EC16F029C501F52AC502
:1027900002F52BC503F52CC504F514EC17F0010E5A
:1027A0002526000E2622272228222150255C225091
:1027B00026582350275824502858D8A0E2EF13F069
:1027C000E4EF13F099EF13F01AC501F51BC502F5FC
:1027D000B5EC16F0120008C5D9F409C5DAF40AC53B
:1027E000DEF40BC5DDF420EE02F00850D9260950C6
:1027F000DA220CC5DEF40DC5DDF420EE04F008503D
:10280000D9260950DA220EC5DEF40FC5DDF420EE1C
:1028100006F00850D9260950DA2210C5DFF420EE60
:1028200004F00850D9260950DA22DEC411F5DDC4BF
:1028300012F511C5D9F412C5DAF410EE04F00850FF
:10284000E1260950E222E6C413F5E5C414F513C5E8
:10285000E1F414C5E2F4E750156E10EE06F00850EE
:10286000E1260950E222E750FF0A1514DF6E20EE40
:1028700002F00850D9260950DA22DEC411F5DDC471
:1028800012F511C5D9F412C5DAF410EE02F00850B1
:10289000E1260950E222E6C413F5E5C414F513C598
:1028A000E1F414C5E2F4E750156E10EE06F008509E
:1028B000E1260950E222E750FF0A1514DF6E08C531
:1028C00001F509C502F5B5EC16F0120035C51AF58B
:1028D00036C51BF5020E1D6E0B0E1C6E1F6A500EC8
:1028E0001E6E320E206E03EC13F0020E386E380EA0
:1028F000376EAD0EE82EFED7372EFCD7382EFAD71E
:10290000000035C51AF536C51BF5020E1D6E930E77
:102910001C6E1F6A5A0E1E6E320E206E03EC13F0F0
:10292000020E386E380E376EAD0EE82EFED7372EFB
:10293000FCD7382EFAD7000035C51AF536C51BF579
:10294000030E1D6E100E1C6E1F6A780E1E6E320E68
:10295000206E03EC13F0020E386E380E376EAD0E9B
:10296000E82EFED7372EFCD7382EFAD7000035C513
:102970001AF536C51BF5040E1D6E170E1C6E1F6A68
:10298000B40E1E6E320E206E03EC13F0030E386E82
:10299000700E376E5C0EE82EFED7372EFCD7382E21
:1029A000FAD700D035C508F536C509F53FEC17F064
:1029B000120037EC17F03B0E086E050E096EBE0EC6
:1029C0000A6E040E0B6EC60E0C6E040E0D6E000E1B
:1029D0000E6E040E0F6E010E106EEBEC13F03B0E3C
:1029E000356E050E366EFEEC16F03D0E3A6EE10EBB
:1029F000396E400EE82EFED7392EFCD73A2EFAD784
:102A00003B0E356E050E366E47EC16F03D0E3A6EF7
:102A1000E10E396E400EE82EFED7392EFCD73A2E45
:102A2000FAD73B0E356E050E366E66EC14F03D0E91
:102A30003A6EE10E396E400EE82EFED7392EFCD7E5
:102A40003A2EFAD73B0E356E050E366E9FEC15F01A
:102A50003D0E3A6EE10E396E400EE82EFED7392E4D
:102A6000FCD73A2EFAD73B0E356E050E366E48EC83
:102A700015F03D0E3A6EE10E396E400EE82EFED78F
:102A8000392EFCD73A2EFAD7EFEF14F0FEEFFFF015
:102A900035C51AF536C51BF5010E1D6E880E1C6E68
:102AA0001F6AA00E1E6E3C0E206E03EC13F0030E88
:102AB000386E700E376E5C0EE82EFED7372EFCD7C0
:102AC000382EFAD700D035C51AF536C51BF5010EDC
:102AD0001D6E4A0E1C6E1F6AB40E1E6E3C0E206EDA
:102AE00003EC13F0030E386E700E376E5C0EE82E9A
:102AF000FED7372EFCD7382EFAD700D035C51AF5B9
:102B000036C51BF5010E1D6E060E1C6E1F6AFA0EF1
:102B10001E6E460E206E03EC13F0040E386EA80EE7
:102B2000376E0C0EE82EFED7372EFCD7382EFAD78C
:102B300035C508F536C509F53FEC17F0120035C567
:102B40001AF536C51BF5030E1D6E700E1C6E1F6A3E
:102B50005A0E1E6E320E206E03EC13F0050E386E08
:102B6000DF0E376EBC0EE82EFED7372EFCD7382E80
:102B7000FAD735C51AF536C51BF5030E1D6E700E56
:102B80001C6E1F6A5A0E1E6E320E206E03EC13F07E
:102B9000050E386EDF0E376EBC0EE82EFED7372ED0
:102BA000FCD7382EFAD735C51AF536C51BF5030EF6
:102BB0001D6E700E1C6E1F6A5A0E1E6E320E206E37
:102BC00003EC13F0070E386E170E376E6A0EE82E00
:102BD000FED7372EFCD7382EFAD700D035C508F5EA
:102BE00036C509F53FEC17F01200000E156E000E09
:102BF000166E000E176E000E186E11501210131084
:102C00001410D8B406EF16F008EF16F03EEF16F0E9
:102C1000010E196E12EF16F0D890113612361336D7
:102C20001436192A14AE17EF16F019EF16F00CEF40
:102C300016F0D890153616361736183611500D5C2A
:102C400012500E5813500F5814501058D8A02BEF94
:102C500016F02DEF16F036EF16F011500D5E1250F3
:102C60000E5A13500F5A1450105A1580D89014321F
:102C7000133212321132192E19EF16F015C50DF557
:102C800016C50EF517C50FF518C510F5120035C598
:102C90001AF536C51BF5020E1D6E930E1C6E1F6ACB
:102CA0002D0E1E6E320E206E03EC13F0EA0E376E00
:102CB000C30EE82EFED7372EFCD7000035C51AF517
:102CC00036C51BF5030E1D6E100E1C6E1F6A410EDD
:102CD0001E6E320E206E03EC13F0020E386E380EAC
:102CE000376EAD0EE82EFED7372EFCD7382EFAD72A
:102CF000000035C508F536C509F53FEC17F01200A0
:102D0000000E096E000E0A6E000E0B6E000E0C6EA9
:102D100001A08DEF16F08FEF16F097EF16F005502B
:102D2000092606500A2207500B2208500C22D89080
:102D30000536063607360836D8900432033202329A
:102D400001320150021003100410D8A4AAEF16F0AB
:102D5000ACEF16F088EF16F009C501F50AC502F5CB
:102D60000BC503F50CC504F5120001C5D9F402C565
:102D7000DAF4DEC403F5DDC404F503C5D9F404C5F3
:102D8000DAF4DF50056E20EE06F00150D92602502D
:102D9000DA22DF50FF0A051401C5D9F402C5DAF4BE
:102DA000DEC406F5DDC407F506C5D9F407C5DAF4B7
:102DB000DF6E120020EE06F00150D9260250DA2212
:102DC000DF50036E01C5D9F402C5DAF4DEC404F5A0
:102DD000DDC405F504C5D9F405C5DAF4DF500310E8
:102DE00001C5D9F402C5DAF4DEC406F5DDC407F581
:102DF00006C5D9F407C5DAF4DF6E120035C51AF539
:102E000036C51BF5090E1D6EC40E1C6E1F6A140E0E
:102E10001E6E320E206E03EC13F035C508F536C574
:102E200009F53FEC17F012001EEF17F0040EE82E24
:102E3000FED70106000E025A035A045A015002102E
:102E400003100410D8A427EF17F029EF17F016EF9E
:102E500017F0120001EE3BF1070EEE6AE806FDE105
:102E6000000EF86E260EF76E0001D9EF14F0600E1A
:102E70000001AD6F070EB16F400EB36F120008C5B1
:0C2E800001F509C502F5B5EC16F01200D2
:020000040001F9
:04FFFC002AEF17F0E1
:020000040030CA
:08000000FCFF3DDF9FFFFFFF45
:01000900FFF7
:00000001FF
