:04000000FEEFFFF020
:102600000000C9EC14F0600E016E050E026E030EA0
:10261000036E65EC13F0600E106E050E116EC80EA1
:10262000126E000E136E000E146E9AEC14F03D0E36
:10263000166EE10E156E400EE82EFED7152EFCD755
:10264000162EFAD7600E106E050E116E000E126E69
:10265000C80E136E000E146E9AEC14F03D0E166E3A
:10266000E10E156E400EE82EFED7152EFCD7162E65
:10267000FAD7600E106E050E116E000E126E000E6F
:10268000136ED00E146E9AEC14F03D0E166EE10E21
:10269000156E400EE82EFED7152EFCD7162EFAD753
:1026A000600E106E050E116EADEC14F03D0E166E40
:1026B000E10E156E400EE82EFED7152EFCD7162E15
:1026C000FAD70BEF13F0FEEFFFF01E0E03646BEF73
:1026D00013F06DEF13F075EF13F001C5D9F402C5D7
:1026E000DAF41E0EDF6E7BEF13F001C5D9F402C5DC
:1026F000DAF403C5DFF404011891C990C190066AA9
:10270000AAEF13F006500124046E000E0220056E9D
:10271000010E0424D96E000E0520DA6EDF6A065021
:102720000124046E000E0220056E1F0E0424D96ED3
:10273000000E0520DA6EDF6A06500124046E000EDA
:102740000220056E3D0E0424D96E000E0520DA6EBF
:10275000DF6A062A01C5D9F402C5DAF4DE50065C48
:10276000D8A0B5EF13F0B7EF13F082EF13F012001B
:10277000086AE9EF13F008500424066E000E0520E5
:10278000076E1F0E0624D96E000E0720DA6EDF508A
:102790005AEC14F008500424066E000E0520076E53
:1027A000010E0624D96E000E0720DA6EDF505AECB7
:1027B00014F008500424066E000E0520076E3D0E2E
:1027C0000624D96E000E0720DA6EDF505AEC14F0A2
:1027D000082A04C5D9F405C5DAF4DE50085CD8A08F
:1027E000F4EF13F0F6EF13F0BBEF13F0C190050E0A
:1027F000066EAC0EE82EFED7062EFCD7120001C5E1
:10280000D9F402C5DAF4DE50035CD8A00AEF14F064
:102810000CEF14F00EEF14F038EF14F00350012415
:10282000076E000E0220086E010E0724D96E000EFE
:102830000820DA6E04C5DFF403500124076E000E91
:102840000220086E1F0E0724D96E000E0820DA6ED3
:1028500005C5DFF403500124076E000E0220086E48
:102860003D0E0724D96E000E0820DA6E06C5DFF48F
:102870001200016E0150D8B440EF14F042EF14F092
:102880004FEF14F0C18000000000000000000000C5
:1028900000000000C1900000000059EF14F0C1805A
:1028A00000000000C19000000000000000000000D7
:1028B00000001200026E800E036E02500314000925
:1028C000D8B465EF14F067EF14F06CEF14F0010E5C
:1028D00039EC14F06FEF14F0000E39EC14F0D890CE
:1028E00003320350D8A477EF14F079EF14F05DEFC2
:1028F00014F012000F6A8CEF14F009C501F50AC537
:1029000002F50FC503F50BC504F50CC505F50DC59E
:1029100006F5FFEC13F00F2A09C5D9F40AC5DAF45D
:10292000DE500F5CD8A097EF14F099EF14F07DEF14
:1029300014F0120010C509F511C50AF512C50BF502
:1029400013C50CF514C50DF57AEC14F010C504F59B
:1029500011C505F5B8EC13F0120010C509F511C545
:102960000AF5000E0B6E000E0C6E000E0D6E7AEC6A
:1029700014F010C504F511C505F5B8EC13F01200FC
:1029800001EE60F15B0EEE6AE806FDE1000101EF89
:1029900013F0600E0001AD6F070EB16F400EB36F04
:0229A000120023
:020000040001F9
:04FFFC00C0EF14F04E
:020000040030CA
:08000000FCFF3DDF9FFFFFFF45
:01000900FFF7
:00000001FF
