:04000000FEEFFFF020
:10260000000C06030950617374696C6C61733A20A5
:1026100000524133202F20414E3300434E59373072
:0F262000204C6962004144433A00202020000012
:102630009DEC17F044EC1AF0000E046E010EAFECA6
:1026400019F01B0E0F6E090E106E16EC1AF0000E2C
:10265000046E020EAFEC19F0110E0F6E090E106E23
:1026600016EC1AF07A0E3A6EC10E396E820EE82E12
:10267000FED7392EFCD73A2EFAD791EC1AF0500E2D
:10268000016E050E026EE4EC17F001C53DF502C5C2
:102690003EF5000E046E010EAFEC19F0250E0F6E24
:1026A000040E106E16EC1AF03DC506F53EC507F592
:1026B000270E096E100E086E2AEC18F00650300F27
:1026C000E5EC19F0270E046E100E036E3DC501F502
:1026D0003EC502F504EC19F001C506F502C507F583
:1026E000030E096EE80E086E2AEC18F00650300F43
:1026F000E5EC19F0030E046EE80E036E3DC501F51E
:102700003EC502F504EC19F001C506F502C507F552
:10271000096A640E086E2AEC18F00650300FE5ECDA
:1027200019F0046A640E036E3DC501F53EC502F55D
:1027300004EC19F001C506F502C507F5096A0A0E91
:10274000086E2AEC18F00650300FE5EC19F03DC584
:1027500001F53EC502F5046A0A0E036E04EC19F099
:102760000150300FE5EC19F02A0E0F6E030E106EBB
:1027700016EC1AF0000E046E020EAFEC19F0EF0E1C
:102780003D5C020E3E58D8B0C8EF13F0CAEF13F00C
:10279000E6EF13F04050D8A4D0EF13F0D2EF13F0CF
:1027A000DEEF13F03F04D8A4D8EF13F0DAEF13F004
:1027B000DEEF13F03B4A3C2A010E406E050E0F6E11
:1027C0000B0E106E16EC1AF0EFEF13F0010E3F6EC9
:1027D000406A490E356E050E366E34EC16F0030E67
:1027E000046EE80E036E3BC501F53CC502F504EC32
:1027F00019F001C506F502C507F5096A640E086EF1
:102800002AEC18F00650300FE5EC19F0046A640E5B
:10281000036E3BC501F53CC502F504EC19F001C59A
:1028200006F502C507F5096A0A0E086E2AEC18F0CB
:102830000650300FE5EC19F03BC501F53CC502F53B
:10284000046A0A0E036E04EC19F00150300FE5EC37
:1028500019F02A0E0F6E030E106E16EC1AF0410ED0
:10286000096E050E0A6ED1EC18F03FEF13F0FEEF83
:10287000FFF01C501D10D8A440EF14F042EF14F0EC
:1028800044EF14F020EF15F0640E20644AEF14F0CA
:102890004CEF14F04EEF14F0640E206E400E0D6EEF
:1028A000420E0E6E0F0E0F6E000E106E1CC511F54F
:1028B0001DC512F5136A146AFAEC16F00DC52DF554
:1028C0000EC52EF50FC52FF510C530F52050016E41
:1028D000026A036A046A2DC505F52EC506F52FC5E3
:1028E00007F530C508F59CEC18F001C50DF502C5DB
:1028F0000EF503C50FF504C510F5640E116E000E3C
:10290000126E000E136E000E146EFAEC16F00DC56A
:1029100031F50EC532F50FC533F510C534F531501C
:102920002D5C296E32502E582A6E33502F582B6E44
:10293000345030582C6E1EC501F51FC502F5036AD0
:10294000046AE80E056E030E066E000E076E000E9A
:10295000086E9CEC18F001C50DF502C50EF503C517
:102960000FF504C510F52DC511F52EC512F52FC5AF
:1029700013F530C514F5FAEC16F00DC521F50EC5AA
:1029800022F50FC523F510C524F5000E256E000EA7
:10299000266E000E276E000E286E0BEF15F03150DC
:1029A000321033103410D8B4D8EF14F0DAEF14F03A
:1029B000EAEF14F01AC501F51BC502F58BEC19F00E
:1029C00031C501F532C502F533C503F534C504F54B
:1029D0005AEC1AF029502A102B102C10D8B4F3EF0F
:1029E00014F0F5EF14F005EF15F01AC501F51BC54D
:1029F00002F566EC19F029C501F52AC502F52BC5CB
:102A000003F52CC504F55AEC1AF0010E2526000E2C
:102A10002622272228222150255C22502658235086
:102A2000275824502858D8A018EF15F01AEF15F0A1
:102A3000CFEF14F01AC501F51BC502F566EC19F0CD
:102A4000120001C5D9F402C5DAF403C5DEF404C5E9
:102A5000DDF420EE02F00150D9260250DA2205C53D
:102A6000DEF406C5DDF420EE04F00150D926025054
:102A7000DA2207C5DEF408C5DDF420EE06F00150C9
:102A8000D9260250DA2209C5DFF420EE07F0015002
:102A9000D9260250DA22DF6A20EE06F00150D9264C
:102AA0000250DA22DF50D8A458EF15F05AEF15F093
:102AB0008AEF15F020EE02F00150D9260250DA22FA
:102AC000DEC40AF5DDC40BF50AC5D9F40BC5DAF48A
:102AD000F00EDF1620EE04F00150D9260250DA2263
:102AE000DEC40AF5DDC40BF50AC5D9F40BC5DAF46A
:102AF000F00EDF1601C5D9F402C5DAF4DEC40AF51A
:102B0000DDC40BF50AC5D9F40BC5DAF4F00EDF16F7
:102B1000B8EF15F020EE02F00150D9260250DA226B
:102B2000DEC40AF5DDC40BF50AC5D9F40BC5DAF429
:102B30000F0EDF1620EE04F00150D9260250DA22E3
:102B4000DEC40AF5DDC40BF50AC5D9F40BC5DAF409
:102B50000F0EDF1601C5D9F402C5DAF4DEC40AF59A
:102B6000DDC40BF50AC5D9F40BC5DAF40F0EDF1678
:102B7000120008C5D9F409C5DAF40AC5DEF40BC59C
:102B8000DDF420EE02F00850D9260950DA220CC5F7
:102B9000DEF40DC5DDF420EE04F00850D92609500E
:102BA000DA220EC5DEF40FC5DDF420EE06F0085083
:102BB000D9260950DA2210C5DFF420EE04F00850BF
:102BC000D9260950DA22DEC411F5DDC412F511C58B
:102BD000D9F412C5DAF410EE04F00850E1260950D9
:102BE000E222E6C413F5E5C414F513C5E1F414C5F7
:102BF000E2F4E750156E10EE06F00850E126095099
:102C0000E222E750FF0A1514DF6E20EE02F00850B2
:102C1000D9260950DA22DEC411F5DDC412F511C53A
:102C2000D9F412C5DAF410EE02F00850E12609508A
:102C3000E222E6C413F5E5C414F513C5E1F414C5A6
:102C4000E2F4E750156E10EE06F00850E126095048
:102C5000E222E750FF0A1514DF6E08C501F509C529
:102C600002F566EC19F0120035C51AF536C51BF5EC
:102C7000020E1D6E0B0E1C6E1F6A500E1E6E320E63
:102C8000206E39EC14F0020E386E380E376EAD0E31
:102C9000E82EFED7372EFCD7382EFAD7000035C5E0
:102CA0001AF536C51BF5020E1D6E930E1C6E1F6ABB
:102CB0005A0E1E6E320E206E39EC14F0020E386E73
:102CC000380E376EAD0EE82EFED7372EFCD7382ED5
:102CD000FAD7000035C51AF536C51BF5030E1D6E73
:102CE000100E1C6E1F6A780E1E6E320E206E39ECAE
:102CF00014F0020E386E380E376EAD0EE82EFED789
:102D0000372EFCD7382EFAD7000035C51AF536C550
:102D10001BF5040E1D6E170E1C6E1F6AB40E1E6E80
:102D2000320E206E39EC14F0030E386E700E376ED2
:102D30005C0EE82EFED7372EFCD7382EFAD700D0FF
:102D400035C508F536C509F586EC1AF0120020EEF7
:102D500006F00150D9260250DA22DF50D8A4B3EF92
:102D600016F0B5EF16F0D6EF16F003500F0B086E05
:102D700001C5D9F402C5DAF4DEC404F5DDC405F5F5
:102D800004C5D9F405C5DAF4DF50F00B081001C50D
:102D9000D9F402C5DAF4DEC406F5DDC407F506C5CC
:102DA000D9F407C5DAF4DF6EF9EF16F003C504F5C0
:102DB0000F0E04160438F00B086E01C5D9F402C5D5
:102DC000DAF4DEC404F5DDC405F504C5D9F405C59F
:102DD000DAF4DF500F0B081001C5D9F402C5DAF49C
:102DE000DEC406F5DDC407F506C5D9F407C5DAF477
:102DF000DF6E1200000E156E000E166E000E176EBE
:102E0000000E186E1150121013101410D8B40BEFDE
:102E100017F00DEF17F043EF17F0010E196E17EFD3
:102E200017F0D8901136123613361436192A14AE0C
:102E30001CEF17F01EEF17F011EF17F0D8901536B2
:102E400016361736183611500D5C12500E581350A6
:102E50000F5814501058D8A030EF17F032EF17F079
:102E60003BEF17F011500D5E12500E5A13500F5ACF
:102E70001450105A1580D890143213321232113275
:102E8000192E1EEF17F015C50DF516C50EF517C551
:102E90000FF518C510F5120001C5D9F402C5DAF412
:102EA00003C5DEF404C5DDF420EE02F00150D9269E
:102EB0000250DA2205C5DEF406C5DDF420EE04F08A
:102EC0000150D9260250DA2207C5DFF420EE05F0C2
:102ED0000150D9260250DA2208C5DFF420EE04F0B2
:102EE0000150D9260250DA22DF50096E01C5D9F40B
:102EF00002C5DAF4DEC40AF5DDC40BF50AC5D9F45F
:102F00000BC5DAF40950DF1220EE04F00150D92687
:102F10000250DA22DF50096E20EE02F00150D9266D
:102F20000250DA22DEC40AF5DDC40BF50AC5D9F475
:102F30000BC5DAF40950DF121200600E0001AD6F0C
:102F4000080EB16F400EB36FC96A0401186B7EECB6
:102F50001AF0500E016E050E026EC60E036E040EC0
:102F6000046E000E056E040E066E080E076E030E4C
:102F7000086E4CEC17F0490E086E050E096EBE0E79
:102F80000A6E040E0B6EC60E0C6E040E0D6E000E55
:102F90000E6E040E0F6E010E106EB9EC15F0410EA0
:102FA000016E050E026EC00E036E040E046EC80E96
:102FB000056E040E066E100E076E040E086E000EEF
:102FC000096E21EC15F0120020EE05F00150D92613
:102FD0000250DA225650DE18D8B4F1EF17F0F3EFB2
:102FE00017F016EF18F03B0E0301EC6FF381F3B10D
:102FF000FCEF17F0FEEF17F0F7EF17F020EE05F0FB
:103000000150D9260250DA22DF50EC6FF381F3B180
:103010000CEF18F00EEF18F007EF18F020EE05F0A7
:103020000150D9260250DA22DF50566E0301F38197
:10303000F3B11DEF18F01FEF18F018EF18F0EB5177
:10304000036EEA51056E03C506F505C501F506C513
:1030500002F512000B6A000E0A6E08500910D8B46F
:1030600034EF18F036EF18F05EEF18F0010E0C6E2A
:103070003EEF18F0D890083609360C2A09AE43EF17
:1030800018F045EF18F03AEF18F0D8900A360B36E2
:103090000850065C09500758D8A051EF18F053EFBC
:1030A00018F058EF18F00850065E0950075A0A80C9
:1030B000D890093208320C2E45EF18F00AC506F5F3
:1030C0000BC507F51200F80EC96EC190C182C1840C
:1030D000F00E00D0E82EFDD7D1C401F5C194F00E5A
:1030E00000D0E82EFDD7C184F00E00D0E82EFDD729
:1030F000C1940150800B016E92EF18F0C184F00E64
:1031000000D0E82EFDD7D1C401F5C194F00E00D057
:10311000E82EFDD7C184F00E00D0E82EFDD7C19473
:1031200079EF18F0800E0118D8B499EF18F09BEFE2
:1031300018F07EEF18F01200000E096E000E0A6EF5
:10314000000E0B6E000E0C6E01A0A9EF18F0ABEF95
:1031500018F0B3EF18F00550092606500A22075060
:103160000B2208500C22D890053606360736083652
:10317000D89004320332023201320150021003109F
:103180000410D8A4C6EF18F0C8EF18F0A4EF18F098
:1031900009C501F50AC502F50BC503F50CC504F513
:1031A000120009C501F50AC502F520EE07F0095025
:1031B000D9260A50DA22DF500B6E0B50010F0C6E2D
:1031C0000CC5F6F40800F5C403F5A7EC16F020EEE4
:1031D00007F00950D9260A50DA22DF2A20EE07F03C
:1031E0000950D9260A50DA22030EDF64FAEF18F0EC
:1031F000FCEF18F003EF19F020EE07F00950D92684
:103200000A50DA22DF6A120003500410D8B40BEF20
:1032100019F00DEF19F031EF19F0010E056E15EFF1
:1032200019F0D89003360436052A04AE1AEF19F0C7
:103230001CEF19F011EF19F00350015C0450025813
:10324000D8A025EF19F027EF19F02BEF19F0035054
:10325000015E0450025AD89004320332052E1CEF4E
:1032600019F001C501F502C502F51200C190C19225
:10327000300E70EC1AF0200E046E2A0EE82EFED7E7
:10328000042EFCD7200E046E2A0EE82EFED7042E44
:10329000FCD7300E70EC1AF0F00E00D0E82EFDD7FF
:1032A000300E70EC1AF0200E70EC1AF0010ECCEC1F
:1032B00019F0280ECCEC19F00F0ECCEC19F0060E1C
:1032C000CCEC19F0010ECCEC19F0120001C5D9F4C8
:1032D00002C5DAF4DEC403F5DDC404F503C5D9F490
:1032E00004C5DAF4DF50056E20EE06F00150D92651
:1032F0000250DA22DF50FF0A051401C5D9F402C5D5
:10330000DAF4DEC406F5DDC407F506C5D9F407C551
:10331000DAF4DF6E120020EE06F00150D9260250DA
:10332000DA22DF50036E01C5D9F402C5DAF4DEC437
:1033300004F5DDC405F504C5D9F405C5DAF4DF509C
:10334000031001C5D9F402C5DAF4DEC406F5DDC404
:1033500007F506C5D9F407C5DAF4DF6E1200056E6D
:103360000504D8A4B6EF19F0B8EF19F0BEEF19F0C4
:103370000450800FCCEC19F0CBEF19F0020E0518B9
:10338000D8A4C5EF19F0C7EF19F0CBEF19F004502E
:10339000C00FCCEC19F01200026EC19063EC18F073
:1033A000C96AF00E00D0E82EFDD7C192C194C19039
:1033B0000250F00B036E035070EC1AF00238F00B61
:1033C000036E035070EC1AF012000D6EC18063ECB6
:1033D00018F0C96AF00E00D0E82EFDD7C192C19452
:1033E000C1800D50F00B0E6E0E5070EC1AF00D38BF
:1033F000F00B0E6E0E5070EC1AF01200046E0450BA
:10340000D8A405EF1AF007EF1AF00AEF1AF00E0E23
:10341000CCEC19F00404D8A410EF1AF012EF1AF053
:1034200015EF1AF00C0ECCEC19F01200126A126AA9
:1034300024EF1AF00F501224116E11C5F6F4080093
:10344000F550E5EC19F0122A1050125CD8A02BEFC1
:103450001AF02DEF1AF01AEF1AF012002A0EF66E7B
:10346000350EF76E000EF86E0900F5C456F501EE44
:103470003BF11B0EEE6AE806FDE1000EF86E260E2B
:10348000F76E000118EF13F036EC19F0020E066E1D
:103490004D0E056E740EE82EFED7052EFCD7062EB7
:1034A000FAD700D091EC1AF08DEC1AF0010EFEEC78
:1034B00019F0120064EF1AF0040EE82EFED7010690
:1034C000000E025A035A045A01500210031004104D
:1034D000D8A46DEF1AF06FEF1AF05CEF1AF012003B
:1034E000016E0F0EC116F00E01160150C112C184FB
:1034F000F00E00D0E82EFDD7C19412000301F86B46
:103500001F0EFA6F840EF36F5668120008C501F59E
:1035100009C502F566EC19F01200020ECCEC19F0A8
:0B3520001200010ECCEC19F01200FFAD
:020000040001F9
:04FFFC002EEF1AF0DA
:020000040030CA
:08000000FCFF3DDF9FFFFFFF45
:01000900FFF7
:00000001FF
