:04000000FEEFFFF020
:10FA3600003132334134353642373839432A3023A0
:10FA4600441F1F1F1F1F1F1F1F0A0B0C0D0A0B0C25
:10FA56000D10204080010204080C060309332E56BF
:10FA6600657220686F726172696F73202020202092
:10FA76002000342E5265672E2070617374696C6C99
:10FA8600617320202020002A2E53616C6972206445
:10FA9600656C206D656E7520202020004E7565769C
:10FAA6006120686F7261203A202078783A78782051
:10FAB600002D2045444954415220484F5241524955
:10FAC6004F205F202D002D2D204E5545564F2048A6
:10FAD6004F524152494F202D2D2D002D2D2D204DB9
:10FAE600495320484F524152494F53202D2D2D0046
:10FAF6002D2D2D205B235D20564552204D454E551C
:10FB0600202D2D2D002D2D2D2D2D2D2D2D2D2D2D59
:10FB16002D2D2D2D2D2D2D2D2D002D2D20524543F6
:10FB26004152474120455849544F53412D2D002DF0
:10FB36002D20484F524152494F20504153542E20B8
:10FB46005F2D2D002D204D4F4449464943415220FB
:10FB5600484F524152494F2D005072657061726193
:10FB66006E646F2073697374656D612E2E00524545
:10FB7600472E2043414E542E2050415354494C4C5D
:10FB860041530053656C656363696F6E6520283168
:10FB96002D34293A5B205D004550524F4D206E6F43
:10FBA60020436F6E6669677572616461004D616CB2
:10FBB60020466F726D61746F2064652046656368C8
:10FBC6006100416C6572746120656E20656C20531E
:10FBD600697374656D610053697374656D61206541
:10FBE6006E206F7065726163696F6E005B235D479F
:10FBF6007561726461723A205B2A5D53616C697249
:10FC060000312E4167722E486F722020322E4D6FC2
:10FC1600642E486F720053696E20486F722E205210
:10FC260065676973747261646F73002020202020F9
:10FC360020202020202020202020202020202000DE
:10FC46002053544F434B2050415354494C4C45523A
:10FC56004F532000506173743A5B312D345D20564A
:10FC66006F6C7665723A2A00477561726461723A02
:10FC76005B235D2053616C69723A2A0041207375DB
:10FC86006D617220202020202020203A2030300074
:10FC9600496E677265736520686F72612028323419
:10FCA60048293A00417369676E6172207061737406
:10FCB600696C6C65726F3A00484F524152494F2049
:10FCC60041435455414C495A41444F00456C656780
:10FCD600697220486F726172696F3A205B205D001D
:10FCE600486F72612061637475616C3A20205F5FB2
:10FCF6003A5F5F005B235D526573657465617220D0
:10FD060053697374656D61005B235D477561726449
:10FD16006172205B2A5D53616C6972004C696D707B
:10FD260069616E646F205661726961626C65730009
:10FD3600486F726172696F732061637469766F735D
:10FD46003A2000526567697374726172205061735C
:10FD560074696C6C61005B235D53656C65632E2072
:10FD66005B2A5D53616C6972002D2D20524543411B
:10FD760052474120504153542E200053746F636BF9
:10FD86002061637475616C2020203A20004E756DE9
:10FD960065726F2028312D34293A205B205D005092
:10FDA6006173742E2041637475616C3A2020505F34
:10FDB600005265696E69636961722053697374657F
:10FDC6006D61004D6F6469666963617220486F7288
:10FDD6006172696F004E7565766F20506173742E7F
:10FDE600203A202050780050617374696C6C6173FE
:10FDF60020646973703A2000484F524152494F209F
:10FE0600475541524441444F004932432073696E7D
:10FE160020636F6E6578696F6E0052544320736974
:10FE26006E20636F6E6578696F6E005369737465D3
:10FE36006D6120636F72726563746F004E6F206828
:10FE460061792050617374696C6C617300507265DE
:10FE5600706172616E646F204461746F73004578DF
:10FE660074726179656E646F204461746F730054B7
:10FE76006F74616C2061637475616C3A205B004F2E
:10FE86007063696F6E20496E76616C696461004CBF
:10FE96006579656E646F204D656D6F7269610041AD
:10FEA60067726567617220486F726172696F00419F
:10FEB600706167616E646F2042757A7A6572004E72
:10FEC6006F2068617920486F726172696F730048AC
:10FED6006F726172696F73206C6C656E6F7300442C
:10FEE60061746F7320436F72727570746F73002044
:10FEF600202020205B2078783A7878205D00505FBB
:10FF06002061206C6173205F5F3A5F5F004F706312
:10FF1600696F6E2044657365616461004E4F2050C1
:10FF2600726573696F6E61646F0041706167616EBF
:10FF3600646F204C454473005254432064657465D5
:10FF46006E69646F0056657220486F726172696FE0
:10FF5600730050415354494C4C45524F20005D208C
:10FF6600202020202050323A5B005D2020202020D7
:10FF76002050343A5B005265696E696369616E644C
:10FF86006F0053656C656363696F6E6172005265DD
:10FF9600696E69636961646F005265736574656152
:10FFA6006E646F005B2A5D2053616C6972005B4270
:10FFB6005D42616A6172005B415D53756269720000
:10FFC60056616C6F723A200053656E736F72200033
:10FFD6002061206C617320004F7063696F6E004C66
:10FFE6004953544F0050313A5B0050333A5B00207E
:09FFF60050003062003078000078
:020000040001F9
:10000000000E3C6E000E3D6E000E3E6E000E3F6E0A
:100010000C6A010E0B6E92ECA1F00009D8A413EF4C
:1000200080F015EF80F024EF80F09FECA3F0030E3A
:10003000156E020E99EC9FF0C50E146EFE0E156E35
:1000400029EC9CF0B6EF84F00C6A010E0B6E92EC7A
:10005000A1F0516E9FECA3F0000E156E010E99EC0D
:100060009FF04A0E146EFB0E156E29EC9CF0000EEC
:10007000156E020E99EC9FF0360E146EFD0E156E85
:1000800029EC9CF0020E2E6E5150CFECA1F0000E28
:10009000156E030E99EC9FF0D20E146EFC0E156EC9
:1000A00029EC9CF0000E156E040E99EC9FF0660E84
:1000B000146EFD0E156E29EC9CF0536A6EEF80F005
:1000C000760E166E050E176EF9EC9CF0536ED00E80
:1000D000396ECA0EE82EFED7392EFCD75350D8B44D
:1000E00074EF80F076EF80F060EF80F0B9EF80F091
:1000F000550E356E050E366E57EC99F0536AD4EFF7
:1001000080F0550E356E050E366E89ECA2F0B6EF16
:1001100084F0550E356E050E366E89ECA2F0535004
:10012000D00F416E110E156E030E99EC9FF05350D7
:10013000DFECA2F0150E3A6E4B0E396EBE0EE82EB5
:10014000FED7392EFCD73A2EFAD700D04150515C59
:10015000D8A0ADEF80F0AFEF80F078EF80F04150A5
:10016000D8A4B5EF80F0B7EF80F0D4EF80F078EF4F
:1001700080F05350230AD8B478EF80F0090AD8B43D
:1001800081EF80F06B0AD8B478EF80F0030AD8B41E
:1001900078EF80F0010AD8B478EF80F0070AD8B47D
:1001A00078EF80F089EF80F05350D8B4DAEF80F028
:1001B000DCEF80F05DEF80F0000E156E040E99EC20
:1001C0009FF05C0E146EFD0E156E29EC9CF0536AC8
:1001D000F8EF80F0760E166E050E176EF9EC9CF0B7
:1001E000536ED00E396ECA0EE82EFED7392EFCD7CC
:1001F0005350D8B4FEEF80F000EF81F0EAEF80F0CA
:100200001FEF81F0550E356E050E366E89ECA2F0AB
:10021000150E3A6E4B0E396EBE0EE82EFED7392EF5
:10022000FCD73A2EFAD700D02AEF81F0550E356E62
:10023000050E366E57EC99F0536A2AEF81F0535051
:10024000230AD8B402EF81F0090AD8B481EF80F014
:1002500016EF81F05350D8B430EF81F032EF81F0D7
:10026000E7EF80F09FECA3F0000E156E010E99EC05
:100270009FF0B70E146EFA0E156E29EC9CF0110E5D
:10028000156E010E99EC9FF0010E2E6E4150CFECD1
:10029000A1F0000E156E020E99EC9FF0E60E146EA2
:1002A000FC0E156E29EC9CF00E0E156E020E99ECEC
:1002B0009FF04150050DF3C439F5F4C43AF5040E2E
:1002C00039240B6E000E3A200C6E92ECA1F0516EA8
:1002D000020E2E6E5150CFECA1F0110E156E020ED3
:1002E00099EC9FF04150050DF3C439F5F4C43AF58B
:1002F000050E39240B6E000E3A200C6E92ECA1F024
:10030000516E020E2E6E5150CFECA1F0000E156E04
:10031000030E99EC9FF0A20E146EFA0E156E29ECE6
:100320009CF00C0E156E040E99EC9FF0660E146E88
:10033000FD0E156E29EC9CF0406A030E4064A3EF9D
:1003400081F0A5EF81F0A7EF81F0A2EF82F0536A70
:10035000B8EF81F0760E166E050E176EF9EC9CF074
:10036000536ED00E396ECA0EE82EFED7392EFCD74A
:100370005350D8B4BEEF81F0C0EF81F0AAEF81F006
:100380007CEF82F0550E356E050E366E57EC99F007
:10039000536A97EF82F0550E356E050E366E89EC76
:1003A000A2F0020E4060D7EF81F0D9EF81F0E1EFCB
:1003B00081F040500E0F156E030E99EC9FF0E7EFA1
:1003C00081F040500F0F156E030E99EC9FF05350C3
:1003D000DFECA2F0150E3A6E4B0E396EBE0EE82E13
:1003E000FED7392EFCD73A2EFAD700D03C0E402447
:1003F000D96EDA6A050EDA225350D00FDF6E6DEF38
:1004000082F03C0E4024D96EDA6A050EDA22020E22
:10041000DF640DEF82F00FEF82F097EF82F0550E60
:10042000356E050E366E57EC99F00E0E156E030EF6
:1004300099EC9FF0FC0E146EFF0E156E29EC9CF0EB
:10044000C8EF81F0020E3C18D8A429EF82F02BEF00
:1004500082F097EF82F03C0E4024D96EDA6A050EE6
:10046000DA22030EDF6437EF82F039EF82F097EF84
:1004700082F0550E356E050E366E57EC99F00F0E64
:10048000156E030E99EC9FF0FC0E146EFF0E156EA8
:1004900029EC9CF0C8EF81F03C0E4024D96EDA6A5A
:1004A000050EDA22050EDF6458EF82F05AEF82F073
:1004B00097EF82F0550E356E050E366E57EC99F0BB
:1004C000110E156E030E99EC9FF0FC0E146EFF0ECC
:1004D000156E29EC9CF0C8EF81F04050000AD8B4AA
:1004E00001EF82F0010AD8B422EF82F0030AD8B4F7
:1004F0004CEF82F097EF82F05350230AD8B4C2EF4A
:1005000081F0090AD8B481EF80F06B0AD8B4C2EF49
:1005100081F0030AD8B4C2EF81F0010AD8B4C2EF67
:1005200081F0070AD8B4C2EF81F0CBEF81F05350CD
:10053000D8B49DEF82F09FEF82F0A7EF81F0402AC0
:100540009DEF81F0000E156E040E99EC9FF00E0EDB
:10055000146EFD0E156E29EC9CF0536ABEEF82F00E
:10056000760E166E050E176EF9EC9CF0536ED00EDB
:10057000396ECA0EE82EFED7392EFCD75350D8B4A8
:10058000C4EF82F0C6EF82F0B0EF82F0E5EF82F0C8
:10059000550E356E050E366E89ECA2F0150E3A6ECC
:1005A0004B0E396EBE0EE82EFED7392EFCD73A2EF2
:1005B000FAD700D0F0EF82F0550E356E050E366E8C
:1005C00057EC99F0536AF0EF82F05350230AD8B4F5
:1005D000C8EF82F0090AD8B481EF80F0DCEF82F036
:1005E0005350D8B4F6EF82F0F8EF82F0ADEF82F01E
:1005F0009FECA3F0000E156E010E99EC9FF0B70E64
:10060000146EFA0E156E29EC9CF0110E156E010E8B
:1006100099EC9FF0010E2E6E4150CFECA1F0000E30
:10062000156E020E99EC9FF0A50E146EFD0E156E60
:1006300029EC9CF0100E156E020E99EC9FF04150C3
:10064000050DF3C439F5F4C43AF5080E39240B6EE0
:10065000000E3A200C6E92ECA1F0516E010E2E6E3F
:100660005150CFECA1F0000E156E030E99EC9FF0E7
:10067000DB0E146EFD0E156E29EC9CF0000E156E4F
:10068000040E99EC9FF05A0E146EFC0E156E29ECB8
:100690009CF0536A5AEF83F0760E166E050E176EB5
:1006A000F9EC9CF0536ED00E396ECA0EE82EFED7D0
:1006B000392EFCD75350D8B460EF83F062EF83F04B
:1006C0004CEF83F086EF83F05350D00F3B6E100E4B
:1006D000156E030E99EC9FF05350DFECA2F0150E4F
:1006E0003A6E4B0E396EBE0EE82EFED7392EFCD771
:1006F0003A2EFAD700D09DEF83F0550E356E050ED9
:10070000366E57EC99F0536A9DEF83F053502A0AE6
:10071000D8B481EF80F01B0AD8B464EF83F0030AE9
:10072000D8B464EF83F0010AD8B464EF83F0070A09
:10073000D8B464EF83F07DEF83F05350D8B4A3EFC7
:1007400083F0A5EF83F049EF83F0000E156E040EE1
:1007500099EC9FF00E0E146EFD0E156E29EC9CF0B8
:10076000536AC1EF83F0760E166E050E176EF9EC24
:100770009CF0536ED00E396ECA0EE82EFED7392E7D
:10078000FCD75350D8B4C7EF83F0C9EF83F0B3EF71
:1007900083F0E8EF83F0550E356E050E366E89EC6A
:1007A000A2F0150E3A6E4B0E396EBE0EE82EFED735
:1007B000392EFCD73A2EFAD700D0F3EF83F0550E3E
:1007C000356E050E366E57EC99F0536AF3EF83F0F1
:1007D0005350230AD8B4CBEF83F0090AD8B481EF81
:1007E00080F0DFEF83F05350D8B4F9EF83F0FBEFE4
:1007F00083F0B0EF83F04150050DF3C439F5F4C434
:100800003AF5040E39240E6E000E3A200F6E3C505D
:100810000A0DF3503D24106E40ECA2F04150050D3E
:10082000F3C439F5F4C43AF5050E39240E6E000E02
:100830003A200F6E3E500A0DF3503F24106E40ECEC
:10084000A2F04150050DF3C439F5F4C43AF5080E91
:1008500039240E6E000E3A200F6E3BC510F540ECA9
:10086000A2F09FECA3F0000E156E010E99EC9FF024
:100870000B0E146EFB0E156E29EC9CF0010E156E1E
:10088000020E99EC9FF0BE0E146EFC0E156E29EC54
:100890009CF0020E156E030E99EC9FF0040E146E80
:1008A000FF0E156E29EC9CF0030E156E030E99ECED
:1008B0009FF04150050DF3C439F5F4C43AF5080E24
:1008C00039240B6E000E3A200C6E92ECA1F0516EA2
:1008D000010E2E6E5150CFECA1F00B0E156E030ED3
:1008E00099EC9FF04150050DF3C439F5F4C43AF585
:1008F000040E39240B6E000E3A200C6E92ECA1F01F
:10090000516E020E2E6E5150CFECA1F00E0E156EF0
:10091000030E99EC9FF04150050DF3C439F5F4C472
:100920003AF5050E39240B6E000E3A200C6E92EC4F
:10093000A1F0516E020E2E6E5150CFECA1F0000EC0
:10094000156E040E99EC9FF00B0E146EFB0E156ED7
:1009500029EC9CF0520E3A6E2B0E396E000EE82EEA
:10096000FED7392EFCD73A2EFAD700D01200000E4F
:100970003B6E000E3C6E000E3D6E000E3E6E0C6A2D
:10098000010E0B6E92ECA1F0396E050E3964CBEFBF
:1009900084F0CDEF84F0DCEF84F09FECA3F0030E45
:1009A000156E020E99EC9FF0D50E146EFE0E156EAC
:1009B00029EC9CF0AEEF87F00C6A010E0B6E92EC06
:1009C000A1F0406E9FECA3F0000E156E010E99ECA5
:1009D0009FF0CC0E146EFA0E156E29EC9CF0000EF2
:1009E000156E020E99EC9FF0AA0E146EFC0E156E99
:1009F00029EC9CF0000E156E030E99EC9FF0930EFF
:100A0000146EFD0E156E29EC9CF00B0E156E040E87
:100A100099EC9FF0AA0E146EFF0E156E29EC9CF057
:100A2000536A21EF85F0760E166E050E176EF9ECFF
:100A30009CF0536ED00E396ECA0EE82EFED7392EBA
:100A4000FCD75350D8B427EF85F029EF85F013EF8A
:100A500085F05BEF85F0550E356E050E366E89EC30
:100A6000A2F05350D00F3F6E0F0E156E030E99EC8F
:100A70009FF05350DFECA2F0150E3A6E4B0E396E1C
:100A8000BE0EE82EFED7392EFCD73A2EFAD700D06C
:100A900072EF85F0550E356E050E366E89ECA2F0BC
:100AA000AEEF87F0550E356E050E366E57EC99F0A9
:100AB000536A72EF85F053502A0AD8B44AEF85F092
:100AC0001B0AD8B42BEF85F0030AD8B42BEF85F0BE
:100AD000010AD8B42BEF85F0070AD8B42BEF85F0C4
:100AE00052EF85F05350D8B478EF85F07AEF85F067
:100AF00010EF85F09FECA3F0000E156E010E99EC3F
:100B00009FF0350E146EFB0E156E29EC9CF0110E45
:100B1000156E010E99EC9FF0010E2E6E3F50CFEC3A
:100B2000A1F0000E156E020E99EC9FF0960E146E59
:100B3000FC0E156E29EC9CF0000E156E030E99EC60
:100B40009FF0F50E146EFE0E156E29EC9CF00B0E48
:100B5000156E040E99EC9FF0AA0E146EFF0E156E22
:100B600029EC9CF0416A536AC4EF85F0760E166E4C
:100B7000050E176EF9EC9CF0536ED00E396ECA0E4E
:100B8000E82EFED7392EFCD75350D8B4CAEF85F0E3
:100B9000CCEF85F0B6EF85F088EF86F0550E356E18
:100BA000050E366E57EC99F0536AA3EF86F0550E9A
:100BB000356E050E366E89ECA2F0020E4160E3EF51
:100BC00085F0E5EF85F0EDEF85F04150070F156EEC
:100BD000030E99EC9FF0F3EF85F04150080F156E6E
:100BE000030E99EC9FF05350DFECA2F0150E3A6E15
:100BF0004B0E396EBE0EE82EFED7392EFCD73A2E9C
:100C0000FAD700D03B0E4124D96EDA6A050EDA22FB
:100C10005350D00FDF6E79EF86F03B0E4124D96E32
:100C2000DA6A050EDA22020EDF6419EF86F01BEF96
:100C300086F0A3EF86F0550E356E050E366E57EC36
:100C400099F0070E156E030E99EC9FF0FC0E146ED2
:100C5000FF0E156E29EC9CF0D4EF85F0020E3B18C8
:100C6000D8A435EF86F037EF86F0A3EF86F03B0E81
:100C70004124D96EDA6A050EDA22030EDF6443EFEF
:100C800086F045EF86F0A3EF86F0550E356E050E23
:100C9000366E57EC99F0080E156E030E99EC9FF026
:100CA000FC0E146EFF0E156E29EC9CF0D4EF85F04F
:100CB0003B0E4124D96EDA6A050EDA22050EDF6496
:100CC00064EF86F066EF86F0A3EF86F0550E356E82
:100CD000050E366E57EC99F00A0E156E030E99EC60
:100CE0009FF0FC0E146EFF0E156E29EC9CF0D4EFF5
:100CF00085F04150000AD8B40DEF86F0010AD8B44F
:100D00002EEF86F0030AD8B458EF86F0A3EF86F0F2
:100D10005350230AD8B4CEEF85F0090AD8B44AEF6D
:100D200085F06B0AD8B4CEEF85F0030AD8B4CEEFC5
:100D300085F0010AD8B4CEEF85F0070AD8B4CEEF1B
:100D400085F0D7EF85F05350D8B4A9EF86F0ABEF1C
:100D500086F0B3EF85F0412A030E4164B2EF86F0CE
:100D6000B4EF86F0B3EF85F0000E156E040E99EC2B
:100D70009FF0F20E146EFB0E156E29EC9CF0536A78
:100D8000D0EF86F0760E166E050E176EF9EC9CF01D
:100D9000536ED00E396ECA0EE82EFED7392EFCD710
:100DA0005350D8B4D6EF86F0D8EF86F0C2EF86F075
:100DB000EBEF86F0550E356E050E366E89ECA2F01F
:100DC000F6EF86F0550E356E050E366E57EC99F03F
:100DD000536AF6EF86F05350230AD8B4DAEF86F060
:100DE000090AD8B44AEF85F0E2EF86F05350D8B440
:100DF000FCEF86F0FEEF86F0BFEF86F04050050D69
:100E0000F3C439F5F4C43AF5090E39240E6E000E18
:100E10003A200F6E3B500A0DF3503C24106E40EC0C
:100E2000A2F04050050DF3C439F5F4C43AF50A0EAA
:100E300039240E6E000E3A200F6E3D500A0DF3500D
:100E40003E24106E40ECA2F04050050DF3C439F57D
:100E5000F4C43AF50D0E39240E6E000E3A200F6ED2
:100E60003FC510F540ECA2F00F6A010E0E6E40284F
:100E7000106E40ECA2F09FECA3F0000E156E010E78
:100E800099EC9FF00B0E146EFB0E156E29EC9CF086
:100E9000020E156E020E99EC9FF0FE0E146EFD0E02
:100EA000156E29EC9CF0030E156E030E99EC9FF065
:100EB000F60E146EFF0E156E29EC9CF0010E2E6ED0
:100EC0003F50CFECA1F0D60E146EFF0E156E29EC3C
:100ED0009CF04050050DF3C439F5F4C43AF5090E01
:100EE00039240B6E000E3A200C6E92ECA1F0516E7C
:100EF000020E2E6E5150CFECA1F0A80E146EFC0E17
:100F0000156E29EC9CF04050050DF3C439F5F4C47E
:100F10003AF50A0E39240B6E000E3A200C6E92EC54
:100F2000A1F0516E020E2E6E5150CFECA1F0000ECA
:100F3000156E040E99EC9FF00B0E146EFB0E156EE1
:100F400029EC9CF0520E3A6E2B0E396E000EE82EF4
:100F5000FED7392EFCD73A2EFAD700D012009FECDC
:100F6000A3F0060E156E010E99EC9FF04F0E146E55
:100F7000FF0E156E29EC9CF0000E156E030E99EC19
:100F80009FF0950E146EFE0E156E29EC9CF00C6A07
:100F9000010E0B6E92ECA1F0516E000E236E040E4A
:100FA000AEECA0F0000E156E030E99EC9FF06CEC09
:100FB000A3F0020E156E030E99EC9FF0640E146EF2
:100FC000FE0E156E29EC9CF0040E236E040EAEECA2
:100FD000A0F05128D8B4EFEF87F0F1EF87F0F9EFE8
:100FE00087F0060E5164F7EF87F0F9EF87F01DEFF9
:100FF00088F0080E236E040EAEECA0F0000E156E05
:10100000030E99EC9FF06CECA3F0020E156E030E2C
:1010100099EC9FF0E50E146EFE0E156E29EC9CF017
:101020003D0E3A6EE10E396E400EE82EFED7392E97
:10103000FCD73A2EFAD7B5EF89F05150D8A423EF58
:1010400088F025EF88F03EEF88F0080E236E040E3E
:10105000AEECA0F0000E156E030E99EC9FF06CEC58
:10106000A3F0000E156E030E99EC9FF01C0E146E8B
:10107000FC0E156E29EC9CF010EF88F0000E156E3A
:10108000030E99EC9FF06CECA3F0020E156E030EAC
:1010900099EC9FF0530E146EFE0E156E29EC9CF029
:1010A000080E236E040EAEECA0F00C0E236E040EA0
:1010B000AEECA0F051C541F5426AFF0E4124016E2D
:1010C000026AFF0E0222046A030E036EF7EC98F028
:1010D00001503F6E9FECA3F0000E156E010E99ECCF
:1010E0009FF0E10E146EFA0E156E29EC9CF01BEFCA
:1010F00089F0030E41647FEF88F081EF88F085EF7F
:1011000088F0030E406E87EF88F041C540F5436AD2
:10111000B8EF88F0000E156E4350020F99EC9FF067
:101120004350050DF3C439F5F4C43AF5090E3924DA
:10113000306E000E3A20316E4350050DF3C43BF57E
:10114000F4C43CF50A0E3B24326E000E3C20336E94
:101150004350050DF3C43DF5F4C43EF50D0E3D249A
:10116000346E000E3E20356E43283BEC9DF0432A42
:101170004050435CD8A0BFEF88F0C1EF88F08AEF01
:1011800088F026EF89F0FD0E4124396E3A6AFF0E91
:101190003A223ABED5EF88F03A5009E1040E395CA4
:1011A000D8A0D5EF88F0D7EF88F0DBEF88F0030EFA
:1011B000406EDEEF88F04150FD0F406E446A10EF44
:1011C00089F0000E156E4450020F99EC9FF04450C8
:1011D000050DF3C439F5F4C43AF5180E3924306E10
:1011E000000E3A20316E4450050DF3C43BF5F4C4B3
:1011F0003CF5190E3B24326E000E3C20336E4450F9
:10120000050DF3C43DF5F4C43EF51C0E3D24346ECB
:10121000000E3E20356E4450040F3BEC9DF0442AF6
:101220004050445CD8A017EF89F019EF89F0E1EF46
:1012300088F026EF89F04250000AD8B479EF88F0A0
:10124000010AD8B4C3EF88F026EF89F04250D8B431
:101250002CEF89F02EEF89F039EF89F00C0E156E26
:10126000020E99EC9FF0BD0E146EFF0E156E29EC68
:101270009CF03F50425CD8B040EF89F042EF89F0DB
:101280004DEF89F00C0E156E040E99EC9FF0B40E24
:10129000146EFF0E156E29EC9CF00C0E156E030EED
:1012A00099EC9FF0660E146EFD0E156E29EC9CF005
:1012B000536A69EF89F0760E166E050E176EF9EC1B
:1012C0009CF0536ED00E396ECA0EE82EFED7392E22
:1012D000FCD75350D8B46FEF89F071EF89F05BEF12
:1012E00089F0A6EF89F0550E356E050E366E89EC45
:1012F000A2F04250D8B47FEF89F081EF89F06AEF15
:1013000088F042066AEF88F0550E356E050E366E8F
:1013100089ECA2F03F50425CD8B091EF89F093EF96
:1013200089F06AEF88F0422A6AEF88F0550E356E30
:10133000050E366E89ECA2F0B5EF89F0550E356ECC
:10134000050E366E57EC99F06AEF88F053502A0A72
:10135000D8B496EF89F06B0AD8B473EF89F0030A1A
:10136000D8B484EF89F09EEF89F012003C6A9FECBC
:10137000A3F0010E156E010E99EC9FF0740E146E21
:10138000FB0E156E29EC9CF0000E156E030E99EC09
:101390009FF0950E146EFE0E156E29EC9CF00C6AF3
:1013A000020E0B6E92ECA1F0516E000E236E040E35
:1013B000AEECA0F0000E156E030E99EC9FF06CECF5
:1013C000A3F0000E156E030E99EC9FF0640E146EE0
:1013D000FE0E156E29EC9CF0040E236E040EAEEC8E
:1013E000A0F05128D8A4F7EF89F0F9EF89F01DEFAC
:1013F0008AF0080E236E040EAEECA0F0000E156EFF
:10140000030E99EC9FF06CECA3F0020E156E030E28
:1014100099EC9FF0E50E146EFE0E156E29EC9CF013
:101420003D0E3B6EE10E3A6E400EE82EFED73A2E90
:10143000FCD73B2EFAD7A0EF8BF0000E156E030EF3
:1014400099EC9FF06CECA3F0000E156E030E99EC76
:101450009FF0ED0E146EFD0E156E29EC9CF0020E41
:101460002E6E5150CFECA1F0080E236E040EAEECA0
:10147000A0F0000E156E030E99EC9FF06CECA3F03B
:10148000000E156E030E99EC9FF05F0E146EFB0EAE
:10149000156E29EC9CF00C0E236E040EAEECA0F041
:1014A0009FECA3F0000E156E010E99EC9FF0460E16
:1014B000146EFC0E156E29EC9CF0000E156E020EDB
:1014C00099EC9FF0EB0E146EFF0E156E29EC9CF05C
:1014D0000C6A0A0E0B6E92ECA1F0516E020E2E6E8B
:1014E0005150CFECA1F0640E146EFF0E156E29EC76
:1014F0009CF00C6A0B0E0B6E92ECA1F0516E020E7A
:101500002E6E5150CFECA1F0A30E146EFD0E156E91
:1015100029EC9CF0000E156E030E99EC9FF0F00E76
:10152000146EFF0E156E29EC9CF00C6A0C0E0B6EFF
:1015300092ECA1F0516E020E2E6E5150CFECA1F044
:10154000700E146EFF0E156E29EC9CF00C6A0D0ED9
:101550000B6E92ECA1F0516E020E2E6E5150CFEC3C
:10156000A1F0A30E146EFD0E156E29EC9CF0000E7A
:10157000156E040E99EC9FF0890E146EFB0E156E1D
:1015800029EC9CF0536AD3EF8AF0760E166E050EA6
:10159000176EF9EC9CF0536ED00E3A6ECA0EE82E20
:1015A000FED73A2EFCD75350D8B4D9EF8AF0DBEFF0
:1015B0008AF0C5EF8AF013EF8BF0550E356E050EED
:1015C000366E89ECA2F05350D00F3D6E120E156EA0
:1015D000040E99EC9FF05350DFECA2F0030E3B6E2B
:1015E000080E3A6E770EE82EFED73A2EFCD73B2E29
:1015F000FAD700003D5061EC97F026EF8BF0550EC6
:10160000356E050E366E57EC99F0120E156E040EFF
:1016100099EC9FF0CA0E146EFA0E156E29EC9CF030
:10162000536A26EF8BF05350310AD8B4DDEF8AF0BD
:10163000030AD8B4DDEF8AF0010AD8B4DDEF8AF0EE
:10164000070AD8B4DDEF8AF0FFEF8AF05350D8B420
:101650002CEF8BF02EEF8BF0C2EF8AF0536A3FEF46
:101660008BF0760E166E050E176EF9EC9CF0536E2D
:10167000D00E3A6ECA0EE82EFED73A2EFCD7535043
:10168000D8B445EF8BF047EF8BF031EF8BF085EF5F
:101690008BF0550E356E050E366E57EC99F02EEF29
:1016A0008BF0550E356E050E366E89ECA2F0A0EF6C
:1016B0008BF0550E356E050E366E31EC98F03CC54C
:1016C00030F53D50BAEC93F0090E3B6E1E0E3A6EAB
:1016D000E40EE82EFED73A2EFCD73B2EFAD700D0E8
:1016E000A0EF8BF0550E356E050E366E89ECA2F02C
:1016F0005350D00F3C6E120E156E030E99EC9FF0F6
:101700005350DFECA2F02EEF8BF05350230AD8B4E5
:1017100059EF8BF0090AD8B451EF8BF06B0AD8B4AB
:1017200049EF8BF0030AD8B449EF8BF0010AD8B423
:1017300049EF8BF0070AD8B449EF8BF072EF8BF0CA
:101740001200536A10EF8DF09FECA3F0050E156E9A
:10175000020E99EC9FF0880E146EFF0E156E29ECA8
:101760009CF0030E156E030E99EC9FF0130E146E91
:10177000FF0E156E29EC9CF0520E466E2B0E456E38
:10178000000EE82EFED7452EFCD7462EFAD700D005
:101790009FECA3F0000E156E010E99EC9FF0070E62
:1017A000146EFC0E156E29EC9CF0000E156E020EE8
:1017B00099EC9FF0630E146EFA0E156E29EC9CF0F6
:1017C000000E156E030E99EC9FF0780E146EFA0E53
:1017D000156E29EC9CF0000E156E040E99EC9FF02E
:1017E0008D0E146EFA0E156E29EC9CF0486A000EF0
:1017F000476E760E166E050E176EF9EC9CF0536E62
:101800005350D8B406EF8CF008EF8CF0FBEF8CF05F
:101810009FECA3F0E4EF8CF0550E356E050E366E9E
:1018200031EC98F0070E156E010E99EC9FF0DE0E6C
:10183000146EFF0E156E29EC9CF0020E156E020E52
:1018400099EC9FF0A50E146EFE0E156E29EC9CF01F
:10185000520E466E2B0E456E000EE82EFED7452E1C
:10186000FCD7462EFAD700D0B7EC84F0FBEF8CF013
:10187000550E356E050E366E31EC98F0070E156E6E
:10188000010E99EC9FF0DE0E146EFF0E156E29EC22
:101890009CF0010E156E020E99EC9FF0C90E146EAD
:1018A000FD0E156E29EC9CF0520E466E2B0E456E09
:1018B000000EE82EFED7452EFCD7462EFAD700D0D4
:1018C00000EC80F0FBEF8CF0550E356E050E366E99
:1018D00031EC98F0070E156E010E99EC9FF0DE0EBC
:1018E000146EFF0E156E29EC9CF0040E156E020EA0
:1018F00099EC9FF04B0E146EFF0E156E29EC9CF0C8
:10190000520E466E2B0E456E000EE82EFED7452E6B
:10191000FCD7462EFAD700D0AFEC87F0FBEF8CF067
:10192000550E356E050E366E31EC98F0070E156EBD
:10193000010E99EC9FF0DE0E146EFF0E156E29EC71
:101940009CF0010E156E020E99EC9FF0490E146E7C
:10195000FD0E156E29EC9CF0520E466E2B0E456E58
:10196000000EE82EFED7452EFCD7462EFAD700D023
:10197000B6EC89F0FBEF8CF0550E356E050E366E29
:1019800031EC98F018EF8DF0550E356E050E366E71
:10199000AFEC99F0020E156E020E99EC9FF0850ED9
:1019A000146EFE0E156E29EC9CF0150E466E4B0E55
:1019B000456EBE0EE82EFED7452EFCD7462EFAD732
:1019C00000D0536AFBEF8CF053502A0AD8B4BCEF16
:1019D0008CF01B0AD8B40CEF8CF0030AD8B438EFA3
:1019E0008CF0010AD8B464EF8CF0070AD8B490EFF9
:1019F0008CF0C4EF8CF0680E456EE40EE82EFED736
:101A0000452EFCD700D0474A482AF40E475C010E09
:101A10004858D8A00EEF8DF010EF8DF0F9EF8BF055
:101A20005350D8B416EF8DF018EF8DF0A4EF8BF073
:101A3000120004500510D8A420EF8DF022EF8DF095
:101A400025EF8DF0000E45EF8EF004C5D9F405C5E5
:101A5000DAF4DF507F0B096E20EE01F00450D92636
:101A60000550DA22DF507F0B0A6E20EE04F004509E
:101A7000D9260550DA22DF503F0B0B6E20EE05F021
:101A80000450D9260550DA22DF501F0B0C6E20EED1
:101A900006F00450D9260550DA22DF50066E20EEFB
:101AA00003F00450D9260550DA22DF50070B0F6EE1
:101AB00020EE02F00450D9260550DA22DFAC63EFA5
:101AC0008DF065EF8DF070EF8DF020EE02F0045098
:101AD000D9260550DA22DF501F0B106E79EF8DF0FA
:101AE00020EE02F00450D9260550DA22DF503F0BD9
:101AF000106E0950ECECA1F00009D8B482EF8DF023
:101B000084EF8DF022EF8DF00A50ECECA1F000098B
:101B1000D8B48DEF8DF08FEF8DF022EF8DF0105057
:101B2000ECECA1F00009D8B498EF8DF09AEF8DF0AD
:101B300022EF8DF00B50ECECA1F00009D8B4A3EF2C
:101B40008DF0A5EF8DF022EF8DF00C50ECECA1F0B4
:101B50000009D8B4AEEF8DF0B0EF8DF022EF8DF02C
:101B60000650ECECA1F00009D8A4B9EF8DF0BBEF62
:101B70008DF0BDEF8DF022EF8DF0095036ECA3F023
:101B8000076E0A5036ECA3F0086E105036ECA3F046
:101B9000116E0B5036ECA3F00D6E0C5036ECA3F02A
:101BA0000E6E3B0E0764D7EF8DF0D9EF8DF0DBEFB3
:101BB0008DF022EF8DF03B0E0864E1EF8DF0E3EF46
:101BC0008DF0E5EF8DF022EF8DF020EE02F0045065
:101BD000D9260550DA22DFACF0EF8DF0F2EF8DF070
:101BE00004EF8EF01150D8B4F8EF8DF0FAEF8DF0CD
:101BF00022EF8DF00C0E116400EF8EF002EF8EF0EC
:101C00000EEF8EF022EF8DF0170E11640AEF8EF0BA
:101C10000CEF8EF00EEF8EF022EF8DF00F50D8B457
:101C200014EF8EF016EF8EF022EF8DF0070E0F649A
:101C30001CEF8EF01EEF8EF020EF8EF022EF8DF075
:101C40000D50D8B426EF8EF028EF8EF022EF8DF0F5
:101C50001F0E0D642EEF8EF030EF8EF032EF8EF00F
:101C600022EF8DF00E50D8B438EF8EF03AEF8EF0B0
:101C700022EF8DF00C0E0E6440EF8EF042EF8EF0EE
:101C800044EF8EF022EF8DF0010E1200125013106F
:101C9000D8A44DEF8EF04FEF8EF052EF8EF0050E80
:101CA00034EF8FF020EE08F01250D9261350DA22CC
:101CB000DF6A20EE09F01250D9261350DA22DF6ACB
:101CC00020EE0AF01250D9261350DA22DF6A20EEF5
:101CD0000BF01250D9261350DA22DF6A170E106E5D
:101CE000050E116E9FECA2F01E6E1E50D8B47BEF55
:101CF0008EF07DEF8EF080EF8EF01E5034EF8FF07F
:101D000020EE08F01250D9261350DA2217AE8BEFCE
:101D10008EF08EEF8EF0010E8FEF8EF0000EDF6EE4
:101D200020EE09F01250D9261350DA2219BC9BEF8D
:101D30008EF09EEF8EF0010E9FEF8EF0000EDF6EA4
:101D400020EE09F01250D9261350DA22DF50D8B411
:101D5000ACEF8EF0AEEF8EF0CBEF8EF020EE0AF00F
:101D60001250D9261350DA2219BAB9EF8EF0BCEF0F
:101D70008EF0010EBDEF8EF0000EDF6E20EE02F051
:101D80001250D9261350DA2219501F0B36ECA3F04B
:101D9000DF6EDDEF8EF020EE0AF01250D9261350E0
:101DA000DA22DF6A20EE02F01250D9261350DA222E
:101DB00019503F0B36ECA3F0DF6E17507F0B36EC5B
:101DC000A3F012C5D9F413C5DAF4DF6E20EE01F0EA
:101DD0001250D9261350DA2218507F0B36ECA3F09C
:101DE000DF6E20EE03F01250D9261350DA221A507B
:101DF000070BDF6E20EE04F01250D9261350DA22C2
:101E00001B503F0B36ECA3F0DF6E20EE05F01250B6
:101E1000D9261350DA221C501F0B36ECA3F0DF6ECC
:101E20001D5036ECA3F0146ED00E1424156E166AF5
:101E3000070E162220EE06F01250D9261350DA2291
:101E400015C5DEF416C5DDF4170E046E050E056E1D
:101E500019EC8DF0146E20EE0BF01250D9261350B1
:101E6000DA2214C5DFF4000E12001C501D10D8A495
:101E70003CEF8FF03EEF8FF040EF8FF01CEF90F0D3
:101E8000640E206446EF8FF048EF8FF04AEF8FF03A
:101E9000640E206E400E0D6E420E0E6E0F0E0F6E13
:101EA000000E106E1CC511F51DC512F5136A146ADB
:101EB0005AEC9AF00DC52DF50EC52EF50FC52FF570
:101EC00010C530F52050016E026A036A046A2DC500
:101ED00005F52EC506F52FC507F530C508F564ECE8
:101EE0009EF001C50DF502C50EF503C50FF504C53D
:101EF00010F5640E116E000E126E000E136E000EC1
:101F0000146E5AEC9AF00DC531F50EC532F50FC5B9
:101F100033F510C534F531502D5C296E32502E58F2
:101F20002A6E33502F582B6E345030582C6E1EC5ED
:101F300001F51FC502F5036A046AE80E056E030E7B
:101F4000066E000E076E000E086E64EC9EF001C572
:101F50000DF502C50EF503C50FF504C510F52DC529
:101F600011F52EC512F52FC513F530C514F55AEC31
:101F70009AF00DC521F50EC522F50FC523F510C544
:101F800024F5000E256E000E266E000E276E000E44
:101F9000286E07EF90F03150321033103410D8B45F
:101FA000D4EF8FF0D6EF8FF0E6EF8FF01AC501F582
:101FB0001BC502F58AECA0F031C501F532C502F56A
:101FC00033C503F534C504F572ECA2F029502A108C
:101FD0002B102C10D8B4EFEF8FF0F1EF8FF001EF52
:101FE00090F01AC501F51BC502F565ECA0F029C5F6
:101FF00001F52AC502F52BC503F52CC504F572ECD5
:10200000A2F0010E2526000E26222722282221508A
:10201000255C225026582350275824502858D8A0F1
:1020200014EF90F016EF90F0CBEF8FF01AC501F59A
:102030001BC502F565ECA0F012002550D8B423EFC3
:1020400090F025EF90F036EF90F0060E25602BEF24
:1020500090F02DEF90F036EF90F02550265CD8A050
:1020600034EF90F036EF90F039EF90F0050EF2EF8C
:1020700090F0010E296E000E2A6E000E2B6E000EDF
:102080002C6E010E286E60EF90F029C501F52AC56F
:1020900002F52BC503F52CC504F50A0E056E000EDE
:1020A000066E000E076E000E086E64EC9EF001C511
:1020B00029F502C52AF503C52BF504C52CF5282AF8
:1020C0002550285CD8A067EF90F069EF90F045EFBD
:1020D00090F0286AE8EF90F02650D8B472EF90F0B4
:1020E00074EF90F08DEF90F02650255C2818D8A45E
:1020F0007CEF90F07EEF90F08DEF90F02E0EDFEC05
:10210000A2F02D6E2D50D8B488EF90F08AEF90F0A9
:102110008DEF90F02D50F2EF90F029C511F52AC502
:1021200012F52BC513F52CC514F523C50DF524C5E3
:102130000EF50F6A106A5AEC9AF00DC51AF50EC525
:102140001BF50FC51CF510C51DF50A0E1E6E000E01
:102150001F6E000E206E000E216E71EC9CF01A5066
:10216000276E2750300FDFECA2F02D6E2D50D8B423
:10217000BCEF90F0BEEF90F0C0EF90F08AEF90F0DF
:102180002C502B102A1009E1020E295CD8A0CBEFAD
:1021900090F0CDEF90F0E7EF90F029C50DF52AC54E
:1021A0000EF52BC50FF52CC510F50A0E116E000E9D
:1021B000126E000E136E000E146E5AEC9AF00DC5DE
:1021C00029F50EC52AF50FC52BF510C52CF5282AC3
:1021D0002550285CD8A0EFEF90F0F1EF90F06CEF75
:1021E00090F0000E12009FECA3F0000E156E020E90
:1021F00099EC9FF0C80E146EFB0E156E29EC9CF046
:10220000000E156E030E99EC9FF039C514F53AC512
:1022100015F529EC9CF047EF91F0000E106E060EBC
:10222000116EC80E126E000E136E000E146EF4ECDA
:10223000A2F0550E356E050E366EAFEC99F052EFEA
:1022400091F0000E106E060E116EFA0E126EC80E90
:10225000136E000E146EF4ECA2F0550E356E050EE2
:10226000366E57EC99F0520E3D6E2B0E3C6E000E02
:10227000E82EFED73C2EFCD73D2EFAD700D0000E1C
:10228000106E060E116E07ECA3F0B1EF91F03B500B
:10229000010AD8B40DEF91F0030AD8B421EF91F000
:1022A00052EF91F07A0E3D6EC10E3C6E820EE82E1A
:1022B000FED73C2EFCD73D2EFAD79FECA3F0000EA4
:1022C000156E020E99EC9FF0B70E146EFD0E156E92
:1022D00029EC9CF0000E156E030E99EC9FF0FA0E9F
:1022E000146EFC0E156E29EC9CF0536A86EF91F08B
:1022F000760E166E050E176EF9EC9CF0536ED00E2E
:102300003C6ECA0EE82EFED73C2EFCD75350D8B4F4
:102310008CEF91F08EEF91F078EF91F0A2EF91F0C9
:10232000550E356E050E366E89ECA2F0FF00A9EF52
:1023300091F0550E356E050E366E57EC99F0536AD6
:10234000A9EF91F05350230AD8B490EF91F099EF90
:1023500091F05350D8B4AFEF91F0B1EF91F075EF29
:1023600091F01200030E166E080E156E770EE82E11
:10237000FED7152EFCD7162EFAD70000080E5D6E7C
:10238000040E5C6E5D5085ECA3F0176E1750D8B448
:10239000CCEF91F0CEEF91F0D0EF91F065EF92F0AD
:1023A000340E156EF20EE82EFED7152EFCD7000E59
:1023B000096E300E73ECA1F0176E1750D8B4E3EF2E
:1023C00091F0E5EF91F0E7EF91F065EF92F0340EC8
:1023D000156EF20EE82EFED7152EFCD7000E096EF4
:1023E000300E73ECA1F0176E1750D8B4FAEF91F0DD
:1023F000FCEF91F0FEEF91F065EF92F0F00E00D05F
:10240000E82EFDD7000E096E300E73ECA1F0176EAA
:102410001750D8B40EEF92F010EF92F012EF92F046
:1024200065EF92F0F00E00D0E82EFDD7000E096E99
:10243000200E73ECA1F0176E1750D8B422EF92F073
:1024400024EF92F026EF92F065EF92F0F00E00D0BC
:10245000E82EFDD7280ECDEC9EF0176E1750D8B49D
:1024600034EF92F036EF92F038EF92F065EF92F0A1
:102470005C6A9AECA3F0176E1750D8B442EF92F052
:1024800044EF92F046EF92F065EF92F09FECA3F0EC
:10249000176E1750D8B44FEF92F051EF92F053EF00
:1024A00092F065EF92F0060ECDEC9EF0176E17508D
:1024B000D8B45DEF92F05FEF92F061EF92F065EFCC
:1024C00092F0040E5C6E9AECA3F012005250D8B455
:1024D0006CEF92F06EEF92F076EF92F00F0E396E95
:1024E000FE0E3A6E010E3B6EF3EC90F06A0E126E29
:1024F000050E136E46EC8EF0526E5250D8B483EF38
:1025000092F085EF92F08DEF92F0200E396EFE0E74
:102510003A6E010E3B6EF3EC90F005017251D8A4B7
:1025200094EF92F096EF92F09EEF92F03E0E396E9D
:10253000FF0E3A6E010E3B6EF3EC90F00501755103
:10254000D8A4A5EF92F0A7EF92F0AFEF92F0B30E00
:10255000396EFB0E3A6E010E3B6EF3EC90F009EC17
:10256000A2F00009D8A4B7EF92F0B9EF92F0C1EF52
:1025700092F09E0E396EFB0E3A6E010E3B6EF3EC3E
:1025800090F00C6A010E0B6E92ECA1F00009D8A439
:10259000CCEF92F0CEEF92F0D6EF92F0C50E396EFE
:1025A000FE0E3A6E020E3B6EF3EC90F00C6A020ED9
:1025B0000B6E92ECA1F00009D8A4E1EF92F0E3EFEA
:1025C00092F0EBEF92F0420E396EFE0E3A6E020E72
:1025D0003B6EF3EC90F09FECA3F0000E156E020E34
:1025E00099EC9FF0310E146EFE0E156E29EC9CF0E6
:1025F000000E106E060E116E000E126EC80E136ED7
:10260000000E146EF4ECA2F0520E3F6E2B0E3E6ED6
:10261000000EE82EFED73E2EFCD73F2EFAD700D074
:10262000000E106E060E116E07ECA3F0120007C527
:10263000D9F408C5DAF409C5DEF40AC5DDF420EEE4
:1026400002F00750D9260850DA220BC5DEF40CC57B
:10265000DDF420EE04F00750D9260850DA220DC52B
:10266000DEF40EC5DDF420EE06F00750D926085042
:10267000DA220FC5DEF410C5DDF420EE08F00750B5
:10268000D9260850DA2211C5DEF412C5DDF420EE99
:1026900006F00750D9260850DA22DEC413F5DDC44F
:1026A00014F513C5D9F414C5DAF4DF6A20EE04F08A
:1026B0000750D9260850DA22DEC413F5DDC414F51C
:1026C00013C5D9F414C5DAF410EE04F00750E1266E
:1026D0000850E222E6C415F5E5C416F515C5E1F487
:1026E00016C5E2F4E750F00BDF6E20EE04F0075061
:1026F000D9260850DA22DEC413F5DDC414F513C55B
:10270000D9F414C5DAF410EE04F00750E1260850AD
:10271000E222E6C415F5E5C416F515C5E1F416C5C3
:10272000E2F4E750F009DF6E20EE08F00750D926FA
:102730000850DA22DEC413F5DDC414F513C5D9F44C
:1027400014C5DAF410EE08F00750E1260850E22232
:10275000E6C415F5E5C416F515C5E1F416C5E2F4B1
:10276000E750F009DF6E07C501F508C502F553EC27
:10277000A1F01200386E530EF66EFA0EF76E000ED0
:10278000F86E0900F5C434F50900F5C435F5090003
:10279000F5C436F50A00F5C437F5FF0E3824316E5E
:1027A000326AFF0E3222340E3124D96E050E3220E9
:1027B000DA6EDF50336E33500B6E0C6A92ECA1F080
:1027C000516EFF0E3824316E326AFF0E3222340E03
:1027D0003124D96E050E3220DA6EDF50336E33505D
:1027E0000E6E0F6A51503024106E40ECA2F00C6A4D
:1027F000020E0B6E92ECA1F0516E0F6A020E0E6E7D
:1028000051503024106E40ECA2F09FECA3F0000E6B
:10281000156E010E99EC9FF0200E146EFB0E156ED6
:1028200029EC9CF0000E156E020E99EC9FF0580EEC
:10283000146EFF0E156E29EC9CF0010E2E6E3850B2
:10284000CFECA1F0E50E146EFF0E156E29EC9CF096
:10285000000E156E020E99EC9FF0750E146EFE0EB2
:10286000156E29EC9CF0FF0E3824316E326AFF0E93
:102870003222340E3124D96E050E3220DA6EDF504A
:10288000336E33500B6E0C6A92ECA1F0516E020E57
:102890002E6E5150CFECA1F0A30E146EFD0E156EEE
:1028A00029EC9CF0120001C5D9F402C5DAF403C585
:1028B000DEF404C5DDF420EE02F00150D92602500A
:1028C000DA2205C5DEF406C5DDF420EE04F0015081
:1028D000D9260250DA2207C5DEF408C5DDF420EE61
:1028E00006F00150D9260250DA2209C5DFF420EEA5
:1028F00007F00150D9260250DA22DF6A20EE06F0F6
:102900000150D9260250DA22DF50D8A48AEF94F081
:102910008CEF94F0BCEF94F020EE02F00150D92639
:102920000250DA22DEC40AF5DDC40BF50AC5D9F47B
:102930000BC5DAF4F00EDF1620EE04F00150D926B4
:102940000250DA22DEC40AF5DDC40BF50AC5D9F45B
:102950000BC5DAF4F00EDF1601C5D9F402C5DAF4BE
:10296000DEC40AF5DDC40BF50AC5D9F40BC5DAF4EB
:10297000F00EDF16EAEF94F020EE02F00150D926B7
:102980000250DA22DEC40AF5DDC40BF50AC5D9F41B
:102990000BC5DAF40F0EDF1620EE04F00150D92635
:1029A0000250DA22DEC40AF5DDC40BF50AC5D9F4FB
:1029B0000BC5DAF40F0EDF1601C5D9F402C5DAF43F
:1029C000DEC40AF5DDC40BF50AC5D9F40BC5DAF48B
:1029D0000F0EDF161200000E156E020E99EC9FF01E
:1029E000DD0E146EFB0E156E29EC9CF0000E156EBC
:1029F000040E99EC9FF0F60E146EFA0E156E29EC8B
:102A00009CF06A0E126E050E136E46EC8EF0526E3E
:102A10005250D8A40EEF95F010EF95F021EF95F0FD
:102A200005017251D8B417EF95F019EF95F021EF29
:102A300095F07551D8A41FEF95F021EF95F029EF8F
:102A400095F0200E396EFE0E3A6E010E3B6EF3ECE1
:102A500090F0060E156E010E99EC9FF0020E2E6E90
:102A600005016C51CFECA1F0A80E146EFC0E156E92
:102A700029EC9CF0090E156E010E99EC9FF0020EE8
:102A80002E6E05016B51CFECA1F0A80E146EFC0E5A
:102A9000156E29EC9CF00C0E156E010E99EC9FF052
:102AA000020E2E6E05016A51CFECA1F00B0E4A6E9C
:102AB000260E496E5E0EE82EFED7492EFCD74A2E12
:102AC000FAD7760E166E050E176EF9EC9CF0536E63
:102AD000D00E496ECA0EE82EFED7492EFCD77BEFEA
:102AE00095F0550E356E050E366E31EC98F0A1EC72
:102AF0008BF082EF95F05350230AD8B471EF95F024
:102B000001EF95F0120008C5D9F409C5DAF40AC539
:102B1000DEF40BC5DDF420EE02F00850D926095092
:102B2000DA220CC5DEF40DC5DDF420EE04F0085009
:102B3000D9260950DA220EC5DEF40FC5DDF420EEE9
:102B400006F00850D9260950DA2210C5DFF420EE2D
:102B500004F00850D9260950DA22DEC411F5DDC48C
:102B600012F511C5D9F412C5DAF410EE04F00850CC
:102B7000E1260950E222E6C413F5E5C414F513C5B5
:102B8000E1F414C5E2F4E750156E10EE06F00850BB
:102B9000E1260950E222E750FF0A1514DF6E20EE0D
:102BA00002F00850D9260950DA22DEC411F5DDC43E
:102BB00012F511C5D9F412C5DAF410EE02F008507E
:102BC000E1260950E222E6C413F5E5C414F513C565
:102BD000E1F414C5E2F4E750156E10EE06F008506B
:102BE000E1260950E222E750FF0A1514DF6E08C5FE
:102BF00001F509C502F565ECA0F01200066E800E25
:102C0000066005EF96F007EF96F018EF96F0035088
:102C10000410D8B40EEF96F010EF96F018EF96F07F
:102C20000550D8A416EF96F018EF96F01DEF96F029
:102C3000050E546E545078EF96F066EC9FF0086ED7
:102C40000850D8B426EF96F028EF96F02FEF96F0C4
:102C500008C554F593ECA3F0085078EF96F0A3EC78
:102C6000A3F00201949D065006248F6F05C58DF2D6
:102C700003C5D9F404C5DAF4DF508C6F948B010ED0
:102C8000076E5AEF96F078EC9DF0086E0850D8B4B5
:102C90004CEF96F04EEF96F050EF96F028EF96F04E
:102CA00007500324D96E000E0420DA6EDF500201B3
:102CB0008C6F072A0550075CD8A061EF96F063EF90
:102CC00096F043EF96F0B5EC9CF0086E0850D8B43F
:102CD0006CEF96F06EEF96F072EF96F093ECA3F037
:102CE00074EF96F0A3ECA3F008C554F52CEF96F022
:102CF000120001C5D9F402C5DAF403C5DEF404C537
:102D0000DDF420EE02F00150D9260250DA2205C58A
:102D1000DEF406C5DDF420EE04F00150D9260250A1
:102D2000DA2207C5DEF408C5DDF420EE06F0015016
:102D3000D9260250DA2209C5DFF420EE04F0015052
:102D4000D9260250DA22DEC40AF5DDC40BF50AC525
:102D5000D9F40BC5DAF410EE04F00150E12602506C
:102D6000E222E6C40CF5E5C40DF50CC5E1F40DC591
:102D7000E2F4E7500E6E10EE06F00150E12602502C
:102D8000E222E750FF0A0E14DF6E20EE02F001503F
:102D9000D9260250DA22DEC40AF5DDC40BF50AC5D5
:102DA000D9F40BC5DAF410EE06F00150E12602501A
:102DB000E222E7500C6E10EE02F00150E1260250C4
:102DC000E222E6C40DF5E5C40EF50DC5E1F40EC52D
:102DD000E2F4E7500C10DF6E1200066E800E066003
:102DE000F4EF96F0F6EF96F007EF97F0035004102B
:102DF000D8B4FDEF96F0FFEF96F007EF97F005508F
:102E0000D8A405EF97F007EF97F00CEF97F0050EB9
:102E1000546E545060EF97F066EC9FF0086E0850C7
:102E2000D8B415EF97F017EF97F01EEF97F008C59D
:102E300054F593ECA3F0085060EF97F0A3ECA3F0E7
:102E40000201949D958F05C58DF2D88006348F6F51
:102E5000948B076A42EF97F0B5EC9DF0086E08502E
:102E6000D8B435EF97F037EF97F039EF97F017EFC9
:102E700097F007500324D96E000E0420DA6E8BC23F
:102E8000DFF4072A0550075CD8A049EF97F04BEF15
:102E900097F02CEF97F033EC9FF0086E0850D8B401
:102EA00054EF97F056EF97F05AEF97F093ECA3F0AA
:102EB0005CEF97F0A3ECA3F008C554F51BEF97F077
:102EC0001200396E4F0EF66EFA0EF76E000EF86EA7
:102ED0000900F5C435F50900F5C436F50900F5C457
:102EE00037F50A00F5C438F59FECA3F0000E156E17
:102EF000010E99EC9FF06F0E146EFD0E156E29EC0D
:102F00009CF039C52EF52F6A020E306E000E316E20
:102F10004DECA3F0DE0E146EFA0E156E29EC9CF04B
:102F2000000E156E020E99EC9FF0810E146EFD0ED0
:102F3000156E29EC9CF0FF0E3924326E336AFF0EB9
:102F40003322350E3224D96E050E3320DA6EDF506F
:102F5000346E34500B6E0C6A92ECA1F0516E020E7E
:102F60002E6E5150CFECA1F0000E156E030E99ECB1
:102F70009FF0820E146EFC0E156E29EC9CF0000E74
:102F8000156E040E99EC9FF06E0E146EFC0E156E0D
:102F900029EC9CF01200146A0FC507F510C508F55E
:102FA00014C509F500EC9FF00D0EE82EFED70000C9
:102FB000156A570E1524F66EF76AFA0EF722F86AAC
:102FC000000EF8220800F5C411F50FC5D9F410C59C
:102FD000DAF4DEC412F5DDC413F512C5D9F413C555
:102FE000DAF4DF5011140009D8A4F9EF97F0FBEFE1
:102FF00097F017EF98F00FC501F510C502F553ECE7
:10300000A1F01450040D370EF324116EFA0EF420C3
:10301000126E15501126000E122211C5F6F412C5BB
:10302000F7F4000EF86E0800F55030EF98F0152A0E
:10303000030E15641EEF98F020EF98F0D9EF97F08B
:10304000142A030E146427EF98F029EF98F0CCEFC0
:1030500097F00FC501F510C502F553ECA1F0000E75
:10306000120035C51AF536C51BF5020E1D6E0B0E86
:103070001C6E1F6A500E1E6E320E206E35EC8FF0E5
:10308000D00E376ECA0EE82EFED7372EFCD735C5C8
:103090001AF536C51BF5020E1D6E930E1C6E1F6AC7
:1030A0005A0E1E6E320E206E35EC8FF0D00E376E3B
:1030B000CA0EE82EFED7372EFCD735C51AF536C511
:1030C0001BF5030E1D6E100E1C6E1F6A780E1E6E11
:1030D000320E206E35EC8FF0D00E376ECA0EE82E11
:1030E000FED7372EFCD735C51AF536C51BF5040EAD
:1030F0001D6E170E1C6E1F6AB40E1E6E320E206EF1
:1031000035EC8FF0020E386EA00E376E920EE82E60
:10311000FED7372EFCD7382EFAD700D035C508F5A4
:1031200036C509F58CECA3F01200CA800401218198
:103130002091ACEC9AF063ECA3F0CAECA2F025EC81
:10314000A2F04EEC9BF0B5ECA2F042ECA3F0D2B0B2
:10315000ACEF98F0AEEF98F0DFEF98F0000E156E40
:10316000010E99EC9FF0250E146EFF0E156E29ECE2
:103170009CF0150E196E4B0E186EBE0EE82EFED783
:10318000182EFCD7192EFAD700D01A6A1AC50BF5DB
:103190000C6A000E0D6EEFEC9FF01A2A260E1A64D0
:1031A000D4EF98F0D6EF98F0C6EF98F00C6A030EC3
:1031B0000B6E040E0D6EEFEC9FF0F6EF98F0000E24
:1031C000156E010E99EC9FF0220E146EFF0E156E17
:1031D00029EC9CF0150E196E4B0E186EBE0EE82EE3
:1031E000FED7182EFCD7192EFAD700D01200066A87
:1031F00004BEFFEF98F0FDEF98F005EF99F0036C37
:10320000041ED8B0042A010E066E02BE0CEF99F01F
:103210000AEF99F012EF99F0016C021ED8B0022A61
:10322000010E061A086A000E076E03500410D8B487
:103230001CEF99F01EEF99F046EF99F0010E056E24
:1032400026EF99F0D89003360436052A04AE2BEF0A
:1032500099F02DEF99F022EF99F0D89007360836C3
:103260000350015C04500258D8A039EF99F03BEFAD
:1032700099F040EF99F00350015E0450025A078024
:10328000D89004320332052E2DEF99F00650D8B4B1
:103290004CEF99F04EEF99F052EF99F0076C081E41
:1032A000D8B0082A07C501F508C502F5120035C5D2
:1032B0001AF536C51BF5030E1D6E700E1C6E1F6AC7
:1032C0005A0E1E6E320E206E35EC8FF0040E386EE4
:1032D000400E376E260EE82EFED7372EFCD7382E3E
:1032E000FAD700D035C51AF536C51BF5030E1D6E8D
:1032F000700E1C6E1F6A5A0E1E6E320E206E35EC5A
:103300008FF0040E386E400E376E260EE82EFED774
:10331000372EFCD7382EFAD700D035C51AF536C56A
:103320001BF5030E1D6E700E1C6E1F6A5A0E1E6E6C
:10333000320E206E35EC8FF0050E386E0F0E376EA4
:10334000F10EE82EFED7372EFCD7382EFAD7000024
:1033500035C508F536C509F58CECA3F0120035C566
:103360001AF536C51BF5010E1D6E880E1C6E1F6A00
:10337000A00E1E6E3C0E206E35EC8FF0020E386EE5
:10338000A00E376E920EE82EFED7372EFCD7382EC1
:10339000FAD700D035C51AF536C51BF5010E1D6EDE
:1033A0004A0E1C6E1F6AB40E1E6E3C0E206E35EC6B
:1033B0008FF0020E386EA00E376E920EE82EFED7FA
:1033C000372EFCD7382EFAD700D035C51AF536C5BA
:1033D0001BF5010E1D6E060E1C6E1F6AFA0E1E6E88
:1033E000460E206E35EC8FF0030E386E700E376E81
:1033F0005C0EE82EFED7372EFCD7382EFAD700D039
:1034000035C508F536C509F58CECA3F012001E0E83
:1034100003640DEF9AF00FEF9AF017EF9AF001C5E1
:10342000D9F402C5DAF41E0EDF6E1DEF9AF001C565
:10343000D9F402C5DAF403C5DFF404011091C89091
:10344000C090066A4CEF9AF006500124046E000EFC
:103450000220056E010E0424D96E000E0520DA6EDE
:10346000DF6A06500124046E000E0220056E1F0E56
:103470000424D96E000E0520DA6EDF6A065001249E
:10348000046E000E0220056E3D0E0424D96E000E5F
:103490000520DA6EDF6A062A01C5D9F402C5DAF41E
:1034A000DE50065CD8A057EF9AF059EF9AF024EF5F
:1034B0009AF01200000E156E000E166E000E176EBA
:1034C000000E186E1150121013101410D8B46BEFB8
:1034D0009AF06DEF9AF0A3EF9AF0010E196E77EF64
:1034E0009AF0D8901136123613361436192A14AEC3
:1034F0007CEF9AF07EEF9AF071EF9AF0D890153643
:1035000016361736183611500D5C12500E581350DF
:103510000F5814501058D8A090EF9AF092EF9AF0EC
:103520009BEF9AF011500D5E12500E5A13500F5A25
:103530001450105A1580D8901432133212321132AE
:10354000192E7EEF9AF015C50DF516C50EF517C5A7
:103550000FF518C510F51200980E016E050E026EDB
:10356000BE0E036E040E046EC60E056E040E066ECD
:10357000000E076E040E086E000E096E53EC94F0F8
:10358000900E016E050E026EBE0E036E040E046EEA
:10359000C60E056E040E066E000E076E040E086E53
:1035A000010E096E53EC94F0880E016E050E026E4A
:1035B000BF0E036E040E046EC70E056E040E066E7B
:1035C000080E076E040E086E000E096E53EC94F0A0
:1035D000800E016E050E026EBF0E036E040E046EA9
:1035E000C70E056E040E066E080E076E040E086EFA
:1035F000010E096E53EC94F0120001C5D9F402C516
:10360000DAF403C5DEF404C5DDF420EE02F0015067
:10361000D9260250DA2205C5DEF406C5DDF420EE17
:1036200004F00150D9260250DA2207C5DFF420EE5B
:1036300005F00150D9260250DA2208C5DFF420EE49
:1036400004F00150D9260250DA22DF50096E01C57C
:10365000D9F402C5DAF4DEC40AF5DDC40BF50AC5F7
:10366000D9F40BC5DAF40950DF1220EE04F0015052
:10367000D9260250DA22DF50096E20EE02F0015006
:10368000D9260250DA22DEC40AF5DDC40BF50AC5DC
:10369000D9F40BC5DAF40950DF1212007DECA3F067
:1036A000B90E016E050E026ECB0E036E040E046E93
:1036B000280E056E040E066E010E076E280E086EAB
:1036C000FDEC9AF0B30E016E050E026ECB0E036E8A
:1036D000040E046E280E056E040E066E020E076EB2
:1036E000290E086EFDEC9AF0AD0E016E050E026E0D
:1036F000CB0E036E040E046E280E056E040E066ECD
:10370000040E076E2A0E086EFDEC9AF0A70E016EED
:10371000050E026ECB0E036E040E046E280E056EAF
:10372000040E066E080E076E2B0E086EFDEC9AF066
:10373000120015501610D8B4A0EF9BF0A2EF9BF02A
:10374000AAEF9BF0070E1764A8EF9BF0AAEF9BF07F
:10375000ADEF9BF0050EE0EF9BF01738E842F80B59
:103760004009CDEC9EF0196E1950D8B4BAEF9BF019
:10377000BCEF9BF0BFEF9BF01950E0EF9BF0186A95
:1037800018501524D96E000E1620DA6EDF50DFECCB
:10379000A2F0196E1950D8B4D0EF9BF0D2EF9BF085
:1037A000D4EF9BF0BCEF9BF0182A070E1864DBEFF8
:1037B0009BF0DDEF9BF0C0EF9BF0800ECDEC9EF018
:1037C0001200086A12EF9CF008500424066E000EE6
:1037D0000520076E1F0E0624D96E000E0720DA6E34
:1037E000DF5013ECA1F008500424066E000E0520F3
:1037F000076E010E0624D96E000E0720DA6EDF5028
:1038000013ECA1F008500424066E000E0520076E8C
:103810003D0E0624D96E000E0720DA6EDF5013EC41
:10382000A1F0082A04C5D9F405C5DAF4DE50085C15
:10383000D8A01DEF9CF01FEF9CF0E4EF9BF0C09030
:10384000040E066E1C0EE82EFED7062EFCD700D006
:10385000120014501510D8A430EF9CF032EF9CF0F9
:1038600056EF9CF0050E70EF9CF014C5F6F415C5EC
:10387000F7F4000EF86E250EF76403D00800F5503B
:1038800005D0F6C4E9F4F7C4EAF4EF50DFECA2F097
:10389000166E1650D8B44FEF9CF051EF9CF054EFD9
:1038A0009CF0165070EF9CF0144A152A14C5F6F4DB
:1038B00015C5F7F4000EF86E250EF76403D0080066
:1038C000F55005D0F6C4E9F4F7C4EAF4EF50000966
:1038D000D8A46DEF9CF06FEF9CF035EF9CF0000EDC
:1038E00012001E501F1020102110D8B47AEF9CF047
:1038F0007CEF9CF0ACEF9CF0010E226E86EF9CF00A
:10390000D8901E361F3620362136222A21AE8BEF64
:103910009CF08DEF9CF080EF9CF01E501A5C1F50C5
:103920001B5820501C5821501D58D8A09AEF9CF0CD
:103930009CEF9CF0A4EF9CF01E501A5E1F501B5A87
:1039400020501C5A21501D5AD890213220321F324B
:103950001E32222E8DEF9CF01AC51AF51BC51BF5E1
:103960001CC51CF51DC51DF51200EA0E026E600E89
:10397000016EDEEF9CF097ADC0EF9CF0C2EF9CF0C3
:10398000C5EF9CF0030EF8EF9CF097ABCAEF9CF0EC
:10399000CCEF9CF0CFEF9CF0020EF8EF9CF00150C2
:1039A0000210D8A4D6EF9CF0D8EF9CF0DBEF9CF08F
:1039B000040EF8EF9CF00106D8A0020602019AA5B9
:1039C000E4EF9CF0E6EF9CF0BBEF9CF095BBEBEFD7
:1039D0009CF0EDEF9CF0F4EF9CF097A9F2EF9CF0D7
:1039E000F4EF9CF0F7EF9CF0010EF8EF9CF0000E66
:1039F000120016C50FF517C510F5CBEC97F01A6E2F
:103A00001A50D8A406EF9DF008EF9DF00BEF9DF043
:103A1000000E3AEF9DF0D00E186ECA0EE82EFED7BB
:103A2000182EFCD716C50FF517C510F5CBEC97F07F
:103A3000196E1A501918D8B420EF9DF022EF9DF09E
:103A400024EF9DF008EF9DF016C50FF517C510F592
:103A5000CBEC97F00009D8A430EF9DF032EF9DF049
:103A600024EF9DF0D00E186ECA0EE82EFED7182E49
:103A7000FCD71A501200366E010E2E6E3650CFEC67
:103A8000A1F07E0E146EFD0E156E29EC9CF030C573
:103A90000BF531C50CF592ECA1F0516E020E2E6EB5
:103AA0005150CFECA1F0A80E146EFC0E156E29EC4F
:103AB0009CF032C50BF533C50CF592ECA1F0516EBC
:103AC000020E2E6E5150CFECA1F0F50E146EFF0ECB
:103AD000156E29EC9CF034C50BF535C50CF592EC50
:103AE000A1F0516E010E2E6E5150CFECA1F01200DC
:103AF000EA0E026E600E016EABEF9DF097A983EFA8
:103B00009DF085EF9DF088EF9DF0010EB4EF9DF0E4
:103B100097AD8DEF9DF08FEF9DF092EF9DF0030E2E
:103B2000B4EF9DF097AB97EF9DF099EF9DF09CEF70
:103B30009DF0020EB4EF9DF001500210D8A4A3EF47
:103B40009DF0A5EF9DF0A8EF9DF0040EB4EF9DF061
:103B50000106D8A00206020199ABB1EF9DF0B3EFC8
:103B60009DF07EEF9DF0000E1200EA0E026E600ED8
:103B7000016EE8EF9DF097A9C0EF9DF0C2EF9DF0B8
:103B8000C5EF9DF0010EF1EF9DF097ADCAEF9DF0EE
:103B9000CCEF9DF0CFEF9DF0030EF1EF9DF097ABD2
:103BA000D4EF9DF0D6EF9DF0D9EF9DF0020EF1EF2E
:103BB0009DF001500210D8A4E0EF9DF0E2EF9DF0DF
:103BC000E5EF9DF0040EF1EF9DF00106D8A002068E
:103BD000020199A1EEEF9DF0F0EF9DF0BBEF9DF09B
:103BE000000E120001C5D9F402C5DAF4DE50035C00
:103BF000D8A0FDEF9DF0FFEF9DF001EF9EF02BEFC1
:103C00009EF003500124076E000E0220086E010E84
:103C10000724D96E000E0820DA6E04C5DFF40350C5
:103C20000124076E000E0220086E1F0E0724D96EB5
:103C3000000E0820DA6E05C5DFF403500124076E7C
:103C4000000E0220086E3D0E0724D96E000E0820DB
:103C5000DA6E06C5DFF412000E6E400E0E6033EF12
:103C60009EF035EF9EF046EF9EF00B500C10D8B44E
:103C70003CEF9EF03EEF9EF046EF9EF00D50D8A434
:103C800044EF9EF046EF9EF049EF9EF0050E63EF85
:103C90009EF00EC509F5680E58ECA3F00F6E0F509C
:103CA000D8B455EF9EF057EF9EF05AEF9EF00F50AC
:103CB00063EF9EF00BC503F50CC504F50DC505F5C6
:103CC000680EEDEC96F01200000E096E000E0A6E02
:103CD000000E0B6E000E0C6E01A071EF9EF073EFE4
:103CE0009EF07BEF9EF00550092606500A220750F1
:103CF0000B2208500C22D8900536063607360836B7
:103D0000D890043203320232013201500210031003
:103D10000410D8A48EEF9EF090EF9EF06CEF9EF012
:103D200009C501F50AC502F50BC503F50CC504F577
:103D3000120014501510D8A4A0EF9EF0A2EF9EF030
:103D4000A4EF9EF0CCEF9EF01A6AC3EF9EF01A50DB
:103D50001424176E000E1520186E17C5F6F418C53A
:103D6000F7F4000EF86E0800F550DFECA2F0196EC3
:103D70001950D8B4BEEF9EF0C0EF9EF0C2EF9EF097
:103D8000CCEF9EF01A2A16501A5CD8A0CAEF9EF00B
:103D9000CCEF9EF0A7EF9EF01200146E000E096E9D
:103DA0001450C4EC9FF0136E1350D8B4DAEF9EF0A9
:103DB000DCEF9EF0DFEF9EF01350FFEF9EF0140457
:103DC000D8B4E5EF9EF0E7EF9EF0F0EF9EF0020E24
:103DD0001418D8A4EEEF9EF0F0EF9EF0FAEF9EF0EC
:103DE000150E126EC60EE82EFED7122EFCD700D08E
:103DF000FEEF9EF0850EE82EFED70000000E1200AA
:103E000007C501F508C502F553ECA1F020EE02F05C
:103E10000750D9260850DA22DEC40AF5DDC40BF5B6
:103E20000AC5D9F40BC5DAF410EE02F00750E1260A
:103E30000850E222E6C40CF5E5C40DF50CC5E1F42A
:103E40000DC5E2F4E7500E6E5B0E0924F66EF76ABC
:103E5000FA0EF722F86A000EF8220800F550FF0A61
:103E60000E14DF6E1200EA0E026E600E016E5CEF41
:103E70009FF097AD3EEF9FF040EF9FF043EF9FF034
:103E8000030E65EF9FF097AB48EF9FF04AEF9FF06E
:103E90004DEF9FF0020E65EF9FF001500210D8A485
:103EA00054EF9FF056EF9FF059EF9FF0040E65EF2F
:103EB0009FF00106D8A0020602019AA562EF9FF0CA
:103EC00064EF9FF039EF9FF0000E1200EA0E026ED1
:103ED000600E016E8FEF9FF097AD71EF9FF073EF63
:103EE0009FF076EF9FF0030E98EF9FF097AB7BEF7C
:103EF0009FF07DEF9FF080EF9FF0020E98EF9FF014
:103F000001500210D8A487EF9FF089EF9FF08CEF4B
:103F10009FF0040E98EF9FF00106D8A00206020160
:103F200098AF95EF9FF097EF9FF06CEF9FF0000E2A
:103F30001200166EABEF9FF0176ABEEF9FF0400EB7
:103F4000176EBEEF9FF0140E176EBEEF9FF0540E6B
:103F5000176EBEEF9FF01650010AD8B49CEF9FF089
:103F6000030AD8B49FEF9FF0010AD8B4A3EF9FF0E3
:103F7000070AD8B4A7EF9FF0C3EF9FF0175015249E
:103F80008009CDEC9EF012000E6E5DC511F5095052
:103F9000D8B4CDEF9FF0CFEF9FF0D0EF9FF011801E
:103FA0000E50F00B0F6E0E38F00BF00B106E0F5022
:103FB000111004090A6E0F5011100B6E10501110E1
:103FC00004090C6E105011100D6E0A0E036E050ED2
:103FD000046E040E056E5E50FEEC95F01200040EA9
:103FE0000C5CD8A0F6EF9FF0F8EF9FF0FAEF9FF08F
:103FF00017EFA0F00BC501F50CC502F559ECA2F0C6
:104000000DC546F000014151F80B0309416FD69EE2
:10401000550E426FAA0E426F408140B112EFA0F0E0
:1040200014EFA0F00DEFA0F0D68EF80E411712009D
:104030000201949FC096C098040110971099C896E9
:10404000C89812871289B1ECA1F0CF0E0201871730
:10405000CF0E86178751FC0B0109876F8651FC0B29
:104060000109866F040E946F956B966B030E9C6F1F
:104070009D6B9B6BA3ECA3F00201948F546A12001A
:104080004E0EF66E470EF76E010EF86E01EE5CF105
:1040900010EE04F00900F5C4EEF4E550E150FAE149
:1040A00001EE00F25B0EEE6AE806FDE101EE60F162
:1040B0005F0EEE6AE806FDE101EE4BF1110EEE6ACD
:1040C000E806FDE1000175EFA3F001C5D9F402C5D2
:1040D000DAF4DEC403F5DDC404F503C5D9F404C580
:1040E000DAF4DF50056E20EE06F00150D9260250BA
:1040F000DA22DF50FF0A051401C5D9F402C5DAF44B
:10410000DEC406F5DDC407F506C5D9F407C5DAF443
:10411000DF6E120020EE06F00150D9260250DA229E
:10412000DF50036E01C5D9F402C5DAF4DEC404F52C
:10413000DDC405F504C5D9F405C5DAF4DF50031074
:1041400001C5D9F402C5DAF4DEC406F5DDC407F50D
:1041500006C5D9F407C5DAF4DF6E1200266E000E2C
:10416000D0ECA0F023C515F5265099EC9FF0276AF6
:10417000000EDFECA2F00D0E256E2D0E246ED80E73
:10418000E82EFED7242EFCD7252EFAD7272A030E99
:104190002764CDEFA0F0CFEFA0F0B8EFA0F01200B1
:1041A000226E470EF66EFA0EF76E000EF86E21EED6
:1041B0001AF1070E0900F5C4DEF4E806FBE2070E6B
:1041C0002264E5EFA0F0E7EFA0F0E9EFA0F0F1EF57
:1041D000A0F01A0E156E050E166E22C517F599EC95
:1041E0009BF01200016E0150D8B4F9EFA0F0FBEF84
:1041F000A0F008EFA1F0C080000000000000000067
:10420000000000000000C0900000000012EFA1F0CC
:10421000C08000000000C09000000000000000000E
:10422000000000001200026E800E036E02500314A4
:104230000009D8B41EEFA1F020EFA1F025EFA1F006
:10424000010EF2ECA0F028EFA1F0000EF2ECA0F0CD
:10425000D89003320350D8A430EFA1F032EFA1F090
:1042600016EFA1F012000F6A45EFA1F009C501F5A4
:104270000AC502F50FC503F50BC504F50CC505F518
:104280000DC506F5F2EC9DF00F2A09C5D9F40AC553
:10429000DAF4DE500F5CD8A050EFA1F052EFA1F09D
:1042A00036EFA1F0120020EE02F00150D9260250A4
:1042B000DA22DEC403F5DDC404F503C5D9F404C570
:1042C000DAF410EE02F00150E1260250E222E6C4D8
:1042D00005F5E5C406F505C5E1F406C5E2F4E750C9
:1042E0000F09DF6E12000A6E0A50F00B0D6E5D5062
:1042F0000D120950D8B47FEFA1F081EFA1F082EF49
:10430000A1F00D800D5004090B6E0D50FB0B0C6ECF
:104310000B0E036E050E046E020E056E5E50FEEC73
:1043200095F01200040E0C5CD8A099EFA1F09BEF61
:10433000A1F09EEFA1F0FF0EB0EFA1F00BC501F5CB
:104340000CC502F559ECA2F0F80E000141174081AE
:1043500040B1ADEFA1F0AFEFA1F0A8EFA1F0465151
:104360001200000ED6BE010E016ED69E550E020141
:10437000006FAA0E006F0091370E146F380E156F84
:10438000130E716F140E706F550E006FAA0E006F32
:10439000008101B002D0D69E01D0D68E12002F6EC1
:1043A0002E50D8B4D6EFA1F0D8EFA1F0EBEFA1F0EA
:1043B000030E2E64DEEFA1F0E0EFA1F0E2EFA1F03A
:1043C000EBEFA1F02FC523F5246A2EC525F5000ECD
:1043D000266E1DEC90F01200036E03380F0B0F0BCE
:1043E000016E03500F0B026E0A0E0160FAEFA1F08E
:1043F000FCEFA1F004EFA2F0090E026402EFA2F0BC
:1044000004EFA2F007EFA2F0000E08EFA2F0010EF9
:1044100012000D6A0DC50BF50C6A92ECA1F0FF0AB3
:10442000D8A415EFA2F017EFA2F01AEFA2F0000E39
:1044300024EFA2F00D2A260E0D6421EFA2F023EF47
:10444000A2F00AEFA2F0010E1200760E076E050E22
:10445000086ED10E096E040E0A6EC10E0B6E040EAC
:104460000C6EC90E0D6E040E0E6E180E0F6E040E3D
:10447000106E190E116E040E126E17EC93F01200EE
:104480000EC50BF50FC50CF592ECA1F0116E105096
:104490001118D8B44EEFA2F050EFA2F058EFA2F0EE
:1044A0000EC50BF50FC50CF510C50DF5EFEC9FF023
:1044B00012000150036E0250046E056A066A000E77
:1044C0000324076E000E0420086E380E0520096EC6
:1044D000000E06200A6E09C545F008C544F007C560
:1044E00043F012007DEFA2F000D000D000D000D049
:1044F0000106000E025A035A045A0150021003101A
:104500000410D8A486EFA2F088EFA2F074EFA2F016
:10451000120035C51AF536C51BF5090E1D6EC40E01
:104520001C6E1F6A140E1E6E320E206E35EC8FF05C
:1045300035C508F536C509F58CECA3F0120010500E
:104540001110D8A4A6EFA2F0A8EFA2F0ABEFA2F052
:10455000050EB4EFA2F010C50BF511C50CF5070E52
:104560000D6E000E2CEC9EF01200A00E016E050EDA
:10457000026ED30E036E040E046ECB0E056E040E97
:10458000066E280E076E040E086E100E096E79EC8A
:1045900096F01200550E086E050E096EC00E0A6EDA
:1045A000040E0B6EC80E0C6E040E0D6E100E0E6E09
:1045B000040E0F6E020E106E83EC95F01200126E58
:1045C000010E096E1250C4EC9FF0136E1350D8A464
:1045D000ECEFA2F0EEEFA2F0F2EFA2F0850EE82EE3
:1045E000FED700001350120010C509F511C50AF5D9
:1045F00012C50BF513C50CF514C50DF533ECA1F080
:1046000010C504F511C505F5E1EC9BF0120010C5CD
:1046100009F511C50AF5000E0B6E000E0C6E000EAA
:104620000D6E33ECA1F010C504F511C505F5E1ECF4
:104630009BF01200016E7F0E016421EFA3F023EFC7
:10464000A3F026EFA3F0050E29EFA3F001C55EF558
:10465000000E1200600E0001AD6F060EB16F400E2D
:10466000B36F95EC98F066EC92F01200026E02C502
:1046700001F50F0E011602380F0B0F0B0A0DF35048
:104680000124120018ECA0F0270E1AECA3F0526ED1
:10469000B2EC91F09FECA3F012002EC523F52FC5CC
:1046A00024F530C525F531C526F51DEC90F0120036
:1046B0000A6E090E036E050E046E010E056E0A5099
:1046C000FEEC95F01200000E016E060E026E020E58
:1046D000036E07EC9AF01200310E146EFC0E156E8C
:1046E000140E166E99EC9EF012002AECA3F0EBEC7F
:1046F00094F077EFA3F0FEEFFFF00301F86B1F0ECD
:10470000FA6F840EF36F5F6812000B6E0BC509F52C
:104710005E5058ECA3F0120008C501F509C502F57A
:1047200065ECA0F012000201949FA3ECA3F002013B
:10473000948F12005C500809CDEC9EF01200010E1F
:10474000CDEC9EF0120002019A6B976B12000408E8
:0247500027FF41
:04FFFC0040EFA0F042
:020000040030CA
:08000000FCFF3DDF9FFFFFFF45
:01000900FFF7
:00000001FF
