:04000000FEEFFFF020
:10260000000C06030900CFEC14F0600E016E050EFD
:10261000026E030E036E67EC13F0600E106E050E73
:10262000116EC80E126E000E136E000E146E9CEC2E
:1026300014F03D0E166EE10E156E400EE82EFED71C
:10264000152EFCD7162EFAD7600E106E050E116EE1
:10265000000E126EC80E136E000E146E9CEC14F079
:102660003D0E166EE10E156E400EE82EFED7152EAD
:10267000FCD7162EFAD7600E106E050E116E000EE6
:10268000126E000E136EC80E146E9CEC14F03D0E0C
:10269000166EE10E156E400EE82EFED7152EFCD7F5
:1026A000162EFAD7600E106E050E116EAFEC14F0F8
:1026B0003D0E166EE10E156E400EE82EFED7152E5D
:1026C000FCD7162EFAD70DEF13F0FEEFFFF01E0E1B
:1026D00003646DEF13F06FEF13F077EF13F001C5A4
:1026E000D9F402C5DAF41E0EDF6E7DEF13F001C5DA
:1026F000D9F402C5DAF403C5DFF404011891C990D6
:10270000C190066AACEF13F006500124046E000E6F
:102710000220056E010E0424D96E000E0520DA6E2B
:10272000DF6A06500124046E000E0220056E1F0EA3
:102730000424D96E000E0520DA6EDF6A06500124EB
:10274000046E000E0220056E3D0E0424D96E000EAC
:102750000520DA6EDF6A062A01C5D9F402C5DAF46B
:10276000DE50065CD8A0B7EF13F0B9EF13F084EF9A
:1027700013F01200086AEBEF13F008500424066E01
:10278000000E0520076E1F0E0624D96E000E0720CE
:10279000DA6EDF505CEC14F008500424066E000E74
:1027A0000520076E010E0624D96E000E0720DA6E92
:1027B000DF505CEC14F008500424066E000E052077
:1027C000076E3D0E0624D96E000E0720DA6EDF502C
:1027D0005CEC14F0082A04C5D9F405C5DAF4DE501F
:1027E000085CD8A0F6EF13F0F8EF13F0BDEF13F08C
:1027F000C190050E066EAC0EE82EFED7062EFCD755
:10280000120001C5D9F402C5DAF4DE50035CD8A089
:102810000CEF14F00EEF14F010EF14F03AEF14F088
:1028200003500124076E000E0220086E010E0724DB
:10283000D96E000E0820DA6E04C5DFF403500124BF
:10284000076E000E0220086E1F0E0724D96E000EC0
:102850000820DA6E05C5DFF403500124076E000E70
:102860000220086E3D0E0724D96E000E0820DA6E95
:1028700006C5DFF41200016E0150D8B442EF14F027
:1028800044EF14F051EF14F0C1800000000000008C
:102890000000000000000000C190000000005BEF9D
:1028A00014F0C18000000000C19000000000000092
:1028B0000000000000001200026E800E036E025045
:1028C00003140009D8B467EF14F069EF14F06EEF49
:1028D00014F0010E3BEC14F071EF14F0000E3BEC21
:1028E00014F0D89003320350D8A479EF14F07BEFA2
:1028F00014F05FEF14F012000F6A8EEF14F009C5A8
:1029000001F50AC502F50FC503F50BC504F50CC5A5
:1029100005F50DC506F501EC14F00F2A09C5D9F42B
:102920000AC5DAF4DE500F5CD8A099EF14F09BEFE3
:1029300014F07FEF14F0120010C509F511C50AF567
:1029400012C50BF513C50CF514C50DF57CEC14F090
:1029500010C504F511C505F5BAEC13F0120010C549
:1029600009F511C50AF5000E0B6E000E0C6E000E77
:102970000D6E7CEC14F010C504F511C505F5BAEC2C
:1029800013F0120001EE60F15B0EEE6AE806FDE165
:10299000000EF86E260EF76E000103EF13F0600EC6
:0E29A0000001AD6F070EB16F400EB36F120055
:020000040001F9
:04FFFC00C2EF14F04C
:020000040030CA
:08000000FCFF3DDF9FFFFFFF45
:01000900FFF7
:00000001FF
