:04000000FEEFFFF020
:10FA7000003132334134353642373839432A302366
:10FA8000441F1F1F1F1F1F1F1F0A0B0C0D0A0B0CEB
:10FA90000D10204080010204080C0603094E756514
:10FAA000766120686F7261203A202078783A787801
:10FAB00020002D2045444954415220484F52415284
:10FAC000494F205F202D002D2D204E5545564F20AB
:10FAD000484F524152494F202D2D2D002D2D2D20C4
:10FAE0004D495320484F524152494F53202D2D2DFF
:10FAF000002D2D2D2D2D2D2D2D2D2D2D2D2D2D2D63
:10FB00002D2D2D2D2D002D2D2052454341524741A5
:10FB100020455849544F53412D2D002D2D20484F3D
:10FB2000524152494F20504153542E205F2D2D00F9
:10FB30002D204D4F4449464943415220484F5241A0
:10FB400052494F2D00507265706172616E646F2072
:10FB500073697374656D612E2E005245472E2043E4
:10FB6000414E542E2050415354494C4C4153005364
:10FB7000656C656363696F6E652028312D34293AA1
:10FB80005B205D004550524F4D206E6F20436F6EDD
:10FB90006669677572616461004D616C20466F72C1
:10FBA0006D61746F20646520466563686100416C17
:10FBB0006572746120656E20656C2053697374658D
:10FBC0006D61005B235D477561726461723A205B11
:10FBD0002A5D53616C697200312E4167722E486F45
:10FBE000722020322E4D6F642E486F720053696E62
:10FBF00020486F722E205265676973747261646F5A
:10FC000073002020202020202020202020202020C1
:10FC1000202020202020002053544F434B205041CF
:10FC20005354494C4C45524F532000506173743A21
:10FC30005B312D345D20566F6C7665723A2A004731
:10FC40007561726461723A5B235D2053616C697205
:10FC50003A2A00412073756D6172202020202020F7
:10FC600020203A20303000496E6772657365206845
:10FC70006F72612028323448293A00417369676EF7
:10FC800061722070617374696C6C65726F3A0048C0
:10FC90004F524152494F2041435455414C495A41DA
:10FCA000444F00456C6567697220486F72617269E4
:10FCB0006F3A205B205D00486F726120616374754C
:10FCC000616C3A20205F5F3A5F5F005B235D5265A5
:10FCD0007365746561722053697374656D61005B4F
:10FCE000235D47756172646172205B2A5D53616CAC
:10FCF0006972004C696D7069616E646F2056617243
:10FD00006961626C657300486F726172696F73201C
:10FD100061637469766F733A200052656769737422
:10FD20007261722050617374696C6C61005B235D59
:10FD300053656C65632E205B2A5D53616C697200AC
:10FD40002D2D205245434152474120504153542EBE
:10FD5000200053746F636B2061637475616C2020A5
:10FD6000203A20004E756D65726F2028312D3429A0
:10FD70003A205B205D00506173742E2041637475DE
:10FD8000616C3A2020505F005265696E6963696159
:10FD9000722053697374656D61004D6F64696669A3
:10FDA00063617220486F726172696F004E7565768B
:10FDB0006F20506173742E203A20205078005061DB
:10FDC0007374696C6C617320646973703A200048C5
:10FDD0004F524152494F20475541524441444F00F0
:10FDE0004932432073696E20636F6E6578696F6E68
:10FDF000005254432073696E20636F6E6578696F9B
:10FE00006E0053697374656D6120636F7272656310
:10FE1000746F004E6F206861792050617374696C53
:10FE20006C617300342E5265672E207061737469A3
:10FE30006C6C617300507265706172616E646F20EA
:10FE40004461746F7300457874726179656E646F94
:10FE5000204461746F7300546F74616C206163742B
:10FE600075616C3A205B004F7063696F6E20496E5C
:10FE700076616C696461004C6579656E646F204DD4
:10FE8000656D6F726961002A2E5265736574207307
:10FE9000697374656D6100416772656761722048BE
:10FEA0006F726172696F0041706167616E646F208B
:10FEB00042757A7A6572004E6F2068617920486FCA
:10FEC000726172696F7300486F726172696F73203B
:10FED0006C6C656E6F73004461746F7320436F7256
:10FEE000727570746F730020202020205B2078785A
:10FEF0003A7878205D00505F2061206C6173205F4C
:10FF00005F3A5F5F004F7063696F6E204465736591
:10FF100061646100332E56657220686F7261726988
:10FF20006F73004E4F2050726573696F6E61646F1E
:10FF30000041706167616E646F204C4544730052EC
:10FF4000544320646574656E69646F005665722061
:10FF5000486F726172696F730050415354494C4C41
:10FF600045524F20005D20202020202050323A5B57
:10FF7000005D20202020202050343A5B005265692B
:10FF80006E696369616E646F0053656C6563636974
:10FF90006F6E6172005265696E69636961646F00BA
:10FFA000526573657465616E646F005B2A5D2053F2
:10FFB000616C6972005B425D42616A6172005B4123
:10FFC0005D53756269720056616C6F723A2000531E
:10FFD000656E736F7220002061206C617320004F8A
:10FFE0007063696F6E004C4953544F0050313A5B57
:10FFF0000050333A5B00205000306200307800003F
:020000040001F9
:10000000000E3C6E000E3D6E000E3E6E000E3F6E0A
:100010000C6A010E0B6ECCECA1F00009D8A413EF12
:1000200080F015EF80F024EF80F0D7ECA3F0030E02
:10003000156E020ED3EC9FF0B70E146EFE0E156E09
:1000400063EC9CF0B6EF84F00C6A010E0B6ECCEC06
:10005000A1F0516ED7ECA3F0000E156E010ED3EC9B
:100060009FF0300E146EFB0E156E63EC9CF0000ECC
:10007000156E020ED3EC9FF0070E146EFD0E156E7A
:1000800063EC9CF0020E2E6E515009ECA2F0000EB3
:10009000156E030ED3EC9FF0A30E146EFC0E156EBE
:1000A00063EC9CF0000E156E040ED3EC9FF0370E3F
:1000B000146EFD0E156E63EC9CF0536A6EEF80F0CB
:1000C000760E166E050E176E33EC9DF0536ED00E45
:1000D000396ECA0EE82EFED7392EFCD75350D8B44D
:1000E00074EF80F076EF80F060EF80F0B9EF80F091
:1000F000550E356E050E366E91EC99F0536AD4EFBD
:1001000080F0550E356E050E366EC3ECA2F0B6EFDC
:1001100084F0550E356E050E366EC3ECA2F05350CA
:10012000D00F416E110E156E030ED3EC9FF053509D
:1001300019ECA3F0150E3A6E4B0E396EBE0EE82E7A
:10014000FED7392EFCD73A2EFAD700D04150515C59
:10015000D8A0ADEF80F0AFEF80F078EF80F04150A5
:10016000D8A4B5EF80F0B7EF80F0D4EF80F078EF4F
:1001700080F05350230AD8B478EF80F0090AD8B43D
:1001800081EF80F06B0AD8B478EF80F0030AD8B41E
:1001900078EF80F0010AD8B478EF80F0070AD8B47D
:1001A00078EF80F089EF80F05350D8B4DAEF80F028
:1001B000DCEF80F05DEF80F0000E156E040ED3ECE6
:1001C0009FF02D0E146EFD0E156E63EC9CF0536ABD
:1001D000F8EF80F0760E166E050E176E33EC9DF07C
:1001E000536ED00E396ECA0EE82EFED7392EFCD7CC
:1001F0005350D8B4FEEF80F000EF81F0EAEF80F0CA
:100200001FEF81F0550E356E050E366EC3ECA2F071
:10021000150E3A6E4B0E396EBE0EE82EFED7392EF5
:10022000FCD73A2EFAD700D02AEF81F0550E356E62
:10023000050E366E91EC99F0536A2AEF81F0535017
:10024000230AD8B402EF81F0090AD8B481EF80F014
:1002500016EF81F05350D8B430EF81F032EF81F0D7
:10026000E7EF80F0D7ECA3F0000E156E010ED3EC93
:100270009FF0B20E146EFA0E156E63EC9CF0110E28
:10028000156E010ED3EC9FF0010E2E6E415009EC5D
:10029000A2F0000E156E020ED3EC9FF0B70E146E96
:1002A000FC0E156E63EC9CF00E0E156E020ED3EC78
:1002B0009FF04150050DF3C439F5F4C43AF5040E2E
:1002C00039240B6E000E3A200C6ECCECA1F0516E6E
:1002D000020E2E6E515009ECA2F0110E156E020E98
:1002E000D3EC9FF04150050DF3C439F5F4C43AF551
:1002F000050E39240B6E000E3A200C6ECCECA1F0EA
:10030000516E020E2E6E515009ECA2F0000E156EC9
:10031000030ED3EC9FF09D0E146EFA0E156E63EC77
:100320009CF00C0E156E040ED3EC9FF0370E146E7D
:10033000FD0E156E63EC9CF0406A030E4064A3EF63
:1003400081F0A5EF81F0A7EF81F0A2EF82F0536A70
:10035000B8EF81F0760E166E050E176E33EC9DF039
:10036000536ED00E396ECA0EE82EFED7392EFCD74A
:100370005350D8B4BEEF81F0C0EF81F0AAEF81F006
:100380007CEF82F0550E356E050E366E91EC99F0CD
:10039000536A97EF82F0550E356E050E366EC3EC3C
:1003A000A2F0020E4060D7EF81F0D9EF81F0E1EFCB
:1003B00081F040500E0F156E030ED3EC9FF0E7EF67
:1003C00081F040500F0F156E030ED3EC9FF0535089
:1003D00019ECA3F0150E3A6E4B0E396EBE0EE82ED8
:1003E000FED7392EFCD73A2EFAD700D03C0E402447
:1003F000D96EDA6A050EDA225350D00FDF6E6DEF38
:1004000082F03C0E4024D96EDA6A050EDA22020E22
:10041000DF640DEF82F00FEF82F097EF82F0550E60
:10042000356E050E366E91EC99F00E0E156E030EBC
:10043000D3EC9FF0FD0E146EFF0E156E63EC9CF076
:10044000C8EF81F0020E3C18D8A429EF82F02BEF00
:1004500082F097EF82F03C0E4024D96EDA6A050EE6
:10046000DA22030EDF6437EF82F039EF82F097EF84
:1004700082F0550E356E050E366E91EC99F00F0E2A
:10048000156E030ED3EC9FF0FD0E146EFF0E156E6D
:1004900063EC9CF0C8EF81F03C0E4024D96EDA6A20
:1004A000050EDA22050EDF6458EF82F05AEF82F073
:1004B00097EF82F0550E356E050E366E91EC99F081
:1004C000110E156E030ED3EC9FF0FD0E146EFF0E91
:1004D000156E63EC9CF0C8EF81F04050000AD8B470
:1004E00001EF82F0010AD8B422EF82F0030AD8B4F7
:1004F0004CEF82F097EF82F05350230AD8B4C2EF4A
:1005000081F0090AD8B481EF80F06B0AD8B4C2EF49
:1005100081F0030AD8B4C2EF81F0010AD8B4C2EF67
:1005200081F0070AD8B4C2EF81F0CBEF81F05350CD
:10053000D8B49DEF82F09FEF82F0A7EF81F0402AC0
:100540009DEF81F0000E156E040ED3EC9FF0DF0ED0
:10055000146EFC0E156E63EC9CF0536ABEEF82F0D5
:10056000760E166E050E176E33EC9DF0536ED00EA0
:10057000396ECA0EE82EFED7392EFCD75350D8B4A8
:10058000C4EF82F0C6EF82F0B0EF82F0E5EF82F0C8
:10059000550E356E050E366EC3ECA2F0150E3A6E92
:1005A0004B0E396EBE0EE82EFED7392EFCD73A2EF2
:1005B000FAD700D0F0EF82F0550E356E050E366E8C
:1005C00091EC99F0536AF0EF82F05350230AD8B4BB
:1005D000C8EF82F0090AD8B481EF80F0DCEF82F036
:1005E0005350D8B4F6EF82F0F8EF82F0ADEF82F01E
:1005F000D7ECA3F0000E156E010ED3EC9FF0B20EF7
:10060000146EFA0E156E63EC9CF0110E156E010E51
:10061000D3EC9FF0010E2E6E415009ECA2F0000EBB
:10062000156E020ED3EC9FF0760E146EFD0E156E55
:1006300063EC9CF00F0E156E020ED3EC9FF0415050
:10064000050DF3C439F5F4C43AF5080E39240B6EE0
:10065000000E3A200C6ECCECA1F0516E010E2E6E05
:10066000515009ECA2F0000E156E030ED3EC9FF072
:10067000AC0E146EFD0E156E63EC9CF0000E156E44
:10068000040ED3EC9FF02B0E146EFC0E156E63EC73
:100690009CF0536A5AEF83F0760E166E050E176EB5
:1006A00033EC9DF0536ED00E396ECA0EE82EFED795
:1006B000392EFCD75350D8B460EF83F062EF83F04B
:1006C0004CEF83F086EF83F05350D00F3B6E100E4B
:1006D000156E030ED3EC9FF0535019ECA3F0150EDA
:1006E0003A6E4B0E396EBE0EE82EFED7392EFCD771
:1006F0003A2EFAD700D09DEF83F0550E356E050ED9
:10070000366E91EC99F0536A9DEF83F053502A0AAC
:10071000D8B481EF80F01B0AD8B464EF83F0030AE9
:10072000D8B464EF83F0010AD8B464EF83F0070A09
:10073000D8B464EF83F07DEF83F05350D8B4A3EFC7
:1007400083F0A5EF83F049EF83F0000E156E040EE1
:10075000D3EC9FF0DF0E146EFC0E156E63EC9CF074
:10076000536AC1EF83F0760E166E050E176E33ECEA
:100770009DF0536ED00E396ECA0EE82EFED7392E7C
:10078000FCD75350D8B4C7EF83F0C9EF83F0B3EF71
:1007900083F0E8EF83F0550E356E050E366EC3EC30
:1007A000A2F0150E3A6E4B0E396EBE0EE82EFED735
:1007B000392EFCD73A2EFAD700D0F3EF83F0550E3E
:1007C000356E050E366E91EC99F0536AF3EF83F0B7
:1007D0005350230AD8B4CBEF83F0090AD8B481EF81
:1007E00080F0DFEF83F05350D8B4F9EF83F0FBEFE4
:1007F00083F0B0EF83F04150050DF3C439F5F4C434
:100800003AF5040E39240E6E000E3A200F6E3C505D
:100810000A0DF3503D24106E7AECA2F04150050D04
:10082000F3C439F5F4C43AF5050E39240E6E000E02
:100830003A200F6E3E500A0DF3503F24106E7AECB2
:10084000A2F04150050DF3C439F5F4C43AF5080E91
:1008500039240E6E000E3A200F6E3BC510F57AEC6F
:10086000A2F0D7ECA3F0000E156E010ED3EC9FF0B2
:10087000F10E146EFA0E156E63EC9CF0010E156EFF
:10088000020ED3EC9FF08F0E146EFC0E156E63EC0F
:100890009CF0020E156E030ED3EC9FF0F60E146E54
:1008A000FE0E156E63EC9CF0030E156E030ED3EC7A
:1008B0009FF04150050DF3C439F5F4C43AF5080E24
:1008C00039240B6E000E3A200C6ECCECA1F0516E68
:1008D000010E2E6E515009ECA2F00B0E156E030E98
:1008E000D3EC9FF04150050DF3C439F5F4C43AF54B
:1008F000040E39240B6E000E3A200C6ECCECA1F0E5
:10090000516E020E2E6E515009ECA2F00E0E156EB5
:10091000030ED3EC9FF04150050DF3C439F5F4C438
:100920003AF5050E39240B6E000E3A200C6ECCEC15
:10093000A1F0516E020E2E6E515009ECA2F0000E85
:10094000156E040ED3EC9FF0F10E146EFA0E156EB8
:1009500063EC9CF0520E3A6E2B0E396E000EE82EB0
:10096000FED7392EFCD73A2EFAD700D01200000E4F
:100970003B6E000E3C6E000E3D6E000E3E6E0C6A2D
:10098000010E0B6ECCECA1F0396E050E3964CBEF85
:1009900084F0CDEF84F0DCEF84F0D7ECA3F0030E0D
:1009A000156E020ED3EC9FF0C70E146EFE0E156E80
:1009B00063EC9CF0AEEF87F00C6A010E0B6ECCEC92
:1009C000A1F0406ED7ECA3F0000E156E010ED3EC33
:1009D0009FF0C70E146EFA0E156E63EC9CF0000EBD
:1009E000156E020ED3EC9FF07B0E146EFC0E156E8E
:1009F00063EC9CF0000E156E030ED3EC9FF0640EBA
:100A0000146EFD0E156E63EC9CF00B0E156E040E4D
:100A1000D3EC9FF0AB0E146EFF0E156E63EC9CF0E2
:100A2000536A21EF85F0760E166E050E176E33ECC5
:100A30009DF0536ED00E396ECA0EE82EFED7392EB9
:100A4000FCD75350D8B427EF85F029EF85F013EF8A
:100A500085F05BEF85F0550E356E050E366EC3ECF6
:100A6000A2F05350D00F3F6E0F0E156E030ED3EC55
:100A70009FF0535019ECA3F0150E3A6E4B0E396EE1
:100A8000BE0EE82EFED7392EFCD73A2EFAD700D06C
:100A900072EF85F0550E356E050E366EC3ECA2F082
:100AA000AEEF87F0550E356E050E366E91EC99F06F
:100AB000536A72EF85F053502A0AD8B44AEF85F092
:100AC0001B0AD8B42BEF85F0030AD8B42BEF85F0BE
:100AD000010AD8B42BEF85F0070AD8B42BEF85F0C4
:100AE00052EF85F05350D8B478EF85F07AEF85F067
:100AF00010EF85F0D7ECA3F0000E156E010ED3ECCD
:100B00009FF01B0E146EFB0E156E63EC9CF0110E25
:100B1000156E010ED3EC9FF0010E2E6E3F5009ECC6
:100B2000A2F0000E156E020ED3EC9FF0670E146E4D
:100B3000FC0E156E63EC9CF0000E156E030ED3ECEC
:100B40009FF0E70E146EFE0E156E63EC9CF00B0E1C
:100B5000156E040ED3EC9FF0AB0E146EFF0E156EE7
:100B600063EC9CF0416A536AC4EF85F0760E166E12
:100B7000050E176E33EC9DF0536ED00E396ECA0E13
:100B8000E82EFED7392EFCD75350D8B4CAEF85F0E3
:100B9000CCEF85F0B6EF85F088EF86F0550E356E18
:100BA000050E366E91EC99F0536AA3EF86F0550E60
:100BB000356E050E366EC3ECA2F0020E4160E3EF17
:100BC00085F0E5EF85F0EDEF85F04150070F156EEC
:100BD000030ED3EC9FF0F3EF85F04150080F156E34
:100BE000030ED3EC9FF0535019ECA3F0150E3A6EA0
:100BF0004B0E396EBE0EE82EFED7392EFCD73A2E9C
:100C0000FAD700D03B0E4124D96EDA6A050EDA22FB
:100C10005350D00FDF6E79EF86F03B0E4124D96E32
:100C2000DA6A050EDA22020EDF6419EF86F01BEF96
:100C300086F0A3EF86F0550E356E050E366E91ECFC
:100C400099F0070E156E030ED3EC9FF0FD0E146E97
:100C5000FF0E156E63EC9CF0D4EF85F0020E3B188E
:100C6000D8A435EF86F037EF86F0A3EF86F03B0E81
:100C70004124D96EDA6A050EDA22030EDF6443EFEF
:100C800086F045EF86F0A3EF86F0550E356E050E23
:100C9000366E91EC99F0080E156E030ED3EC9FF0B2
:100CA000FD0E146EFF0E156E63EC9CF0D4EF85F014
:100CB0003B0E4124D96EDA6A050EDA22050EDF6496
:100CC00064EF86F066EF86F0A3EF86F0550E356E82
:100CD000050E366E91EC99F00A0E156E030ED3ECEC
:100CE0009FF0FD0E146EFF0E156E63EC9CF0D4EFBA
:100CF00085F04150000AD8B40DEF86F0010AD8B44F
:100D00002EEF86F0030AD8B458EF86F0A3EF86F0F2
:100D10005350230AD8B4CEEF85F0090AD8B44AEF6D
:100D200085F06B0AD8B4CEEF85F0030AD8B4CEEFC5
:100D300085F0010AD8B4CEEF85F0070AD8B4CEEF1B
:100D400085F0D7EF85F05350D8B4A9EF86F0ABEF1C
:100D500086F0B3EF85F0412A030E4164B2EF86F0CE
:100D6000B4EF86F0B3EF85F0000E156E040ED3ECF1
:100D70009FF0C30E146EFB0E156E63EC9CF0536A6D
:100D8000D0EF86F0760E166E050E176E33EC9DF0E2
:100D9000536ED00E396ECA0EE82EFED7392EFCD710
:100DA0005350D8B4D6EF86F0D8EF86F0C2EF86F075
:100DB000EBEF86F0550E356E050E366EC3ECA2F0E5
:100DC000F6EF86F0550E356E050E366E91EC99F005
:100DD000536AF6EF86F05350230AD8B4DAEF86F060
:100DE000090AD8B44AEF85F0E2EF86F05350D8B440
:100DF000FCEF86F0FEEF86F0BFEF86F04050050D69
:100E0000F3C439F5F4C43AF5090E39240E6E000E18
:100E10003A200F6E3B500A0DF3503C24106E7AECD2
:100E2000A2F04050050DF3C439F5F4C43AF50A0EAA
:100E300039240E6E000E3A200F6E3D500A0DF3500D
:100E40003E24106E7AECA2F04050050DF3C439F543
:100E5000F4C43AF50D0E39240E6E000E3A200F6ED2
:100E60003FC510F57AECA2F00F6A010E0E6E402815
:100E7000106E7AECA2F0D7ECA3F0000E156E010E06
:100E8000D3EC9FF0F10E146EFA0E156E63EC9CF02D
:100E9000020E156E020ED3EC9FF0CF0E146EFD0EF7
:100EA000156E63EC9CF0030E156E030ED3EC9FF0F1
:100EB000F70E146EFF0E156E63EC9CF0010E2E6E95
:100EC0003F5009ECA2F0D70E146EFF0E156E63ECC6
:100ED0009CF04050050DF3C439F5F4C43AF5090E01
:100EE00039240B6E000E3A200C6ECCECA1F0516E42
:100EF000020E2E6E515009ECA2F0790E146EFC0E0B
:100F0000156E63EC9CF04050050DF3C439F5F4C444
:100F10003AF50A0E39240B6E000E3A200C6ECCEC1A
:100F2000A1F0516E020E2E6E515009ECA2F0000E8F
:100F3000156E040ED3EC9FF0F10E146EFA0E156EC2
:100F400063EC9CF0520E3A6E2B0E396E000EE82EBA
:100F5000FED7392EFCD73A2EFAD700D01200D7ECA4
:100F6000A3F0060E156E010ED3EC9FF0500E146E1A
:100F7000FF0E156E63EC9CF0000E156E030ED3ECA5
:100F80009FF0770E146EFE0E156E63EC9CF00C6AEB
:100F9000010E0B6ECCECA1F0516E000E236E040E10
:100FA000E8ECA0F0000E156E030ED3EC9FF0A6EC5B
:100FB000A3F0020E156E030ED3EC9FF0460E146ED6
:100FC000FE0E156E63EC9CF0040E236E040EE8EC2E
:100FD000A0F05128D8B4EFEF87F0F1EF87F0F9EFE8
:100FE00087F0060E5164F7EF87F0F9EF87F01DEFF9
:100FF00088F0080E236E040EE8ECA0F0000E156ECB
:10100000030ED3EC9FF0A6ECA3F0020E156E030EB8
:10101000D3EC9FF0D70E146EFE0E156E63EC9CF0B1
:101020003D0E3A6EE10E396E400EE82EFED7392E97
:10103000FCD73A2EFAD7B5EF89F05150D8A423EF58
:1010400088F025EF88F03EEF88F0080E236E040E3E
:10105000E8ECA0F0000E156E030ED3EC9FF0A6ECAA
:10106000A3F0000E156E030ED3EC9FF0ED0E146E80
:10107000FB0E156E63EC9CF010EF88F0000E156E01
:10108000030ED3EC9FF0A6ECA3F0020E156E030E38
:10109000D3EC9FF0350E146EFE0E156E63EC9CF0D3
:1010A000080E236E040EE8ECA0F00C0E236E040E66
:1010B000E8ECA0F051C541F5426AFF0E4124016EF3
:1010C000026AFF0E0222046A030E036E31EC99F0ED
:1010D00001503F6ED7ECA3F0000E156E010ED3EC5D
:1010E0009FF0DC0E146EFA0E156E63EC9CF01BEF95
:1010F00089F0030E41647FEF88F081EF88F085EF7F
:1011000088F0030E406E87EF88F041C540F5436AD2
:10111000B8EF88F0000E156E4350020FD3EC9FF02D
:101120004350050DF3C439F5F4C43AF5090E3924DA
:10113000306E000E3A20316E4350050DF3C43BF57E
:10114000F4C43CF50A0E3B24326E000E3C20336E94
:101150004350050DF3C43DF5F4C43EF50D0E3D249A
:10116000346E000E3E20356E432875EC9DF0432A08
:101170004050435CD8A0BFEF88F0C1EF88F08AEF01
:1011800088F026EF89F0FD0E4124396E3A6AFF0E91
:101190003A223ABED5EF88F03A5009E1040E395CA4
:1011A000D8A0D5EF88F0D7EF88F0DBEF88F0030EFA
:1011B000406EDEEF88F04150FD0F406E446A10EF44
:1011C00089F0000E156E4450020FD3EC9FF044508E
:1011D000050DF3C439F5F4C43AF5180E3924306E10
:1011E000000E3A20316E4450050DF3C43BF5F4C4B3
:1011F0003CF5190E3B24326E000E3C20336E4450F9
:10120000050DF3C43DF5F4C43EF51C0E3D24346ECB
:10121000000E3E20356E4450040F75EC9DF0442ABC
:101220004050445CD8A017EF89F019EF89F0E1EF46
:1012300088F026EF89F04250000AD8B479EF88F0A0
:10124000010AD8B4C3EF88F026EF89F04250D8B431
:101250002CEF89F02EEF89F039EF89F00C0E156E26
:10126000020ED3EC9FF0BE0E146EFF0E156E63ECF3
:101270009CF03F50425CD8B040EF89F042EF89F0DB
:101280004DEF89F00C0E156E040ED3EC9FF0B50EE9
:10129000146EFF0E156E63EC9CF00C0E156E030EB3
:1012A000D3EC9FF0370E146EFD0E156E63EC9CF0C0
:1012B000536A69EF89F0760E166E050E176E33ECE1
:1012C0009DF0536ED00E396ECA0EE82EFED7392E21
:1012D000FCD75350D8B46FEF89F071EF89F05BEF12
:1012E00089F0A6EF89F0550E356E050E366EC3EC0B
:1012F000A2F04250D8B47FEF89F081EF89F06AEF15
:1013000088F042066AEF88F0550E356E050E366E8F
:10131000C3ECA2F03F50425CD8B091EF89F093EF5C
:1013200089F06AEF88F0422A6AEF88F0550E356E30
:10133000050E366EC3ECA2F0B5EF89F0550E356E92
:10134000050E366E91EC99F06AEF88F053502A0A38
:10135000D8B496EF89F06B0AD8B473EF89F0030A1A
:10136000D8B484EF89F09EEF89F012003C6AD7EC84
:10137000A3F0010E156E010ED3EC9FF05A0E146E01
:10138000FB0E156E63EC9CF0000E156E030ED3EC95
:101390009FF0770E146EFE0E156E63EC9CF00C6AD7
:1013A000020E0B6ECCECA1F0516E000E236E040EFB
:1013B000E8ECA0F0000E156E030ED3EC9FF0A6EC47
:1013C000A3F0000E156E030ED3EC9FF0460E146EC4
:1013D000FE0E156E63EC9CF0040E236E040EE8EC1A
:1013E000A0F05128D8A4F7EF89F0F9EF89F01DEFAC
:1013F0008AF0080E236E040EE8ECA0F0000E156EC5
:10140000030ED3EC9FF0A6ECA3F0020E156E030EB4
:10141000D3EC9FF0D70E146EFE0E156E63EC9CF0AD
:101420003D0E3B6EE10E3A6E400EE82EFED73A2E90
:10143000FCD73B2EFAD7A0EF8BF0000E156E030EF3
:10144000D3EC9FF0A6ECA3F0000E156E030ED3ECC8
:101450009FF0BE0E146EFD0E156E63EC9CF0020E36
:101460002E6E515009ECA2F0080E236E040EE8EC2B
:10147000A0F0000E156E030ED3EC9FF0A6ECA3F0C7
:10148000000E156E030ED3EC9FF0450E146EFB0E8E
:10149000156E63EC9CF00C0E236E040EE8ECA0F0CD
:1014A000D7ECA3F0000E156E010ED3EC9FF0170ED3
:1014B000146EFC0E156E63EC9CF0000E156E020EA1
:1014C000D3EC9FF0EC0E146EFF0E156E63EC9CF0E7
:1014D0000C6A0A0E0B6ECCECA1F0516E020E2E6E51
:1014E000515009ECA2F0650E146EFF0E156E63EC00
:1014F0009CF00C6A0B0E0B6ECCECA1F0516E020E40
:101500002E6E515009ECA2F0740E146EFD0E156E85
:1015100063EC9CF0000E156E030ED3EC9FF0F10E01
:10152000146EFF0E156E63EC9CF00C6A0C0E0B6EC5
:10153000CCECA1F0516E020E2E6E515009ECA2F0CF
:10154000710E146EFF0E156E63EC9CF00C6A0D0E9E
:101550000B6ECCECA1F0516E020E2E6E515009ECC8
:10156000A2F0740E146EFD0E156E63EC9CF0000E6E
:10157000156E040ED3EC9FF06F0E146EFB0E156EFD
:1015800063EC9CF0536AD3EF8AF0760E166E050E6C
:10159000176E33EC9DF0536ED00E3A6ECA0EE82EE5
:1015A000FED73A2EFCD75350D8B4D9EF8AF0DBEFF0
:1015B0008AF0C5EF8AF013EF8BF0550E356E050EED
:1015C000366EC3ECA2F05350D00F3D6E120E156E66
:1015D000040ED3EC9FF0535019ECA3F0030E3B6EB6
:1015E000080E3A6E770EE82EFED73A2EFCD73B2E29
:1015F000FAD700003D509BEC97F026EF8BF0550E8C
:10160000356E050E366E91EC99F0120E156E040EC5
:10161000D3EC9FF0C50E146EFA0E156E63EC9CF0C1
:10162000536A26EF8BF05350310AD8B4DDEF8AF0BD
:10163000030AD8B4DDEF8AF0010AD8B4DDEF8AF0EE
:10164000070AD8B4DDEF8AF0FFEF8AF05350D8B420
:101650002CEF8BF02EEF8BF0C2EF8AF0536A3FEF46
:101660008BF0760E166E050E176E33EC9DF0536EF2
:10167000D00E3A6ECA0EE82EFED73A2EFCD7535043
:10168000D8B445EF8BF047EF8BF031EF8BF085EF5F
:101690008BF0550E356E050E366E91EC99F02EEFEF
:1016A0008BF0550E356E050E366EC3ECA2F0A0EF32
:1016B0008BF0550E356E050E366E6BEC98F03CC512
:1016C00030F53D508CEC94F0090E3B6E1E0E3A6ED8
:1016D000E40EE82EFED73A2EFCD73B2EFAD700D0E8
:1016E000A0EF8BF0550E356E050E366EC3ECA2F0F2
:1016F0005350D00F3C6E120E156E030ED3EC9FF0BC
:10170000535019ECA3F02EEF8BF05350230AD8B4AA
:1017100059EF8BF0090AD8B451EF8BF06B0AD8B4AB
:1017200049EF8BF0030AD8B449EF8BF0010AD8B423
:1017300049EF8BF0070AD8B449EF8BF072EF8BF0CA
:101740001200536A34EF8DF0D7ECA3F0050E156E3E
:10175000010ED3EC9FF0890E146EFF0E156E63EC34
:101760009CF0030E156E020ED3EC9FF0050E146E66
:10177000FF0E156E63EC9CF0520E466E2B0E456EFE
:10178000000EE82EFED7452EFCD7462EFAD700D005
:10179000D7ECA3F0000E156E010ED3EC9FF0D80E1F
:1017A000146EFB0E156E63EC9CF0000E156E020EAF
:1017B000D3EC9FF0140E146EFF0E156E63EC9CF0CC
:1017C000000E156E030ED3EC9FF0240E146EFE0E69
:1017D000156E63EC9CF0000E156E040ED3EC9FF0BA
:1017E000870E146EFE0E156E63EC9CF0486A000EB8
:1017F000476E760E166E050E176E33EC9DF0536E27
:101800005350D8B406EF8CF008EF8CF01FEF8DF03A
:10181000D7ECA3F008EF8DF0550E356E050E366E41
:101820006BEC98F0070E156E010ED3EC9FF0DF0EF7
:10183000146EFF0E156E63EC9CF0020E156E020E18
:10184000D3EC9FF0970E146EFE0E156E63EC9CF0B9
:10185000520E466E2B0E456E000EE82EFED7452E1C
:10186000FCD7462EFAD700D0B7EC84F01FEF8DF0EE
:10187000550E356E050E366E6BEC98F0070E156E34
:10188000010ED3EC9FF0DF0E146EFF0E156E63ECAD
:101890009CF0010E156E020ED3EC9FF09A0E146EA2
:1018A000FD0E156E63EC9CF0520E466E2B0E456ECF
:1018B000000EE82EFED7452EFCD7462EFAD700D0D4
:1018C00000EC80F01FEF8DF0550E356E050E366E74
:1018D0006BEC98F0070E156E010ED3EC9FF0DF0E47
:1018E000146EFF0E156E63EC9CF0040E156E020E66
:1018F000D3EC9FF04C0E146EFF0E156E63EC9CF053
:10190000520E466E2B0E456E000EE82EFED7452E6B
:10191000FCD7462EFAD700D0AFEC87F01FEF8DF042
:10192000550E356E050E366E6BEC98F0070E156E83
:10193000010ED3EC9FF0DF0E146EFF0E156E63ECFC
:101940009CF0010E156E020ED3EC9FF01A0E146E71
:10195000FD0E156E63EC9CF0520E466E2B0E456E1E
:10196000000EE82EFED7452EFCD7462EFAD700D023
:10197000B6EC89F01FEF8DF0550E356E050E366E04
:101980006BEC98F0070E156E010ED3EC9FF0DF0E96
:10199000146EFF0E156E63EC9CF0030E156E020EB6
:1019A000D3EC9FF0890E146EFE0E156E63EC9CF066
:1019B000520E466E2B0E456E000EE82EFED7452EBB
:1019C000FCD7462EFAD700D03DEC93F01FEF8DF0F8
:1019D000550E356E050E366EE9EC99F0020E156E59
:1019E000020ED3EC9FF0670E146EFE0E156E63ECC4
:1019F0009CF0150E466E4B0E456EBE0EE82EFED7C1
:101A0000452EFCD7462EFAD700D0536A1FEF8DF033
:101A100053502A0AD8B4BCEF8CF01B0AD8B40CEF90
:101A20008CF0030AD8B438EF8CF0010AD8B464EF14
:101A30008CF0070AD8B490EF8CF0E8EF8CF0680EC9
:101A4000456EE40EE82EFED7452EFCD700D0474A5F
:101A5000482AF40E475C010E4858D8A032EF8DF0AA
:101A600034EF8DF0F9EF8BF05350D8B43AEF8DF09E
:101A70003CEF8DF0A4EF8BF0120004500510D8A4B9
:101A800044EF8DF046EF8DF049EF8DF0000E69EFD9
:101A90008EF004C5D9F405C5DAF4DF507F0B096E6A
:101AA00020EE01F00450D9260550DA22DF507F0BDA
:101AB0000A6E20EE04F00450D9260550DA22DF50D9
:101AC0003F0B0B6E20EE05F00450D9260550DA22AC
:101AD000DF501F0B0C6E20EE06F00450D926055087
:101AE000DA22DF50066E20EE03F00450D9260550AE
:101AF000DA22DF50070B0F6E20EE02F00450D926D9
:101B00000550DA22DFAC87EF8DF089EF8DF094EF8E
:101B10008DF020EE02F00450D9260550DA22DF5075
:101B20001F0B106E9DEF8DF020EE02F00450D926B1
:101B30000550DA22DF503F0B106E095026ECA2F060
:101B40000009D8B4A6EF8DF0A8EF8DF046EF8DF028
:101B50000A5026ECA2F00009D8B4B1EF8DF0B3EF33
:101B60008DF046EF8DF0105026ECA2F00009D8B4AD
:101B7000BCEF8DF0BEEF8DF046EF8DF00B5026ECF4
:101B8000A2F00009D8B4C7EF8DF0C9EF8DF046EF91
:101B90008DF00C5026ECA2F00009D8B4D2EF8DF0F5
:101BA000D4EF8DF046EF8DF0065026ECA2F0000940
:101BB000D8A4DDEF8DF0DFEF8DF0E1EF8DF046EF93
:101BC0008DF0095070ECA3F0076E0A5070ECA3F092
:101BD000086E105070ECA3F0116E0B5070ECA3F077
:101BE0000D6E0C5070ECA3F00E6E3B0E0764FBEF15
:101BF0008DF0FDEF8DF0FFEF8DF046EF8DF03B0E99
:101C0000086405EF8EF007EF8EF009EF8EF046EFD7
:101C10008DF020EE02F00450D9260550DA22DFAC18
:101C200014EF8EF016EF8EF028EF8EF01150D8B42E
:101C30001CEF8EF01EEF8EF046EF8DF00C0E11644F
:101C400024EF8EF026EF8EF032EF8EF046EF8DF01F
:101C5000170E11642EEF8EF030EF8EF032EF8EF013
:101C600046EF8DF00F50D8B438EF8EF03AEF8EF08B
:101C700046EF8DF0070E0F6440EF8EF042EF8EF0CE
:101C800044EF8EF046EF8DF00D50D8B44AEF8EF051
:101C90004CEF8EF046EF8DF01F0E0D6452EF8EF07C
:101CA00054EF8EF056EF8EF046EF8DF00E50D8B414
:101CB0005CEF8EF05EEF8EF046EF8DF00C0E0E6452
:101CC00064EF8EF066EF8EF068EF8EF046EF8DF0E9
:101CD000010E120012501310D8A471EF8EF073EFA2
:101CE0008EF076EF8EF0050E58EF8FF020EE08F0B4
:101CF0001250D9261350DA22DF6A20EE09F0125072
:101D0000D9261350DA22DF6A20EE0AF01250D926C3
:101D10001350DA22DF6A20EE0BF01250D92613504E
:101D2000DA22DF6A170E106E050E116ED9ECA2F0E2
:101D30001E6E1E50D8B49FEF8EF0A1EF8EF0A4EF70
:101D40008EF01E5058EF8FF020EE08F01250D9267A
:101D50001350DA2217AEAFEF8EF0B2EF8EF0010E15
:101D6000B3EF8EF0000EDF6E20EE09F01250D92690
:101D70001350DA2219BCBFEF8EF0C2EF8EF0010EC5
:101D8000C3EF8EF0000EDF6E20EE09F01250D92660
:101D90001350DA22DF50D8B4D0EF8EF0D2EF8EF0AD
:101DA000EFEF8EF020EE0AF01250D9261350DA220F
:101DB00019BADDEF8EF0E0EF8EF0010EE1EF8EF05C
:101DC000000EDF6E20EE02F01250D9261350DA22F8
:101DD00019501F0B70ECA3F0DF6E01EF8FF020EEB7
:101DE0000AF01250D9261350DA22DF6A20EE02F0F0
:101DF0001250D9261350DA2219503F0B70ECA3F081
:101E0000DF6E17507F0B70ECA3F012C5D9F413C529
:101E1000DAF4DF6E20EE01F01250D9261350DA22E8
:101E200018507F0B70ECA3F0DF6E20EE03F0125021
:101E3000D9261350DA221A50070BDF6E20EE04F079
:101E40001250D9261350DA221B503F0B70ECA3F02E
:101E5000DF6E20EE05F01250D9261350DA221C5006
:101E60001F0B70ECA3F0DF6E1D5070ECA3F0146E2E
:101E7000D00E1424156E166A070E162220EE06F0F8
:101E80001250D9261350DA2215C5DEF416C5DDF43A
:101E9000170E046E050E056E3DEC8DF0146E20EEEF
:101EA0000BF01250D9261350DA2214C5DFF4000EBD
:101EB00012001C501D10D8A460EF8FF062EF8FF05D
:101EC00064EF8FF040EF90F0640E20646AEF8FF0C3
:101ED0006CEF8FF06EEF8FF0640E206E400E0D6E83
:101EE000420E0E6E0F0E0F6E000E106E1CC511F519
:101EF0001DC512F5136A146A94EC9AF00DC52DF500
:101F00000EC52EF50FC52FF510C530F52050016E0A
:101F1000026A036A046A2DC505F52EC506F52FC5AC
:101F200007F530C508F59EEC9EF001C50DF502C51C
:101F30000EF503C50FF504C510F5640E116E000E05
:101F4000126E000E136E000E146E94EC9AF00DC516
:101F500031F50EC532F50FC533F510C534F53150E6
:101F60002D5C296E32502E582A6E33502F582B6E0E
:101F7000345030582C6E1EC501F51FC502F5036A9A
:101F8000046AE80E056E030E066E000E076E000E64
:101F9000086E9EEC9EF001C50DF502C50EF503C559
:101FA0000FF504C510F52DC511F52EC512F52FC579
:101FB00013F530C514F594EC9AF00DC521F50EC556
:101FC00022F50FC523F510C524F5000E256E000E71
:101FD000266E000E276E000E286E2BEF90F031500B
:101FE000321033103410D8B4F8EF8FF0FAEF8FF0CE
:101FF0000AEF90F01AC501F51BC502F5C4ECA0F07C
:1020000031C501F532C502F533C503F534C504F514
:10201000ACECA2F029502A102B102C10D8B413EFDE
:1020200090F015EF90F025EF90F01AC501F51BC563
:1020300002F59FECA0F029C501F52AC502F52BC5D4
:1020400003F52CC504F5ACECA2F0010E2526000E1C
:102050002622272228222150255C22502658235050
:10206000275824502858D8A038EF90F03AEF90F035
:10207000EFEF8FF01AC501F51BC502F59FECA0F03C
:1020800012002550D8B447EF90F049EF90F05AEF86
:1020900090F0060E25604FEF90F051EF90F05AEF60
:1020A00090F02550265CD8A058EF90F05AEF90F0B1
:1020B0005DEF90F0050E16EF91F0010E296E000E07
:1020C0002A6E000E2B6E000E2C6E010E286E84EF11
:1020D00090F029C501F52AC502F52BC503F52CC5DD
:1020E00004F50A0E056E000E066E000E076E000E59
:1020F000086E9EEC9EF001C529F502C52AF503C5C0
:102100002BF504C52CF5282A2550285CD8A08BEF88
:1021100090F08DEF90F069EF90F0286A0CEF91F05D
:102120002650D8B496EF90F098EF90F0B1EF90F081
:102130002650255C2818D8A4A0EF90F0A2EF90F0CC
:10214000B1EF90F02E0E19ECA3F02D6E2D50D8B4F7
:10215000ACEF90F0AEEF90F0B1EF90F02D5016EFA5
:1021600091F029C511F52AC512F52BC513F52CC51B
:1021700014F523C50DF524C50EF50F6A106A94EC0D
:102180009AF00DC51AF50EC51BF50FC51CF510C547
:102190001DF50A0E1E6E000E1F6E000E206E000E44
:1021A000216EABEC9CF01A50276E2750300F19ECC3
:1021B000A3F02D6E2D50D8B4E0EF90F0E2EF90F048
:1021C000E4EF90F0AEEF90F02C502B102A1009E1C4
:1021D000020E295CD8A0EFEF90F0F1EF90F00BEF3A
:1021E00091F029C50DF52AC50EF52BC50FF52CC5A7
:1021F00010F50A0E116E000E126E000E136E000E18
:10220000146E94EC9AF00DC529F50EC52AF50FC58C
:102210002BF510C52CF5282A2550285CD8A013EFE3
:1022200091F015EF91F090EF90F0000E1200D7ECC6
:10223000A3F0000E156E020ED3EC9FF0AE0E146EDE
:10224000FB0E156E63EC9CF0000E156E030ED3ECC6
:102250009FF039C514F53AC515F563EC9CF06BEFAA
:1022600091F0000E106E060E116EC80E126E000E6A
:10227000136E000E146E2EECA3F0550E356E050E87
:10228000366EE9EC99F076EF91F0000E106E060EC6
:10229000116EFA0E126EC80E136E000E146E2EEC36
:1022A000A3F0550E356E050E366E91EC99F0520E78
:1022B0003D6E2B0E3C6E000EE82EFED73C2EFCD75A
:1022C0003D2EFAD700D0000E106E060E116E41ECB6
:1022D000A3F0D5EF91F03B50010AD8B431EF91F063
:1022E000030AD8B445EF91F076EF91F07A0E3D6E87
:1022F000C10E3C6E820EE82EFED73C2EFCD73D2E42
:10230000FAD7D7ECA3F0000E156E020ED3EC9FF0B7
:10231000880E146EFD0E156E63EC9CF0000E156EAB
:10232000030ED3EC9FF0CB0E146EFC0E156E63EC17
:102330009CF0536AAAEF91F0760E166E050E176E9A
:1023400033EC9DF0536ED00E3C6ECA0EE82EFED7D5
:102350003C2EFCD75350D8B4B0EF91F0B2EF91F0CF
:102360009CEF91F0C6EF91F0550E356E050E366E6E
:10237000C3ECA2F0FF00CDEF91F0550E356E050EC7
:10238000366E91EC99F0536ACDEF91F05350230AD9
:10239000D8B4B4EF91F0BDEF91F05350D8B4D3EF6F
:1023A00091F0D5EF91F099EF91F01200030E166EB7
:1023B000080E156E770EE82EFED7152EFCD7162EBA
:1023C000FAD70000080E5D6E040E5C6E5D50B7EC2F
:1023D000A3F0176E1750D8B4F0EF91F0F2EF91F030
:1023E000F4EF91F089EF92F0340E156EF20EE82EB4
:1023F000FED7152EFCD7000E096E300EADECA1F005
:10240000176E1750D8B407EF92F009EF92F00BEF68
:1024100092F089EF92F0340E156EF20EE82EFED790
:10242000152EFCD7000E096E300EADECA1F0176E24
:102430001750D8B41EEF92F020EF92F022EF92F0F6
:1024400089EF92F0F00E00D0E82EFDD7000E096E55
:10245000300EADECA1F0176E1750D8B432EF92F0F9
:1024600034EF92F036EF92F089EF92F0F00E00D058
:10247000E82EFDD7000E096E200EADECA1F0176E10
:102480001750D8B446EF92F048EF92F04AEF92F02E
:1024900089EF92F0F00E00D0E82EFDD7280E07EC61
:1024A0009FF0176E1750D8B458EF92F05AEF92F091
:1024B0005CEF92F089EF92F05C6AD2ECA3F0176EB9
:1024C0001750D8B466EF92F068EF92F06AEF92F08E
:1024D00089EF92F0D7ECA3F0176E1750D8B473EFD2
:1024E00092F075EF92F077EF92F089EF92F0060E8E
:1024F00007EC9FF0176E1750D8B481EF92F083EF7E
:1025000092F085EF92F089EF92F0040E5C6ED2ECBF
:10251000A3F012005250D8B490EF92F092EF92F0E4
:102520009AEF92F0E00E396EFD0E3A6E010E3B6EA0
:1025300017EC91F06A0E126E050E136E6AEC8EF0B7
:10254000526E5250D8B4A7EF92F0A9EF92F0B1EFCB
:1025500092F0F10E396EFD0E3A6E010E3B6E17ECE5
:1025600091F005017251D8A4B8EF92F0BAEF92F051
:10257000C2EF92F03F0E396EFF0E3A6E010E3B6EC7
:1025800017EC91F005017551D8A4C9EF92F0CBEF8B
:1025900092F0D3EF92F0990E396EFB0E3A6E010E67
:1025A0003B6E17EC91F043ECA2F00009D8A4DBEFEE
:1025B00092F0DDEF92F0E5EF92F0840E396EFB0EB3
:1025C0003A6E010E3B6E17EC91F00C6A010E0B6E29
:1025D000CCECA1F00009D8A4F0EF92F0F2EF92F069
:1025E000FAEF92F0B70E396EFE0E3A6E020E3B6EA7
:1025F00017EC91F00C6A020E0B6ECCECA1F0000906
:10260000D8A405EF93F007EF93F00FEF93F0130EBC
:10261000396EFE0E3A6E020E3B6E17EC91F0D7EC5F
:10262000A3F0000E156E020ED3EC9FF0020E146E96
:10263000FE0E156E63EC9CF0000E106E060E116E11
:10264000000E126EC80E136E000E146E2EECA3F068
:10265000520E4A6E2B0E496E000EE82EFED7492E02
:10266000FCD74A2EFAD700D0000E106E060E116E5F
:1026700041ECA3F0A1EC8BF01200D7ECA3F0040E18
:10268000156E010ED3EC9FF07D0E146EFF0E156ECD
:1026900063EC9CF0060E156E020ED3EC9FF0BB0EA1
:1026A000146EFB0E156E63EC9CF0290E296E960ECF
:1026B000286E7F0EE82EFED7282EFCD7292EFAD7BB
:1026C0000000040E156E030ED3EC9FF0A70E146EDF
:1026D000FE0E156E63EC9CF0550E086E050E096E2D
:1026E000BEECA3F0020E236E040EE8ECA0F0000E88
:1026F000156E030ED3EC9FF0A6ECA3F0040E156E3E
:10270000030ED3EC9FF0310E146EFF0E156E63ECCA
:102710009CF0000E106E060E116E41ECA3F0060E3A
:10272000236E040EE8ECA0F0000E156E030ED3EC41
:102730009FF0A6ECA3F0010E156E030ED3EC9FF0F4
:10274000F30E146EFC0E156E63EC9CF00A0E236EF5
:10275000040EE8ECA0F0000E156E030ED3EC9FF013
:10276000A6ECA3F0050E156E030ED3EC9FF0A00EA1
:10277000146EFF0E156E63EC9CF00E0E236E040EAD
:10278000E8ECA0F0D7ECA3F0050E156E020ED3EC2A
:102790009FF0BB0E146EFB0E156E63EC9CF0040EE6
:1027A000156E030ED3EC9FF0950E146EFF0E156E92
:1027B00063EC9CF0290E296E960E286E7F0EE82E93
:1027C000FED7282EFCD7292EFAD70000D7ECA3F08D
:1027D000120007C5D9F408C5DAF409C5DEF40AC544
:1027E000DDF420EE02F00750D9260850DA220BC59E
:1027F000DEF40CC5DDF420EE04F00750D9260850B5
:10280000DA220DC5DEF40EC5DDF420EE06F0075029
:10281000D9260850DA220FC5DEF410C5DDF420EE0B
:1028200008F00750D9260850DA2211C5DEF412C587
:10283000DDF420EE06F00750D9260850DA22DEC477
:1028400013F5DDC414F513C5D9F414C5DAF4DF6A41
:1028500020EE04F00750D9260850DA22DEC413F522
:10286000DDC414F513C5D9F414C5DAF410EE04F080
:102870000750E1260850E222E6C415F5E5C416F536
:1028800015C5E1F416C5E2F4E750F00BDF6E20EE5B
:1028900004F00750D9260850DA22DEC413F5DDC44F
:1028A00014F513C5D9F414C5DAF410EE04F007508A
:1028B000E1260850E222E6C415F5E5C416F515C573
:1028C000E1F416C5E2F4E750F009DF6E20EE08F0FF
:1028D0000750D9260850DA22DEC413F5DDC414F5FA
:1028E00013C5D9F414C5DAF410EE08F00750E12648
:1028F0000850E222E6C415F5E5C416F515C5E1F465
:1029000016C5E2F4E750F009DF6E07C501F508C50A
:1029100002F58DECA1F01200386E8D0EF66EFA0EF7
:10292000F76E000EF86E0900F5C434F50900F5C421
:1029300035F50900F5C436F50A00F5C437F5FF0E84
:102940003824316E326AFF0E3222340E3124D96EB1
:10295000050E3220DA6EDF50336E33500B6E0C6A88
:10296000CCECA1F0516EFF0E3824316E326AFF0EAE
:102970003222340E3124D96E050E3220DA6EDF5049
:10298000336E33500E6E0F6A51503024106E7AEC55
:10299000A2F00C6A020E0B6ECCECA1F0516E0F6A25
:1029A000020E0E6E51503024106E7AECA2F0D7EC6D
:1029B000A3F0000E156E010ED3EC9FF0060E146E00
:1029C000FB0E156E63EC9CF0000E156E020ED3EC40
:1029D0009FF0590E146EFF0E156E63EC9CF0010E05
:1029E0002E6E385009ECA2F0E60E146EFF0E156E36
:1029F00063EC9CF0000E156E020ED3EC9FF0570EA8
:102A0000146EFE0E156E63EC9CF0FF0E3824316ED2
:102A1000326AFF0E3222340E3124D96E050E322076
:102A2000DA6EDF50336E33500B6E0C6ACCECA1F0D3
:102A3000516E020E2E6E515009ECA2F0740E146EFF
:102A4000FD0E156E63EC9CF0120001C5D9F402C5B1
:102A5000DAF403C5DEF404C5DDF420EE02F0015023
:102A6000D9260250DA2205C5DEF406C5DDF420EED3
:102A700004F00150D9260250DA2207C5DEF408C559
:102A8000DDF420EE06F00150D9260250DA2209C505
:102A9000DFF420EE07F00150D9260250DA22DF6A77
:102AA00020EE06F00150D9260250DA22DF50D8A4D9
:102AB0005CEF95F05EEF95F08EEF95F020EE02F072
:102AC0000150D9260250DA22DEC40AF5DDC40BF526
:102AD0000AC5D9F40BC5DAF4F00EDF1620EE04F0C7
:102AE0000150D9260250DA22DEC40AF5DDC40BF506
:102AF0000AC5D9F40BC5DAF4F00EDF1601C5D9F416
:102B000002C5DAF4DEC40AF5DDC40BF50AC5D9F452
:102B10000BC5DAF4F00EDF16BCEF95F020EE02F0F4
:102B20000150D9260250DA22DEC40AF5DDC40BF5C5
:102B30000AC5D9F40BC5DAF40F0EDF1620EE04F047
:102B40000150D9260250DA22DEC40AF5DDC40BF5A5
:102B50000AC5D9F40BC5DAF40F0EDF1601C5D9F496
:102B600002C5DAF4DEC40AF5DDC40BF50AC5D9F4F2
:102B70000BC5DAF40F0EDF16120008C5D9F409C52B
:102B8000DAF40AC5DEF40BC5DDF420EE02F00850DD
:102B9000D9260950DA220CC5DEF40DC5DDF420EE8D
:102BA00004F00850D9260950DA220EC5DEF40FC50C
:102BB000DDF420EE06F00850D9260950DA2210C5BF
:102BC000DFF420EE04F00850D9260950DA22DEC4E2
:102BD00011F5DDC412F511C5D9F412C5DAF410EE01
:102BE00004F00850E1260950E222E6C413F5E5C4DA
:102BF00014F513C5E1F414C5E2F4E750156E10EEB8
:102C000006F00850E1260950E222E750FF0A1514A9
:102C1000DF6E20EE02F00850D9260950DA22DEC419
:102C200011F5DDC412F511C5D9F412C5DAF410EEB0
:102C300002F00850E1260950E222E6C413F5E5C48B
:102C400014F513C5E1F414C5E2F4E750156E10EE67
:102C500006F00850E1260950E222E750FF0A151459
:102C6000DF6E08C501F509C502F59FECA0F0120062
:102C7000066E800E06603FEF96F041EF96F052EF41
:102C800096F003500410D8B448EF96F04AEF96F04F
:102C900052EF96F00550D8A450EF96F052EF96F010
:102CA00057EF96F0050E546E5450B2EF96F0A0EC2C
:102CB0009FF0086E0850D8B460EF96F062EF96F07F
:102CC00069EF96F008C554F5C5ECA3F00850B2EFD3
:102CD00096F0DBECA3F00201949D065006248F6F62
:102CE00005C58DF203C5D9F404C5DAF4DF508C6F45
:102CF000948B010E076E94EF96F0B2EC9DF0086E87
:102D00000850D8B486EF96F088EF96F08AEF96F0E8
:102D100062EF96F007500324D96E000E0420DA6E9D
:102D2000DF5002018C6F072A0550075CD8A09BEF8B
:102D300096F09DEF96F07DEF96F0EFEC9CF0086E2C
:102D40000850D8B4A6EF96F0A8EF96F0ACEF96F046
:102D5000C5ECA3F0AEEF96F0DBECA3F008C554F59C
:102D600066EF96F0120001C5D9F402C5DAF403C586
:102D7000DEF404C5DDF420EE02F00150D926025045
:102D8000DA2205C5DEF406C5DDF420EE04F00150BC
:102D9000D9260250DA2207C5DEF408C5DDF420EE9C
:102DA00006F00150D9260250DA2209C5DFF420EEE0
:102DB00004F00150D9260250DA22DEC40AF5DDC43F
:102DC0000BF50AC5D9F40BC5DAF410EE04F0015086
:102DD000E1260250E222E6C40CF5E5C40DF50CC56F
:102DE000E1F40DC5E2F4E7500E6E10EE06F001506E
:102DF000E1260250E222E750FF0A0E14DF6E20EEB9
:102E000002F00150D9260250DA22DEC40AF5DDC4F0
:102E10000BF50AC5D9F40BC5DAF410EE06F0015033
:102E2000E1260250E222E7500C6E10EE02F0015053
:102E3000E1260250E222E6C40DF5E5C40EF50DC50B
:102E4000E1F40EC5E2F4E7500C10DF6E1200066EDE
:102E5000800E06602EEF97F030EF97F041EF97F07D
:102E600003500410D8B437EF97F039EF97F041EFE3
:102E700097F00550D8A43FEF97F041EF97F046EF59
:102E800097F0050E546E54509AEF97F0A0EC9FF017
:102E9000086E0850D8B44FEF97F051EF97F058EF05
:102EA00097F008C554F5C5ECA3F008509AEF97F0D9
:102EB000DBECA3F00201949D958F05C58DF2D880BF
:102EC00006348F6F948B076A7CEF97F0EFEC9DF0E0
:102ED000086E0850D8B46FEF97F071EF97F073EF6A
:102EE00097F051EF97F007500324D96E000E04209D
:102EF000DA6E8BC2DFF4072A0550075CD8A083EF97
:102F000097F085EF97F066EF97F06DEC9FF0086E05
:102F10000850D8B48EEF97F090EF97F094EF97F0B9
:102F2000C5ECA3F096EF97F0DBECA3F008C554F5E1
:102F300055EF97F01200396E890EF66EFA0EF76EA5
:102F4000000EF86E0900F5C435F50900F5C436F534
:102F50000900F5C437F50A00F5C438F5D7ECA3F03D
:102F6000000E156E010ED3EC9FF0400E146EFD0E98
:102F7000156E63EC9CF039C52EF52F6A020E306E8B
:102F8000000E316E87ECA3F0D90E146EFA0E156E9A
:102F900063EC9CF0000E156E020ED3EC9FF0520E07
:102FA000146EFD0E156E63EC9CF0FF0E3924326E2C
:102FB000336AFF0E3322350E3224D96E050E3320CC
:102FC000DA6EDF50346E34500B6E0C6ACCECA1F02C
:102FD000516E020E2E6E515009ECA2F0000E156ECD
:102FE000030ED3EC9FF0530E146EFC0E156E63ECC3
:102FF0009CF0000E156E040ED3EC9FF03F0E146E85
:10300000FC0E156E63EC9CF01200146A0FC507F5F8
:1030100010C508F514C509F53AEC9FF00D0EE82E21
:10302000FED70000156A910E1524F66EF76AFA0EA7
:10303000F722F86A000EF8220800F5C411F50FC552
:10304000D9F410C5DAF4DEC412F5DDC413F512C5E7
:10305000D9F413C5DAF4DF5011140009D8A433EF02
:1030600098F035EF98F051EF98F00FC501F510C5C5
:1030700002F58DECA1F01450040D710EF324116EC5
:10308000FA0EF420126E15501126000E122211C5F0
:10309000F6F412C5F7F4000EF86E0800F5506AEF6A
:1030A00098F0152A030E156458EF98F05AEF98F02F
:1030B00013EF98F0142A030E146461EF98F063EF95
:1030C00098F006EF98F00FC501F510C502F58DECEC
:1030D000A1F0000E120035C51AF536C51BF5020E1B
:1030E0001D6E0B0E1C6E1F6A500E1E6E320E206E71
:1030F00059EC8FF0D00E376ECA0EE82EFED7372E61
:10310000FCD735C51AF536C51BF5020E1D6E930E9C
:103110001C6E1F6A5A0E1E6E320E206E59EC8FF016
:10312000D00E376ECA0EE82EFED7372EFCD735C527
:103130001AF536C51BF5030E1D6E100E1C6E1F6AA8
:10314000780E1E6E320E206E59EC8FF0D00E376E58
:10315000CA0EE82EFED7372EFCD735C51AF536C570
:103160001BF5040E1D6E170E1C6E1F6AB40E1E6E2C
:10317000320E206E59EC8FF0020E386EA00E376EB4
:10318000920EE82EFED7372EFCD7382EFAD700D075
:1031900035C508F536C509F5BEECA3F01200CA80A6
:1031A000040121812091E6EC9AF09DECA3F004EC5F
:1031B000A3F05FECA2F088EC9BF0EFECA2F07CECCB
:1031C000A3F0D2B0E6EF98F0E8EF98F019EF99F09D
:1031D000000E156E010ED3EC9FF0260E146EFF0E3E
:1031E000156E63EC9CF0150E196E4B0E186EBE0E2C
:1031F000E82EFED7182EFCD7192EFAD700D01A6A5F
:103200001AC50BF50C6A000E0D6E29ECA0F01A2AF7
:10321000260E1A640EEF99F010EF99F000EF99F076
:103220000C6A030E0B6E040E0D6E29ECA0F030EF4D
:1032300099F0000E156E010ED3EC9FF0230E146E64
:10324000FF0E156E63EC9CF0150E196E4B0E186E8A
:10325000BE0EE82EFED7182EFCD7192EFAD700D0B6
:103260001200066A04BE39EF99F037EF99F03FEF8C
:1032700099F0036C041ED8B0042A010E066E02BE3B
:1032800046EF99F044EF99F04CEF99F0016C021E73
:10329000D8B0022A010E061A086A000E076E035003
:1032A0000410D8B456EF99F058EF99F080EF99F0E8
:1032B000010E056E60EF99F0D89003360436052AAA
:1032C00004AE65EF99F067EF99F05CEF99F0D89054
:1032D000073608360350015C04500258D8A073EF3B
:1032E00099F075EF99F07AEF99F00350015E045070
:1032F000025A0780D89004320332052E67EF99F006
:103300000650D8B486EF99F088EF99F08CEF99F0D9
:10331000076C081ED8B0082A07C501F508C502F5D4
:10332000120035C51AF536C51BF5030E1D6E700E5D
:103330001C6E1F6A5A0E1E6E320E206E59EC8FF0F4
:10334000040E386E400E376E260EE82EFED7372E4E
:10335000FCD7382EFAD700D035C51AF536C51BF57F
:10336000030E1D6E700E1C6E1F6A5A0E1E6E320EFC
:10337000206E59EC8FF0040E386E400E376E260E1C
:10338000E82EFED7372EFCD7382EFAD700D035C519
:103390001AF536C51BF5030E1D6E700E1C6E1F6AE6
:1033A0005A0E1E6E320E206E59EC8FF0050E386EDE
:1033B0000F0E376EF10EE82EFED7372EFCD7382EC3
:1033C000FAD7000035C508F536C509F5BEECA3F0FF
:1033D000120035C51AF536C51BF5010E1D6E880E97
:1033E0001C6E1F6AA00E1E6E3C0E206E59EC8FF0F4
:1033F000020E386EA00E376E920EE82EFED7372ED4
:10340000FCD7382EFAD700D035C51AF536C51BF5CE
:10341000010E1D6E4A0E1C6E1F6AB40E1E6E3C0E0F
:10342000206E59EC8FF0020E386EA00E376E920EA1
:10343000E82EFED7372EFCD7382EFAD700D035C568
:103440001AF536C51BF5010E1D6E060E1C6E1F6AA1
:10345000FA0E1E6E460E206E59EC8FF0030E386E7B
:10346000700E376E5C0EE82EFED7372EFCD7382E46
:10347000FAD700D035C508F536C509F5BEECA3F07E
:1034800012001E0E036447EF9AF049EF9AF051EFD5
:103490009AF001C5D9F402C5DAF41E0EDF6E57EFBB
:1034A0009AF001C5D9F402C5DAF403C5DFF40401CA
:1034B0001091C890C090066A86EF9AF006500124D9
:1034C000046E000E0220056E010E0424D96E000E5B
:1034D0000520DA6EDF6A06500124046E000E022019
:1034E000056E1F0E0424D96E000E0520DA6EDF6A09
:1034F00006500124046E000E0220056E3D0E0424C9
:10350000D96E000E0520DA6EDF6A062A01C5D9F4ED
:1035100002C5DAF4DE50065CD8A091EF9AF093EF82
:103520009AF05EEF9AF01200000E156E000E166E05
:10353000000E176E000E186E11501210131014109A
:10354000D8B4A5EF9AF0A7EF9AF0DDEF9AF0010E4C
:10355000196EB1EF9AF0D890113612361336143630
:10356000192A14AEB6EF9AF0B8EF9AF0ABEF9AF0D2
:10357000D890153616361736183611500D5C125085
:103580000E5813500F5814501058D8A0CAEF9AF084
:10359000CCEF9AF0D5EF9AF011500D5E12500E5A02
:1035A00013500F5A1450105A1580D89014321332F9
:1035B00012321132192EB8EF9AF015C50DF516C555
:1035C0000EF517C50FF518C510F51200980E016E0F
:1035D000050E026EBE0E036E040E046EC60E056E60
:1035E000040E066E000E076E040E086E000E096EC5
:1035F00025EC95F0900E016E050E026EBE0E036E68
:10360000040E046EC60E056E040E066E000E076EE6
:10361000040E086E010E096E25EC95F0880E016E01
:10362000050E026EBF0E036E040E046EC70E056E0D
:10363000040E066E080E076E040E086E000E096E6C
:1036400025EC95F0800E016E050E026EBF0E036E26
:10365000040E046EC70E056E040E066E080E076E8D
:10366000040E086E010E096E25EC95F0120001C5DE
:10367000D9F402C5DAF403C5DEF404C5DDF420EEA6
:1036800002F00150D9260250DA2205C5DEF406C543
:10369000DDF420EE04F00150D9260250DA2207C5ED
:1036A000DFF420EE05F00150D9260250DA2208C5D9
:1036B000DFF420EE04F00150D9260250DA22DF5068
:1036C000096E01C5D9F402C5DAF4DEC40AF5DDC419
:1036D0000BF50AC5D9F40BC5DAF40950DF1220EE58
:1036E00004F00150D9260250DA22DF50096E20EE94
:1036F00002F00150D9260250DA22DEC40AF5DDC4F8
:103700000BF50AC5D9F40BC5DAF40950DF12120023
:10371000AFECA3F0B90E016E050E026ECB0E036E78
:10372000040E046E280E056E040E066E010E076E62
:10373000280E086E37EC9BF0B30E016E050E026E7C
:10374000CB0E036E040E046E280E056E040E066E7C
:10375000020E076E290E086E37EC9BF0AD0E016E5F
:10376000050E026ECB0E036E040E046E280E056E5F
:10377000040E066E040E076E2A0E086E37EC9BF0E0
:10378000A70E016E050E026ECB0E036E040E046EC4
:10379000280E056E040E066E080E076E2B0E086EC0
:1037A00037EC9BF0120015501610D8B4DAEF9BF0EE
:1037B000DCEF9BF0E4EF9BF0070E1764E2EF9BF069
:1037C000E4EF9BF0E7EF9BF0050E1AEF9CF0173843
:1037D000E842F80B400907EC9FF0196E1950D8B475
:1037E000F4EF9BF0F6EF9BF0F9EF9BF019501AEF16
:1037F0009CF0186A18501524D96E000E1620DA6E47
:10380000DF5019ECA3F0196E1950D8B40AEF9CF0F0
:103810000CEF9CF00EEF9CF0F6EF9BF0182A070ED1
:10382000186415EF9CF017EF9CF0FAEF9BF0800EF8
:1038300007EC9FF01200086A4CEF9CF0085004243B
:10384000066E000E0520076E1F0E0624D96E000EB0
:103850000720DA6EDF504DECA1F008500424066E0C
:10386000000E0520076E010E0624D96E000E0720FB
:10387000DA6EDF504DECA1F008500424066E000E05
:103880000520076E3D0E0624D96E000E0720DA6E65
:10389000DF504DECA1F0082A04C5D9F405C5DAF4CF
:1038A000DE50085CD8A057EF9CF059EF9CF01EEF5B
:1038B0009CF0C090040E066E1C0EE82EFED7062E5D
:1038C000FCD700D0120014501510D8A46AEF9CF059
:1038D0006CEF9CF090EF9CF0050EAAEF9CF014C5E5
:1038E000F6F415C5F7F4000EF86E250EF76403D054
:1038F0000800F55005D0F6C4E9F4F7C4EAF4EF5037
:1039000019ECA3F0166E1650D8B489EF9CF08BEF2B
:103910009CF08EEF9CF01650AAEF9CF0144A152AEA
:1039200014C5F6F415C5F7F4000EF86E250EF7640D
:1039300003D00800F55005D0F6C4E9F4F7C4EAF462
:10394000EF500009D8A4A7EF9CF0A9EF9CF06FEF0F
:103950009CF0000E12001E501F1020102110D8B431
:10396000B4EF9CF0B6EF9CF0E6EF9CF0010E226EF7
:10397000C0EF9CF0D8901E361F3620362136222A02
:1039800021AEC5EF9CF0C7EF9CF0BAEF9CF01E5043
:103990001A5C1F501B5820501C5821501D58D8A08D
:1039A000D4EF9CF0D6EF9CF0DEEF9CF01E501A5E38
:1039B0001F501B5A20501C5A21501D5AD89021329A
:1039C00020321F321E32222EC7EF9CF01AC51AF584
:1039D0001BC51BF51CC51CF51DC51DF51200EA0E07
:1039E000026E600E016E18EF9DF097ADFAEF9CF03D
:1039F000FCEF9CF0FFEF9CF0030E32EF9DF097ABD5
:103A000004EF9DF006EF9DF009EF9DF0020E32EFFE
:103A10009DF001500210D8A410EF9DF012EF9DF020
:103A200015EF9DF0040E32EF9DF00106D8A00206BE
:103A300002019AA51EEF9DF020EF9DF0F5EF9CF09E
:103A400095BB25EF9DF027EF9DF02EEF9DF097A9F8
:103A50002CEF9DF02EEF9DF031EF9DF0010E32EF37
:103A60009DF0000E120016C50FF517C510F505ECF8
:103A700098F01A6E1A50D8A440EF9DF042EF9DF0D6
:103A800045EF9DF0000E74EF9DF0D00E186ECA0E3B
:103A9000E82EFED7182EFCD716C50FF517C510F562
:103AA00005EC98F0196E1A501918D8B45AEF9DF019
:103AB0005CEF9DF05EEF9DF042EF9DF016C50FF5B7
:103AC00017C510F505EC98F00009D8A46AEF9DF031
:103AD0006CEF9DF05EEF9DF0D00E186ECA0EE82ED2
:103AE000FED7182EFCD71A501200366E010E2E6E1D
:103AF000365009ECA2F04F0E146EFD0E156E63ECFD
:103B00009CF030C50BF531C50CF5CCECA1F0516E35
:103B1000020E2E6E515009ECA2F0790E146EFC0EBE
:103B2000156E63EC9CF032C50BF533C50CF5CCEC8F
:103B3000A1F0516E020E2E6E515009ECA2F0F60E5D
:103B4000146EFF0E156E63EC9CF034C50BF535C595
:103B50000CF5CCECA1F0516E010E2E6E515009EC1B
:103B6000A2F01200EA0E026E600E016EE5EF9DF00B
:103B700097A9BDEF9DF0BFEF9DF0C2EF9DF0010E44
:103B8000EEEF9DF097ADC7EF9DF0C9EF9DF0CCEF44
:103B90009DF0030EEEEF9DF097ABD1EF9DF0D3EFCC
:103BA0009DF0D6EF9DF0020EEEEF9DF00150021059
:103BB000D8A4DDEF9DF0DFEF9DF0E2EF9DF0040E65
:103BC000EEEF9DF00106D8A00206020199ABEBEFE3
:103BD0009DF0EDEF9DF0B8EF9DF0000E1200EA0EA3
:103BE000026E600E016E22EF9EF097A9FAEF9DF033
:103BF000FCEF9DF0FFEF9DF0010E2BEF9EF097ADD7
:103C000004EF9EF006EF9EF009EF9EF0030E2BEFFF
:103C10009EF097AB0EEF9EF010EF9EF013EF9EF02C
:103C2000020E2BEF9EF001500210D8A41AEF9EF066
:103C30001CEF9EF01FEF9EF0040E2BEF9EF001068E
:103C4000D8A00206020199A128EF9EF02AEF9EF06B
:103C5000F5EF9DF0000E120001C5D9F402C5DAF4AB
:103C6000DE50035CD8A037EF9EF039EF9EF03BEFBB
:103C70009EF065EF9EF003500124076E000E0220B7
:103C8000086E010E0724D96E000E0820DA6E04C5F6
:103C9000DFF403500124076E000E0220086E1F0E91
:103CA0000724D96E000E0820DA6E05C5DFF4035034
:103CB0000124076E000E0220086E3D0E0724D96E07
:103CC000000E0820DA6E06C5DFF412000E6E400EFC
:103CD0000E606DEF9EF06FEF9EF080EF9EF00B5048
:103CE0000C10D8B476EF9EF078EF9EF080EF9EF047
:103CF0000D50D8A47EEF9EF080EF9EF083EF9EF0F3
:103D0000050E9DEF9EF00EC509F5680E92ECA3F02E
:103D10000F6E0F50D8B48FEF9EF091EF9EF094EF9E
:103D20009EF00F509DEF9EF00BC503F50CC504F5FA
:103D30000DC505F5680E27EC97F01200000E096E10
:103D4000000E0A6E000E0B6E000E0C6E01A0ABEFA3
:103D50009EF0ADEF9EF0B5EF9EF00550092606509F
:103D60000A2207500B2208500C22D890053606363E
:103D700007360836D890043203320232013201503D
:103D8000021003100410D8A4C8EF9EF0CAEF9EF0F2
:103D9000A6EF9EF009C501F50AC502F50BC503F5AE
:103DA0000CC504F5120014501510D8A4DAEF9EF0DB
:103DB000DCEF9EF0DEEF9EF006EF9FF01A6AFDEF5B
:103DC0009EF01A501424176E000E1520186E17C599
:103DD000F6F418C5F7F4000EF86E0800F55019EC6B
:103DE000A3F0196E1950D8B4F8EF9EF0FAEF9EF0D8
:103DF000FCEF9EF006EF9FF01A2A16501A5CD8A02E
:103E000004EF9FF006EF9FF0E1EF9EF01200146EBA
:103E1000000E096E1450FEEC9FF0136E1350D8B4D0
:103E200014EF9FF016EF9FF019EF9FF0135039EF4A
:103E30009FF01404D8B41FEF9FF021EF9FF02AEFFA
:103E40009FF0020E1418D8A428EF9FF02AEF9FF0DD
:103E500034EF9FF0150E126EC60EE82EFED7122E0E
:103E6000FCD700D038EF9FF0850EE82EFED700007B
:103E7000000E120007C501F508C502F58DECA1F092
:103E800020EE02F00750D9260850DA22DEC40AF5E7
:103E9000DDC40BF50AC5D9F40BC5DAF410EE02F057
:103EA0000750E1260850E222E6C40CF5E5C40DF502
:103EB0000CC5E1F40DC5E2F4E7500E6E950E092431
:103EC000F66EF76AFA0EF722F86A000EF82208007A
:103ED000F550FF0A0E14DF6E1200EA0E026E600E3D
:103EE000016E96EF9FF097AD78EF9FF07AEF9FF01D
:103EF0007DEF9FF0030E9FEF9FF097AB82EF9FF057
:103F000084EF9FF087EF9FF0020E9FEF9FF001502C
:103F10000210D8A48EEF9FF090EF9FF093EF9FF0E8
:103F2000040E9FEF9FF00106D8A0020602019AA599
:103F30009CEF9FF09EEF9FF073EF9FF0000E12003A
:103F4000EA0E026E600E016EC9EF9FF097ADABEF07
:103F50009FF0ADEF9FF0B0EF9FF0030ED2EF9FF018
:103F600097ABB5EF9FF0B7EF9FF0BAEF9FF0020E5F
:103F7000D2EF9FF001500210D8A4C1EF9FF0C3EF21
:103F80009FF0C6EF9FF0040ED2EF9FF00106D8A07D
:103F90000206020198AFCFEF9FF0D1EF9FF0A6EF9E
:103FA0009FF0000E1200166EE5EF9FF0176AF8EF13
:103FB0009FF0400E176EF8EF9FF0140E176EF8EF9B
:103FC0009FF0540E176EF8EF9FF01650010AD8B408
:103FD000D6EF9FF0030AD8B4D9EF9FF0010AD8B406
:103FE000DDEF9FF0070AD8B4E1EF9FF0FDEF9FF0FF
:103FF00017501524800907EC9FF012000E6E5DC566
:1040000011F50950D8B407EFA0F009EFA0F00AEFBE
:10401000A0F011800E50F00B0F6E0E38F00BF00B6D
:10402000106E0F50111004090A6E0F5011100B6E14
:104030001050111004090C6E105011100D6E0A0E64
:10404000036E050E046E040E056E5E5038EC96F09D
:104050001200040E0C5CD8A030EFA0F032EFA0F0FC
:1040600034EFA0F051EFA0F00BC501F50CC502F53F
:1040700093ECA2F00DC546F000014151F80B030985
:10408000416FD69E550E426FAA0E426F408140B1DD
:104090004CEFA0F04EEFA0F047EFA0F0D68EF80E58
:1040A000411712000201949FC096C0980401109716
:1040B0001099C896C89812871289EBECA1F0CF0E20
:1040C00002018717CF0E86178751FC0B0109876FF6
:1040D0008651FC0B0109866F040E946F956B966BED
:1040E000030E9C6F9D6B9B6BDBECA3F00201948F26
:1040F000546A1200BE0EF66E470EF76E010EF86E91
:1041000001EE5CF110EE04F00900F5C4EEF4E550A8
:10411000E150FAE101EE00F25B0EEE6AE806FDE125
:1041200001EE60F15F0EEE6AE806FDE101EE4BF193
:10413000110EEE6AE806FDE10001CCEFA3F001C527
:10414000D9F402C5DAF4DEC403F5DDC404F503C511
:10415000D9F404C5DAF4DF50056E20EE06F0015004
:10416000D9260250DA22DF50FF0A051401C5D9F41E
:1041700002C5DAF4DEC406F5DDC407F506C5D9F4D8
:1041800007C5DAF4DF6E120020EE06F00150D926E2
:104190000250DA22DF50036E01C5D9F402C5DAF409
:1041A000DEC404F5DDC405F504C5D9F405C5DAF4AB
:1041B000DF50031001C5D9F402C5DAF4DEC406F5F8
:1041C000DDC407F506C5D9F407C5DAF4DF6E1200C1
:1041D000266E000E0AECA1F023C515F52650D3EC8F
:1041E0009FF0276A000E19ECA3F00D0E256E2D0E20
:1041F000246ED80EE82EFED7242EFCD7252EFAD713
:10420000272A030E276407EFA1F009EFA1F0F2EFD0
:10421000A0F01200226E810EF66EFA0EF76E000EFE
:10422000F86E21EE1AF1070E0900F5C4DEF4E80677
:10423000FBE2070E22641FEFA1F021EFA1F023EFB4
:10424000A1F02BEFA1F01A0E156E050E166E22C509
:1042500017F5D3EC9BF01200016E0150D8B433EF88
:10426000A1F035EFA1F042EFA1F0C0800000000006
:1042700000000000000000000000C09000000000EE
:104280004CEFA1F0C08000000000C09000000000D2
:1042900000000000000000001200026E800E036E9D
:1042A000025003140009D8B458EFA1F05AEFA1F05E
:1042B0005FEFA1F0010E2CECA1F062EFA1F0000E77
:1042C0002CECA1F0D89003320350D8A46AEFA1F0EF
:1042D0006CEFA1F050EFA1F012000F6A7FEFA1F098
:1042E00009C501F50AC502F50FC503F50BC504F5AF
:1042F0000CC505F50DC506F52CEC9EF00F2A09C579
:10430000D9F40AC5DAF4DE500F5CD8A08AEFA1F028
:104310008CEFA1F070EFA1F0120020EE02F001503E
:10432000D9260250DA22DEC403F5DDC404F503C544
:10433000D9F404C5DAF410EE02F00150E12602507F
:10434000E222E6C405F5E5C406F505C5E1F406C5B7
:10435000E2F4E7500F09DF6E12000A6E0A50F00B0C
:104360000D6E5D500D120950D8B4B9EFA1F0BBEF3E
:10437000A1F0BCEFA1F00D800D5004090B6E0D50A3
:10438000FB0B0C6E0B0E036E050E046E020E056E1B
:104390005E5038EC96F01200040E0C5CD8A0D3EFFF
:1043A000A1F0D5EFA1F0D8EFA1F0FF0EEAEFA1F058
:1043B0000BC501F50CC502F593ECA2F0F80E000157
:1043C0004117408140B1E7EFA1F0E9EFA1F0E2EF42
:1043D000A1F046511200000ED6BE010E016ED69E0F
:1043E000550E0201006FAA0E006F0091370E146F78
:1043F000380E156F130E716F140E706F550E006F1F
:10440000AA0E006F008101B002D0D69E01D0D68ED8
:1044100012002F6E2E50D8B410EFA2F012EFA2F0BF
:1044200025EFA2F0030E2E6418EFA2F01AEFA2F00F
:104430001CEFA2F025EFA2F02FC523F5246A2EC5AC
:1044400025F5000E266E41EC90F01200036E033845
:104450000F0B0F0B016E03500F0B026E0A0E016063
:1044600034EFA2F036EFA2F03EEFA2F0090E0264A4
:104470003CEFA2F03EEFA2F041EFA2F0000E42EFBF
:10448000A2F0010E12000D6A0DC50BF50C6ACCEC02
:10449000A1F0FF0AD8A44FEFA2F051EFA2F054EF21
:1044A000A2F0000E5EEFA2F00D2A260E0D645BEF67
:1044B000A2F05DEFA2F044EFA2F0010E1200760E22
:1044C000076E050E086ED10E096E040E0A6EC10E3F
:1044D0000B6E040E0C6EC90E0D6E040E0E6E180ED1
:1044E0000F6E040E106E190E116E040E126EE9ECB2
:1044F00093F012000EC50BF50FC50CF5CCECA1F036
:10450000116E10501118D8B488EFA2F08AEFA2F003
:1045100092EFA2F00EC50BF50FC50CF510C50DF509
:1045200029ECA0F012000150036E0250046E056ADF
:10453000066A000E0324076E000E0420086E380E73
:104540000520096E000E06200A6E09C545F008C553
:1045500044F007C543F01200B7EFA2F000D000D03E
:1045600000D000D00106000E025A035A045A01502E
:10457000021003100410D8A4C0EFA2F0C2EFA2F002
:10458000AEEFA2F0120035C51AF536C51BF5090EBF
:104590001D6EC40E1C6E1F6A140E1E6E320E206E2F
:1045A00059EC8FF035C508F536C509F5BEECA3F01A
:1045B000120010501110D8A4E0EFA2F0E2EFA2F028
:1045C000E5EFA2F0050EEEEFA2F010C50BF511C558
:1045D0000CF5070E0D6E000E66EC9EF01200A00E9C
:1045E000016E050E026ED30E036E040E046ECB0E2A
:1045F000056E040E066E280E076E040E086E100E71
:10460000096EB3EC96F01200550E086E050E096E99
:10461000C00E0A6E040E0B6EC80E0C6E040E0D6EEC
:10462000100E0E6E040E0F6E020E106EBDEC95F0A5
:104630001200126E010E096E1250FEEC9FF0136E06
:104640001350D8A426EFA3F028EFA3F02CEFA3F08B
:10465000850EE82EFED700001350120010C509F594
:1046600011C50AF512C50BF513C50CF514C50DF5EA
:104670006DECA1F010C504F511C505F51BEC9CF01F
:10468000120010C509F511C50AF5000E0B6E000EDB
:104690000C6E000E0D6E6DECA1F010C504F511C589
:1046A00005F51BEC9CF01200016E7F0E01645BEFC0
:1046B000A3F05DEFA3F060EFA3F0050E63EFA3F0AE
:1046C00001C55EF5000E1200600E0001AD6F060E12
:1046D000B16F400EB36FCFEC98F08AEC92F01200FD
:1046E000026E02C501F50F0E011602380F0B0F0BFB
:1046F0000A0DF3500124120052ECA0F0270E54ECE6
:10470000A3F0526ED6EC91F0D7ECA3F012002EC5B8
:1047100023F52FC524F530C525F531C526F541EC27
:1047200090F012000A6E090E036E050E046E010E63
:10473000056E0A5038EC96F01200000E016E060E5F
:10474000026E020E036E41EC9AF01200020E146E1D
:10475000FC0E156E140E166ED3EC9EF012000301C3
:10476000F86B1F0EFA6F840EF36F5F6812000B6E0A
:104770000BC509F55E5092ECA3F0120008C501F5D7
:1047800009C502F59FECA0F012000201949FDBEC3A
:10479000A3F00201948F120064ECA3F0CEEFA3F01B
:1047A000FEEFFFF05C50080907EC9FF01200010ECD
:1047B00007EC9FF0120002019A6B976B120004083D
:0247C00027FFD1
:04FFFC007AEFA0F008
:020000040030CA
:08000000FCFF3DDF9FFFFFFF45
:01000900FFF7
:00000001FF
