:0400000081EF00F09C
:1000080040004000400040004000400040004000E8
:1000180040004000400040004000400040004000D8
:1000280040004000400040004000400040004000C8
:1000380040004000400040004000400040004000B8
:10004800004E40004000400040004000400040009A
:100058004000400040004000400040004000400098
:100068004000400040004000400040004000400088
:100078004000400040004000400040004000400078
:100088004000400040004000400040004000400068
:100098004000400040004000400040004000400058
:1000A8004000400040004000400040004000400048
:1000B8004000400040004000400040004000400038
:1000C8004000400040004000400040004000400028
:1000D8004000400040004000400040004000400018
:1000E8004000400040004000400040004000400008
:0E00F8004000400040004000FF0007EFAAF06B
:10F9DC00003132334134353642373839432A3023FB
:10F9EC00441F1F1F1F1F1F1F1F05060708050607A3
:10F9FC00080506070810204080010204080C0603C5
:10FA0C0009332E56657220686F726172696F7320AC
:10FA1C00202020202000342E5265672E2070617328
:10FA2C0074696C6C617320202020002A2E53616C49
:10FA3C0069722064656C206D656E75202020200035
:10FA4C004E7565766120686F7261203A2020787857
:10FA5C003A787820002120484F5241204445204CD0
:10FA6C004120444F5349532021002D2045444954F3
:10FA7C00415220484F524152494F205F202D002DBA
:10FA8C002D204E5545564F20484F524152494F203C
:10FA9C002D2D2D002D2D2D204D495320484F5241F9
:10FAAC0052494F53202D2D2D002D2D2D205B235DE4
:10FABC0020564552204D454E55202D2D2D002D2DD7
:10FACC002D205B235D20564F4C56455220202D2D6A
:10FADC002D2D002D2D2D2D2D2D2D2D2D2D2D2D2D77
:10FAEC002D2D2D2D2D2D2D002D2D205245434152E8
:10FAFC00474120455849544F53412D2D002D2D2061
:10FB0C00484F524152494F20504153542E205F2DA3
:10FB1C002D002D204D4F4449464943415220484F1A
:10FB2C00524152494F2D00507265706172616E6482
:10FB3C006F2073697374656D612E2E005245472ECC
:10FB4C002043414E542E2050415354494C4C415368
:10FB5C000053656C656363696F6E652028312D34C5
:10FB6C00293A5B205D004550524F4D206E6F20436B
:10FB7C006F6E6669677572616461004D616C2046D9
:10FB8C006F726D61746F20646520466563686100F7
:10FB9C00416C6572746120656E20656C20536973CD
:10FBAC0074656D610053697374656D6120656E20B9
:10FBBC006F7065726163696F6E004C6C616D617220
:10FBCC00204D616E74656E696D69656E746F004E63
:10FBDC006F207365207075646F2064697370656E37
:10FBEC00736172005B235D477561726461723A20C8
:10FBFC005B2A5D53616C697200312E4167722E482D
:10FC0C006F722020322E4D6F642E486F7200536934
:10FC1C006E20486F722E205265676973747261642E
:10FC2C006F73002020202020202020202020202046
:10FC3C0020202020202020002053544F434B2050C4
:10FC4C00415354494C4C45524F53200050617374EE
:10FC5C003A5B312D345D20566F6C7665723A2A0012
:10FC6C00477561726461723A5B235D2053616C6904
:10FC7C00723A2A00412073756D6172202020202079
:10FC8C002020203A20303000496E67726573652061
:10FC9C00686F72612028323448293A0041736967D1
:10FCAC006E61722070617374696C6C65726F3A006E
:10FCBC00484F524152494F2041435455414C495AA7
:10FCCC0041444F00456C6567697220486F726172E0
:10FCDC00696F3A205B205D00486F7261206163742C
:10FCEC0075616C3A20205F5F3A5F5F004D656D2E49
:10FCFC0020446573636F6E66696775726164610039
:10FD0C005B235D526573657465617220536973740E
:10FD1C00656D610050617374696C6C65726F202540
:10FD2C007520566163696F005B235D477561726472
:10FD3C006172205B2A5D53616C697200456E74724E
:10FD4C006567616E646F3A20506173742E200048B1
:10FD5C006F726172696F732061637469766F733A45
:10FD6C0020005265676973747261722050617374FC
:10FD7C00696C6C61005B235D53656C65632E205B65
:10FD8C002A5D53616C6972002D2D205245434152FE
:10FD9C00474120504153542E200053746F636B2005
:10FDAC0061637475616C2020203A200042544E2E01
:10FDBC0020436F6E666967202D204F4646004E75B6
:10FDCC006D65726F2028312D34293A205B205D003F
:10FDDC00506173742E2041637475616C3A2020500D
:10FDEC005F005265696E696369617220536973744F
:10FDFC00656D61004D6F6469666963617220486F5F
:10FE0C00726172696F004E7565766F205061737404
:10FE1C002E203A202050780050617374696C6C610C
:10FE2C007320646973703A200042544E2E20436F45
:10FE3C006E666967202D204F4E00484F5241524943
:10FE4C004F20475541524441444F00525443207374
:10FE5C00696E20636F6E6578696F6E005369737499
:10FE6C00656D6120636F72726563746F004E6F20F5
:10FE7C006861792050617374696C6C6173005072A5
:10FE8C0065706172616E646F204461746F730045BC
:10FE9C007874726179656E646F204461746F73005D
:10FEAC00546F74616C2061637475616C3A205B00F3
:10FEBC004F7063696F6E20496E76616C6964610086
:10FECC004C6579656E646F204D656D6F726961006C
:10FEDC004167726567617220486F726172696F0069
:10FEEC004E6F2068617920486F726172696F730080
:10FEFC00486F726172696F73206C6C656E6F730002
:10FF0C004461746F7320436F72727570746F7300F9
:10FF1C0020202020205B2078783A7878205D0050D3
:10FF2C005F2061206C6173205F5F3A5F5F004F70F0
:10FF3C0063696F6E2044657365616461005254435C
:10FF4C0020646574656E69646F0056657220486F35
:10FF5C00726172696F730053656E736F72204952D0
:10FF6C003A200050415354494C4C45524F20005DAF
:10FF7C0020202020202050323A5B005D20202020C1
:10FF8C00202050343A5B0053656C656363696F6E77
:10FF9C006172005B2A5D2053616C69720053656E5F
:10FFAC00736F723A20005B425D42616A6172005B62
:10FFBC00415D5375626972002061206C6173200091
:10FFCC004F7063696F6E004C4953544F002053328D
:10FFDC003A002053343A0050313A5B0050333A5BCC
:10FFEC000053313A0053333A002050003062003055
:03FFFC007800008A
:020000040001F9
:10000000000E3D6E000E3E6E000E3F6E000E406E06
:100010000D6A010E0C6EFCECABF00009D8A413EFD6
:1000200080F015EF80F024EF80F064ECAEF0030E6A
:10003000166E020EDCECA9F0EC0E156EFE0E166EBE
:1000400046ECA4F0CCEF84F00D6A010E0C6EFCECD3
:10005000ABF05B6E64ECAEF0000E166E010EDCECE5
:10006000A9F01E0E156EFB0E166E46ECA4F0000EE7
:10007000166E020EDCECA9F05B0E156EFD0E166E10
:1000800046ECA4F0020E2F6E5B5039ECACF0000E83
:10009000166E030EDCECA9F0D00E156EFC0E166E7B
:1000A00046ECA4F0000E166E040EDCECA9F08B0EEC
:1000B000156EFD0E166E46ECA4F05C6A6EEF80F0D5
:1000C0008B0E176E050E186E5EECA5F05C6ED00EF2
:1000D0003A6ECA0EE82EFED73A2EFCD75C50D8B442
:1000E00074EF80F076EF80F060EF80F0B9EF80F091
:1000F000BC0E366E050E376ED5ECA0F05C6AD4EF00
:1001000080F0BC0E366E050E376E6CECADF0CCEFA9
:1001100084F0BC0E366E050E376E6CECADF05C50A4
:10012000D00F426E110E166E030EDCECA9F05C507F
:1001300098ECADF0150E3B6E4B0E3A6EBE0EE82EEF
:10014000FED73A2EFCD73B2EFAD700D042505B5C4C
:10015000D8A0ADEF80F0AFEF80F078EF80F04250A4
:10016000D8A4B5EF80F0B7EF80F0D4EF80F078EF4F
:1001700080F05C50230AD8B478EF80F0090AD8B434
:1001800081EF80F06B0AD8B478EF80F0030AD8B41E
:1001900078EF80F0010AD8B478EF80F0070AD8B47D
:1001A00078EF80F089EF80F05C50D8B4DAEF80F01F
:1001B000DCEF80F05DEF80F0000E166E040EDCECDC
:1001C000A9F0810E156EFD0E166E46ECA4F05C6A69
:1001D000F8EF80F08B0E176E050E186E5EECA5F032
:1001E0005C6ED00E3A6ECA0EE82EFED73A2EFCD7C1
:1001F0005C50D8B4FEEF80F000EF81F0EAEF80F0C1
:100200001FEF81F0BC0E366E050E376E6CECADF054
:10021000150E3B6E4B0E3A6EBE0EE82EFED73A2EF2
:10022000FCD73B2EFAD700D02AEF81F0BC0E366EF9
:10023000050E376ED5ECA0F05C6A2AEF81F05C50B9
:10024000230AD8B402EF81F0090AD8B481EF80F014
:1002500016EF81F05C50D8B430EF81F032EF81F0CE
:10026000E7EF80F064ECAEF0000E166E010EDCECF1
:10027000A9F0760E156EFA0E166E46ECA4F0110E6D
:10028000166E010EDCECA9F0010E2F6E425039EC17
:10029000ACF0000E166E020EDCECA9F0E40E156E4A
:1002A000FC0E166E46ECA4F00E0E166E020EDCEC82
:1002B000A9F04250050DF3C43AF5F4C43BF5040E21
:1002C0003A240C6E000E3B200D6EFCECABF05B6E26
:1002D000020E2F6E5B5039ECACF0110E166E020E52
:1002E000DCECA9F04250050DF3C43AF5F4C43BF53B
:1002F000050E3A240C6E000E3B200D6EFCECABF0AC
:100300005B6E020E2F6E5B5039ECACF0000E166E79
:10031000030EDCECA9F04C0E156EFA0E166E46ECD0
:10032000A4F00C0E166E040EDCECA9F08B0E156E0C
:10033000FD0E166E46ECA4F0416A030E4164A3EF75
:1003400081F0A5EF81F0A7EF81F0A2EF82F05C6A67
:10035000B8EF81F08B0E176E050E186E5EECA5F0EF
:100360005C6ED00E3A6ECA0EE82EFED73A2EFCD73F
:100370005C50D8B4BEEF81F0C0EF81F0AAEF81F0FD
:100380007CEF82F0BC0E366E050E376ED5ECA0F019
:100390005C6A97EF82F0BC0E366E050E376E6CEC21
:1003A000ADF0020E4160D7EF81F0D9EF81F0E1EFBF
:1003B00081F041500E0F166E030EDCECA9F0E7EF52
:1003C00081F041500F0F166E030EDCECA9F05C506B
:1003D00098ECADF0150E3B6E4B0E3A6EBE0EE82E4D
:1003E000FED73A2EFCD73B2EFAD700D03D0E412443
:1003F000D96EDA6A050EDA225C50D00FDF6E6DEF2F
:1004000082F03D0E4124D96EDA6A050EDA22020E20
:10041000DF640DEF82F00FEF82F097EF82F0BC0EF9
:10042000366E050E376ED5ECA0F00E0E166E030E6E
:10043000DCECA9F0FC0E156EFF0E166E46ECA4F077
:10044000C8EF81F0020E3D18D8A429EF82F02BEFFF
:1004500082F097EF82F03D0E4124D96EDA6A050EE4
:10046000DA22030EDF6437EF82F039EF82F097EF84
:1004700082F0BC0E366E050E376ED5ECA0F00F0E76
:10048000166E030EDCECA9F0FC0E156EFF0E166E58
:1004900046ECA4F0C8EF81F03D0E4124D96EDA6A33
:1004A000050EDA22050EDF6458EF82F05AEF82F073
:1004B00097EF82F0BC0E366E050E376ED5ECA0F0CD
:1004C000110E166E030EDCECA9F0FC0E156EFF0E7D
:1004D000166E46ECA4F0C8EF81F04150000AD8B483
:1004E00001EF82F0010AD8B422EF82F0030AD8B4F7
:1004F0004CEF82F097EF82F05C50230AD8B4C2EF41
:1005000081F0090AD8B481EF80F06B0AD8B4C2EF49
:1005100081F0030AD8B4C2EF81F0010AD8B4C2EF67
:1005200081F0070AD8B4C2EF81F0CBEF81F05C50C4
:10053000D8B49DEF82F09FEF82F0A7EF81F0412ABF
:100540009DEF81F0000E166E040EDCECA9F0340E67
:10055000156EFD0E166E46ECA4F05C6ABEEF82F0DE
:100560008B0E176E050E186E5EECA5F05C6ED00E4D
:100570003A6ECA0EE82EFED73A2EFCD75C50D8B49D
:10058000C4EF82F0C6EF82F0B0EF82F0E5EF82F0C8
:10059000BC0E366E050E376E6CECADF0150E3B6E74
:1005A0004B0E3A6EBE0EE82EFED73A2EFCD73B2EEF
:1005B000FAD700D0F0EF82F0BC0E366E050E376E23
:1005C000D5ECA0F05C6AF0EF82F05C50230AD8B45E
:1005D000C8EF82F0090AD8B481EF80F0DCEF82F036
:1005E0005C50D8B4F6EF82F0F8EF82F0ADEF82F015
:1005F00064ECAEF0000E166E010EDCECA9F0760E87
:10060000156EFA0E166E46ECA4F0110E166E010E63
:10061000DCECA9F0010E2F6E425039ECACF0000E6C
:10062000166E020EDCECA9F0DC0E156EFD0E166ED9
:1006300046ECA4F0100E166E020EDCECA9F042504F
:10064000050DF3C43AF5F4C43BF5080E3A240C6EDC
:10065000000E3B200D6EFCECABF05B6E010E2F6EBE
:100660005B5039ECACF0000E166E030EDCECA9F01A
:10067000120E156EFE0E166E46ECA4F0000E166EEF
:10068000040EDCECA9F0580E156EFC0E166E46EC4E
:10069000A4F05C6A5AEF83F08B0E176E050E186E8D
:1006A0005EECA5F05C6ED00E3A6ECA0EE82EFED758
:1006B0003A2EFCD75C50D8B460EF83F062EF83F041
:1006C0004CEF83F08CEF83F0BC0E366E050E376E68
:1006D0006CECADF05C50D00F3C6E100E166E030E3D
:1006E000DCECA9F05C5098ECADF0150E3B6E4B0EB7
:1006F0003A6EBE0EE82EFED73A2EFCD73B2EFAD726
:1007000000D0A3EF83F0BC0E366E050E376ED5EC2D
:10071000A0F05C6AA3EF83F05C502A0AD8B481EFA2
:1007200080F01B0AD8B464EF83F0030AD8B464EFF6
:1007300083F0010AD8B464EF83F0070AD8B464EFF9
:1007400083F083EF83F05C50D8B4A9EF83F0ABEF74
:1007500083F049EF83F0000E166E040EDCECA9F076
:10076000340E156EFD0E166E46ECA4F05C6AC7EFF3
:1007700083F08B0E176E050E186E5EECA5F05C6EA6
:10078000D00E3A6ECA0EE82EFED73A2EFCD75C5039
:10079000D8B4CDEF83F0CFEF83F0B9EF83F0EEEF75
:1007A00083F0BC0E366E050E376E6CECADF0150E98
:1007B0003B6E4B0E3A6EBE0EE82EFED73A2EFCD79D
:1007C0003B2EFAD700D0F9EF83F0BC0E366E050E43
:1007D000376ED5ECA0F05C6AF9EF83F05C50230A29
:1007E000D8B4D1EF83F0090AD8B481EF80F0E5EFF7
:1007F00083F05C50D8B4FFEF83F001EF84F0B6EFE4
:1008000083F04250050DF3C43AF5F4C43BF5040EF1
:100810003A240F6E000E3B20106E3D500A0DF3502F
:100820003E24116EDFECACF04250050DF3C43AF5F6
:10083000F4C43BF5050E3A240F6E000E3B20106EFB
:100840003F500A0DF3504024116EDFECACF04250E3
:10085000050DF3C43AF5F4C43BF5080E3A240F6EC7
:10086000000E3B20106E3CC511F5DFECACF04250A1
:10087000050DF3C43AF5F4C43BF5060E3A240F6EA9
:10088000000E3B20106E000E116EDFECACF064EC3D
:10089000AEF0000E166E010EDCECA9F0DF0E156E48
:1008A000FA0E166E46ECA4F0010E166E020EDCEC8B
:1008B000A9F0BC0E156EFC0E166E46ECA4F0020EEE
:1008C000166E030EDCECA9F02B0E156EFF0E166EE5
:1008D00046ECA4F0030E166E030EDCECA9F04250B9
:1008E000050DF3C43AF5F4C43BF5080E3A240C6E3A
:1008F000000E3B200D6EFCECABF05B6E010E2F6E1C
:100900005B5039ECACF00B0E166E030EDCECA9F06C
:100910004250050DF3C43AF5F4C43BF5040E3A24F5
:100920000C6E000E3B200D6EFCECABF05B6E020E0D
:100930002F6E5B5039ECACF00E0E166E030EDCEC35
:10094000A9F04250050DF3C43AF5F4C43BF5050E89
:100950003A240C6E000E3B200D6EFCECABF05B6E8F
:10096000020E2F6E5B5039ECACF0000E166E040ECA
:10097000DCECA9F0DF0E156EFA0E166E46ECA4F054
:10098000520E3B6E2B0E3A6E000EE82EFED73A2E1C
:10099000FCD73B2EFAD700D01200000E3C6E000EA2
:1009A0003D6E000E3E6E000E3F6E0D6A010E0C6E27
:1009B000FCECABF03A6E050E3A64E1EF84F0E3EF45
:1009C00084F0F2EF84F064ECAEF0030E166E020ECB
:1009D000DCECA9F0FC0E156EFE0E166E46ECA4F0D3
:1009E00096EF87F00D6A010E0C6EFCECABF0416ED9
:1009F00064ECAEF0000E166E010EDCECA9F08B0E6E
:100A0000156EFA0E166E46ECA4F0000E166E020E6F
:100A1000DCECA9F0A80E156EFC0E166E46ECA4F0E8
:100A2000000E166E030EDCECA9F0CA0E156EFD0E5C
:100A3000166E46ECA4F00B0E166E040EDCECA9F05C
:100A40009F0E156EFF0E166E46ECA4F05C6A37EF33
:100A500085F08B0E176E050E186E5EECA5F05C6EC1
:100A6000D00E3A6ECA0EE82EFED73A2EFCD75C5056
:100A7000D8B43DEF85F03FEF85F029EF85F071EFB9
:100A800085F0BC0E366E050E376E6CECADF05C502A
:100A9000D00F406E0F0E166E030EDCECA9F05C500A
:100AA00098ECADF0150E3B6E4B0E3A6EBE0EE82E76
:100AB000FED73A2EFCD73B2EFAD700D088EF85F030
:100AC000BC0E366E050E376E6CECADF096EF87F00F
:100AD000BC0E366E050E376ED5ECA0F05C6A88EF62
:100AE00085F05C502A0AD8B460EF85F01B0AD8B4B0
:100AF00041EF85F0030AD8B441EF85F0010AD8B47C
:100B000041EF85F0070AD8B441EF85F068EF85F032
:100B10005C50D8B48EEF85F090EF85F026EF85F02D
:100B200064ECAEF0000E166E010EDCECA9F0090EBE
:100B3000156EFB0E166E46ECA4F0110E166E010E2D
:100B4000DCECA9F0010E2F6E405039ECACF0000E39
:100B5000166E020EDCECA9F0940E156EFC0E166EED
:100B600046ECA4F0000E166E030EDCECA9F01C0E91
:100B7000156EFF0E166E46ECA4F00B0E166E040EEC
:100B8000DCECA9F09F0E156EFF0E166E46ECA4F07D
:100B9000426A5C6ADAEF85F08B0E176E050E186EEE
:100BA0005EECA5F05C6ED00E3A6ECA0EE82EFED753
:100BB0003A2EFCD75C50D8B4E0EF85F0E2EF85F038
:100BC000CCEF85F09EEF86F0BC0E366E050E376ECC
:100BD000D5ECA0F05C6AB9EF86F0BC0E366E050E5F
:100BE000376E6CECADF0020E4260F9EF85F0FBEF72
:100BF00085F003EF86F04250070F166E030EDCEC13
:100C0000A9F009EF86F04250080F166E030EDCECD7
:100C1000A9F05C5098ECADF0150E3B6E4B0E3A6EA1
:100C2000BE0EE82EFED73A2EFCD73B2EFAD700D0C8
:100C30003C0E4224D96EDA6A050EDA225C50D00FDF
:100C4000DF6E8FEF86F03C0E4224D96EDA6A050E15
:100C5000DA22020EDF642FEF86F031EF86F0B9EF73
:100C600086F0BC0E366E050E376ED5ECA0F0070E82
:100C7000166E030EDCECA9F0FC0E156EFF0E166E60
:100C800046ECA4F0EAEF85F0020E3C18D8A44BEF36
:100C900086F04DEF86F0B9EF86F03C0E4224D96E17
:100CA000DA6A050EDA22030EDF6459EF86F05BEF95
:100CB00086F0B9EF86F0BC0E366E050E376ED5ECB9
:100CC000A0F0080E166E030EDCECA9F0FC0E156EFB
:100CD000FF0E166E46ECA4F0EAEF85F03C0E4224BF
:100CE000D96EDA6A050EDA22050EDF647AEF86F035
:100CF0007CEF86F0B9EF86F0BC0E366E050E376ECF
:100D0000D5ECA0F00A0E166E030EDCECA9F0FC0E7A
:100D1000156EFF0E166E46ECA4F0EAEF85F0425019
:100D2000000AD8B423EF86F0010AD8B444EF86F065
:100D3000030AD8B46EEF86F0B9EF86F05C50230A50
:100D4000D8B4E4EF85F0090AD8B460EF85F06B0AF7
:100D5000D8B4E4EF85F0030AD8B4E4EF85F0010AD3
:100D6000D8B4E4EF85F0070AD8B4E4EF85F0EDEFEE
:100D700085F05C50D8B4BFEF86F0C1EF86F0C9EFC4
:100D800085F0422A030E4264C8EF86F0CAEF86F06F
:100D9000C9EF85F0000E166E040EDCECA9F0F00E23
:100DA000156EFB0E166E46ECA4F05C6AE6EF86F05C
:100DB0008B0E176E050E186E5EECA5F05C6ED00EF5
:100DC0003A6ECA0EE82EFED73A2EFCD75C50D8B445
:100DD000ECEF86F0EEEF86F0D8EF86F001EF87F0CB
:100DE000BC0E366E050E376E6CECADF00CEF87F076
:100DF000BC0E366E050E376ED5ECA0F05C6A0CEFBB
:100E000087F05C50230AD8B4F0EF86F0090AD8B412
:100E100060EF85F0F8EF86F05C50D8B412EF87F001
:100E200014EF87F0D5EF86F03E500A0DF3503F24C3
:100E3000136E40C514F541C515F53C500A0DF3502D
:100E40003D24D0ECA6F064ECAEF0000E166E010E60
:100E5000DCECA9F0DF0E156EFA0E166E46ECA4F06F
:100E6000020E166E020EDCECA9F0460E156EFE0E9A
:100E7000166E46ECA4F0030E166E030EDCECA9F021
:100E8000F60E156EFF0E166E46ECA4F0010E2F6ED8
:100E9000405039ECACF0C40E156EFF0E166E46ECE9
:100EA000A4F04150050DF3C43AF5F4C43BF5090E26
:100EB0003A240C6E000E3B200D6EFCECABF05B6E2A
:100EC000020E2F6E5B5039ECACF0A60E156EFC0EC8
:100ED000166E46ECA4F04150050DF3C43AF5F4C487
:100EE0003BF50A0E3A240C6E000E3B200D6EFCEC16
:100EF000ABF05B6E020E2F6E5B5039ECACF0000E67
:100F0000166E040EDCECA9F0DF0E156EFA0E166EEE
:100F100046ECA4F0520E3B6E2B0E3A6E000EE82EFD
:100F2000FED73A2EFCD73B2EFAD700D0120064EC45
:100F3000AEF0060E166E010EDCECA9F05A0E156E20
:100F4000FF0E166E46ECA4F0000E166E030EDCECDF
:100F5000A9F0CC0E156EFE0E166E46ECA4F00D6ACE
:100F6000010E0C6EFCECABF05B6E5B28D8B4BBEFF3
:100F700087F0BDEF87F0C5EF87F0060E5B64C3EF27
:100F800087F0C5EF87F0E9EF87F0080E246E040EB6
:100F900017ECABF0000E166E030EDCECA9F02FEC94
:100FA000AEF0020E166E030EDCECA9F00C0E156E00
:100FB000FF0E166E46ECA4F03D0E3B6EE10E3A6E4F
:100FC000400EE82EFED73A2EFCD73B2EFAD79DEFE7
:100FD00089F05B50D8A4EFEF87F0F1EF87F00AEFCC
:100FE00088F0080E246E040E17ECABF0000E166E9F
:100FF000030EDCECA9F02FECAEF0000E166E030E23
:10100000DCECA9F01A0E156EFC0E166E46ECA4F080
:10101000DCEF87F0000E246E040E17ECABF0000E30
:10102000166E030EDCECA9F02FECAEF0020E166E7D
:10103000030EDCECA9F09B0E156EFE0E166E46EC50
:10104000A4F0040E246E040E17ECABF0000E166E26
:10105000030EDCECA9F02FECAEF0020E166E030EC0
:10106000DCECA9F08A0E156EFE0E166E46ECA4F0AE
:10107000080E246E040E17ECABF00C0E246E040E5A
:1010800017ECABF05BC542F5436AFF0E4224026EDB
:10109000036AFF0E0322056A030E046E75ECA0F0CE
:1010A0000250406E64ECAEF0000E166E010EDCECE9
:1010B000A9F0A00E156EFA0E166E46ECA4F003EF22
:1010C00089F0030E426467EF88F069EF88F06DEFF6
:1010D00088F0030E416E6FEF88F042C541F5446A17
:1010E000A0EF88F0000E166E4450020FDCECA9F061
:1010F0004450050DF3C43AF5F4C43BF5090E3A2407
:10110000316E000E3B20326E4450050DF3C43CF5A9
:10111000F4C43DF50A0E3C24336E000E3D20346EBF
:101120004450050DF3C43EF5F4C43FF50D0E3E24C6
:10113000356E000E3F20366E4428DFECA5F0442AC1
:101140004150445CD8A0A7EF88F0A9EF88F072EF77
:1011500088F00EEF89F0FD0E42243A6E3B6AFF0ED6
:101160003B223BBEBDEF88F03B5009E1040E3A5CE8
:10117000D8A0BDEF88F0BFEF88F0C3EF88F0030E72
:10118000416EC6EF88F04250FD0F416E456AF8EFA0
:1011900088F0000E166E4550020FDCECA9F04550A9
:1011A000050DF3C43AF5F4C43BF5180E3A24316E3C
:1011B000000E3B20326E4550050DF3C43CF5F4C4DF
:1011C0003DF5190E3C24336E000E3D20346E455023
:1011D000050DF3C43EF5F4C43FF51C0E3E24356EF8
:1011E000000E3F20366E4550040FDFECA5F0452A77
:1011F0004150455CD8A0FFEF88F001EF89F0C9EFBE
:1012000088F00EEF89F04350000AD8B461EF88F0FF
:10121000010AD8B4ABEF88F00EEF89F04350D8B490
:1012200014EF89F016EF89F021EF89F00C0E166E9D
:10123000020EDCECA9F0BB0E156EFF0E166E46EC2E
:10124000A4F04050435CD8B028EF89F02AEF89F031
:1012500035EF89F00C0E166E040EDCECA9F0B20E20
:10126000156EFF0E166E46ECA4F00C0E166E030EF5
:10127000DCECA9F08B0E156EFD0E166E46ECA4F09C
:101280005C6A51EF89F08B0E176E050E186E5EECDE
:10129000A5F05C6ED00E3A6ECA0EE82EFED73A2E3E
:1012A000FCD75C50D8B457EF89F059EF89F043EF81
:1012B00089F08EEF89F0BC0E366E050E376E6CEC41
:1012C000ADF04350D8B467EF89F069EF89F052EF81
:1012D00088F0430652EF88F0BC0E366E050E376E6E
:1012E0006CECADF04050435CD8B079EF89F07BEF07
:1012F00089F052EF88F0432A52EF88F0BC0E366E28
:10130000050E376E6CECADF09DEF89F0BC0E366EBD
:10131000050E376ED5ECA0F052EF88F05C502A0A2B
:10132000D8B47EEF89F06B0AD8B45BEF89F0030A7A
:10133000D8B46CEF89F086EF89F012000501F06BEC
:10134000F66B000EF56FF76BE1EF89F0F751412472
:10135000D96E000E4220DA6EDF50446E040E442433
:101360000C6E0D6A000E0D22FCECABF00009D8A447
:10137000BCEF89F0BEEF89F0DFEF89F0DB0E226E63
:10138000050E236E200E246EFD0E256E0501F7510D
:101390004124D96E000E4220DA6EDF50446E445074
:1013A000266E276ACFECAAF0DB0E3A6E050E3B6E76
:1013B000020E3C6E64EC92F0010E0501F06F050127
:1013C000F72B4350F75DD8A0E8EF89F0EAEF89F0FA
:1013D000A6EF89F0F051D8A4F0EF89F0F2EF89F090
:1013E00081EF8BF064ECAEF0000E166E020EDCECBA
:1013F000A9F0610E156EFA0E166E46ECA4F0BC0E46
:10140000096E050E0A6E50ECAEF00501F86B78EF30
:101410008BF00A0EF26FF16B000E166E030EDCEC11
:10142000A9F0480E156EFD0E166E46ECA4F0010EE6
:101430002F6E0501F8514124D96E000E4220DA6E5C
:10144000DF5039ECACF0290E456E960E446E7F0EDF
:10145000E82EFED7442EFCD7452EFAD70000050112
:10146000F46B000EF36F7DEF8AF0D50E026E050E61
:10147000036E8EECA4F002C5F5F503C5F6F5AD0ECE
:101480000A6E050E0B6EB2ECA7F096EF8AF0CF0E47
:10149000026E050E036E8EECA4F002C5F5F503C5D1
:1014A000F6F5A50E0A6E050E0B6EB2ECA7F096EFE0
:1014B0008AF0C90E026E050E036E8EECA4F002C512
:1014C000F5F503C5F6F59D0E0A6E050E0B6EB2EC32
:1014D000A7F096EF8AF0C30E026E050E036E8EEC37
:1014E000A4F002C5F5F503C5F6F5950E0A6E050ED6
:1014F0000B6EB2ECA7F096EF8AF0F8514124D96E4A
:10150000000E4220DA6EDF50010AD8B435EF8AF0BF
:10151000030AD8B447EF8AF0010AD8B459EF8AF029
:10152000070AD8B46BEF8AF096EF8AF0000E166EB9
:10153000040EDCECA9F0A90E156EFF0E166E46EC3B
:10154000A4F0F5C518F5F6C519F548EC98F04D0E60
:101550000501F55D040EF659D8A0B1EF8AF0B3EF9E
:101560008AF0D0EF8AF0AD0E0A6E050E0B6E38ECE5
:10157000AEF0A50E0A6E050E0B6E38ECAEF09D0EA9
:101580000A6E050E0B6E38ECAEF0950E0A6E050E67
:101590000B6E38ECAEF0010E0501F16FDBEF8AF057
:1015A000F34BF42B080EF45DD8A0D9EF8AF0DBEFF3
:1015B0008AF07DEF8AF0F151D8B4E1EF8AF0E3EFE1
:1015C0008AF046EF8BF0F8514124D96E000E42208C
:1015D000DA6EDF50446E040E44240C6E0D6A000E69
:1015E0000D22FCECABF00501EF6FF8514124D96EF0
:1015F000000E4220DA6EDF50446E040E44240F6E5B
:10160000106A000E1022EF05116EDFECACF0050140
:10161000F8513F24D96E000E4020DA6EDF50446E40
:101620004450050DF3C445F5F4C446F5060E4524B3
:101630000F6E000E4620106E010E116EDFECACF046
:10164000BC0E366E050E376E51ECA8F0580E116EBA
:10165000060E126E000E136EC80E146E000E156E7E
:10166000ADECADF0150E456E4B0E446EBE0EE82E81
:10167000FED7442EFCD7452EFAD700D0580E116E57
:10168000060E126EC0ECADF076EF8BF0F207580E3E
:10169000116E060E126EF00E136EC80E146E000E52
:1016A000156EADECADF0150E456E4B0E446EBE0ED4
:1016B000E82EFED7442EFCD7452EFAD700D0580E80
:1016C000116E060E126EC0ECADF00501F251D8A4F9
:1016D0006CEF8BF06EEF8BF02FEF8AF0DB0E3A6E33
:1016E000FB0E3B6E030E3C6E64EC92F00501F82B92
:1016F0004350F85DD8A07FEF8BF081EF8BF009EFBE
:101700008AF012003D6A64ECAEF0010E166E010E16
:10171000DCECA9F0480E156EFB0E166E46ECA4F03C
:10172000000E166E030EDCECA9F0CC0E156EFE0E4C
:10173000166E46ECA4F0000E246E040E17ECABF00F
:101740000D6A020E0C6EFCECABF05B6E5B28D8A44D
:10175000ACEF8BF0AEEF8BF0D3EF8BF0080E246E76
:10176000040E17ECABF0000E166E030EDCECA9F0C5
:101770002FECAEF0020E166E030EDCECA9F00C0E90
:10178000156EFF0E166E46ECA4F0290E3C6E960EFA
:101790003B6E7F0EE82EFED73B2EFCD73C2EFAD7B1
:1017A000000061EF8DF0000E166E030EDCECA9F068
:1017B0002FECAEF0000E166E030EDCECA9F09B0EC3
:1017C000156EFE0E166E46ECA4F0040E246E040E8A
:1017D00017ECABF0000E166E030EDCECA9F02FEC4C
:1017E000AEF0000E166E030EDCECA9F0240E156EA2
:1017F000FE0E166E46ECA4F0020E2F6E5B5039EC16
:10180000ACF0080E246E040E17ECABF0000E166E52
:10181000030EDCECA9F02FECAEF0000E166E030EFA
:10182000DCECA9F0330E156EFB0E166E46ECA4F040
:101830000C0E246E040E17ECABF064ECAEF0000E50
:10184000166E010EDCECA9F0440E156EFC0E166E41
:1018500046ECA4F0000E166E020EDCECA9F0E30ECE
:10186000156EFF0E166E46ECA4F00D6A050E0C6E9A
:10187000FCECABF05B6E020E2F6E5B5039ECACF003
:101880007B0E156EFF0E166E46ECA4F00D6A060E6A
:101890000C6EFCECABF05B6E020E2F6E5B5039EC05
:1018A000ACF0DA0E156EFD0E166E46ECA4F0000ECE
:1018B000166E030EDCECA9F0E80E156EFF0E166E28
:1018C00046ECA4F00D6A070E0C6EFCECABF05B6E00
:1018D000020E2F6E5B5039ECACF0870E156EFF0ECA
:1018E000166E46ECA4F00D6A080E0C6EFCECABF024
:1018F0005B6E020E2F6E5B5039ECACF0DA0E156E9B
:10190000FD0E166E46ECA4F0000E166E040EDCEC16
:10191000A9F05D0E156EFB0E166E46ECA4F05C6A27
:10192000A0EF8CF08B0E176E050E186E5EECA5F016
:101930005C6ED00E3B6ECA0EE82EFED73B2EFCD757
:101940005C50D8B4A6EF8CF0A8EF8CF092EF8CF03E
:10195000E0EF8CF0BC0E366E050E376E6CECADF021
:101960005C50D00F3E6E120E166E040EDCECA9F029
:101970005C5098ECADF0030E3C6E080E3B6E770E9B
:10198000E82EFED73B2EFCD73C2EFAD700003E5067
:1019900076EC9EF0F3EF8CF0BC0E366E050E376ED3
:1019A000D5ECA0F0120E166E040EDCECA9F0890E38
:1019B000156EFA0E166E46ECA4F05C6AF3EF8CF02E
:1019C0005C50310AD8B4AAEF8CF0030AD8B4AAEF5D
:1019D0008CF0010AD8B4AAEF8CF0070AD8B4AAEFA9
:1019E0008CF0CCEF8CF05C50D8B4F9EF8CF0FBEFBE
:1019F0008CF08FEF8CF05C6A0CEF8DF08B0E176E15
:101A0000050E186E5EECA5F05C6ED00E3B6ECA0E35
:101A1000E82EFED73B2EFCD75C50D8B412EF8DF0E9
:101A200014EF8DF0FEEF8CF046EF8DF0BC0E366EAD
:101A3000050E376ED5ECA0F0FBEF8CF0BC0E366EC9
:101A4000050E376E6CECADF061EF8DF0BC0E366EAE
:101A5000050E376E11ECA0F03DC531F53E50E0ECBF
:101A60009EF061EF8DF0BC0E366E050E376E6CEC9D
:101A7000ADF05C50D00F3D6E120E166E030EDCEC16
:101A8000A9F05C5098ECADF0FBEF8CF05C50230AB1
:101A9000D8B426EF8DF0090AD8B41EEF8DF06B0A8A
:101AA000D8B416EF8DF0030AD8B416EF8DF0010A02
:101AB000D8B416EF8DF0070AD8B416EF8DF033EFD7
:101AC0008DF012005C6ACCEF8EF064ECAEF0050E87
:101AD000166E020EDCECA9F0930E156EFF0E166E5C
:101AE00046ECA4F0030E166E030EDCECA9F03A0EE1
:101AF000156EFF0E166E46ECA4F03D0E476EE10E1D
:101B0000466E400EE82EFED7462EFCD7472EFAD75B
:101B100064ECAEF0000E166E010EDCECA9F0050EC2
:101B2000156EFC0E166E46ECA4F0000E166E020E3C
:101B3000DCECA9F00D0E156EFA0E166E46ECA4F054
:101B4000000E166E030EDCECA9F0220E156EFA0ED6
:101B5000166E46ECA4F0000E166E040EDCECA9F036
:101B6000370E156EFA0E166E46ECA4F0496A000E9A
:101B7000486E8B0E176E050E186E5EECA5F05C6E4F
:101B80005C50D8B4C6EF8DF0C8EF8DF0B7EF8EF093
:101B900064ECAEF0A0EF8EF0BC0E366E050E376E24
:101BA00011ECA0F0070E166E010EDCECA9F0CC0EC5
:101BB000156EFF0E166E46ECA4F0020E166E020EA7
:101BC000DCECA9F0DC0E156EFE0E166E46ECA4F0F1
:101BD0003D0E476EE10E466E400EE82EFED7462EB5
:101BE000FCD7472EFAD7CDEC84F0B7EF8EF0BC0EC1
:101BF000366E050E376E11ECA0F0070E166E010E54
:101C0000DCECA9F0CC0E156EFF0E166E46ECA4F0BF
:101C1000010E166E020EDCECA9F0000E156EFE0E23
:101C2000166E46ECA4F03D0E476EE10E466E400E79
:101C3000E82EFED7462EFCD7472EFAD700EC80F0D0
:101C4000B7EF8EF0BC0E366E050E376E11ECA0F0BD
:101C5000070E166E010EDCECA9F0CC0E156EFF0E11
:101C6000166E46ECA4F0040E166E020EDCECA9F023
:101C7000560E156EFF0E166E46ECA4F03D0E476E26
:101C8000E10E466E400EE82EFED7462EFCD7472EBC
:101C9000FAD797EC87F0B7EF8EF0BC0E366E050ED4
:101CA000376E11ECA0F0070E166E010EDCECA9F0F9
:101CB000CC0E156EFF0E166E46ECA4F0010E166EDD
:101CC000020EDCECA9F06E0E156EFD0E166E46ECE3
:101CD000A4F03D0E476EE10E466E400EE82EFED794
:101CE000462EFCD7472EFAD782EC8BF0B7EF8EF05A
:101CF000BC0E366E050E376E11ECA0F0D4EF8EF0F0
:101D0000BC0E366E050E376E2DECA1F0020E166E6F
:101D1000020EDCECA9F0BC0E156EFE0E166E46EC43
:101D2000A4F0150E476E4B0E466EBE0EE82EFED783
:101D3000462EFCD7472EFAD700D05C6AB7EF8EF05C
:101D40005C502A0AD8B478EF8EF01B0AD8B4CCEFD6
:101D50008DF0030AD8B4F7EF8DF0010AD8B422EF62
:101D60008EF0070AD8B44DEF8EF080EF8EF0680E3B
:101D7000466EE40EE82EFED7462EFCD700D0484A29
:101D8000492AF40E485C010E4958D8A0CAEF8EF0DB
:101D9000CCEF8EF0B9EF8DF05C50D8B4D2EF8EF06E
:101DA000D4EF8EF065EF8DF0120005017E05D8A40A
:101DB000DCEF8EF0DEEF8EF035EF90F002C65AF5D4
:101DC0005A50030F546E54284F6E000E4F24D96E94
:101DD000DA6A060EDA220A0EDE18D8A4F2EF8EF0C6
:101DE000F4EF8EF033EF90F0506A536A000E526EAB
:101DF00004EF8FF0030E5224D96E060E5320DA6ED4
:101E0000DF505026524A532A5A50446E456A445075
:101E1000525C5350800A466E4550800A4658D8A0FE
:101E200014EF8FF016EF8FF0FAEF8EF0000E5424BF
:101E3000D96EDA6A060EDA225050DE18D8A423EFE3
:101E40008FF025EF8FF033EF90F01FEF90F0020549
:101E5000D8A42DEF8FF02FEF8FF033EF90F0520ECC
:101E60000319D8A436EF8FF038EF8FF033EF90F0EE
:101E7000B30E0E6E060E0F6E11ECADF0B30E036EC8
:101E8000060E046E42ECA7F033EF90F0040E021938
:101E9000D8A44DEF8FF04FEF8FF033EF90F005C6E1
:101EA00013F506C614F50305156E0451D0ECA6F023
:101EB00006010451EFECADF006010551EFECADF079
:101EC00006010651EFECADF006010305EFECADF0B5
:101ED000070EEFECADF00A0EEFECADF033EF90F043
:101EE000020E0219D8A477EF8FF079EF8FF033EF5D
:101EF00090F003C613F504511FECA3F0AA0EEFEC0B
:101F0000ADF0150EEFECADF0010EEFECADF0070EFD
:101F1000EFECADF0070EEFECADF00A0EEFECADF02C
:101F200033EF90F05A04D8A498EF8FF09AEF8FF027
:101F3000F8EF8FF00305D8A4A0EF8FF0A2EF8FF099
:101F4000F8EF8FF0556A470E086E050E096EA0EC8B
:101F5000A5F0AA0EEFECADF0550EEFECADF0090ECA
:101F6000EFECADF0516A596A000E586ED8905834B3
:101F7000D96E5934DA6E470ED926050EDA22DEC440
:101F800044F5DDC445F545C544F5456A4450566EF3
:101F9000D8905834D96E5934DA6E470ED926050ECA
:101FA000DA22DF50576E5650EFECADF05750EFECA1
:101FB000ADF05650512657505126584A592A59BE0D
:101FC000EBEF8FF0595009E1040E585CD8A0EBEF0D
:101FD0008FF0EDEF8FF0B6EF8FF05550EFECADF0E6
:101FE000555051265150EFECADF00A0EEFECADF02C
:101FF0005A04D8A4FEEF8FF000EF90F033EF90F08A
:10200000020E06010319D8A408EF90F00AEF90F031
:1020100033EF90F06AEC9BF033EF90F0AA0EEFEC08
:10202000ADF0550EEFECADF0010EEFECADF0060E9D
:10203000EFECADF0060EEFECADF033EF90F00601F3
:102040000151070AD8B470EF8FF0120AD8B446EFE6
:102050008FF0330AD8B492EF8FF0700AD8B427EF1C
:102060008FF00EEF90F005017E6B12000550061008
:10207000D8A43DEF90F03FEF90F042EF90F0000ECB
:1020800062EF91F005C5D9F406C5DAF4DF507F0B95
:102090000A6E20EE01F00550D9260650DA22DF50F4
:1020A0007F0B0B6E20EE04F00550D9260650DA2285
:1020B000DF503F0B0C6E20EE05F00550D926065080
:1020C000DA22DF501F0B0D6E20EE06F00550D926E8
:1020D0000650DA22DF50076E20EE03F00550D926B5
:1020E0000650DA22DF50070B106E20EE02F005508A
:1020F000D9260650DA22DFAC80EF90F082EF90F024
:102100008DEF90F020EE02F00550D9260650DA222D
:10211000DF501F0B116E96EF90F020EE02F005508D
:10212000D9260650DA22DF503F0B116E0A5056ECCA
:10213000ACF00009D8B49FEF90F0A1EF90F03FEF22
:1021400090F00B5056ECACF00009D8B4AAEF90F028
:10215000ACEF90F03FEF90F0115056ECACF000096E
:10216000D8B4B5EF90F0B7EF90F03FEF90F00C508F
:1021700056ECACF00009D8B4C0EF90F0C2EF90F08C
:102180003FEF90F00D5056ECACF00009D8B4CBEF17
:1021900090F0CDEF90F03FEF90F0075056ECACF0A0
:1021A0000009D8A4D6EF90F0D8EF90F0DAEF90F0D5
:1021B0003FEF90F00A50FBECADF0086E0B50FBECDB
:1021C000ADF0096E1150FBECADF0126E0C50FBEC53
:1021D000ADF00E6E0D50FBECADF00F6E3B0E0864D3
:1021E000F4EF90F0F6EF90F0F8EF90F03FEF90F012
:1021F0003B0E0964FEEF90F000EF91F002EF91F0DA
:102200003FEF90F020EE02F00550D9260650DA227A
:10221000DFAC0DEF91F00FEF91F021EF91F0125044
:10222000D8B415EF91F017EF91F03FEF90F00C0E4E
:1022300012641DEF91F01FEF91F02BEF91F03FEF43
:1022400090F0170E126427EF91F029EF91F02BEF29
:1022500091F03FEF90F01050D8B431EF91F033EFA0
:1022600091F03FEF90F0070E106439EF91F03BEFE3
:1022700091F03DEF91F03FEF90F00E50D8B443EF66
:1022800091F045EF91F03FEF90F01F0E0E644BEF91
:1022900091F04DEF91F04FEF91F03FEF90F00F5034
:1022A000D8B455EF91F057EF91F03FEF90F00C0E4E
:1022B0000F645DEF91F05FEF91F061EF91F03FEF10
:1022C00090F0010E120021EE4FF1050EDE6AE806D5
:1022D000FDE221EE49F1050EDE6AE806FDE2596AEB
:1022E0000D6A010E0C6EFCECABF0556E566A7F0E5B
:1022F000136E050E146E53EC93F005017B6F7B514A
:10230000D8A485EF91F087EF91F097EF91F0875186
:10231000D8B48DEF91F08FEF91F097EF91F08A5153
:10232000D8A495EF91F097EF91F09FEF91F0570EB1
:102330003A6EFE0E3B6E010E3C6E64EC92F081C56F
:1023400057F580C558F5010E5A6E46EF92F05A5077
:10235000050DF3C447F5F4C448F5040E47240C6E8C
:10236000000E48200D6EFCECABF05718D8A4BBEF64
:1023700091F0BDEF91F009EF92F05A50050DF3C4C2
:1023800047F5F4C448F5050E47240C6E000E4820AE
:102390000D6EFCECABF05818D8A4D1EF91F0D3EF50
:1023A00091F009EF92F05A50050DF3C447F5F4C4CB
:1023B00048F5060E47240C6E000E48200D6EFCEC0E
:1023C000ABF00009D8A4E7EF91F0E9EF91F009EF45
:1023D00092F04F0E5924D96EDA6A050EDA225A505D
:1023E000050DF3C447F5F4C448F5080E47240C6EF8
:1023F000000E48200D6EFCECABF0DF6E490E592448
:10240000D96EDA6A050EDA225AC5DFF4592A010EAE
:10241000566E5A50050DF3C447F5F4C448F5040E42
:1024200047240C6E000E48200D6EFCECABF05718E4
:10243000D8A41DEF92F01FEF92F035EF92F05A50B2
:10244000050DF3C447F5F4C448F5050E47240C6E9A
:10245000000E48200D6EFCECABF05818D8B433EFEA
:1024600092F035EF92F045EF92F05A50050DF3C41B
:1024700047F5F4C448F5060E47240F6E000E4820B9
:10248000106E000E116EDFECACF05A2A5A50555CFB
:10249000D8B04DEF92F04FEF92F0A7EF91F0565079
:1024A000D8B455EF92F057EF92F063EF92F0490EE7
:1024B0003F6E050E406E4F0E416E050E426E59C5C1
:1024C00043F59EEC89F0120064ECAEF0000E166E3F
:1024D000020EDCECA9F09C0E156EFB0E166E46EC9F
:1024E000A4F0000E166E030EDCECA9F03AC515F54B
:1024F0003BC516F546ECA4F0E3EF92F0580E116ED2
:10250000060E126EC80E136E000E146E000E156EBF
:10251000ADECADF0BC0E366E050E376E2DECA1F0B5
:10252000F2EF92F0580E116E060E126EFA0E136E46
:10253000C80E146E000E156EADECADF0BC0E366E0E
:10254000050E376ED5ECA0F0520E3E6E2B0E3D6E92
:10255000000EE82EFED73D2EFCD73E2EFAD700D037
:10256000580E116E060E126EC0ECADF052EF93F0E5
:10257000580E116E060E126EFA0E136EC80E146E01
:10258000000E156EADECADF0BC0E366E050E376E5E
:10259000D5ECA0F0000E166E040EDCECA9F0C60E11
:1025A000156EFB0E166E46ECA4F0290E3E6E960ECE
:1025B0003D6E7F0EE82EFED73D2EFCD73E2EFAD77D
:1025C0000000D5EF92F03C50010AD8B47EEF92F0B3
:1025D000030AD8B492EF92F0010AD8B4B8EF92F09F
:1025E000F2EF92F0520E3E6E2B0E3D6E000EE82E74
:1025F000FED73D2EFCD73E2EFAD700D064ECAEF0CD
:10260000000E166E020EDCECA9F0EE0E156EFD0E3D
:10261000166E46ECA4F0000E166E030EDCECA9F06C
:102620000C0E156EFD0E166E46ECA4F05C6A27EFDC
:1026300093F08B0E176E050E186E5EECA5F05C6EB7
:10264000D00E3D6ECA0EE82EFED73D2EFCD75C5054
:10265000D8B42DEF93F02FEF93F019EF93F043EFF1
:1026600093F0BC0E366E050E376E6CECADF0FF00CD
:102670004AEF93F0BC0E366E050E376ED5ECA0F027
:102680005C6A4AEF93F05C50230AD8B431EF93F0C0
:102690003AEF93F05C50D8B450EF93F052EF93F0D0
:1026A00016EF93F0120013501410D8A45AEF93F0C1
:1026B0005CEF93F05FEF93F0050E41EF94F020EEA6
:1026C00008F01350D9261450DA22DF6A20EE09F000
:1026D0001350D9261450DA22DF6A20EE0AF0135084
:1026E000D9261450DA22DF6A20EE0BF01350D926D7
:1026F0001450DA22DF6A180E116E050E126E82EC8B
:10270000ADF01F6E1F50D8B488EF93F08AEF93F0AE
:102710008DEF93F01F5041EF94F020EE08F013502E
:10272000D9261450DA2218AE98EF93F09BEF93F06D
:10273000010E9CEF93F0000EDF6E20EE09F01350B7
:10274000D9261450DA221ABCA8EF93F0ABEF93F01D
:10275000010EACEF93F0000EDF6E20EE09F0135087
:10276000D9261450DA22DF50D8B4B9EF93F0BBEF7A
:1027700093F0D8EF93F020EE0AF01350D9261450BE
:10278000DA221ABAC6EF93F0C9EF93F0010ECAEF3E
:1027900093F0000EDF6E20EE02F01350D926145095
:1027A000DA221A501F0BFBECADF0DF6EEAEF93F06C
:1027B00020EE0AF01350D9261450DA22DF6A20EEF8
:1027C00002F01350D9261450DA221A503F0BFBECBA
:1027D000ADF0DF6E18507F0BFBECADF013C5D9F4F4
:1027E00014C5DAF4DF6E20EE01F01350D926145030
:1027F000DA2219507F0BFBECADF0DF6E20EE03F018
:102800001350D9261450DA221B50070BDF6E20EE2E
:1028100004F01350D9261450DA221C503F0BFBEC65
:10282000ADF0DF6E20EE05F01350D9261450DA22F9
:102830001D501F0BFBECADF0DF6E1E50FBECADF03E
:10284000156ED00E1524166E176A070E172220EE8D
:1028500006F01350D9261450DA2216C5DEF417C537
:10286000DDF4180E056E050E066E36EC90F0156E52
:1028700020EE0BF01350D9261450DA2215C5DFF4E0
:10288000000E12001D501E10D8A449EF94F04BEF1B
:1028900094F04DEF94F029EF95F0640E216453EF1E
:1028A00094F055EF94F057EF94F0640E216E400EC3
:1028B0000E6E420E0F6E0F0E106E000E116E1DC5C5
:1028C00012F51EC513F5146A156A2BECA2F00EC59D
:1028D0002EF50FC52FF510C530F511C531F5215076
:1028E000026E036A046A056A2EC506F52FC507F550
:1028F00030C508F531C509F5E8ECA7F002C50EF5BD
:1029000003C50FF504C510F505C511F5640E126E6B
:10291000000E136E000E146E000E156E2BECA2F05E
:102920000EC532F50FC533F510C534F511C535F5B3
:1029300032502E5C2A6E33502F582B6E3450305844
:102940002C6E355031582D6E1FC502F520C503F58C
:10295000046A056AE80E066E030E076E000E086E26
:10296000000E096EE8ECA7F002C50EF503C50FF5E1
:1029700004C510F505C511F52EC512F52FC513F5C3
:1029800030C514F531C515F52BECA2F00EC522F5B6
:102990000FC523F510C524F511C525F5000E266ECB
:1029A000000E276E000E286E000E296E14EF95F0B3
:1029B0003250331034103510D8B4E1EF94F0E3EF17
:1029C00094F0F3EF94F01BC502F51CC503F5F3EC8E
:1029D000AAF032C502F533C503F534C504F535C593
:1029E00005F53FECADF02A502B102C102D10D8B46B
:1029F000FCEF94F0FEEF94F00EEF95F01BC502F59E
:102A00001CC503F5AAECAAF02AC502F52BC503F5EF
:102A10002CC504F52DC505F53FECADF0010E2626BD
:102A2000000E2722282229222250265C23502758D4
:102A30002450285825502958D8A021EF95F023EF8D
:102A400095F0D8EF94F01BC502F51CC503F5AAEC70
:102A5000AAF012000DC5D9F40EC5DAF4DEC4F6F4FE
:102A6000DDC4F7F4000EF86E0800F550250AD8A46E
:102A70003CEF95F03EEF95F0F2EF95F00DC5D9F4EF
:102A80000EC5DAF4DE2A000EDD2205016F6B000EA2
:102A90006E6F6EC57AF5706971690DC5D9F40EC592
:102AA000DAF4DEC413F5DDC414F513C5F6F414C569
:102AB000F7F4000EF86E0800F550750AD8A463EF1D
:102AC00095F065EF95F0E9EF95F00FC5D9F410C5D5
:102AD000DAF4DFC411F5020EDE26DFC412F5000EB3
:102AE000DD2211C5D9F412C5DAF4DEC415F5DDC452
:102AF00016F5010E1324116E000E1420126E0DC572
:102B0000D9F40EC5DAF411C5DEF412C5DDF4DBEF3D
:102B100095F0200E196E1906320E1924D96EDA6A54
:102B2000060EDA2215C502F516C503F5056A0A0E6A
:102B3000046E51ECA9F00250300FDF6E15C502F59E
:102B400016C503F5056A0A0E046E09ECA7F002C566
:102B500015F503C516F515501610D8B4B2EF95F05B
:102B6000B4EF95F0D0EF95F01950D8A4BAEF95F0E6
:102B7000BCEF95F08BEF95F0D0EF95F0320E192465
:102B8000D96EDA6A060EDA22DF50116E1150026E2B
:102B9000036A0BC504F50CC505F5ACEC9FF0192ACA
:102BA000200E1918D8A4D7EF95F0D9EF95F0BEEF05
:102BB00095F008EF96F013C5F6F414C5F7F4000E7F
:102BC000F86E0800F550750AD8B489EF95F0E9EF72
:102BD00095F00DC5D9F40EC5DAF4DE2A000EDD221B
:102BE00008EF96F00DC5D9F40EC5DAF4DEC4F6F49C
:102BF000DDC4F7F4000EF86E0800F550026E036AAB
:102C00000BC504F50CC505F5ACEC9FF0E9EF95F0AC
:102C100012002650D8B40FEF96F011EF96F022EF85
:102C200096F0060E266017EF96F019EF96F022EF59
:102C300096F02650275CD8A020EF96F022EF96F071
:102C400025EF96F0050EDEEF96F0010E2A6E000ECF
:102C50002B6E000E2C6E000E2D6E010E296E4CEFA9
:102C600096F02AC502F52BC503F52CC504F52DC534
:102C700005F50A0E066E000E076E000E086E000EB9
:102C8000096EE8ECA7F002C52AF503C52BF504C5CB
:102C90002CF505C52DF5292A2650295CD8A053EF1F
:102CA00096F055EF96F031EF96F0296AD4EF96F052
:102CB0002750D8B45EEF96F060EF96F079EF96F07B
:102CC0002750265C2918D8A468EF96F06AEF96F092
:102CD00079EF96F02E0E98ECADF02E6E2E50D8B403
:102CE00074EF96F076EF96F079EF96F02E50DEEFD7
:102CF00096F02AC512F52BC513F52CC514F52DC574
:102D000015F524C50EF525C50FF5106A116A2BECD3
:102D1000A2F00EC51BF50FC51CF510C51DF511C59C
:102D20001EF50A0E1F6E000E206E000E216E000EA4
:102D3000226ED6ECA4F01B50286E2850300F98EC71
:102D4000ADF02E6E2E50D8B4A8EF96F0AAEF96F004
:102D5000ACEF96F076EF96F02D502C102B1009E189
:102D6000020E2A5CD8A0B7EF96F0B9EF96F0D3EF39
:102D700096F02AC50EF52BC50FF52CC510F52DC5FF
:102D800011F50A0E126E000E136E000E146E000E78
:102D9000156E2BECA2F00EC52AF50FC52BF510C54C
:102DA0002CF511C52DF5292A2650295CD8A0DBEF7A
:102DB00096F0DDEF96F058EF96F0000E1200030E3D
:102DC000176E080E166E770EE82EFED7162EFCD75D
:102DD000172EFAD70000080E0501FC6F040EFB6FDA
:102DE000FC5141ECAEF0186E1850D8B4FAEF96F0E2
:102DF000FCEF96F0FEEF96F095EF97F0340E166E1E
:102E0000F20EE82EFED7162EFCD7000E0A6E300EFC
:102E10007CECABF0186E1850D8B411EF97F013EFAC
:102E200097F015EF97F095EF97F0340E166EF20EBF
:102E3000E82EFED7162EFCD7000E0A6E300E7CEC64
:102E4000ABF0186E1850D8B428EF97F02AEF97F02F
:102E50002CEF97F095EF97F0F00E00D0E82EFDD70D
:102E6000000E0A6E300E7CECABF0186E1850D8B421
:102E70003CEF97F03EEF97F040EF97F095EF97F02B
:102E8000F00E00D0E82EFDD7000E0A6E200E7CEC6E
:102E9000ABF0186E1850D8B450EF97F052EF97F08F
:102EA00054EF97F095EF97F0F00E00D0E82EFDD795
:102EB000280E85ECA8F0186E1850D8B462EF97F081
:102EC00064EF97F066EF97F095EF97F00501FB6BD5
:102ED0005EECAEF0186E1850D8B471EF97F073EF47
:102EE00097F075EF97F095EF97F064ECAEF0186EF1
:102EF0001850D8B47EEF97F080EF97F082EF97F0FC
:102F000095EF97F0060E85ECA8F0186E1850D8B41F
:102F10008CEF97F08EEF97F090EF97F095EF97F09A
:102F2000040E0501FB6F5EECAEF0120063EC91F055
:102F3000000E166E020EDCECA9F0B10E156EFB0E43
:102F4000166E46ECA4F07F0E136E050E146E53EC55
:102F500093F005017B6F7B51D8A4B1EF97F0B3EFED
:102F600097F0C3EF97F08751D8B4B9EF97F0BBEF64
:102F700097F0C3EF97F08A51D8A4C1EF97F0C3EF51
:102F800097F0CBEF97F0570E3A6EFE0E3B6E010EA8
:102F90003C6E64EC92F064ECAEF0000E166E020E25
:102FA000DCECA9F0B10E156EFB0E166E46ECA4F02B
:102FB000000E166E040EDCECA9F0B50E156EFA0EBE
:102FC000166E46ECA4F0000E166E030EDCECA9F0B3
:102FD0002FECAEF0060E166E010EDCECA9F0020E20
:102FE0002F6E0501815139ECACF0A60E156EFC0E6A
:102FF000166E46ECA4F0090E166E010EDCECA9F07C
:10300000020E2F6E0501805139ECACF0A60E156E44
:10301000FC0E166E46ECA4F00C0E166E010EDCECE7
:10302000A9F0020E2F6E05017F5139ECACF00B0EAA
:103030000501FA6F260EF96F5D0EE82EFED7F92F07
:10304000FCD7FA2FFAD700D08B0E176E050E186E2C
:103050005EECA5F05C6ED00E0501F96FC90EE82E8E
:10306000FED7F92FFCD700D040EF98F0BC0E366E9B
:10307000050E376E11ECA0F062EC8DF047EF98F082
:103080005C50230AD8B436EF98F047EF98F012005E
:103090002F6A000E2E6E19BE52EF98F050EF98F086
:1030A00064EF98F02D0E226E2E4A2F2A18C51AF5BD
:1030B00019C51BF51A1E1B1E1A4A1B2A1AC52CF508
:1030C0001BC52DF568EF98F018C52CF519C52DF521
:1030D0002C502D10D8A46FEF98F071EF98F07DEF81
:1030E00098F0220E2E24D96E050E2F20DA6E300EA7
:1030F000DF6E2E4A2F2AE1EF98F02B6A000E2A6E1F
:10310000A3EF98F01C0E2A24D96E050E2B20DA6E40
:103110002CC502F52DC503F5056A0A0E046E51ECA7
:10312000A9F00250300FDF6E2A4A2B2A2CC502F577
:103130002DC503F5056A0A0E046E09ECA7F002C559
:103140002CF503C52DF52C502D10D8B4AAEF98F00E
:10315000ACEF98F0CCEF98F02BBEB8EF98F02B5076
:1031600009E1060E2A5CD8A0B8EF98F0BAEF98F003
:1031700082EF98F0CCEF98F01C0E2A24D96E050E41
:103180002B20DA6E220E2E24E16E050E2F20E26E29
:10319000DFC4E7F42E4A2F2A2A501A6E2B501B6EDA
:1031A000010E2A5E000E2B5A1BBEE1EF98F01B5059
:1031B00006E11A04D8B0DFEF98F0E1EF98F0BCEF29
:1031C00098F0220E2E24D96E050E2F20DA6EDF6ABB
:1031D000220E156E050E166E46ECA4F0120008C500
:1031E000D9F409C5DAF40AC5DEF40BC5DDF420EE26
:1031F00002F00850D9260950DA220CC5DEF40DC5BC
:10320000DDF420EE04F00850D9260950DA220EC56C
:10321000DEF40FC5DDF420EE06F00850D926095083
:10322000DA2210C5DEF411C5DDF420EE08F00850F6
:10323000D9260950DA2212C5DEF413C5DDF420EEDA
:1032400006F00850D9260950DA22DEC414F5DDC490
:1032500015F514C5D9F415C5DAF4DF6A20EE04F0CB
:103260000850D9260950DA22DEC414F5DDC415F55C
:1032700014C5D9F415C5DAF410EE04F00850E126AF
:103280000950E222E6C416F5E5C417F516C5E1F4C7
:1032900017C5E2F4E750F00BDF6E20EE04F00850A3
:1032A000D9260950DA22DEC414F5DDC415F514C59B
:1032B000D9F415C5DAF410EE04F00850E1260950EF
:1032C000E222E6C416F5E5C417F516C5E1F417C504
:1032D000E2F4E750F009DF6E20EE08F00850D9263E
:1032E0000950DA22DEC414F5DDC415F514C5D9F48D
:1032F00015C5DAF410EE08F00850E1260950E22274
:10330000E6C416F5E5C417F516C5E1F417C5E2F4F1
:10331000E750F009DF6E08C502F509C503F5DCECDE
:10332000ABF012007F0E136E050E146E53EC93F08B
:1033300005017B6F7B51D8B4A0EF99F0A2EF99F013
:10334000AAEF99F0570E3A6EFE0E3B6E010E3C6EE0
:1033500064EC92F005018751D8A4B1EF99F0B3EF76
:1033600099F0BBEF99F0490E3A6EFF0E3B6E010EDD
:103370003C6E64EC92F005018A51D8A4C2EF99F03A
:10338000C4EF99F0CCEF99F0870E3A6EFB0E3B6ECE
:10339000010E3C6E64EC92F073ECACF00009D8A422
:1033A000D4EF99F0D6EF99F0DEEF99F0720E3A6E05
:1033B000FB0E3B6E010E3C6E64EC92F00D6A010E4A
:1033C0000C6EFCECABF00009D8A4E9EF99F0EBEF40
:1033D00099F0F3EF99F0EC0E3A6EFE0E3B6E020E92
:1033E0003C6E64EC92F00D6A020E0C6EFCECABF0DD
:1033F0000009D8A4FEEF99F000EF9AF008EF9AF0D8
:10340000790E3A6EFE0E3B6E020E3C6E64EC92F04C
:1034100064ECAEF0000E166E020EDCECA9F0680E45
:10342000156EFE0E166E46ECA4F0580E116E060ECA
:10343000126E000E136EC80E146E000E156EADECFB
:10344000ADF0520E406E2B0E3F6E000EE82EFED7F2
:103450003F2EFCD7402EFAD700D0580E116E060E24
:10346000126EC0ECADF01200CA80040121812091DF
:103470007DECA2F01DECAEF0AAECACF08FECACF061
:103480006BECA3F028ECADF0E3ECADF0D2B04BEF79
:103490009AF04DEF9AF0A8EF9AF0000E166E020E19
:1034A000DCECA9F0350E156EFE0E166E46ECA4F09F
:1034B000150E406E4B0E3F6EBE0EE82EFED73F2E11
:1034C000FCD7402EFAD700D0416A41C50CF50D6AF1
:1034D000000E0E6E59ECAAF0412A260E416473EFDD
:1034E0009AF075EF9AF065EF9AF00D6A010E0C6E86
:1034F000010E0E6E59ECAAF00D6A030E0C6E040E4E
:103500000E6E59ECAAF00D6A020E0C6E040E0E6ED1
:1035100059ECAAF00D6A050E0C6E040E0E6E59ECF5
:10352000AAF00D6A090E0C6E0D0E0E6E59ECAAF083
:103530000D6A0A0E0C6E2F0E0E6E59ECAAF00D6A73
:103540000D0E0C6E010E0E6E59ECAAF0D1EF9AF032
:10355000000E166E020EDCECA9F0B80E156EFD0E14
:10356000166E46ECA4F073ECACF00009D8A4BBEFE7
:103570009AF0BDEF9AF0C5EF9AF0F80E3A6EFC0E95
:103580003B6E030E3C6E64EC92F0150E406E4B0EDB
:103590003F6EBE0EE82EFED73F2EFCD7402EFAD748
:1035A00000D0120002C5D9F403C5DAF404C5DEF474
:1035B00005C5DDF420EE02F00250D9260350DA22D0
:1035C00006C5DEF407C5DDF420EE04F00250D9266E
:1035D0000350DA2208C5DEF409C5DDF420EE06F05A
:1035E0000250D9260350DA220AC5DFF420EE07F094
:1035F0000250D9260350DA22DF6A20EE06F002508C
:10360000D9260350DA22DF50D8A409EF9BF00BEF44
:103610009BF03BEF9BF020EE02F00250D9260350C6
:10362000DA22DEC40BF5DDC40CF50BC5D9F40CC5EC
:10363000DAF4F00EDF1620EE04F00250D926035023
:10364000DA22DEC40BF5DDC40CF50BC5D9F40CC5CC
:10365000DAF4F00EDF1602C5D9F403C5DAF4DEC4DD
:103660000BF5DDC40CF50BC5D9F40CC5DAF4F00E7E
:10367000DF1669EF9BF020EE02F00250D9260350CE
:10368000DA22DEC40BF5DDC40CF50BC5D9F40CC58C
:10369000DAF40F0EDF1620EE04F00250D9260350A4
:1036A000DA22DEC40BF5DDC40CF50BC5D9F40CC56C
:1036B000DAF40F0EDF1602C5D9F403C5DAF4DEC45E
:1036C0000BF5DDC40CF50BC5D9F40CC5DAF40F0EFF
:1036D000DF16120064ECAEF0000ED3B8010E3B6EA4
:1036E0003C0E086E050E096EA0ECA5F0000E166EDD
:1036F000010EDCECA9F02FECAEF0000E166E010E00
:10370000DCECA9F0630E156EFF0E166E46ECA4F00D
:10371000010E2F6E3B5039ECACF0000E166E020E0F
:10372000DCECA9F02FECAEF0000E166E020EDCEC15
:10373000A9F0ED0E156EFF0E166E46ECA4F03CC51A
:1037400018F53DC519F548EC98F0D90E156EFF0E29
:10375000166E46ECA4F03EC518F53FC519F548ECC9
:1037600098F0000E166E030EDCECA9F02FECAEF014
:10377000000E166E030EDCECA9F0F10E156EFF0EB6
:10378000166E46ECA4F040C518F541C519F548EC95
:1037900098F0DE0E156EFF0E166E46ECA4F042C5D4
:1037A00018F543C519F548EC98F0000E166E040E96
:1037B000DCECA9F0CA0E156EFA0E166E46ECA4F0FB
:1037C0008B0E176E050E186E5EECA5F05C6ED00EBB
:1037D0003A6ECA0EE82EFED73A2EFCD7F8EF9BF0D1
:1037E000BC0E366E050E376E11ECA0F0FFEF9BF0AD
:1037F0005C50230AD8B4F0EF9BF06CEF9BF0120002
:10380000B290A1C201F505017E51D8B40AEF9CF037
:103810000CEF9CF00EEF9CF095EF9CF05D50D8A45F
:1038200014EF9CF016EF9CF025EF9CF0AA0E011807
:10383000D8A41DEF9CF01FEF9CF095EF9CF001C504
:1038400000F6010E5D6E95EF9CF05D04D8A42BEFA1
:103850009CF02DEF9CF063EF9CF0550E0118D8B44E
:1038600034EF9CF036EF9CF05AEF9CF0560E0118A6
:10387000D8B43DEF9CF03FEF9CF05AEF9CF0150E52
:103880000118D8B446EF9CF048EF9CF05AEF9CF03A
:10389000070E0118D8B44FEF9CF051EF9CF05AEF8F
:1038A0009CF0260E0118D8A458EF9CF05AEF9CF01B
:1038B00060EF9CF001C501F6020E5D6E95EF9CF085
:1038C0005D6A95EF9CF0020E5D18D8A46AEF9CF03B
:1038D0006CEF9CF07FEF9CF001C502F60150050FE4
:1038E0007D6F0F0E7D6577EF9CF079EF9CF07BEF9D
:1038F0009CF060EF9CF0030E5D6E95EF9CF0000E67
:103900005D24D96EDA6A060EDA2201C5DFF45D2A7B
:103910007D515D5CD8A08FEF9CF091EF9CF095EF0E
:103920009CF0010E7E6F60EF9CF01100076E800E20
:1039300007609DEF9CF09FEF9CF0B0EF9CF004506F
:103940000510D8B4A6EF9CF0A8EF9CF0B0EF9CF067
:103950000650D8A4AEEF9CF0B0EF9CF0B6EF9CF010
:10396000050E05017C6F7C5111EF9DF01EECA9F056
:10397000096E0950D8B4BFEF9CF0C1EF9CF0C8EFBE
:103980009CF009C57CF557ECAEF0095011EF9DF0A5
:1039900068ECAEF00201949D075007248F6F06C5B6
:1039A0008DF204C5D9F405C5DAF4DF508C6F948B21
:1039B000010E086EF3EF9CF01CECA6F0096E0950A6
:1039C000D8B4E5EF9CF0E7EF9CF0E9EF9CF0C1EF95
:1039D0009CF008500424D96E000E0520DA6EDF50EA
:1039E00002018C6F082A0650085CD8A0FAEF9CF000
:1039F000FCEF9CF0DCEF9CF01AECA5F0096E09508E
:103A0000D8B405EF9DF007EF9DF00BEF9DF057EC5C
:103A1000AEF00DEF9DF068ECAEF009C57CF5C5EF9A
:103A20009CF0120009C5D9F40AC5DAF40BC5DEF41E
:103A30000CC5DDF420EE02F00950D9260A50DA2236
:103A40000DC5DEF40EC5DDF420EE04F00950D926D4
:103A50000A50DA220FC5DEF410C5DDF420EE06F0C0
:103A60000950D9260A50DA2211C5DFF420EE04F0FD
:103A70000950D9260A50DA22DEC412F5DDC413F546
:103A800012C5D9F413C5DAF410EE04F00950E1269A
:103A90000A50E222E6C414F5E5C415F514C5E1F4B4
:103AA00015C5E2F4E750166E10EE06F00950E12657
:103AB0000A50E222E750FF0A1614DF6E20EE02F0F1
:103AC0000950D9260A50DA22DEC412F5DDC413F5F6
:103AD00012C5D9F413C5DAF410EE02F00950E1264C
:103AE0000A50E222E6C414F5E5C415F514C5E1F464
:103AF00015C5E2F4E750166E10EE06F00950E12607
:103B00000A50E222E750FF0A1614DF6E09C502F5DB
:103B10000AC503F5AAECAAF01200076E800E076032
:103B200094EF9DF096EF9DF0A7EF9DF004500510E7
:103B3000D8B49DEF9DF09FEF9DF0A7EF9DF006504C
:103B4000D8A4A5EF9DF0A7EF9DF0ADEF9DF0050E79
:103B500005017C6F7C5101EF9EF01EECA9F0096E0F
:103B60000950D8B4B6EF9DF0B8EF9DF0BFEF9DF0CF
:103B700009C57CF557ECAEF0095001EF9EF068ECFA
:103B8000AEF00201949D958F06C58DF2D880073462
:103B90008F6F948B086AE3EF9DF059ECA6F0096EE5
:103BA0000950D8B4D6EF9DF0D8EF9DF0DAEF9DF034
:103BB000B8EF9DF008500424D96E000E0520DA6E8F
:103BC0008BC2DFF4082A0650085CD8A0EAEF9DF00B
:103BD000ECEF9DF0CDEF9DF0EBECA8F0096E0950F5
:103BE000D8B4F5EF9DF0F7EF9DF0FBEF9DF057ECAB
:103BF000AEF0FDEF9DF068ECAEF009C57CF5BCEFD2
:103C00009DF0120002C5D9F403C5DAF404C5DEF450
:103C100005C5DDF420EE02F00250D9260350DA2269
:103C200006C5DEF407C5DDF420EE04F00250D92607
:103C30000350DA2208C5DEF409C5DDF420EE06F0F3
:103C40000250D9260350DA220AC5DFF420EE04F030
:103C50000250D9260350DA22DEC40BF5DDC40CF580
:103C60000BC5D9F40CC5DAF410EE04F00250E126CD
:103C70000350E222E6C40DF5E5C40EF50DC5E1F4EE
:103C80000EC5E2F4E7500F6E10EE06F00250E1268A
:103C90000350E222E750FF0A0F14DF6E20EE02F01D
:103CA0000250D9260350DA22DEC40BF5DDC40CF530
:103CB0000BC5D9F40CC5DAF410EE06F00250E1267B
:103CC0000350E222E7500D6E10EE02F00250E126A2
:103CD0000350E222E6C40EF5E5C40FF50EC5E1F48B
:103CE0000FC5E2F4E7500D10DF6E12003A6EF50ECC
:103CF000F66EF90EF76E000EF86E0900F5C436F593
:103D00000900F5C437F50900F5C438F50A00F5C413
:103D100039F564ECAEF0000E166E010EDCECA9F085
:103D2000940E156EFD0E166E46ECA4F03AC52FF5F6
:103D3000306A020E316E000E326E07ECAEF09D0E50
:103D4000156EFA0E166E46ECA4F0000E166E020EFC
:103D5000DCECA9F0A60E156EFD0E166E46ECA4F076
:103D6000FF0E3A24336E346AFF0E3422360E3324AB
:103D7000D96E050E3420DA6EDF50356E35500C6E7C
:103D80000D6AFCECABF05B6E020E2F6E5B5039ECF3
:103D9000ACF0000E166E030EDCECA9F0800E156E72
:103DA000FC0E166E46ECA4F0000E166E040EDCEC53
:103DB000A9F06C0E156EFC0E166E46ECA4F0120007
:103DC000396EF90EF66EF90EF76E000EF86E0900F8
:103DD000F5C435F50900F5C436F50900F5C437F525
:103DE0000A00F5C438F531C513F539501FECA3F0BE
:103DF00064ECAEF0000E166E010EDCECA9F0F40ED1
:103E0000156EFA0E166E46ECA4F0000E166E020E3B
:103E1000DCECA9F06F0E156EFF0E166E46ECA4F0EA
:103E2000010E2F6E395039ECACF0D30E156EFF0E2B
:103E3000166E46ECA4F0000E166E020EDCECA9F035
:103E4000AC0E156EFE0E166E46ECA4F0FF0E392475
:103E5000326E336AFF0E3322350E3224D96E050ED0
:103E60003320DA6EDF50346E34500C6E0D6AFCEC89
:103E7000ABF05B6E020E2F6E5B5039ECACF0DA0EDD
:103E8000156EFD0E166E46ECA4F01200156A10C5F4
:103E900008F511C509F515C50AF5B8ECA8F00D0E21
:103EA000E82EFED70000166A010E1624F66EF76A99
:103EB000FA0EF722F86A000EF8220800F5C412F58F
:103EC00010C5D9F411C5DAF4DEC413F5DDC414F558
:103ED00013C5D9F414C5DAF4DF5012140009D8A4BC
:103EE00074EF9FF076EF9FF092EF9FF010C502F510
:103EF00011C503F5DCECABF01550040DDD0EF32419
:103F0000126EF90EF420136E16501226000E1322B4
:103F100012C5F6F413C5F7F4000EF86E0800F5505C
:103F2000ABEF9FF0162A030E166499EF9FF09BEFFC
:103F30009FF054EF9FF0152A030E1564A2EF9FF037
:103F4000A4EF9FF047EF9FF010C502F511C503F5F0
:103F5000DCECABF0000E120004500510D8B4B3EF47
:103F60009FF0B5EF9FF0BEEF9FF004500510D8A46E
:103F7000BCEF9FF0BEEF9FF0C3EF9FF002506EECDE
:103F8000AEF010EFA0F020EE09F00450D926055055
:103F9000DA22DE50DE10D8B4D0EF9FF0D2EF9FF0DF
:103FA000EDEF9FF020EE09F00450D9260550DA22FB
:103FB00010EE02F00450E1260550E222DE50E65CED
:103FC000E650800A0A6EDE50800A0A58D8B0EBEF3D
:103FD0009FF0EDEF9FF010EFA0F020EE02F0045004
:103FE000D9260550DA22DEC406F5DDC407F504C57E
:103FF000D9F405C5DAF4DEC408F5DDC409F50650C8
:104000000824D96E07500920DA6E02C5DFF420EECD
:1040100002F00450D9260550DA22DE2A000EDD22F5
:10402000120036C51BF537C51CF5020E1E6E0B0EB1
:104030001D6E206A500E1F6E320E216E42EC94F0FF
:10404000D00E386ECA0EE82EFED7382EFCD736C5F5
:104050001BF537C51CF5020E1E6E930E1D6E206AF1
:104060005A0E1F6E320E216E42EC94F0D00E386E56
:10407000CA0EE82EFED7382EFCD736C51BF537C53D
:104080001CF5030E1E6E100E1D6E206A780E1F6E3C
:10409000320E216E42EC94F0D00E386ECA0EE82E2D
:1040A000FED7382EFCD736C51BF537C51CF5040ED8
:1040B0001E6E170E1D6E206AB40E1F6E320E216E1C
:1040C00042EC94F0020E396EA00E386E920EE82E7D
:1040D000FED7382EFCD7392EFAD700D036C509F5D1
:1040E00037C50AF550ECAEF01200076A05BE7DEF49
:1040F000A0F07BEFA0F083EFA0F0046C051ED8B019
:10410000052A010E076E03BE8AEFA0F088EFA0F02B
:1041100090EFA0F0026C031ED8B0032A010E071A1C
:10412000096A000E086E04500510D8B49AEFA0F08A
:104130009CEFA0F0C4EFA0F0010E066EA4EFA0F07B
:10414000D89004360536062A05AEA9EFA0F0ABEFED
:10415000A0F0A0EFA0F0D890083609360450025C19
:1041600005500358D8A0B7EFA0F0B9EFA0F0BEEF0C
:10417000A0F00450025E0550035A0880D890053222
:104180000432062EABEFA0F00750D8B4CAEFA0F06F
:10419000CCEFA0F0D0EFA0F0086C091ED8B0092A2F
:1041A00008C502F509C503F5120036C51BF537C56C
:1041B0001CF5030E1E6E700E1D6E206A5A0E1F6EC9
:1041C000320E216E42EC94F0040E396E400E386EC1
:1041D000260EE82EFED7382EFCD7392EFAD700D07F
:1041E00036C51BF537C51CF5030E1E6E700E1D6E11
:1041F000206A5A0E1F6E320E216E42EC94F0040EAD
:10420000396E400E386E260EE82EFED7382EFCD7BB
:10421000392EFAD700D036C51BF537C51CF5030E6D
:104220001E6E700E1D6E206A5A0E1F6E320E216EAB
:1042300042EC94F0050E396E0F0E386EF10EE82E3A
:10424000FED7382EFCD7392EFAD7000036C509F52F
:1042500037C50AF550ECAEF0120036C51BF537C570
:104260001CF5010E1E6E880E1D6E206AA00E1F6EBC
:104270003C0E216E42EC94F0020E396EA00E386EA8
:10428000920EE82EFED7382EFCD7392EFAD700D062
:1042900036C51BF537C51CF5010E1E6E4A0E1D6E88
:1042A000206AB40E1F6E3C0E216E42EC94F0020E9A
:1042B000396EA00E386E920EE82EFED7382EFCD73F
:1042C000392EFAD700D036C51BF537C51CF5010EBF
:1042D0001E6E060E1D6E206AFA0E1F6E460E216EB1
:1042E00042EC94F0030E396E700E386E5C0EE82EC0
:1042F000FED7382EFCD7392EFAD700D036C509F5AF
:1043000037C50AF550ECAEF012001E0E04648BEFB8
:10431000A1F08DEFA1F095EFA1F002C5D9F403C58E
:10432000DAF41E0EDF6E9BEFA1F002C5D9F403C5CF
:10433000DAF404C5DFF404011091C890C090076A54
:10434000CAEFA1F007500224056E000E0320066E8E
:10435000010E0524D96E000E0620DA6EDF6A0750C2
:104360000224056E000E0320066E1F0E0524D96E72
:10437000000E0620DA6EDF6A07500224056E000E7A
:104380000320066E3D0E0524D96E000E0620DA6E5F
:10439000DF6A072A02C5D9F403C5DAF4DE50075CE8
:1043A000D8A0D5EFA1F0D7EFA1F0A2EFA1F01200B5
:1043B00020EE06F00250D9260350DA22DF50D8A4AE
:1043C000E4EFA1F0E6EFA1F007EFA2F004500F0B2D
:1043D000096E02C5D9F403C5DAF4DEC405F5DDC4FF
:1043E00006F505C5D9F406C5DAF4DF50F00B09105F
:1043F00002C5D9F403C5DAF4DEC407F5DDC408F557
:1044000007C5D9F408C5DAF4DF6E2AEFA2F004C5B7
:1044100005F50F0E05160538F00B096E02C5D9F427
:1044200003C5DAF4DEC405F5DDC406F505C5D9F427
:1044300006C5DAF4DF500F0B091002C5D9F403C525
:10444000DAF4DEC407F5DDC408F507C5D9F408C5FC
:10445000DAF4DF6E1200000E166E000E176E000EFC
:10446000186E000E196E1250131014101510D8B4D7
:104470003CEFA2F03EEFA2F074EFA2F0010E1A6E34
:1044800048EFA2F0D89012361336143615361A2A91
:1044900015AE4DEFA2F04FEFA2F042EFA2F0D89090
:1044A000163617361836193612500E5C13500F5840
:1044B0001450105815501158D8A061EFA2F063EFB6
:1044C000A2F06CEFA2F012500E5E13500F5A14506F
:1044D000105A1550115A1680D890153214321332D2
:1044E00012321A2E4FEFA2F016C50EF517C50FF5B2
:1044F00018C510F519C511F51200AD0E026E050EA6
:10450000036EBE0E046E040E056EC60E066E040E1D
:10451000076E000E086E040E096E000E0A6ED2ECD5
:104520009AF0A50E026E050E036EBE0E046E040E0A
:10453000056EC60E066E040E076E000E086E040EA3
:10454000096E010E0A6ED2EC9AF09D0E026E050EF7
:10455000036EBF0E046E040E056EC70E066E040ECB
:10456000076E080E086E040E096E000E0A6ED2EC7D
:104570009AF0950E026E050E036EBF0E046E040EC9
:10458000056EC70E066E040E076E080E086E040E4A
:10459000096E010E0A6ED2EC9AF0120002C5D9F42F
:1045A00003C5DAF404C5DEF405C5DDF420EE02F03F
:1045B0000250D9260350DA2206C5DEF407C5DDF421
:1045C00020EE04F00250D9260350DA2208C5DFF4A9
:1045D00020EE05F00250D9260350DA2209C5DFF497
:1045E00020EE04F00250D9260350DA22DF500A6E82
:1045F00002C5D9F403C5DAF4DEC40BF5DDC40CF54D
:104600000BC5D9F40CC5DAF40A50DF1220EE04F021
:104610000250D9260350DA22DF500A6E20EE02F053
:104620000250D9260350DA22DEC40BF5DDC40CF5A6
:104630000BC5D9F40CC5DAF40A50DF1212001B6E58
:10464000FD0EF66EF90EF76E000EF86E0900F5C459
:1046500017F50900F5C418F50900F5C419F50A00A5
:10466000F5C41AF5FF0E1B24146E156AFF0E1522F1
:10467000170E1424D96E050E1520DA6EDF50166E53
:1046800016500C6E0D6AFCECABF05B6EFF0E1B243B
:10469000146E156AFF0E1522170E1424D96E050E1E
:1046A0001520DA6EDF50166E16500F6E106A5B50D2
:1046B0001324116EDFECACF00D6A020E0C6EFCECF4
:1046C000ABF05B6E106A020E0F6E5B501324116E1E
:1046D000DFECACF0120026ECAEF0D50E026E050E4B
:1046E000036ECB0E046E040E056E280E066E040ECD
:1046F000076E010E086E2D0E096ECEECA2F0CF0EE5
:10470000026E050E036ECB0E046E040E056E280EAF
:10471000066E040E076E020E086E2E0E096ECEECAB
:10472000A2F0C90E026E050E036ECB0E046E040ECF
:10473000056E280E066E040E076E040E086E2A0E15
:10474000096ECEECA2F0C30E026E050E036ECB0E08
:10475000046E040E056E280E066E040E076E080E1B
:10476000086E2B0E096ECEECA2F012001650171038
:10477000D8B4BDEFA3F0BFEFA3F0C7EFA3F0070ECF
:104780001864C5EFA3F0C7EFA3F0CAEFA3F0050EBE
:10479000FDEFA3F01838E842F80B400985ECA8F0CB
:1047A0001A6E1A50D8B4D7EFA3F0D9EFA3F0DCEF0C
:1047B000A3F01A50FDEFA3F0196A19501624D96E10
:1047C000000E1720DA6EDF5098ECADF01A6E1A501A
:1047D000D8B4EDEFA3F0EFEFA3F0F1EFA3F0D9EF32
:1047E000A3F0192A070E1964F8EFA3F0FAEFA3F06B
:1047F000DDEFA3F0800E85ECA8F01200096A2FEF20
:10480000A4F009500524076E000E0620086E1F0E46
:104810000724D96E000E0820DA6EDF509CECABF056
:1048200009500524076E000E0620086E010E0724AD
:10483000D96E000E0820DA6EDF509CECABF0095008
:104840000524076E000E0620086E3D0E0724D96E63
:10485000000E0820DA6EDF509CECABF0092A05C58B
:10486000D9F406C5DAF4DE50095CD8A03AEFA4F01A
:104870003CEFA4F001EFA4F0C090040E076E1C0EF4
:10488000E82EFED7072EFCD700D0120015501610C8
:10489000D8A44DEFA4F04FEFA4F073EFA4F0050EF1
:1048A0008DEFA4F015C5F6F416C5F7F4000EF86EFA
:1048B000250EF76403D00800F55005D0F6C4E9F4DE
:1048C000F7C4EAF4EF5098ECADF0176E1750D8B477
:1048D0006CEFA4F06EEFA4F071EFA4F017508DEF21
:1048E000A4F0154A162A15C5F6F416C5F7F4000EFD
:1048F000F86E250EF76403D00800F55005D0F6C415
:10490000E9F4F7C4EAF4EF500009D8A48AEFA4F060
:104910008CEFA4F052EFA4F0000E120020EE05F090
:104920000250D9260350DA220501FE51DE18D8B410
:104930009CEFA4F09EEFA4F0C2EFA4F03B0E0301A5
:10494000EC6FF381F3B1A7EFA4F0A9EFA4F0A2EF0D
:10495000A4F020EE05F00250D9260350DA22DF50F1
:10496000EC6FF381F3B1B7EFA4F0B9EFA4F0B2EFBD
:10497000A4F020EE05F00250D9260350DA22DF50D1
:104980000501FE6F0301F381F3B1C9EFA4F0CBEF92
:10499000A4F0C4EFA4F0EB51046EEA51066E04C516
:1049A00007F506C502F507C503F512001F502010D4
:1049B00021102210D8B4DFEFA4F0E1EFA4F011EF42
:1049C000A5F0010E236EEBEFA4F0D8901F36203631
:1049D00021362236232A22AEF0EFA4F0F2EFA4F023
:1049E000E5EFA4F01F501B5C20501C5821501D58AF
:1049F00022501E58D8A0FFEFA4F001EFA5F009EF58
:104A0000A5F01F501B5E20501C5A21501D5A2250E9
:104A10001E5AD8902232213220321F32232EF2EF3A
:104A2000A4F01BC51BF51CC51CF51DC51DF51EC539
:104A30001EF51200EA0E036E600E026E43EFA5F043
:104A400097AD25EFA5F027EFA5F02AEFA5F0030E0F
:104A50005DEFA5F097AB2FEFA5F031EFA5F034EFA8
:104A6000A5F0020E5DEFA5F002500310D8A43BEFB5
:104A7000A5F03DEFA5F040EFA5F0040E5DEFA5F029
:104A80000206D8A0030602019AA549EFA5F04BEF54
:104A9000A5F020EFA5F095BB50EFA5F052EFA5F0E3
:104AA00059EFA5F097A957EFA5F059EFA5F05CEFE6
:104AB000A5F0010E5DEFA5F0000E120017C510F570
:104AC00018C511F546EC9FF01B6E1B50D8A46BEF78
:104AD000A5F06DEFA5F070EFA5F0000E9FEFA5F02B
:104AE000D00E196ECA0EE82EFED7192EFCD717C5A8
:104AF00010F518C511F546EC9FF01A6E1B501A18E8
:104B0000D8B485EFA5F087EFA5F089EFA5F06DEF9C
:104B1000A5F017C510F518C511F546EC9FF0000972
:104B2000D8A495EFA5F097EFA5F089EFA5F0D00EEA
:104B3000196ECA0EE82EFED7192EFCD71B50120094
:104B4000D50E026E050E036E8EECA4F008C5D9F4E6
:104B500009C5DAF402C5DEF403C5DDF4CF0E026E3A
:104B6000050E036E8EECA4F020EE02F00850D9265C
:104B70000950DA2202C5DEF403C5DDF4C90E026E67
:104B8000050E036E8EECA4F020EE04F00850D9263A
:104B90000950DA2202C5DEF403C5DDF4C30E026E4D
:104BA000050E036E8EECA4F020EE06F00850D92618
:104BB0000950DA2202C5DEF403C5DDF41200376EB7
:104BC000010E2F6E375039ECACF0A30E156EFD0EB2
:104BD000166E46ECA4F031C50CF532C50DF5FCECB3
:104BE000ABF05B6E020E2F6E5B5039ECACF0A60E94
:104BF000156EFC0E166E46ECA4F033C50CF534C5EC
:104C00000DF5FCECABF05B6E020E2F6E5B5039ECD9
:104C1000ACF0F50E156EFF0E166E46ECA4F035C521
:104C20000CF536C50DF5FCECABF05B6E010E2F6E8E
:104C30005B5039ECACF01200EA0E036E600E026EAF
:104C40004FEFA6F097A927EFA6F029EFA6F02CEFDB
:104C5000A6F0010E58EFA6F097AD31EFA6F033EFB6
:104C6000A6F036EFA6F0030E58EFA6F097AB3BEF99
:104C7000A6F03DEFA6F040EFA6F0020E58EFA6F02A
:104C800002500310D8A447EFA6F049EFA6F04CEF6E
:104C9000A6F0040E58EFA6F00206D8A00306020103
:104CA00099AB55EFA6F057EFA6F022EFA6F0000E55
:104CB0001200EA0E036E600E026E8CEFA6F097A94A
:104CC00064EFA6F066EFA6F069EFA6F0010E95EF8F
:104CD000A6F097AD6EEFA6F070EFA6F073EFA6F01A
:104CE000030E95EFA6F097AB78EFA6F07AEFA6F05B
:104CF0007DEFA6F0020E95EFA6F002500310D8A4A7
:104D000084EFA6F086EFA6F089EFA6F0040E95EFEB
:104D1000A6F00206D8A00306020199A192EFA6F020
:104D200094EFA6F05FEFA6F0000E120002C5D9F4D2
:104D300003C5DAF4DE50045CD8A0A1EFA6F0A3EF1F
:104D4000A6F0A5EFA6F0CFEFA6F004500224086E5F
:104D5000000E0320096E010E0824D96E000E0920F2
:104D6000DA6E05C5DFF404500224086E000E03203D
:104D7000096E1F0E0824D96E000E0920DA6E06C5D2
:104D8000DFF404500224086E000E0320096E3D0E6D
:104D90000824D96E000E0920DA6E07C5DFF4120070
:104DA000186E1550050DF3C416F5F4C417F5090E69
:104DB00016240F6E000E1720106E18C511F5DFECCB
:104DC000ACF01550050DF3C416F5F4C417F50A0E32
:104DD00016240F6E000E1720106E13C511F5DFECB0
:104DE000ACF01550050DF3C416F5F4C417F50D0E0F
:104DF00016240F6E000E1720106E14C511F5DFEC8F
:104E0000ACF0106A010E0F6E1528116EDFECACF0DD
:104E10001200076A000E066E04500510D8B413EF96
:104E2000A7F015EFA7F03DEFA7F0010E086E1DEFFC
:104E3000A7F0D89004360536082A05AE22EFA7F071
:104E400024EFA7F019EFA7F0D890063607360450E4
:104E5000025C05500358D8A030EFA7F032EFA7F05E
:104E600037EFA7F00450025E0550035A0680D89031
:104E700005320432082E24EFA7F006C502F507C557
:104E800003F51200056AFF0EEFECADF0AA0EEFEC91
:104E9000ADF0550EEFECADF0280EEFECADF0076A7B
:104EA000000E066E06500324D96E07500420DA6EF9
:104EB000DF50EFECADF006500324D96E075004200C
:104EC000DA6EDF500526064A072A07BE71EFA7F003
:104ED000075009E1280E065CD8A071EFA7F073EF28
:104EE000A7F052EFA7F00550EFECADF00A0EEFEC93
:104EF000ADF012000F6E400E0F6081EFA7F083EF50
:104F0000A7F094EFA7F00C500D10D8B48AEFA7F0DB
:104F10008CEFA7F094EFA7F00E50D8A492EFA7F073
:104F200094EFA7F097EFA7F0050EB1EFA7F00FC52C
:104F30000AF5680E12ECAEF0106E1050D8B4A3EF64
:104F4000A7F0A5EFA7F0A8EFA7F01050B1EFA7F0DA
:104F50000CC504F50DC505F50EC506F5680E8DECFE
:104F60009DF012000AC502F50BC503F520EE07F00F
:104F70000A50D9260B50DA22DF50090FF66EFA0ECE
:104F8000D8B0010FF76EF86A000EF8220800F5C4D9
:104F900004F5D8ECA1F020EE07F00A50D9260B500A
:104FA000DA22DF2A20EE07F00A50D9260B50DA2247
:104FB000030EDF64DEEFA7F0E0EFA7F0E7EFA7F066
:104FC00020EE07F00A50D9260B50DA22DF6A1200D1
:104FD000000E0A6E000E0B6E000E0C6E000E0D6EB3
:104FE00002A0F5EFA7F0F7EFA7F0FFEFA7F006504C
:104FF0000A2607500B2208500C2209500D22D89087
:105000000636073608360936D890053204320332A0
:1050100002320250031004100510D8A412EFA8F0B9
:1050200014EFA8F0F0EFA7F00AC502F50BC503F5E1
:105030000CC504F50DC505F5120015501610D8A4C1
:1050400024EFA8F026EFA8F028EFA8F050EFA8F082
:105050001B6A47EFA8F01B501524186E000E16208F
:10506000196E18C5F6F419C5F7F4000EF86E0800AD
:10507000F55098ECADF01A6E1A50D8B442EFA8F083
:1050800044EFA8F046EFA8F050EFA8F01B2A175005
:105090001B5CD8A04EEFA8F050EFA8F02BEFA8F0C3
:1050A000120036C51BF537C51CF5020E1E6E930E99
:1050B0001D6E206A2D0E1F6E320E216E42EC94F092
:1050C0009C0E386ED70EE82EFED7382EFCD7000087
:1050D00036C51BF537C51CF5030E1E6E100E1D6E72
:1050E000206A410E1F6E320E216E42EC94F0D00EFB
:1050F000386ECA0EE82EFED7382EFCD736C509F515
:1051000037C50AF550ECAEF01200156E000E0A6EAF
:105110001550B0ECA9F0146E1450D8B492EFA8F06A
:1051200094EFA8F097EFA8F01450B7EFA8F015048B
:10513000D8B49DEFA8F09FEFA8F0A8EFA8F0020E5A
:105140001518D8A4A6EFA8F0A8EFA8F0B2EFA8F021
:10515000150E136EC60EE82EFED7132EFCD700D008
:10516000B6EFA8F0850EE82EFED70000000E120064
:1051700008C502F509C503F5DCECABF020EE02F042
:105180000850D9260950DA22DEC40BF5DDC40CF52F
:105190000BC5D9F40CC5DAF410EE02F00850E12684
:1051A0000950E222E6C40DF5E5C40EF50DC5E1F4A3
:1051B0000EC5E2F4E7500F6E050E0A24F66EF76A8C
:1051C000FA0EF722F86A000EF8220800F550FF0ADE
:1051D0000F14DF6E1200EA0E036E600E026E14EF03
:1051E000A9F097ADF6EFA8F0F8EFA8F0FBEFA8F064
:1051F000030E1DEFA9F097AB00EFA9F002EFA9F0A5
:1052000005EFA9F0020E1DEFA9F002500310D8A47B
:105210000CEFA9F00EEFA9F011EFA9F0040E1DEFAD
:10522000A9F00206D8A0030602019AA51AEFA9F078
:105230001CEFA9F0F1EFA8F0000E1200EA0E036EC9
:10524000600E026E47EFA9F097AD29EFA9F02BEFA2
:10525000A9F02EEFA9F0030E50EFA9F097AB33EFB2
:10526000A9F035EFA9F038EFA9F0020E50EFA9F040
:1052700002500310D8A43FEFA9F041EFA9F044EF8A
:10528000A9F0040E50EFA9F00206D8A0030602010F
:1052900098AF4DEFA9F04FEFA9F024EFA9F0000E61
:1052A000120004500510D8B458EFA9F05AEFA9F035
:1052B0007EEFA9F0010E066E62EFA9F0D8900436D9
:1052C0000536062A05AE67EFA9F069EFA9F05EEF93
:1052D000A9F00450025C05500358D8A072EFA9F061
:1052E00074EFA9F078EFA9F00450025E0550035A5C
:1052F000D89005320432062E69EFA9F002C502F5F6
:1053000003C503F51200600E0001AD6F060EB16F0C
:10531000400EB36FB2AD8FEFA9F091EFA9F08AEF15
:10532000A9F004012891CB90036ACF0E026EC5EC60
:10533000ACF034EC9AF0480EEFECADF04F0EEFEC21
:10534000ADF04C0EEFECADF0410EEFECADF049ECF2
:10535000AEF0A280B290D68CD68E92EC99F012006C
:105360000F6EFCC512F50A50D8B4B9EFA9F0BBEF27
:10537000A9F0BCEFA9F012800F50F00B106E0F389F
:10538000F00BF00B116E1050121004090B6E105040
:1053900012100C6E1150121004090D6E11501210E3
:1053A0000E6E0B0E046E050E056E040E066E0501E4
