:04000000FEEFFFF020
:10FC8E00003132334134353642373839432A302346
:10FC9E00441F1F1F1F1F1F1F1F0A0B0C0D0A0B0CCB
:10FCAE000D10204080010204080C0603092D2D2D95
:10FCBE00204D495320484F524152494F53202D2D2C
:10FCCE002D002D2D20524543415247412045584984
:10FCDE00544F53412D2D00507265706172616E64E8
:10FCEE006F2073697374656D612E2E005245472E19
:10FCFE002043414E542E2050415354494C4C4153B5
:10FD0E000053656C656363696F6E652028312D3411
:10FD1E00293A5B205D00312E4167722E486F7220AA
:10FD2E0020322E4D6F642E486F720053696E20483C
:10FD3E006F722E205265676973747261646F7300FF
:10FD4E0020202020202020202020202020202020A5
:10FD5E0020202020002053544F434B205041535419
:10FD6E00494C4C45524F5320004775617264617285
:10FD7E003A5B235D2053616C69723A2A004120730D
:10FD8E00756D617220202020202020203A203030F6
:10FD9E00004C696D7069616E646F205661726961A5
:10FDAE00626C65730052656769737472617220507C
:10FDBE00617374696C6C61002D2D20524543415264
:10FDCE00474120504153542E200053746F636B20D3
:10FDDE0061637475616C2020203A20004D6F646958
:10FDEE00666963617220486F726172696F0050615B
:10FDFE007374696C6C617320646973703A2000458A
:10FE0E0072726F7220656E2073697374656D610016
:10FE1E004932432073696E20636F6E6578696F6E29
:10FE2E00005254432073696E20636F6E6578696F5C
:10FE3E006E0053697374656D6120636F72726563D2
:10FE4E00746F00342E5265672E2070617374696C66
:10FE5E006C617300507265706172616E646F2044E4
:10FE6E0061746F7300457874726179656E646F208A
:10FE7E004461746F7300546F74616C2061637475A8
:10FE8E00616C3A205B004F7063696F6E20496E762D
:10FE9E00616C696461004C6579656E646F204D65B7
:10FEAE006D6F726961002A2E5265736574207369D5
:10FEBE007374656D61004167726567617220486F8A
:10FECE00726172696F0041706167616E646F20428A
:10FEDE00757A7A6572004461746F7320436F727223
:10FEEE007570746F73004F7063696F6E2044657325
:10FEFE006561646100466563686120696E76616C58
:10FF0E0069646100332E56657220686F7261726982
:10FF1E006F73004E4F2050726573696F6E61646F20
:10FF2E000041706167616E646F204C4544730052EE
:10FF3E00544320646574656E69646F005665722063
:10FF4E00486F726172696F730050415354494C4C43
:10FF5E0045524F20005D20202020202050323A5B59
:10FF6E00005D20202020202050343A5B005265692D
:10FF7E006E696369616E646F0053656C6563636976
:10FF8E006F6E6172005265696E69636961646F00BC
:10FF9E00526573657465616E646F005B425D4261AC
:10FFAE006A6172005B415D5375626972005B2A5D26
:10FFBE0053616C69720056616C6F723A2000536522
:10FFCE006E736F72200053697374656D61004F70AC
:10FFDE0063696F6E004C4953544F0050313A5B00C9
:10FFEE0050333A5B002050003062003078003A0007
:01FFFE000002
:020000040001F9
:1000000056EC9DF0060E156E010E6EEC99F04E0E3C
:10001000146EFF0E156EA4EC94F0000E156E030E18
:100020006EEC99F0A40E146EFE0E156EA4EC94F016
:100030000C6A010E0B6E48EC9BF04C6E000E236EAA
:10004000040E83EC9AF0000E156E030E6EEC99F020
:100050001CEC9DF0020E156E030E6EEC99F0730E03
:10006000146EFE0E156EA4EC94F0040E236E040EB6
:1000700083EC9AF04C28D8B440EF80F042EF80F047
:100080004AEF80F0060E4C6448EF80F04AEF80F0B3
:100090006EEF80F0080E236E040E83EC9AF0000ED3
:1000A000156E030E6EEC99F01CEC9DF0020E156EB1
:1000B000030E6EEC99F0E40E146EFE0E156EA4ECB9
:1000C00094F03D0E3A6EE10E396E400EE82EFED7EA
:1000D000392EFCD73A2EFAD7FEEF81F04C50D8A437
:1000E00074EF80F076EF80F08FEF80F0080E236ED3
:1000F000040E83EC9AF0000E156E030E6EEC99F070
:100100001CEC9DF0000E156E030E6EEC99F0390E8E
:10011000146EFD0E156EA4EC94F061EF80F0000EED
:10012000156E030E6EEC99F01CEC9DF0020E156E30
:10013000030E6EEC99F0620E146EFE0E156EA4ECBA
:1001400094F0080E236E040E83EC9AF00C0E236ECE
:10015000040E83EC9AF04CC53DF53C6AFF0E3D243D
:10016000016E026AFF0E0222046A030E036E72EC35
:1001700091F001503B6E56EC9DF0000E156E010E95
:100180006EEC99F0BB0E146EFC0E156EA4EC94F0A0
:1001900064EF81F03D50D8B4D0EF80F0D2EF80F022
:1001A000E3EF80F0000E156E020E6EEC99F0316AEE
:1001B000140E306E336A150E326E356A160E346EBA
:1001C000010E41EC96F0010E3D64E9EF80F0EBEF9B
:1001D00080F0FCEF80F0000E156E030E6EEC99F0CF
:1001E000316A190E306E336A1A0E326E356A1B0E82
:1001F000346E020E41EC96F0020E3D6402EF81F087
:1002000004EF81F06FEF81F0000E156E040E6EECBE
:1002100099F0316A1D0E306E336A1E0E326E356AE9
:100220001F0E346E030E41EC96F06FEF81F0030E5B
:100230003D641DEF81F01FEF81F030EF81F0000E83
:10024000156E020E6EEC99F0316A210E306E336A33
:10025000220E326E356A230E346E040E41EC96F097
:10026000040E3D6436EF81F038EF81F049EF81F004
:10027000000E156E030E6EEC99F0316A250E306E8D
:10028000336A260E326E356A270E346E050E41EC47
:1002900096F0050E3D644FEF81F051EF81F06FEF66
:1002A00081F0000E156E040E6EEC99F0316A290E85
:1002B000306E336A2A0E326E356A2B0E346E060E9D
:1002C00041EC96F06FEF81F03C50000AD8B4CAEFD1
:1002D00080F0010AD8B417EF81F06FEF81F03C5045
:1002E000D8B475EF81F077EF81F082EF81F00C0EDA
:1002F000156E020E6EEC99F0B20E146EFF0E156EB6
:10030000A4EC94F03B503C5CD8B089EF81F08BEFCB
:1003100081F096EF81F00C0E156E040E6EEC99F0E4
:10032000A90E146EFF0E156EA4EC94F00C0E156E53
:10033000030E6EEC99F0BB0E146EFF0E156EA4EC5E
:1003400094F04E6AB2EF81F06C0E166E050E176EC9
:10035000FFEC95F04E6ED00E396ECA0EE82EFED729
:10036000392EFCD74E50D8B4B8EF81F0BAEF81F0F7
:10037000A4EF81F0EFEF81F0500E356E050E366E72
:1003800042EC9CF03C50D8B4C8EF81F0CAEF81F049
:10039000BBEF80F03C06BBEF80F0500E356E050ED3
:1003A000366E42EC9CF03B503C5CD8B0DAEF81F00A
:1003B000DCEF81F0BBEF80F03C2ABBEF80F0500E09
:1003C000356E050E366E42EC9CF0FEEF81F0500E5D
:1003D000356E050E366ED2EC91F0BBEF80F04E50CC
:1003E0002A0AD8B4DFEF81F06B0AD8B4BCEF81F0F1
:1003F000030AD8B4CDEF81F0E7EF81F012003C6A38
:1004000056EC9DF0010E156E010E6EEC99F0FA0E91
:10041000146EFC0E156EA4EC94F0000E156E030E17
:100420006EEC99F0A40E146EFE0E156EA4EC94F012
:100430000C6A020E0B6E48EC9BF04C6E000E236EA5
:10044000040E83EC9AF0000E156E030E6EEC99F01C
:100450001CEC9DF0000E156E030E6EEC99F0730E01
:10046000146EFE0E156EA4EC94F0040E236E040EB2
:1004700083EC9AF04C28D8A440EF82F042EF82F04F
:1004800066EF82F0080E236E040E83EC9AF0000EE5
:10049000156E030E6EEC99F01CEC9DF0020E156EBD
:1004A000030E6EEC99F0E40E146EFE0E156EA4ECC5
:1004B00094F03D0E3B6EE10E3A6E400EE82EFED7F4
:1004C0003A2EFCD73B2EFAD7E9EF83F0000E156EDB
:1004D000030E6EEC99F01CEC9DF0000E156E030EF1
:1004E0006EEC99F0FC0E146EFD0E156EA4EC94F0FB
:1004F000020E2E6E4C50A4EC9BF0080E236E040EE0
:1005000083EC9AF0000E156E030E6EEC99F01CEC65
:100510009DF0000E156E030E6EEC99F0E50E146E54
:10052000FC0E156EA4EC94F00C0E236E040E83ECFE
:100530009AF056EC9DF0000E156E010E6EEC99F0DF
:10054000630E146EFD0E156EA4EC94F0000E156E85
:10055000020E6EEC99F0E90E146EFF0E156EA4EC0F
:1005600094F00C6A0A0E0B6E48EC9BF04C6E020E77
:100570002E6E4C50A4EC9BF0630E146EFF0E156EA5
:10058000A4EC94F00C6A0B0E0B6E48EC9BF04C6ED6
:10059000020E2E6E4C50A4EC9BF0220E146EFD0E3B
:1005A000156EA4EC94F0000E156E030E6EEC99F02F
:1005B000EE0E146EFF0E156EA4EC94F00C6A0C0E89
:1005C0000B6E48EC9BF04C6E020E2E6E4C50A4EC61
:1005D0009BF06F0E146EFF0E156EA4EC94F00C6A77
:1005E0000D0E0B6E48EC9BF04C6E020E2E6E4C50B6
:1005F000A4EC9BF0220E146EFD0E156EA4EC94F08C
:10060000000E156E040E6EEC99F00F0E146EFD0EBA
:10061000156EA4EC94F04E6A1CEF83F06C0E166E0F
:10062000050E176EFFEC95F04E6ED00E3A6ECA0EA8
:10063000E82EFED73A2EFCD74E50D8B422EF83F0E6
:1006400024EF83F00EEF83F05CEF83F0500E356EF5
:10065000050E366E42EC9CF04E50D00F3D6E120EE1
:10066000156E040E6EEC99F04E5098EC9CF0030E53
:100670003B6E080E3A6E770EE82EFED73A2EFCD768
:100680003B2EFAD700003D503EEC90F06FEF83F028
:10069000500E356E050E366ED2EC91F0120E156EC0
:1006A000040E6EEC99F0CE0E146EFC0E156EA4ECDA
:1006B00094F04E6A6FEF83F04E50310AD8B426EFB3
:1006C00083F0030AD8B426EF83F0010AD8B426EFEA
:1006D00083F0070AD8B426EF83F048EF83F04E503A
:1006E000D8B475EF83F077EF83F00BEF83F04E6AA9
:1006F00088EF83F06C0E166E050E176EFFEC95F00A
:100700004E6ED00E3A6ECA0EE82EFED73A2EFCD7A9
:100710004E50D8B48EEF83F090EF83F07AEF83F0F1
:10072000CEEF83F0500E356E050E366ED2EC91F0A2
:1007300077EF83F0500E356E050E366E42EC9CF06E
:10074000E9EF83F0500E356E050E366E0EEC91F02B
:100750003CC530F53D5098EC8CF0090E3B6E1E0EFA
:100760003A6EE40EE82EFED73A2EFCD73B2EFAD78F
:1007700000D0E9EF83F0500E356E050E366E42EC78
:100780009CF04E50D00F3C6E120E156E030E6EECA8
:1007900099F04E5098EC9CF077EF83F04E50230A7E
:1007A000D8B4A2EF83F0090AD8B49AEF83F06B0AA9
:1007B000D8B492EF83F0030AD8B492EF83F0010A21
:1007C000D8B492EF83F0070AD8B492EF83F0BBEF6E
:1007D00083F012004E6A6DEF85F056EC9DF0050E29
:1007E000156E010E6EEC99F0870E146EFF0E156EED
:1007F000A4EC94F0030E156E020E6EEC99F0F40E5C
:10080000146EFE0E156EA4EC94F0520E3F6E2B0E7D
:100810003E6E000EE82EFED73E2EFCD73F2EFAD7B6
:1008200000D056EC9DF0000E156E010E6EEC99F0A6
:10083000240E146EFD0E156EA4EC94F0000E156ED1
:10084000020E6EEC99F0120E146EFF0E156EA4ECF3
:1008500094F0000E156E030E6EEC99F0510E146EAE
:10086000FE0E156EA4EC94F0000E156E040E6EECE8
:1008700099F0B40E146EFE0E156EA4EC94F0416A5D
:10088000000E406E6C0E166E050E176EFFEC95F0A6
:100890004E6E4E50D8B44FEF84F051EF84F058EFC5
:1008A00085F056EC9DF041EF85F0500E356E050E4B
:1008B000366E0EEC91F0070E156E010E6EEC99F08F
:1008C000DC0E146EFF0E156EA4EC94F0020E156E85
:1008D000020E6EEC99F0C40E146EFE0E156EA4ECB2
:1008E00094F0520E3F6E2B0E3E6E000EE82EFED799
:1008F0003E2EFCD73F2EFAD700D075EF85F0500E74
:10090000356E050E366E0EEC91F0070E156E010E6B
:100910006EEC99F0DC0E146EFF0E156EA4EC94F0E4
:10092000010E156E020E6EEC99F0EA0E146EFD0EBD
:10093000156EA4EC94F071EF84F0500E356E050E38
:10094000366E0EEC91F0070E156E010E6EEC99F0FE
:10095000DC0E146EFF0E156EA4EC94F0040E156EF2
:10096000020E6EEC99F04A0E146EFF0E156EA4EC9A
:1009700094F0520E3F6E2B0E3E6E000EE82EFED708
:100980003E2EFCD73F2EFAD700D000EC80F058EF77
:1009900085F0500E356E050E366E0EEC91F0070E9A
:1009A000156E010E6EEC99F0DC0E146EFF0E156ED6
:1009B000A4EC94F0010E156E020E6EEC99F0B30EDD
:1009C000146EFD0E156EA4EC94F0520E3F6E2B0EBD
:1009D0003E6E000EE82EFED73E2EFCD73F2EFAD7F5
:1009E00000D0FFEC81F075EF85F0500E356E050EEE
:1009F000366E0EEC91F0070E156E010E6EEC99F04E
:100A0000DC0E146EFF0E156EA4EC94F0030E156E42
:100A1000020E6EEC99F0B60E146EFE0E156EA4EC7E
:100A200094F0520E3F6E2B0E3E6E000EE82EFED757
:100A30003E2EFCD73F2EFAD700D004EC8AF075EF9B
:100A400085F0500E356E050E366E2AEC92F0020ED1
:100A5000156E020E6EEC99F0940E146EFE0E156E6D
:100A6000A4EC94F0150E3F6E4B0E3E6EBE0EE82EBB
:100A7000FED73E2EFCD73F2EFAD700D04E6A58EF55
:100A800085F04E502A0AD8B4F5EF84F01B0AD8B48A
:100A900055EF84F0030AD8B47FEF84F0010AD8B48C
:100AA0009DEF84F0070AD8B4C9EF84F021EF85F0F8
:100AB000680E3E6EE40EE82EFED73E2EFCD700D028
:100AC000404A412AF40E405C010E4158D8A06BEF19
:100AD00085F06DEF85F042EF84F04E50D8B473EF9F
:100AE00085F075EF85F0EDEF83F0120004500510EE
:100AF000D8A47DEF85F07FEF85F082EF85F0000EC2
:100B0000A2EF86F004C5D9F405C5DAF4DF507F0BF7
:100B1000096E20EE01F00450D9260550DA22DF508C
:100B20007F0B0A6E20EE04F00450D9260550DA221D
:100B3000DF503F0B0B6E20EE05F00450D926055018
:100B4000DA22DF501F0B0C6E20EE06F00450D9267F
:100B50000550DA22DF50066E20EE03F00450D9264D
:100B60000550DA22DF50070B0F6E20EE02F0045022
:100B7000D9260550DA22DFACC0EF85F0C2EF85F050
:100B8000CDEF85F020EE02F00450D9260550DA2290
:100B9000DF501F0B106ED6EF85F020EE02F00450F0
:100BA000D9260550DA22DF503F0B106E0950C1ECF8
:100BB0009BF00009D8B4DFEF85F0E1EF85F07FEF1F
:100BC00085F00A50C1EC9BF00009D8B4EAEF85F03B
:100BD000ECEF85F07FEF85F01050C1EC9BF0000941
:100BE000D8B4F5EF85F0F7EF85F07FEF85F00B5087
:100BF000C1EC9BF00009D8B400EF86F002EF86F05C
:100C00007FEF85F00C50C1EC9BF00009D8B40BEFDE
:100C100086F00DEF86F07FEF85F00650C1EC9BF07B
:100C20000009D8A416EF86F018EF86F01AEF86F0C8
:100C30007FEF85F00950EFEC9CF0076E0A50EFEC67
:100C40009CF0086E1050EFEC9CF0116E0B50EFEC26
:100C50009CF00D6E0C50EFEC9CF00E6E3B0E07649A
:100C600034EF86F036EF86F038EF86F07FEF85F0D0
:100C70003B0E08643EEF86F040EF86F042EF86F0D0
:100C80007FEF85F020EE02F00450D9260550DA22DD
:100C9000DFAC4DEF86F04FEF86F061EF86F011503C
:100CA000D8B455EF86F057EF86F07FEF85F00C0E45
:100CB00011645DEF86F05FEF86F06BEF86F07FEFFB
:100CC00085F0170E116467EF86F069EF86F06BEF21
:100CD00086F07FEF85F00F50D8B471EF86F073EF98
:100CE00086F07FEF85F0070E0F6479EF86F07BEFDB
:100CF00086F07DEF86F07FEF85F00D50D8B483EF5E
:100D000086F085EF86F07FEF85F01F0E0D648BEF88
:100D100086F08DEF86F08FEF86F07FEF85F00E5036
:100D2000D8B495EF86F097EF86F07FEF85F00C0E44
:100D30000E649DEF86F09FEF86F0A1EF86F07FEFC7
:100D400085F0010E120012501310D8A4AAEF86F0FD
:100D5000ACEF86F0AFEF86F0050E91EF87F020EE56
:100D600008F01250D9261350DA22DF6A20EE09F07B
:100D70001250D9261350DA22DF6A20EE0AF0125000
:100D8000D9261350DA22DF6A20EE0BF01250D92652
:100D90001350DA22DF6A170E106E050E116E58EC32
:100DA0009CF01E6E1E50D8B4D8EF86F0DAEF86F0B5
:100DB000DDEF86F01E5091EF87F020EE08F0125024
:100DC000D9261350DA2217AEE8EF86F0EBEF86F063
:100DD000010EECEF86F0000EDF6E20EE09F01250EF
:100DE000D9261350DA2219BCF8EF86F0FBEF86F013
:100DF000010EFCEF86F0000EDF6E20EE09F01250BF
:100E0000D9261350DA22DF50D8B409EF87F00BEF60
:100E100087F028EF87F020EE0AF01250D926135001
:100E2000DA2219BA16EF87F019EF87F0010E1AEFE0
:100E300087F0000EDF6E20EE02F01250D92613501C
:100E4000DA2219501F0BEFEC9CF0DF6E3AEF87F0BF
:100E500020EE0AF01250D9261350DA22DF6A20EE73
:100E600002F01250D9261350DA2219503F0BEFEC42
:100E70009CF0DF6E17507F0BEFEC9CF012C5D9F49D
:100E800013C5DAF4DF6E20EE01F01250D9261350AC
:100E9000DA2218507F0BEFEC9CF0DF6E20EE03F0AF
:100EA0001250D9261350DA221A50070BDF6E20EEAB
:100EB00004F01250D9261350DA221B503F0BEFECEE
:100EC0009CF0DF6E20EE05F01250D9261350DA2286
:100ED0001C501F0BEFEC9CF0DF6E1D50EFEC9CF0F4
:100EE000146ED00E1424156E166A070E162220EE0C
:100EF00006F01250D9261350DA2215C5DEF416C5B5
:100F0000DDF4170E046E050E056E76EC85F0146E9A
:100F100020EE0BF01250D9261350DA2214C5DFF45C
:100F2000000E12001C501D10D8A499EF87F09BEF03
:100F300087F09DEF87F079EF88F0640E2064A3EFCF
:100F400087F0A5EF87F0A7EF87F0640E206E400EC4
:100F50000D6E420E0E6E0F0E0F6E000E106E1CC543
:100F600011F51DC512F5136A146AD5EC92F00DC582
:100F70002DF50EC52EF50FC52FF510C530F52050F7
:100F8000016E026A036A046A2DC505F52EC506F5D1
:100F90002FC507F530C508F5A3EC97F001C50DF591
:100FA00002C50EF503C50FF504C510F5640E116EEC
:100FB000000E126E000E136E000E146ED5EC92F041
:100FC0000DC531F50EC532F50FC533F510C534F535
:100FD00031502D5C296E32502E582A6E33502F58C6
:100FE0002B6E345030582C6E1EC501F51FC502F50E
:100FF000036A046AE80E056E030E066E000E076EA5
:10100000000E086EA3EC97F001C50DF502C50EF5B4
:1010100003C50FF504C510F52DC511F52EC512F544
:101020002FC513F530C514F5D5EC92F00DC521F59B
:101030000EC522F50FC523F510C524F5000E256E4B
:10104000000E266E000E276E000E286E64EF88F0EC
:101050003150321033103410D8B431EF88F033EF00
:1010600088F043EF88F01AC501F51BC502F55FEC67
:101070009AF031C501F532C502F533C503F534C523
:1010800004F52BEC9CF029502A102B102C10D8B40E
:101090004CEF88F04EEF88F05EEF88F01AC501F54E
:1010A0001BC502F53AEC9AF029C501F52AC502F5EF
:1010B0002BC503F52CC504F52BEC9CF0010E252661
:1010C000000E2622272228222150255C2250265855
:1010D0002350275824502858D8A071EF88F073EF78
:1010E00088F028EF88F01AC501F51BC502F53AEC27
:1010F0009AF012002550D8B480EF88F082EF88F083
:1011000093EF88F0060E256088EF88F08AEF88F06C
:1011100093EF88F02550265CD8A091EF88F093EFEC
:1011200088F096EF88F0050E4FEF89F0010E296EDA
:10113000000E2A6E000E2B6E000E2C6E010E286E15
:10114000BDEF88F029C501F52AC502F52BC503F5C9
:101150002CC504F50A0E056E000E066E000E076E15
:10116000000E086EA3EC97F001C529F502C52AF51B
:1011700003C52BF504C52CF5282A2550285CD8A0DA
:10118000C4EF88F0C6EF88F0A2EF88F0286A45EF38
:1011900089F02650D8B4CFEF88F0D1EF88F0EAEF8D
:1011A00088F02650255C2818D8A4D9EF88F0DBEF0A
:1011B00088F0EAEF88F02E0E98EC9CF02D6E2D5002
:1011C000D8B4E5EF88F0E7EF88F0EAEF88F02D502B
:1011D0004FEF89F029C511F52AC512F52BC513F576
:1011E0002CC514F523C50DF524C50EF50F6A106A3C
:1011F000D5EC92F00DC51AF50EC51BF50FC51CF503
:1012000010C51DF50A0E1E6E000E1F6E000E206E1C
:10121000000E216E77EC95F01A50276E2750300F94
:1012200098EC9CF02D6E2D50D8B419EF89F01BEF7F
:1012300089F01DEF89F0E7EF88F02C502B102A1071
:1012400009E1020E295CD8A028EF89F02AEF89F085
:1012500044EF89F029C50DF52AC50EF52BC50FF50C
:101260002CC510F50A0E116E000E126E000E136ED4
:10127000000E146ED5EC92F00DC529F50EC52AF5B9
:101280000FC52BF510C52CF5282A2550285CD8A0B1
:101290004CEF89F04EEF89F0C9EF88F0000E120094
:1012A000030E166E080E156E770EE82EFED7152E5D
:1012B000FCD7162EFAD70000080E586E040E576E93
:1012C00058503DEC9DF0176E1750D8B46AEF89F076
:1012D0006CEF89F06EEF89F003EF8AF0340E156E33
:1012E000F20EE82EFED7152EFCD7000E096E300E3A
:1012F00067EC9BF0176E1750D8B481EF89F083EF3D
:1013000089F085EF89F003EF8AF0340E156EF20E46
:10131000E82EFED7152EFCD7000E096E300E67ECB6
:101320009BF0176E1750D8B498EF89F09AEF89F0B8
:101330009CEF89F003EF8AF0F00E00D0E82EFDD785
:10134000000E096E300E67EC9BF0176E1750D8B484
:10135000ACEF89F0AEEF89F0B0EF89F003EF8AF0DF
:10136000F00E00D0E82EFDD7000E096E200E67ECBF
:101370009BF0176E1750D8B4C0EF89F0C2EF89F018
:10138000C4EF89F003EF8AF0F00E00D0E82EFDD70D
:10139000280EA5EC98F0176E1750D8B4D2EF89F04C
:1013A000D4EF89F0D6EF89F003EF8AF0576A51EC59
:1013B0009DF0176E1750D8B4E0EF89F0E2EF89F096
:1013C000E4EF89F003EF8AF056EC9DF0176E1750AA
:1013D000D8B4EDEF89F0EFEF89F0F1EF89F003EF8A
:1013E0008AF0060EA5EC98F0176E1750D8B4FBEFF4
:1013F00089F0FDEF89F0FFEF89F003EF8AF0040E2A
:10140000576E51EC9DF0120056EC9DF0040E156ED7
:10141000010E6EEC99F07B0E146EFF0E156EA4ECAF
:1014200094F0060E156E020E6EEC99F0D40E146E4A
:10143000FF0E156EA4EC94F0290E296E960E286E00
:101440007F0EE82EFED7282EFCD7292EFAD70000D3
:10145000040E156E030E6EEC99F0D40E146EFE0E93
:10146000156EA4EC94F0500E086E050E096E36EC65
:101470009DF0020E236E040E83EC9AF0000E156EA2
:10148000030E6EEC99F01CEC9DF0040E156E030E2D
:101490006EEC99F02F0E146EFF0E156EA4EC94F006
:1014A000000E106E060E116EC0EC9CF0060E236E40
:1014B000040E83EC9AF0000E156E030E6EEC99F09C
:1014C0001CEC9DF0010E156E030E6EEC99F09F0E54
:1014D000146EFD0E156EA4EC94F00A0E236E040E2D
:1014E00083EC9AF0000E156E030E6EEC99F01CEC76
:1014F0009DF0050E156E030E6EEC99F09E0E146EA7
:10150000FF0E156EA4EC94F00E0E236E040E83EC09
:101510009AF056EC9DF0050E156E020E6EEC99F0E9
:10152000D40E146EFF0E156EA4EC94F0040E156E1E
:10153000030E6EEC99F0930E146EFF0E156EA4EC74
:1015400094F0290E296E960E286E7F0EE82EFED797
:10155000282EFCD7292EFAD7000056EC9DF0120059
:101560002E6A000E2D6E18BEBAEF8AF0B8EF8AF020
:10157000CCEF8AF02D0E216E2D4A2E2A17C519F5B3
:1015800018C51AF5191E1A1E194A1A2A19C52BF55B
:101590001AC52CF5D0EF8AF017C52BF518C52CF518
:1015A0002B502C10D8A4D7EF8AF0D9EF8AF0E5EFB2
:1015B0008AF0210E2D24D96E050E2E20DA6E300E03
:1015C000DF6E2D4A2E2A49EF8BF02A6A000E296E13
:1015D0000BEF8BF01B0E2924D96E050E2A20DA6E34
:1015E0002BC501F52CC502F5046A0A0E036E0BEC3F
:1015F00099F00150300FDF6E294A2A2A2BC501F5D8
:101600002CC502F5046A0A0E036E32EC97F001C590
:101610002BF502C52CF52B502C10D8B412EF8BF003
:1016200014EF8BF034EF8BF02ABE20EF8BF02A50B2
:1016300009E1060E295CD8A020EF8BF022EF8BF099
:10164000EAEF8AF034EF8BF01B0E2924D96E050ED9
:101650002A20DA6E210E2D24E16E050E2E20E26E78
:10166000DFC4E7F42D4A2E2A2950196E2A501A6E2B
:10167000010E295E000E2A5A1ABE49EF8BF01A504D
:1016800006E11904D8B047EF8BF049EF8BF024EF57
:101690008BF0210E2D24D96E050E2E20DA6EDF6A16
:1016A000210E146E050E156EA4EC94F0120007C501
:1016B000D9F408C5DAF409C5DEF40AC5DDF420EE74
:1016C00002F00750D9260850DA220BC5DEF40CC50B
:1016D000DDF420EE04F00750D9260850DA220DC5BB
:1016E000DEF40EC5DDF420EE06F00750D9260850D2
:1016F000DA220FC5DEF410C5DDF420EE08F0075045
:10170000D9260850DA2211C5DEF412C5DDF420EE28
:1017100006F00750D9260850DA22DEC413F5DDC4DE
:1017200014F513C5D9F414C5DAF4DF6A20EE04F019
:101730000750D9260850DA22DEC413F5DDC414F5AB
:1017400013C5D9F414C5DAF410EE04F00750E126FD
:101750000850E222E6C415F5E5C416F515C5E1F416
:1017600016C5E2F4E750F00BDF6E20EE04F00750F0
:10177000D9260850DA22DEC413F5DDC414F513C5EA
:10178000D9F414C5DAF410EE04F00750E12608503D
:10179000E222E6C415F5E5C416F515C5E1F416C553
:1017A000E2F4E750F009DF6E20EE08F00750D9268A
:1017B0000850DA22DEC413F5DDC414F513C5D9F4DC
:1017C00014C5DAF410EE08F00750E1260850E222C2
:1017D000E6C415F5E5C416F515C5E1F416C5E2F441
:1017E000E750F009DF6E07C501F508C502F528ECE2
:1017F0009BF01200CA8004012181209127EC93F014
:1018000025EC9DF083EC9CF0DEEC9BF0C9EC93F0B2
:101810006EEC9CF006EC9DF0D2B011EF8CF013EF63
:101820008CF080EF8CF0000E156E010E6EEC99F0CE
:10183000240E146EFF0E156EA4EC94F0150E196EA6
:101840004B0E186EBE0EE82EFED7182EFCD7192EA2
:10185000FAD700D00C6A010E0B6E020E0D6EC4ECAE
:1018600099F00C6A020E0B6E010E0D6EC4EC99F02D
:101870000C6A0A0E0B6E010E0D6EC4EC99F00C6A28
:101880000B0E0B6E000E0D6EC4EC99F00C6A0C0E74
:101890000B6E000E0D6EC4EC99F00C6A0D0E0B6E03
:1018A000000E0D6EC4EC99F00C6A140E0B6E080E4F
:1018B0000D6EC4EC99F00C6A150E0B6E090E0D6ED0
:1018C000C4EC99F00C6A160E0B6E010E0D6EC4EC92
:1018D00099F00C6A190E0B6E090E0D6EC4EC99F09E
:1018E0000C6A1A0E0B6E150E0D6EC4EC99F00C6A94
:1018F0001B0E0B6E030E0D6EC4EC99F097EF8CF07F
:10190000000E156E010E6EEC99F0210E146EFF0E96
:10191000156EA4EC94F0150E196E4B0E186EBE0EDB
:10192000E82EFED7182EFCD7192EFAD700D01200B9
:10193000386EAB0EF66EFC0EF76E000EF86E0900F8
:10194000F5C434F50900F5C435F50900F5C436F5DC
:101950000A00F5C437F5FF0E3824316E326AFF0EE7
:101960003222340E3124D96E050E3220DA6EDF5069
:10197000336E33500B6E0C6A48EC9BF04C6EFF0ECE
:101980003824316E326AFF0E3222340E3124D96E81
:10199000050E3220DA6EDF50336E33500E6E0F6A52
:1019A0004C503024106EF9EC9BF00C6A020E0B6E5A
:1019B00048EC9BF04C6E0F6A020E0E6E4C503024B9
:1019C000106EF9EC9BF056EC9DF0000E156E010EBA
:1019D0006EEC99F0D00E146EFC0E156EA4EC94F023
:1019E000000E156E020E6EEC99F0570E146EFF0E7F
:1019F000156EA4EC94F0010E2E6E3850A4EC9BF002
:101A0000E30E146EFF0E156EA4EC94F0000E156E2E
:101A1000020E6EEC99F0840E146EFE0E156EA4ECA0
:101A200094F0FF0E3824316E326AFF0E3222340EEB
:101A30003124D96E050E3220DA6EDF50336E33500A
:101A40000B6E0C6A48EC9BF04C6E020E2E6E4C50E6
:101A5000A4EC9BF0220E146EFD0E156EA4EC94F017
:101A6000120001C5D9F402C5DAF403C5DEF404C5D9
:101A7000DDF420EE02F00150D9260250DA2205C52D
:101A8000DEF406C5DDF420EE04F00150D926025044
:101A9000DA2207C5DEF408C5DDF420EE06F00150B9
:101AA000D9260250DA2209C5DFF420EE07F00150F2
:101AB000D9260250DA22DF6A20EE06F00150D9263C
:101AC0000250DA22DF50D8A468EF8DF06AEF8DF073
:101AD0009AEF8DF020EE02F00150D9260250DA2262
:101AE000DEC40AF5DDC40BF50AC5D9F40BC5DAF47A
:101AF000F00EDF1620EE04F00150D9260250DA2253
:101B0000DEC40AF5DDC40BF50AC5D9F40BC5DAF459
:101B1000F00EDF1601C5D9F402C5DAF4DEC40AF509
:101B2000DDC40BF50AC5D9F40BC5DAF4F00EDF16E7
:101B3000C8EF8DF020EE02F00150D9260250DA22D3
:101B4000DEC40AF5DDC40BF50AC5D9F40BC5DAF419
:101B50000F0EDF1620EE04F00150D9260250DA22D3
:101B6000DEC40AF5DDC40BF50AC5D9F40BC5DAF4F9
:101B70000F0EDF1601C5D9F402C5DAF4DEC40AF58A
:101B8000DDC40BF50AC5D9F40BC5DAF40F0EDF1668
:101B900012004D50D8B4CFEF8DF0D1EF8DF0D7EFCC
:101BA0008DF01E0E186EFE0E196E0CEC98F0600E85
:101BB000126E050E136EA3EC86F04D6E4D50D8B428
:101BC000E4EF8DF0E6EF8DF0F2EF8DF02F0E186E52
:101BD000FE0E196E0CEC98F0500E356E050E366E3A
:101BE000D2EC91F005016851D8A4F9EF8DF0FBEF2C
:101BF0008DF007EF8EF03D0E186EFF0E196E0CEC97
:101C000098F0500E356E050E366ED2EC91F005014F
:101C10006B51D8A40EEF8EF010EF8EF01CEF8EF00B
:101C2000030E186EFF0E196E0CEC98F0500E356E08
:101C3000050E366ED2EC91F056EC9DF0000E156E4E
:101C4000010E6EEC99F0400E146EFE0E156EA4ECB3
:101C500094F0000E106E060E116E000E126EC80E7D
:101C6000136E000E146EADEC9CF0290E436E960EB2
:101C7000426E7F0EE82EFED7422EFCD7432EFAD7B7
:101C80000000EAEC83F0520E436E2B0E426E000E03
:101C9000E82EFED7422EFCD7432EFAD700D032ECE6
:101CA00095F0290E436E960E426E7F0EE82EFED7FB
:101CB000422EFCD7432EFAD700004FEF8EF01200D1
:101CC00008C5D9F409C5DAF40AC5DEF40BC5DDF49C
:101CD00020EE02F00850D9260950DA220CC5DEF4B5
:101CE0000DC5DDF420EE04F00850D9260950DA22A3
:101CF0000EC5DEF40FC5DDF420EE06F00850D9263F
:101D00000950DA2210C5DFF420EE04F00850D9267D
:101D10000950DA22DEC411F5DDC412F511C5D9F47B
:101D200012C5DAF410EE04F00850E1260950E22260
:101D3000E6C413F5E5C414F513C5E1F414C5E2F4E3
:101D4000E750156E10EE06F00850E1260950E22229
:101D5000E750FF0A1514DF6E20EE02F00850D92676
:101D60000950DA22DEC411F5DDC412F511C5D9F42B
:101D700012C5DAF410EE02F00850E1260950E22212
:101D8000E6C413F5E5C414F513C5E1F414C5E2F493
:101D9000E750156E10EE06F00850E1260950E222D9
:101DA000E750FF0A1514DF6E08C501F509C502F5F5
:101DB0003AEC9AF01200066E800E0660E2EF8EF0AA
:101DC000E4EF8EF0F5EF8EF003500410D8B4EBEF93
:101DD0008EF0EDEF8EF0F5EF8EF00550D8A4F3EF16
:101DE0008EF0F5EF8EF0FAEF8EF0050E4F6E4F503D
:101DF00055EF8FF0D8EC98F0086E0850D8B403EF88
:101E00008FF005EF8FF00CEF8FF008C54FF544EC25
:101E10009DF0085055EF8FF05AEC9DF00201949D13
:101E2000065006248F6F05C58DF203C5D9F404C58D
:101E3000DAF4DF508C6F948B010E076E37EF8FF062
:101E4000BBEC96F0086E0850D8B429EF8FF02BEF5A
:101E50008FF02DEF8FF005EF8FF007500324D96E30
:101E6000000E0420DA6EDF5002018C6F072A055045
:101E7000075CD8A03EEF8FF040EF8FF020EF8FF09F
:101E8000BBEC95F0086E0850D8B449EF8FF04BEFDB
:101E90008FF04FEF8FF044EC9DF051EF8FF05AEC44
:101EA0009DF008C54FF509EF8FF01200066E800E09
:101EB00006605DEF8FF05FEF8FF070EF8FF00350F3
:101EC0000410D8B466EF8FF068EF8FF070EF8FF0EA
:101ED0000550D8A46EEF8FF070EF8FF075EF8FF094
:101EE000050E4F6E4F50C9EF8FF0D8EC98F0086E8A
:101EF0000850D8B47EEF8FF080EF8FF087EF8FF02F
:101F000008C54FF544EC9DF00850C9EF8FF05AEC2E
:101F10009DF00201949D958F05C58DF2D880063401
:101F20008F6F948B076AABEF8FF07EEC96F0086EA4
:101F30000850D8B49EEF8FF0A0EF8FF0A2EF8FF093
:101F400080EF8FF007500324D96E000E0420DA6E64
:101F50008BC2DFF4072A0550075CD8A0B2EF8FF0E0
:101F6000B4EF8FF095EF8FF072EC98F0086E085098
:101F7000D8B4BDEF8FF0BFEF8FF0C3EF8FF044EC1C
:101F80009DF0C5EF8FF05AEC9DF008C54FF584EF3A
:101F90008FF0120001C5D9F402C5DAF403C5DEF4EE
:101FA00004C5DDF420EE02F00150D9260250DA22F9
:101FB00005C5DEF406C5DDF420EE04F00150D92697
:101FC0000250DA2207C5DEF408C5DDF420EE06F083
:101FD0000150D9260250DA2209C5DFF420EE04F0C0
:101FE0000150D9260250DA22DEC40AF5DDC40BF511
:101FF0000AC5D9F40BC5DAF410EE04F00150E1265D
:102000000250E222E6C40CF5E5C40DF50CC5E1F47E
:102010000DC5E2F4E7500E6E10EE06F00150E12619
:102020000250E222E750FF0A0E14DF6E20EE02F0AB
:102030000150D9260250DA22DEC40AF5DDC40BF5C0
:102040000AC5D9F40BC5DAF410EE06F00150E1260A
:102050000250E222E7500C6E10EE02F00150E12631
:102060000250E222E6C40DF5E5C40EF50DC5E1F41B
:102070000EC5E2F4E7500C10DF6E1200396EA70EA9
:10208000F66EFC0EF76E000EF86E0900F5C435F51D
:102090000900F5C436F50900F5C437F50A00F5C4A2
:1020A00038F556EC9DF0000E156E010E6EEC99F0B1
:1020B000C60E146EFD0E156EA4EC94F039C52EF507
:1020C0002F6A020E306E000E316EFBEC9CF0CD0ECE
:1020D000146EFC0E156EA4EC94F0000E156E020E3C
:1020E0006EEC99F0D80E146EFD0E156EA4EC94F003
:1020F000FF0E3924326E336AFF0E3322350E32243E
:10210000D96E050E3320DA6EDF50346E34500B6E0C
:102110000C6A48EC9BF04C6E020E2E6E4C50A4ECF8
:102120009BF0000E156E030E6EEC99F08B0E146E84
:10213000FD0E156EA4EC94F0000E156E040E6EEC00
:1021400099F0770E146EFD0E156EA4EC94F012004B
:10215000146A0FC507F510C508F514C509F53FEC5D
:1021600098F00D0EE82EFED70000156AAF0E15246C
:10217000F66EF76AFC0EF722F86A000EF8220800E5
:10218000F5C411F50FC5D9F410C5DAF4DEC412F5A3
:10219000DDC413F512C5D9F413C5DAF4DF501114F8
:1021A0000009D8A4D6EF90F0D8EF90F0F4EF90F0BB
:1021B0000FC501F510C502F528EC9BF01450040D75
:1021C0008F0EF324116EFC0EF420126E15501126A2
:1021D000000E122211C5F6F412C5F7F4000EF86EC7
:1021E0000800F5500DEF91F0152A030E1564FBEF72
:1021F00090F0FDEF90F0B6EF90F0142A030E146407
:1022000004EF91F006EF91F0A9EF90F00FC501F502
:1022100010C502F528EC9BF0000E120035C51AF52A
:1022200036C51BF5020E1D6E0B0E1C6E1F6A500E7E
:102230001E6E320E206E92EC87F0D00E376ECA0EF4
:10224000E82EFED7372EFCD735C51AF536C51BF557
:10225000020E1D6E930E1C6E1F6A5A0E1E6E320EFB
:10226000206E92EC87F0D00E376ECA0EE82EFED7A5
:10227000372EFCD735C51AF536C51BF5030E1D6E76
:10228000100E1C6E1F6A780E1E6E320E206E92ECBF
:1022900087F0D00E376ECA0EE82EFED7372EFCD749
:1022A00035C51AF536C51BF5040E1D6E170E1C6ECE
:1022B0001F6AB40E1E6E320E206E92EC87F0020E74
:1022C000386EA00E376E920EE82EFED7372EFCD752
:1022D000382EFAD700D035C508F536C509F536ECE5
:1022E0009DF01200066A04BE7AEF91F078EF91F04B
:1022F00080EF91F0036C041ED8B0042A010E066E24
:1023000002BE87EF91F085EF91F08DEF91F0016CB7
:10231000021ED8B0022A010E061A086A000E076EC5
:1023200003500410D8B497EF91F099EF91F0C1EFFA
:1023300091F0010E056EA1EF91F0D89003360436AE
:10234000052A04AEA6EF91F0A8EF91F09DEF91F071
:10235000D890073608360350015C04500258D8A0C4
:10236000B4EF91F0B6EF91F0BBEF91F00350015E46
:102370000450025A0780D89004320332052EA8EF89
:1023800091F00650D8B4C7EF91F0C9EF91F0CDEFBE
:1023900091F0076C081ED8B0082A07C501F508C5DA
:1023A00002F5120035C51AF536C51BF5030E1D6E74
:1023B000700E1C6E1F6A5A0E1E6E320E206E92EC4C
:1023C00087F0040E386E400E376E260EE82EFED7CC
:1023D000372EFCD7382EFAD700D035C51AF536C5BA
:1023E0001BF5030E1D6E700E1C6E1F6A5A0E1E6EBC
:1023F000320E206E92EC87F0040E386E400E376E6F
:10240000260EE82EFED7372EFCD7382EFAD700D06E
:1024100035C51AF536C51BF5030E1D6E700E1C6E04
:102420001F6A5A0E1E6E320E206E92EC87F0050E59
:10243000386E0F0E376EF10EE82EFED7372EFCD712
:10244000382EFAD7000035C508F536C509F536EC43
:102450009DF0120035C51AF536C51BF5010E1D6E2F
:10246000880E1C6E1F6AA00E1E6E3C0E206E92EC33
:1024700087F0020E386EA00E376E920EE82EFED751
:10248000372EFCD7382EFAD700D035C51AF536C509
:102490001BF5010E1D6E4A0E1C6E1F6AB40E1E6ED9
:1024A0003C0E206E92EC87F0020E386EA00E376E56
:1024B000920EE82EFED7372EFCD7382EFAD700D052
:1024C00035C51AF536C51BF5010E1D6E060E1C6EC0
:1024D0001F6AFA0E1E6E460E206E92EC87F0030EF7
:1024E000386E700E376E5C0EE82EFED7372EFCD796
:1024F000382EFAD700D035C508F536C509F536ECC3
:102500009DF012001E0E036488EF92F08AEF92F0A5
:1025100092EF92F001C5D9F402C5DAF41E0EDF6E17
:1025200098EF92F001C5D9F402C5DAF403C5DFF4DF
:1025300004011091C890C090066AC7EF92F006504F
:102540000124046E000E0220056E010E0424D96ED3
:10255000000E0520DA6EDF6A06500124046E000EBC
:102560000220056E1F0E0424D96E000E0520DA6EBF
:10257000DF6A06500124046E000E0220056E3D0E37
:102580000424D96E000E0520DA6EDF6A062A01C522
:10259000D9F402C5DAF4DE50065CD8A0D2EF92F08E
:1025A000D4EF92F09FEF92F01200000E156E000E25
:1025B000166E000E176E000E186E115012101310CA
:1025C0001410D8B4E6EF92F0E8EF92F01EEF93F01B
:1025D000010E196EF2EF92F0D890113612361336C2
:1025E0001436192A14AEF7EF92F0F9EF92F0ECEFEF
:1025F00092F0D890153616361736183611500D5CF5
:1026000012500E5813500F5814501058D8A00BEFFA
:1026100093F00DEF93F016EF93F011500D5E125002
:102620000E5A13500F5A1450105A1580D890143265
:10263000133212321132192EF9EF92F015C50DF541
:1026400016C50EF517C50FF518C510F512008E0E3C
:10265000016E050E026EBE0E036E040E046EC60EF3
:10266000056E040E066E000E076E040E086E000E58
:10267000096E31EC8DF0860E016E050E026EBE0EF7
:10268000036E040E046EC60E056E040E066E000E7A
:10269000076E040E086E010E096E31EC8DF07E0E91
:1026A000016E050E026EBF0E036E040E046EC70EA1
:1026B000056E040E066E080E076E040E086E000E00
:1026C000096E31EC8DF0760E016E050E026EBF0EB6
:1026D000036E040E046EC70E056E040E066E080E21
:1026E000076E040E086E010E096E31EC8DF01200BB
:1026F00001C5D9F402C5DAF403C5DEF404C5DDF47E
:1027000020EE02F00150D9260250DA2205C5DEF48F
:1027100006C5DDF420EE04F00150D9260250DA227D
:1027200007C5DFF420EE05F00150D9260250DA2269
:1027300008C5DFF420EE04F00150D9260250DA2259
:10274000DF50096E01C5D9F402C5DAF4DEC40AF51A
:10275000DDC40BF50AC5D9F40BC5DAF40950DF1254
:1027600020EE04F00150D9260250DA22DF50096E23
:1027700020EE02F00150D9260250DA22DEC40AF51A
:10278000DDC40BF50AC5D9F40BC5DAF40950DF1224
:1027900012002EEC9DF0AF0E016E050E026ECB0EF8
:1027A000036E040E046E280E056E040E066E010EF6
:1027B000076E280E086E78EC93F0A90E016E050ED8
:1027C000026ECB0E036E040E046E280E056E040E10
:1027D000066E020E076E290E086E78EC93F0A30EBB
:1027E000016E050E026ECB0E036E040E046E280EF3
:1027F000056E040E066E040E076E2A0E086E78EC47
:1028000093F09D0E016E050E026ECB0E036E040E4C
:10281000046E280E056E040E066E080E076E2B0E53
:10282000086E78EC93F01200086A45EF94F00850B7
:102830000424066E000E0520076E1F0E0624D96EB6
:10284000000E0720DA6EDF50E8EC9AF008500424FE
:10285000066E000E0520076E010E0624D96E000ECE
:102860000720DA6EDF50E8EC9AF008500424066E78
:10287000000E0520076E3D0E0624D96E000E0720BF
:10288000DA6EDF50E8EC9AF0082A04C5D9F405C5E1
:10289000DAF4DE50085CD8A050EF94F052EF94F0D8
:1028A00017EF94F0C090040E066E1C0EE82EFED7B3
:1028B000062EFCD700D0120015501610D8B463EFC6
:1028C00094F065EF94F06DEF94F0070E17646BEFE2
:1028D00094F06DEF94F070EF94F0050EA3EF94F088
:1028E0001738E842F80B4009A5EC98F0196E19501A
:1028F000D8B47DEF94F07FEF94F082EF94F019500C
:10290000A3EF94F0186A18501524D96E000E162003
:10291000DA6EDF5098EC9CF0196E1950D8B493EF32
:1029200094F095EF94F097EF94F07FEF94F0182ADD
:10293000070E18649EEF94F0A0EF94F083EF94F0EC
:10294000800EA5EC98F0120014501510D8A4ABEF2F
:1029500094F0ADEF94F0D1EF94F0050EEBEF94F01E
:1029600014C5F6F415C5F7F4000EF86E250EF764DD
:1029700003D00800F55005D0F6C4E9F4F7C4EAF432
:10298000EF5098EC9CF0166E1650D8B4CAEF94F045
:10299000CCEF94F0CFEF94F01650EBEF94F0144A94
:1029A000152A14C5F6F415C5F7F4000EF86E250EB9
:1029B000F76403D00800F55005D0F6C4E9F4F7C475
:1029C000EAF4EF500009D8A4E8EF94F0EAEF94F0AD
:1029D000B0EF94F0000E120020EE05F00150D92661
:1029E0000250DA225A50DE18D8B4F9EF94F0FBEF17
:1029F00094F01EEF95F03B0E0301EC6FF381F3B101
:102A000004EF95F006EF95F0FFEF94F020EE05F05F
:102A10000150D9260250DA22DF50EC6FF381F3B176
:102A200014EF95F016EF95F00FEF95F020EE05F00E
:102A30000150D9260250DA22DF505A6E0301F38189
:102A4000F3B125EF95F027EF95F020EF95F0EB51DE
:102A5000036EEA51056E03C506F505C501F506C509
:102A600002F51200AF0E016E050E026EECEC94F052
:102A700001C54AF502C54BF54AC52FF54BC530F5E2
:102A8000010E3DEC99F0A90E016E050E026EECEC04
:102A900094F001C548F502C549F548C52FF549C56B
:102AA00030F5020E3DEC99F0A30E016E050E026E9C
:102AB000ECEC94F001C546F502C547F546C52FF587
:102AC00047C530F5030E3DEC99F09D0E016E050EE5
:102AD000026EECEC94F001C544F502C545F544C521
:102AE0002FF545C530F5040E3DEC99F012001E504F
:102AF0001F1020102110D8B480EF95F082EF95F0D0
:102B0000B2EF95F0010E226E8CEF95F0D8901E3644
:102B10001F3620362136222A21AE91EF95F093EF11
:102B200095F086EF95F01E501A5C1F501B582050F0
:102B30001C5821501D58D8A0A0EF95F0A2EF95F099
:102B4000AAEF95F01E501A5E1F501B5A20501C5AB7
:102B500021501D5AD890213220321F321E32222E8F
:102B600093EF95F01AC51AF51BC51BF51CC51CF58E
:102B70001DC51DF51200EA0E026E600E016EE4EF37
:102B800095F097ADC6EF95F0C8EF95F0CBEF95F0C7
:102B9000030EFEEF95F097ABD0EF95F0D2EF95F0E6
:102BA000D5EF95F0020EFEEF95F001500210D8A47B
:102BB000DCEF95F0DEEF95F0E1EF95F0040EFEEF1F
:102BC00095F00106D8A0020602019AA5EAEF95F059
:102BD000ECEF95F0C1EF95F095BBF1EF95F0F3EFC9
:102BE00095F0FAEF95F097A9F8EF95F0FAEF95F0D8
:102BF000FDEF95F0010EFEEF95F0000E120016C5E8
:102C00000FF517C510F5A8EC90F01A6E1A50D8A45D
:102C10000CEF96F00EEF96F011EF96F0000E40EFED
:102C200096F0D00E186ECA0EE82EFED7182EFCD7DE
:102C300016C50FF517C510F5A8EC90F0196E1A50CF
:102C40001918D8B426EF96F028EF96F02AEF96F0F0
:102C50000EEF96F016C50FF517C510F5A8EC90F01D
:102C60000009D8A436EF96F038EF96F02AEF96F0E8
:102C7000D00E186ECA0EE82EFED7182EFCD71A50AA
:102C80001200366E010E2E6E3650A4EC9BF0D50E5F
:102C9000146EFD0E156EA4EC94F030C50BF531C525
:102CA0000CF548EC9BF04C6E020E2E6E4C50A4ECD2
:102CB0009BF0FC0E146EFF0E156EA4EC94F032C562
:102CC0000BF533C50CF548EC9BF04C6E020E2E6EE6
:102CD0004C50A4EC9BF0F30E146EFF0E156EA4EC9A
:102CE00094F034C50BF535C50CF548EC9BF04C6EF3
:102CF000010E2E6E4C50A4EC9BF01200EA0E026EF8
:102D0000600E016EB1EF96F097A989EF96F08BEF08
:102D100096F08EEF96F0010EBAEF96F097AD93EF26
:102D200096F095EF96F098EF96F0030EBAEF96F0C6
:102D300097AB9DEF96F09FEF96F0A2EF96F0020E04
:102D4000BAEF96F001500210D8A4A9EF96F0ABEFBD
:102D500096F0AEEF96F0040EBAEF96F00106D8A00A
:102D60000206020199A1B7EF96F0B9EF96F084EF51
:102D700096F0000E1200EA0E026E600E016EEEEF8B
:102D800096F097A9C6EF96F0C8EF96F0CBEF96F0C5
:102D9000010EF7EF96F097ADD0EF96F0D2EF96F0E8
:102DA000D5EF96F0030EF7EF96F097ABDAEF96F0CB
:102DB000DCEF96F0DFEF96F0020EF7EF96F00150A1
:102DC0000210D8A4E6EF96F0E8EF96F0EBEF96F05D
:102DD000040EF7EF96F00106D8A00206020199ABA7
:102DE000F4EF96F0F6EF96F0C1EF96F0000E1200B9
:102DF00001C5D9F402C5DAF4DE50035CD8A003EFB4
:102E000097F005EF97F007EF97F031EF97F0035049
:102E10000124076E000E0220086E010E0724D96EF1
:102E2000000E0820DA6E04C5DFF403500124076E9B
:102E3000000E0220086E1F0E0724D96E000E082017
:102E4000DA6E05C5DFF403500124076E000E022080
:102E5000086E3D0E0724D96E000E0820DA6E06C5F6
:102E6000DFF41200066A000E056E03500410D8B499
:102E70003CEF97F03EEF97F066EF97F0010E076E8C
:102E800046EF97F0D89003360436072A04AE4BEF8E
:102E900097F04DEF97F042EF97F0D8900536063651
:102EA0000350015C04500258D8A059EF97F05BEF33
:102EB00097F060EF97F00350015E0450025A0580CE
:102EC000D89004320332072E4DEF97F005C501F577
:102ED00006C502F512000E6E400E0E6072EF97F0FE
:102EE00074EF97F085EF97F00B500C10D8B47BEF90
:102EF00097F07DEF97F085EF97F00D50D8A483EF12
:102F000097F085EF97F088EF97F0050EA2EF97F016
:102F10000EC509F5680E11EC9DF00F6E0F50D8B478
:102F200094EF97F096EF97F099EF97F00F50A2EF8C
:102F300097F00BC503F50CC504F50DC505F5680E36
:102F400056EC8FF01200000E096E000E0A6E000E95
:102F50000B6E000E0C6E01A0B0EF97F0B2EF97F081
:102F6000BAEF97F00550092606500A2207500B22A7
:102F700008500C22D8900536063607360836D89009
:102F800004320332023201320150021003100410E5
:102F9000D8A4CDEF97F0CFEF97F0ABEF97F009C53E
:102FA00001F50AC502F50BC503F50CC504F51200C1
:102FB00014501510D8A4DFEF97F0E1EF97F0E3EF8E
:102FC00097F00BEF98F01A6A02EF98F01A50142459
:102FD000176E000E1520186E17C5F6F418C5F7F415
:102FE000000EF86E0800F55098EC9CF0196E195020
:102FF000D8B4FDEF97F0FFEF97F001EF98F00BEFEB
:1030000098F01A2A16501A5CD8A009EF98F00BEF26
:1030100098F0E6EF97F0120056EC9DF0000E156E5A
:10302000010E6EEC99F00D0E146EFE0E156EA4ECF2
:1030300094F0000E156E020E6EEC99F018C514F5A2
:1030400019C515F5A4EC94F0000E106E060E116E65
:10305000C80E126E000E136E000E146EADEC9CF0D6
:10306000290E1B6E960E1A6E7F0EE82EFED71A2EB4
:10307000FCD71B2EFAD7000030EF98F0120007C5DE
:1030800001F508C502F528EC9BF020EE02F0075090
:10309000D9260850DA22DEC40AF5DDC40BF50AC5CC
:1030A000D9F40BC5DAF410EE02F00750E12608500F
:1030B000E222E6C40CF5E5C40DF50CC5E1F40DC53E
:1030C000E2F4E7500E6EB30E0924F66EF76AFC0EBA
:1030D000F722F86A000EF8220800F550FF0A0E14D5
:1030E000DF6E1200EA0E026E600E016E9BEF98F02A
:1030F00097AD7DEF98F07FEF98F082EF98F0030E98
:10310000A4EF98F097AB87EF98F089EF98F08CEFE9
:1031100098F0020EA4EF98F001500210D8A493EF9B
:1031200098F095EF98F098EF98F0040EA4EF98F0CF
:103130000106D8A0020602019AA5A1EF98F0A3EF1C
:1031400098F078EF98F0000E1200146E000E096EE1
:10315000145099EC99F0136E1350D8B4B2EF98F064
:10316000B4EF98F0B7EF98F01350D7EF98F014043D
:10317000D8B4BDEF98F0BFEF98F0C8EF98F0020E0A
:103180001418D8A4C6EF98F0C8EF98F0D2EF98F0D2
:10319000150E126EC60EE82EFED7122EFCD700D0EA
:1031A000D6EF98F0850EE82EFED70000000E120034
:1031B000EA0E026E600E016E01EF99F097ADE3EF3B
:1031C00098F0E5EF98F0E8EF98F0030E0AEF99F029
:1031D00097ABEDEF98F0EFEF98F0F2EF98F0020E6A
:1031E0000AEF99F001500210D8A4F9EF98F0FBEF24
:1031F00098F0FEEF98F0040E0AEF99F00106D8A0BF
:103200000206020198AF07EF99F009EF99F0DEEF9F
:1032100098F0000E120003500410D8B412EF99F089
:1032200014EF99F038EF99F0010E056E1CEF99F04C
:10323000D89003360436052A04AE21EF99F023EF27
:1032400099F018EF99F00350015C04500258D8A08F
:103250002CEF99F02EEF99F032EF99F00350015EC8
:103260000450025AD89004320332052E23EF99F00D
:1032700001C501F502C502F51200336E56EC9DF052
:10328000000E156E010E6EEC99F0CC0E146EFF0E52
:10329000156EA4EC94F033C517F5186AB0EC8AF0FB
:1032A000000E156E020E6EEC99F0C40E146EFF0E39
:1032B000156EA4EC94F02FC517F530C518F5B0ECD9
:1032C0008AF0290E326E960E316E7F0EE82EFED7F2
:1032D000312EFCD7322EFAD700001200166E80EF86
:1032E00099F0176A93EF99F0400E176E93EF99F0EB
:1032F000140E176E93EF99F0540E176E93EF99F02A
:103300001650010AD8B471EF99F0030AD8B474EFDB
:1033100099F0010AD8B478EF99F0070AD8B47CEF95
:1033200099F098EF99F0175015248009A5EC98F0C2
:1033300012000E6E58C511F50950D8B4A2EF99F0DD
:10334000A4EF99F0A5EF99F011800E50F00B0F6EDD
:103350000E38F00BF00B106E0F50111004090A6EAE
:103360000F5011100B6E1050111004090C6E1050FC
:1033700011100D6E0A0E036E050E046E040E056E1E
:103380005950DBEC8EF01200040E0C5CD8A0CBEF91
:1033900099F0CDEF99F0CFEF99F0ECEF99F00BC5E4
:1033A00001F50CC502F512EC9CF00DC546F00001CC
:1033B0004151F80B0309416FD69E550E426FAA0E7C
:1033C000426F408140B1E7EF99F0E9EF99F0E2EF09
:1033D00099F0D68EF80E411712000201949FC09604
:1033E000C098040110971099C896C898128712893E
:1033F00086EC9BF0CF0E02018717CF0E8617875100
:10340000FC0B0109876F8651FC0B0109866F040EC6
:10341000946F956B966B030E9C6F9D6B9B6B5AEC38
:103420009DF00201948F4F6A1200BC0EF66E3A0EA8
:10343000F76E010EF86E01EE57F110EE04F0090080
:10344000F5C4EEF4E550E150FAE101EE00F25B0E56
:10345000EE6AE806FDE101EE60F1550EEE6AE8065F
:10346000FDE101EE44F1130EEE6AE806FDE1000114
:103470004BEF9DF001C5D9F402C5DAF4DEC403F5C3
:10348000DDC404F503C5D9F404C5DAF4DF50056ED4
:1034900020EE06F00150D9260250DA22DF50FF0A52
:1034A000051401C5D9F402C5DAF4DEC406F5DDC49D
:1034B00007F506C5D9F407C5DAF4DF6E120020EE71
:1034C00006F00150D9260250DA22DF50036E01C502
:1034D000D9F402C5DAF4DEC404F5DDC405F504C58B
:1034E000D9F405C5DAF4DF50031001C5D9F402C5DB
:1034F000DAF4DEC406F5DDC407F506C5D9F407C560
:10350000DAF4DF6E1200266E000EA5EC9AF023C5E9
:1035100015F526506EEC99F0276A000E98EC9CF099
:103520000D0E256E2D0E246ED80EE82EFED7242EFD
:10353000FCD7252EFAD7272A030E2764A2EF9AF08C
:10354000A4EF9AF08DEF9AF01200226E9F0EF66EA5
:10355000FC0EF76E000EF86E21EE1AF1070E090050
:10356000F5C4DEF4E806FBE2070E2264BAEF9AF037
:10357000BCEF9AF0BEEF9AF0C6EF9AF01A0E156EF5
:10358000050E166E22C517F55CEC94F01200016E64
:103590000150D8B4CEEF9AF0D0EF9AF0DDEF9AF068
:1035A000C0800000000000000000000000000000DB
:1035B000C09000000000E7EF9AF0C080000000001B
:1035C000C090000000000000000000000000120099
:1035D000026E800E036E025003140009D8B4F3EF9C
:1035E0009AF0F5EF9AF0FAEF9AF0010EC7EC9AF024
:1035F000FDEF9AF0000EC7EC9AF0D890033203501A
:10360000D8A405EF9BF007EF9BF0EBEF9AF01200C8
:103610000F6A1AEF9BF009C501F50AC502F50FC53F
:1036200003F50BC504F50CC505F50DC506F5F8EC5D
:1036300096F00F2A09C5D9F40AC5DAF4DE500F5CFA
:10364000D8A025EF9BF027EF9BF00BEF9BF012002B
:1036500020EE02F00150D9260250DA22DEC403F532
:10366000DDC404F503C5D9F404C5DAF410EE02F0A4
:103670000150E1260250E222E6C405F5E5C406F554
:1036800005C5E1F406C5E2F4E7500F09DF6E12004C
:10369000040E0C5CD8A04FEF9BF051EF9BF054EF61
:1036A0009BF0FF0E66EF9BF00BC501F50CC502F514
:1036B00012EC9CF0F80E00014117408140B163EF1D
:1036C0009BF065EF9BF05EEF9BF0465112000A6E97
:1036D0000A50F00B0D6E58500D120950D8B473EF0C
:1036E0009BF075EF9BF076EF9BF00D800D50040979
:1036F0000B6E0D50FB0B0C6E0B0E036E050E046E65
:10370000020E056E5950DBEC8EF01200000ED6BE94
:10371000010E016ED69E550E0201006FAA0E006FBB
:103720000091370E146F380E156F130E716F140E53
:10373000706F550E006FAA0E006F008101B002D0AD
:10374000D69E01D0D68E12002F6E2E50D8B4ABEF7D
:103750009BF0ADEF9BF0C0EF9BF0030E2E64B3EF38
:103760009BF0B5EF9BF0B7EF9BF0C0EF9BF02FC540
:1037700023F5246A2EC525F5000E266E7AEC88F016
:103780001200036E03380F0B0F0B016E03500F0B6B
:10379000026E0A0E0160CFEF9BF0D1EF9BF0D9EFE4
:1037A0009BF0090E0264D7EF9BF0D9EF9BF0DCEFA2
:1037B0009BF0000EDDEF9BF0010E12006C0E076E09
:1037C000050E086ED10E096E040E0A6EC10E0B6E48
:1037D000040E0C6EC90E0D6E040E0E6E180E0F6EDA
:1037E000040E106E190E116E040E126E57EC8BF053
:1037F00012000EC50BF50FC50CF548EC9BF0116ED1
:1038000010501118D8B407EF9CF009EF9CF011EF9D
:103810009CF00EC50BF50FC50CF510C50DF5C4ECED
:1038200099F012000150036E0250046E056A066A98
:10383000000E0324076E000E0420086E380E0520CB
:10384000096E000E06200A6E09C545F008C544F051
:1038500007C543F0120036EF9CF000D000D000D036
:1038600000D00106000E025A035A045A01500210F9
:1038700003100410D8A43FEF9CF041EF9CF02DEF13
:103880009CF0120035C51AF536C51BF5090E1D6EE4
:10389000C40E1C6E1F6A140E1E6E320E206E92EC49
:1038A00087F035C508F536C509F536EC9DF01200F0
:1038B00010501110D8A45FEF9CF061EF9CF064EF02
:1038C0009CF0050E6DEF9CF010C50BF511C50CF5C5
:1038D000070E0D6E000E6BEC97F01200960E016E47
:1038E000050E026ED30E036E040E046ECB0E056E33
:1038F000040E066E280E076E040E086E100E096E7A
:10390000CAEC8FF01200500E086E050E096EC00E44
:103910000A6E040E0B6EC80E0C6E040E0D6E100EA9
:103920000E6E040E0F6E020E106E60EC8EF0120022
:10393000126E010E096E125099EC99F0136E13502D
:10394000D8A4A5EF9CF0A7EF9CF0ABEF9CF0850E00
:10395000E82EFED700001350120010C509F511C55E
:103960000AF512C50BF513C50CF514C50DF508ECD9
:103970009BF010C504F511C505F514EC94F0120088
:1039800010C509F511C50AF5000E0B6E000E0C6E80
:10399000000E0D6E08EC9BF010C504F511C505F581
:1039A00014EC94F01200016E7F0E0164DAEF9CF0CB
:1039B000DCEF9CF0DFEF9CF0050EE2EF9CF001C520
:1039C00059F5000E1200600E0001AD6F060EB16FCA
:1039D000400EB36FFAEC8BF0C9EC8DF01200026E62
:1039E00002C501F50F0E011602380F0B0F0B0A0D61
:1039F000F350012412002EC523F52FC524F530C540
:103A000025F531C526F57AEC88F01200EDEC99F039
:103A1000270ED3EC9CF04D6E50EC89F056EC9DF0E7
:103A200012000A6E090E036E050E046E010E056E7D
:103A30000A50DBEC8EF012004E0E146EFD0E156E69
:103A4000140E166ED8EC97F01200000E016E060EE2
:103A5000026E020E036E82EC92F012000301F86B0C
:103A60001F0EFA6F840EF36F5A68120008C501F535
:103A700009C502F53AEC9AF012000B6E0BC509F578
:103A8000595011EC9DF012000201949F5AEC9DF0E8
:103A90000201948F1200E3EC9CF04DEF9DF0FEEFDD
:103AA000FFF057500809A5EC98F01200010EA5ECA4
:103AB00098F0120002019A6B976B1200040827FF1E
:04FFFC0015EF9AF073
:020000040030CA
:08000000FCFF3DDF9FFFFFFF45
:01000900FFF7
:00000001FF
