:04000000FEEFFFF020
:1026000000000AEC14F001EC14F012EC14F054EC9D
:1026100013F03D0E0A6EE10E096E400EE82EFED755
:10262000092EFCD70A2EFAD7000E056E000E066E94
:10263000140EE3EC13F054EC13F03D0E0A6EE10EB1
:10264000096E400EE82EFED7092EFCD70A2EFAD7C7
:10265000140E056E000E066E000EE3EC13F054EC43
:1026600013F03D0E0A6EE10E096E400EE82EFED705
:10267000092EFCD70A2EFAD7000E056E140E066E30
:10268000000EE3EC13F054EC13F03D0E0A6EE10E75
:10269000096E400EE82EFED7092EFCD70A2EFAD777
:1026A00005EF13F0FEEFFFF0D69E046A0E0E042431
:1026B000D96EDA6A050EDA22DF50A5EC13F0110E9E
:1026C0000424D96EDA6A050EDA22DF50A5EC13F085
:1026D0000B0E0424D96EDA6A050EDA22DF50A5EC5F
:1026E00013F0042A020E046478EF13F07AEF13F06B
:1026F00056EF13F0D68EC190C00E00D0E82EFDD755
:102700001200046E020E046488EF13F08AEF13F0D7
:102710008CEF13F0A4EF13F0110E0424D96EDA6AD3
:10272000050EDA2201C5DFF40E0E0424D96EDA6A32
:10273000050EDA2202C5DFF40B0E0424D96EDA6A24
:10274000050EDA2203C5DFF41200026E800E036E5E
:10275000025003140009D8B4B0EF13F0B2EF13F035
:10276000B7EF13F0010EC5EC13F0BAEF13F0000E43
:10277000C5EC13F0D89003320350D8A4C2EF13F085
:10278000C4EF13F0A8EF13F01200016E0150D8B49B
:10279000CCEF13F0CEEF13F0D9EF13F0C1800000AF
:1027A0000000000000000000C19000000000E2EF07
:1027B00013F0C18000000000C19000000000000084
:1027C000000000001200076E086A07C501F505C584
:1027D00002F506C503F5085081EC13F0082A020E35
:1027E0000864F5EF13F0F7EF13F0E5EF13F01200C4
:1027F00001EE0BF1090EEE6AE806FDE1000101EFC2
:1028000013F004011891C990C19012EC14F054EC2B
:1028100013F01200600E0001AD6F070EB16F400E95
:10282000B36F1200000E056E000E066E000EE3EC94
:0428300013F012008F
:020000040001F9
:04FFFC00F8EF13F017
:020000040030CA
:08000000FCFF3DDF9FFFFFFF45
:01000900FFF7
:00000001FF
